{"@chainlink/contracts/src/v0.8/mocks/VRFCoordinatorV2Mock.sol":{"VRFCoordinatorV2Mock":{"abi":[{"inputs":[{"internalType":"uint96","name":"_baseFee","type":"uint96"},{"internalType":"uint96","name":"_gasPriceLink","type":"uint96"}],"stateMutability":"nonpayable","type":"constructor"},{"inputs":[],"name":"InsufficientBalance","type":"error"},{"inputs":[],"name":"InvalidSubscription","type":"error"},{"inputs":[{"internalType":"address","name":"owner","type":"address"}],"name":"MustBeSubOwner","type":"error"},{"anonymous":false,"inputs":[{"indexed":true,"internalType":"uint256","name":"requestId","type":"uint256"},{"indexed":false,"internalType":"uint256","name":"outputSeed","type":"uint256"},{"indexed":false,"internalType":"uint96","name":"payment","type":"uint96"},{"indexed":false,"internalType":"bool","name":"success","type":"bool"}],"name":"RandomWordsFulfilled","type":"event"},{"anonymous":false,"inputs":[{"indexed":true,"internalType":"bytes32","name":"keyHash","type":"bytes32"},{"indexed":false,"internalType":"uint256","name":"requestId","type":"uint256"},{"indexed":false,"internalType":"uint256","name":"preSeed","type":"uint256"},{"indexed":true,"internalType":"uint64","name":"subId","type":"uint64"},{"indexed":false,"internalType":"uint16","name":"minimumRequestConfirmations","type":"uint16"},{"indexed":false,"internalType":"uint32","name":"callbackGasLimit","type":"uint32"},{"indexed":false,"internalType":"uint32","name":"numWords","type":"uint32"},{"indexed":true,"internalType":"address","name":"sender","type":"address"}],"name":"RandomWordsRequested","type":"event"},{"anonymous":false,"inputs":[{"indexed":true,"internalType":"uint64","name":"subId","type":"uint64"},{"indexed":false,"internalType":"address","name":"to","type":"address"},{"indexed":false,"internalType":"uint256","name":"amount","type":"uint256"}],"name":"SubscriptionCanceled","type":"event"},{"anonymous":false,"inputs":[{"indexed":true,"internalType":"uint64","name":"subId","type":"uint64"},{"indexed":false,"internalType":"address","name":"owner","type":"address"}],"name":"SubscriptionCreated","type":"event"},{"anonymous":false,"inputs":[{"indexed":true,"internalType":"uint64","name":"subId","type":"uint64"},{"indexed":false,"internalType":"uint256","name":"oldBalance","type":"uint256"},{"indexed":false,"internalType":"uint256","name":"newBalance","type":"uint256"}],"name":"SubscriptionFunded","type":"event"},{"inputs":[],"name":"BASE_FEE","outputs":[{"internalType":"uint96","name":"","type":"uint96"}],"stateMutability":"view","type":"function"},{"inputs":[],"name":"GAS_PRICE_LINK","outputs":[{"internalType":"uint96","name":"","type":"uint96"}],"stateMutability":"view","type":"function"},{"inputs":[{"internalType":"uint64","name":"_subId","type":"uint64"}],"name":"acceptSubscriptionOwnerTransfer","outputs":[],"stateMutability":"pure","type":"function"},{"inputs":[{"internalType":"uint64","name":"_subId","type":"uint64"},{"internalType":"address","name":"_consumer","type":"address"}],"name":"addConsumer","outputs":[],"stateMutability":"pure","type":"function"},{"inputs":[{"internalType":"uint64","name":"_subId","type":"uint64"},{"internalType":"address","name":"_to","type":"address"}],"name":"cancelSubscription","outputs":[],"stateMutability":"nonpayable","type":"function"},{"inputs":[],"name":"createSubscription","outputs":[{"internalType":"uint64","name":"_subId","type":"uint64"}],"stateMutability":"nonpayable","type":"function"},{"inputs":[{"internalType":"uint256","name":"_requestId","type":"uint256"},{"internalType":"address","name":"_consumer","type":"address"}],"name":"fulfillRandomWords","outputs":[],"stateMutability":"nonpayable","type":"function"},{"inputs":[{"internalType":"uint64","name":"_subId","type":"uint64"},{"internalType":"uint96","name":"_amount","type":"uint96"}],"name":"fundSubscription","outputs":[],"stateMutability":"nonpayable","type":"function"},{"inputs":[],"name":"getRequestConfig","outputs":[{"internalType":"uint16","name":"","type":"uint16"},{"internalType":"uint32","name":"","type":"uint32"},{"internalType":"bytes32[]","name":"","type":"bytes32[]"}],"stateMutability":"pure","type":"function"},{"inputs":[{"internalType":"uint64","name":"_subId","type":"uint64"}],"name":"getSubscription","outputs":[{"internalType":"uint96","name":"balance","type":"uint96"},{"internalType":"uint64","name":"reqCount","type":"uint64"},{"internalType":"address","name":"owner","type":"address"},{"internalType":"address[]","name":"consumers","type":"address[]"}],"stateMutability":"view","type":"function"},{"inputs":[{"internalType":"uint64","name":"_subId","type":"uint64"},{"internalType":"address","name":"_consumer","type":"address"}],"name":"removeConsumer","outputs":[],"stateMutability":"pure","type":"function"},{"inputs":[{"internalType":"bytes32","name":"_keyHash","type":"bytes32"},{"internalType":"uint64","name":"_subId","type":"uint64"},{"internalType":"uint16","name":"_minimumRequestConfirmations","type":"uint16"},{"internalType":"uint32","name":"_callbackGasLimit","type":"uint32"},{"internalType":"uint32","name":"_numWords","type":"uint32"}],"name":"requestRandomWords","outputs":[{"internalType":"uint256","name":"","type":"uint256"}],"stateMutability":"nonpayable","type":"function"},{"inputs":[{"internalType":"uint64","name":"_subId","type":"uint64"},{"internalType":"address","name":"_newOwner","type":"address"}],"name":"requestSubscriptionOwnerTransfer","outputs":[],"stateMutability":"pure","type":"function"}],"devdoc":{"kind":"dev","methods":{"createSubscription()":{"details":"You can manage the consumer set dynamically with addConsumer/removeConsumer.Note to fund the subscription, use transferAndCall. For exampleLINKTOKEN.transferAndCall(address(COORDINATOR),amount,abi.encode(subId));","returns":{"_subId":"- A unique subscription id."}},"fulfillRandomWords(uint256,address)":{"details":"This mock uses a simplified formula for calculating payment amount and gas usage, and doesnot account for all edge cases handled in the real VRF coordinator. When making requestsagainst the real coordinator a small amount of additional LINK is required.","params":{"_consumer":"the VRF randomness consumer to send the result to","_requestId":"the request to fulfill"}},"fundSubscription(uint64,uint96)":{"params":{"_amount":"the amount to fund","_subId":"the subscription to fund"}},"getRequestConfig()":{"returns":{"_0":"minimumRequestConfirmations global min for request confirmations","_1":"maxGasLimit global max for request gas limit","_2":"s_provingKeyHashes list of registered key hashes"}}},"version":1},"evm":{"bytecode":{"linkReferences":{},"object":"60c06040526001805560646002553480156200001a57600080fd5b5060405162001ffd38038062001ffd8339818101604052810190620000409190620000de565b816bffffffffffffffffffffffff166080816bffffffffffffffffffffffff1681525050806bffffffffffffffffffffffff1660a0816bffffffffffffffffffffffff1681525050505062000125565b600080fd5b60006bffffffffffffffffffffffff82169050919050565b620000b88162000095565b8114620000c457600080fd5b50565b600081519050620000d881620000ad565b92915050565b60008060408385031215620000f857620000f762000090565b5b60006200010885828601620000c7565b92505060206200011b85828601620000c7565b9150509250929050565b60805160a051611ea4620001596000396000818161086a0152610cda01526000818161031101526108af0152611ea46000f3fe608060405234801561001057600080fd5b50600436106100ce5760003560e01c8063823597401161008c578063a410347f11610066578063a410347f146101eb578063a47c769614610209578063afc69b531461023c578063d7ae1d3014610258576100ce565b806382359740146101955780639f87fad7146101b1578063a21a23e4146101cd576100ce565b8062012291146100d357806304c357cb146100f35780633d18651e1461010f5780635d3b1d301461012d5780637341c10c1461015d578063808974ff14610179575b600080fd5b6100db610274565b6040516100ea9392919061138c565b60405180910390f35b61010d6004803603810190610108919061146d565b6102d4565b005b61011761030f565b60405161012491906114d4565b60405180910390f35b61014760048036038101906101429190611573565b610333565b6040516101549190611607565b60405180910390f35b6101776004803603810190610172919061146d565b61054e565b005b610193600480360381019061018e919061164e565b610589565b005b6101af60048036038101906101aa919061168e565b610aad565b005b6101cb60048036038101906101c6919061146d565b610ae8565b005b6101d5610b23565b6040516101e291906116ca565b60405180910390f35b6101f3610cd8565b60405161020091906114d4565b60405180910390f35b610223600480360381019061021e919061168e565b610cfc565b60405161023394939291906117b2565b60405180910390f35b6102566004803603810190610251919061182a565b610e9c565b005b610272600480360381019061026d919061146d565b611066565b005b60008060606003621e8480600067ffffffffffffffff81111561029a5761029961186a565b5b6040519080825280602002602001820160405280156102c85781602001602082028036833780820191505090505b50925092509250909192565b6040517f08c379a0000000000000000000000000000000000000000000000000000000008152600401610306906118f6565b60405180910390fd5b7f000000000000000000000000000000000000000000000000000000000000000081565b60008073ffffffffffffffffffffffffffffffffffffffff16600360008767ffffffffffffffff1667ffffffffffffffff16815260200190815260200160002060000160009054906101000a900473ffffffffffffffffffffffffffffffffffffffff1673ffffffffffffffffffffffffffffffffffffffff16036103e4576040517f1f6a65b600000000000000000000000000000000000000000000000000000000815260040160405180910390fd5b6000600160008154809291906103f990611945565b91905055905060006002600081548092919061041490611945565b91905055905060405180606001604052808867ffffffffffffffff1681526020018663ffffffff1681526020018563ffffffff168152506004600084815260200190815260200160002060008201518160000160006101000a81548167ffffffffffffffff021916908367ffffffffffffffff16021790555060208201518160000160086101000a81548163ffffffff021916908363ffffffff160217905550604082015181600001600c6101000a81548163ffffffff021916908363ffffffff1602179055509050503373ffffffffffffffffffffffffffffffffffffffff168767ffffffffffffffff16897f63373d1c4696214b898952999c9aaec57dac1ee2723cec59bea6888f489a977285858b8b8b60405161053895949392919061198d565b60405180910390a4819250505095945050505050565b6040517f08c379a0000000000000000000000000000000000000000000000000000000008152600401610580906118f6565b60405180910390fd5b60005a905060006004600085815260200190815260200160002060000160009054906101000a900467ffffffffffffffff1667ffffffffffffffff1603610605576040517f08c379a00000000000000000000000000000000000000000000000000000000081526004016105fc90611a2c565b60405180910390fd5b6000600460008581526020019081526020016000206040518060600160405290816000820160009054906101000a900467ffffffffffffffff1667ffffffffffffffff1667ffffffffffffffff1681526020016000820160089054906101000a900463ffffffff1663ffffffff1663ffffffff16815260200160008201600c9054906101000a900463ffffffff1663ffffffff1663ffffffff168152505090506000816040015163ffffffff1667ffffffffffffffff8111156106cb576106ca61186a565b5b6040519080825280602002602001820160405280156106f95781602001602082028036833780820191505090505b50905060005b826040015163ffffffff1681101561076f578581604051602001610724929190611a4c565b6040516020818303038152906040528051906020012060001c8282815181106107505761074f611a75565b5b602002602001018181525050808061076790611945565b9150506106ff565b50600080631fe543e360e01b878460405160240161078e929190611b62565b604051602081830303815290604052907bffffffffffffffffffffffffffffffffffffffffffffffffffffffff19166020820180517bffffffffffffffffffffffffffffffffffffffffffffffffffffffff8381831617835250505050905060008673ffffffffffffffffffffffffffffffffffffffff16856020015163ffffffff168360405161081f9190611c03565b60006040518083038160008787f1925050503d806000811461085d576040519150601f19603f3d011682016040523d82523d6000602084013e610862565b606091505b5050905060007f00000000000000000000000000000000000000000000000000000000000000006bffffffffffffffffffffffff165a886108a39190611c1a565b6108ad9190611c4e565b7f00000000000000000000000000000000000000000000000000000000000000006bffffffffffffffffffffffff166108e69190611c90565b9050806bffffffffffffffffffffffff1660036000886000015167ffffffffffffffff1667ffffffffffffffff16815260200190815260200160002060000160149054906101000a90046bffffffffffffffffffffffff166bffffffffffffffffffffffff161015610984576040517ff4d678b800000000000000000000000000000000000000000000000000000000815260040160405180910390fd5b8060036000886000015167ffffffffffffffff1667ffffffffffffffff16815260200190815260200160002060000160148282829054906101000a90046bffffffffffffffffffffffff166109d99190611cc4565b92506101000a8154816bffffffffffffffffffffffff02191690836bffffffffffffffffffffffff160217905550600460008a8152602001908152602001600020600080820160006101000a81549067ffffffffffffffff02191690556000820160086101000a81549063ffffffff021916905560008201600c6101000a81549063ffffffff02191690555050887f7dffc5ae5ee4e2e4df1651cf6ad329a73cebdb728f37ea0187b9b17e036756e48a8385604051610a9a93929190611d1f565b60405180910390a2505050505050505050565b6040517f08c379a0000000000000000000000000000000000000000000000000000000008152600401610adf906118f6565b60405180910390fd5b6040517f08c379a0000000000000000000000000000000000000000000000000000000008152600401610b1a906118f6565b60405180910390fd5b600080600081819054906101000a900467ffffffffffffffff1680929190610b4a90611d56565b91906101000a81548167ffffffffffffffff021916908367ffffffffffffffff1602179055505060405180604001604052803373ffffffffffffffffffffffffffffffffffffffff16815260200160006bffffffffffffffffffffffff16815250600360008060009054906101000a900467ffffffffffffffff1667ffffffffffffffff1667ffffffffffffffff16815260200190815260200160002060008201518160000160006101000a81548173ffffffffffffffffffffffffffffffffffffffff021916908373ffffffffffffffffffffffffffffffffffffffff16021790555060208201518160000160146101000a8154816bffffffffffffffffffffffff02191690836bffffffffffffffffffffffff16021790555090505060008054906101000a900467ffffffffffffffff1667ffffffffffffffff167f464722b4166576d3dcbba877b999bc35cf911f4eaf434b7eba68fa113951d0bf33604051610cb69190611d86565b60405180910390a260008054906101000a900467ffffffffffffffff16905090565b7f000000000000000000000000000000000000000000000000000000000000000081565b60008060006060600073ffffffffffffffffffffffffffffffffffffffff16600360008767ffffffffffffffff1667ffffffffffffffff16815260200190815260200160002060000160009054906101000a900473ffffffffffffffffffffffffffffffffffffffff1673ffffffffffffffffffffffffffffffffffffffff1603610db3576040517f1f6a65b600000000000000000000000000000000000000000000000000000000815260040160405180910390fd5b600360008667ffffffffffffffff1667ffffffffffffffff16815260200190815260200160002060000160149054906101000a90046bffffffffffffffffffffffff166000600360008867ffffffffffffffff1667ffffffffffffffff16815260200190815260200160002060000160009054906101000a900473ffffffffffffffffffffffffffffffffffffffff16600067ffffffffffffffff811115610e5e57610e5d61186a565b5b604051908082528060200260200182016040528015610e8c5781602001602082028036833780820191505090505b5093509350935093509193509193565b600073ffffffffffffffffffffffffffffffffffffffff16600360008467ffffffffffffffff1667ffffffffffffffff16815260200190815260200160002060000160009054906101000a900473ffffffffffffffffffffffffffffffffffffffff1673ffffffffffffffffffffffffffffffffffffffff1603610f4c576040517f1f6a65b600000000000000000000000000000000000000000000000000000000815260040160405180910390fd5b6000600360008467ffffffffffffffff1667ffffffffffffffff16815260200190815260200160002060000160149054906101000a90046bffffffffffffffffffffffff16905081600360008567ffffffffffffffff1667ffffffffffffffff16815260200190815260200160002060000160148282829054906101000a90046bffffffffffffffffffffffff16610fe49190611da1565b92506101000a8154816bffffffffffffffffffffffff02191690836bffffffffffffffffffffffff1602179055508267ffffffffffffffff167fd39ec07f4e209f627a4c427971473820dc129761ba28de8906bd56f57101d4f882848461104b9190611da1565b604051611059929190611e1c565b60405180910390a2505050565b816000600360008367ffffffffffffffff1667ffffffffffffffff16815260200190815260200160002060000160009054906101000a900473ffffffffffffffffffffffffffffffffffffffff169050600073ffffffffffffffffffffffffffffffffffffffff168173ffffffffffffffffffffffffffffffffffffffff160361111c576040517f1f6a65b600000000000000000000000000000000000000000000000000000000815260040160405180910390fd5b8073ffffffffffffffffffffffffffffffffffffffff163373ffffffffffffffffffffffffffffffffffffffff161461118c57806040517fd8a3fb520000000000000000000000000000000000000000000000000000000081526004016111839190611d86565b60405180910390fd5b8367ffffffffffffffff167fe8ed5b475a5b5987aa9165e8731bb78043f39eee32ec5a1169a89e27fcd4981584600360008867ffffffffffffffff1667ffffffffffffffff16815260200190815260200160002060000160149054906101000a90046bffffffffffffffffffffffff1660405161120a929190611e45565b60405180910390a2600360008567ffffffffffffffff1667ffffffffffffffff168152602001908152602001600020600080820160006101000a81549073ffffffffffffffffffffffffffffffffffffffff02191690556000820160146101000a8154906bffffffffffffffffffffffff0219169055505050505050565b600061ffff82169050919050565b61129f81611288565b82525050565b600063ffffffff82169050919050565b6112be816112a5565b82525050565b600081519050919050565b600082825260208201905092915050565b6000819050602082019050919050565b6000819050919050565b611303816112f0565b82525050565b600061131583836112fa565b60208301905092915050565b6000602082019050919050565b6000611339826112c4565b61134381856112cf565b935061134e836112e0565b8060005b8381101561137f5781516113668882611309565b975061137183611321565b925050600181019050611352565b5085935050505092915050565b60006060820190506113a16000830186611296565b6113ae60208301856112b5565b81810360408301526113c0818461132e565b9050949350505050565b600080fd5b600067ffffffffffffffff82169050919050565b6113ec816113cf565b81146113f757600080fd5b50565b600081359050611409816113e3565b92915050565b600073ffffffffffffffffffffffffffffffffffffffff82169050919050565b600061143a8261140f565b9050919050565b61144a8161142f565b811461145557600080fd5b50565b60008135905061146781611441565b92915050565b60008060408385031215611484576114836113ca565b5b6000611492858286016113fa565b92505060206114a385828601611458565b9150509250929050565b60006bffffffffffffffffffffffff82169050919050565b6114ce816114ad565b82525050565b60006020820190506114e960008301846114c5565b92915050565b6114f8816112f0565b811461150357600080fd5b50565b600081359050611515816114ef565b92915050565b61152481611288565b811461152f57600080fd5b50565b6000813590506115418161151b565b92915050565b611550816112a5565b811461155b57600080fd5b50565b60008135905061156d81611547565b92915050565b600080600080600060a0868803121561158f5761158e6113ca565b5b600061159d88828901611506565b95505060206115ae888289016113fa565b94505060406115bf88828901611532565b93505060606115d08882890161155e565b92505060806115e18882890161155e565b9150509295509295909350565b6000819050919050565b611601816115ee565b82525050565b600060208201905061161c60008301846115f8565b92915050565b61162b816115ee565b811461163657600080fd5b50565b60008135905061164881611622565b92915050565b60008060408385031215611665576116646113ca565b5b600061167385828601611639565b925050602061168485828601611458565b9150509250929050565b6000602082840312156116a4576116a36113ca565b5b60006116b2848285016113fa565b91505092915050565b6116c4816113cf565b82525050565b60006020820190506116df60008301846116bb565b92915050565b6116ee8161142f565b82525050565b600081519050919050565b600082825260208201905092915050565b6000819050602082019050919050565b6117298161142f565b82525050565b600061173b8383611720565b60208301905092915050565b6000602082019050919050565b600061175f826116f4565b61176981856116ff565b935061177483611710565b8060005b838110156117a557815161178c888261172f565b975061179783611747565b925050600181019050611778565b5085935050505092915050565b60006080820190506117c760008301876114c5565b6117d460208301866116bb565b6117e160408301856116e5565b81810360608301526117f38184611754565b905095945050505050565b611807816114ad565b811461181257600080fd5b50565b600081359050611824816117fe565b92915050565b60008060408385031215611841576118406113ca565b5b600061184f858286016113fa565b925050602061186085828601611815565b9150509250929050565b7f4e487b7100000000000000000000000000000000000000000000000000000000600052604160045260246000fd5b600082825260208201905092915050565b7f6e6f7420696d706c656d656e7465640000000000000000000000000000000000600082015250565b60006118e0600f83611899565b91506118eb826118aa565b602082019050919050565b6000602082019050818103600083015261190f816118d3565b9050919050565b7f4e487b7100000000000000000000000000000000000000000000000000000000600052601160045260246000fd5b6000611950826115ee565b91507fffffffffffffffffffffffffffffffffffffffffffffffffffffffffffffffff820361198257611981611916565b5b600182019050919050565b600060a0820190506119a260008301886115f8565b6119af60208301876115f8565b6119bc6040830186611296565b6119c960608301856112b5565b6119d660808301846112b5565b9695505050505050565b7f6e6f6e6578697374656e74207265717565737400000000000000000000000000600082015250565b6000611a16601383611899565b9150611a21826119e0565b602082019050919050565b60006020820190508181036000830152611a4581611a09565b9050919050565b6000604082019050611a6160008301856115f8565b611a6e60208301846115f8565b9392505050565b7f4e487b7100000000000000000000000000000000000000000000000000000000600052603260045260246000fd5b600081519050919050565b600082825260208201905092915050565b6000819050602082019050919050565b611ad9816115ee565b82525050565b6000611aeb8383611ad0565b60208301905092915050565b6000602082019050919050565b6000611b0f82611aa4565b611b198185611aaf565b9350611b2483611ac0565b8060005b83811015611b55578151611b3c8882611adf565b9750611b4783611af7565b925050600181019050611b28565b5085935050505092915050565b6000604082019050611b7760008301856115f8565b8181036020830152611b898184611b04565b90509392505050565b600081519050919050565b600081905092915050565b60005b83811015611bc6578082015181840152602081019050611bab565b60008484015250505050565b6000611bdd82611b92565b611be78185611b9d565b9350611bf7818560208601611ba8565b80840191505092915050565b6000611c0f8284611bd2565b915081905092915050565b6000611c25826115ee565b9150611c30836115ee565b9250828203905081811115611c4857611c47611916565b5b92915050565b6000611c59826115ee565b9150611c64836115ee565b9250828202611c72816115ee565b91508282048414831517611c8957611c88611916565b5b5092915050565b6000611c9b826115ee565b9150611ca6836115ee565b9250828201905080821115611cbe57611cbd611916565b5b92915050565b6000611ccf826114ad565b9150611cda836114ad565b925082820390506bffffffffffffffffffffffff811115611cfe57611cfd611916565b5b92915050565b60008115159050919050565b611d1981611d04565b82525050565b6000606082019050611d3460008301866115f8565b611d4160208301856114c5565b611d4e6040830184611d10565b949350505050565b6000611d61826113cf565b915067ffffffffffffffff8203611d7b57611d7a611916565b5b600182019050919050565b6000602082019050611d9b60008301846116e5565b92915050565b6000611dac826114ad565b9150611db7836114ad565b925082820190506bffffffffffffffffffffffff811115611ddb57611dda611916565b5b92915050565b6000819050919050565b6000611e06611e01611dfc846114ad565b611de1565b6115ee565b9050919050565b611e1681611deb565b82525050565b6000604082019050611e316000830185611e0d565b611e3e6020830184611e0d565b9392505050565b6000604082019050611e5a60008301856116e5565b611e676020830184611e0d565b939250505056fea2646970667358221220b7348c67378f123c1c78a1319e18dd388c95f0e7170413bcdc324fbfb302304a64736f6c63430008110033","opcodes":"PUSH1 0xC0 PUSH1 0x40 MSTORE PUSH1 0x1 DUP1 SSTORE PUSH1 0x64 PUSH1 0x2 SSTORE CALLVALUE DUP1 ISZERO PUSH3 0x1A JUMPI PUSH1 0x0 DUP1 REVERT JUMPDEST POP PUSH1 0x40 MLOAD PUSH3 0x1FFD CODESIZE SUB DUP1 PUSH3 0x1FFD DUP4 CODECOPY DUP2 DUP2 ADD PUSH1 0x40 MSTORE DUP2 ADD SWAP1 PUSH3 0x40 SWAP2 SWAP1 PUSH3 0xDE JUMP JUMPDEST DUP2 PUSH12 0xFFFFFFFFFFFFFFFFFFFFFFFF AND PUSH1 0x80 DUP2 PUSH12 0xFFFFFFFFFFFFFFFFFFFFFFFF AND DUP2 MSTORE POP POP DUP1 PUSH12 0xFFFFFFFFFFFFFFFFFFFFFFFF AND PUSH1 0xA0 DUP2 PUSH12 0xFFFFFFFFFFFFFFFFFFFFFFFF AND DUP2 MSTORE POP POP POP POP PUSH3 0x125 JUMP JUMPDEST PUSH1 0x0 DUP1 REVERT JUMPDEST PUSH1 0x0 PUSH12 0xFFFFFFFFFFFFFFFFFFFFFFFF DUP3 AND SWAP1 POP SWAP2 SWAP1 POP JUMP JUMPDEST PUSH3 0xB8 DUP2 PUSH3 0x95 JUMP JUMPDEST DUP2 EQ PUSH3 0xC4 JUMPI PUSH1 0x0 DUP1 REVERT JUMPDEST POP JUMP JUMPDEST PUSH1 0x0 DUP2 MLOAD SWAP1 POP PUSH3 0xD8 DUP2 PUSH3 0xAD JUMP JUMPDEST SWAP3 SWAP2 POP POP JUMP JUMPDEST PUSH1 0x0 DUP1 PUSH1 0x40 DUP4 DUP6 SUB SLT ISZERO PUSH3 0xF8 JUMPI PUSH3 0xF7 PUSH3 0x90 JUMP JUMPDEST JUMPDEST PUSH1 0x0 PUSH3 0x108 DUP6 DUP3 DUP7 ADD PUSH3 0xC7 JUMP JUMPDEST SWAP3 POP POP PUSH1 0x20 PUSH3 0x11B DUP6 DUP3 DUP7 ADD PUSH3 0xC7 JUMP JUMPDEST SWAP2 POP POP SWAP3 POP SWAP3 SWAP1 POP JUMP JUMPDEST PUSH1 0x80 MLOAD PUSH1 0xA0 MLOAD PUSH2 0x1EA4 PUSH3 0x159 PUSH1 0x0 CODECOPY PUSH1 0x0 DUP2 DUP2 PUSH2 0x86A ADD MSTORE PUSH2 0xCDA ADD MSTORE PUSH1 0x0 DUP2 DUP2 PUSH2 0x311 ADD MSTORE PUSH2 0x8AF ADD MSTORE PUSH2 0x1EA4 PUSH1 0x0 RETURN INVALID PUSH1 0x80 PUSH1 0x40 MSTORE CALLVALUE DUP1 ISZERO PUSH2 0x10 JUMPI PUSH1 0x0 DUP1 REVERT JUMPDEST POP PUSH1 0x4 CALLDATASIZE LT PUSH2 0xCE JUMPI PUSH1 0x0 CALLDATALOAD PUSH1 0xE0 SHR DUP1 PUSH4 0x82359740 GT PUSH2 0x8C JUMPI DUP1 PUSH4 0xA410347F GT PUSH2 0x66 JUMPI DUP1 PUSH4 0xA410347F EQ PUSH2 0x1EB JUMPI DUP1 PUSH4 0xA47C7696 EQ PUSH2 0x209 JUMPI DUP1 PUSH4 0xAFC69B53 EQ PUSH2 0x23C JUMPI DUP1 PUSH4 0xD7AE1D30 EQ PUSH2 0x258 JUMPI PUSH2 0xCE JUMP JUMPDEST DUP1 PUSH4 0x82359740 EQ PUSH2 0x195 JUMPI DUP1 PUSH4 0x9F87FAD7 EQ PUSH2 0x1B1 JUMPI DUP1 PUSH4 0xA21A23E4 EQ PUSH2 0x1CD JUMPI PUSH2 0xCE JUMP JUMPDEST DUP1 PUSH3 0x12291 EQ PUSH2 0xD3 JUMPI DUP1 PUSH4 0x4C357CB EQ PUSH2 0xF3 JUMPI DUP1 PUSH4 0x3D18651E EQ PUSH2 0x10F JUMPI DUP1 PUSH4 0x5D3B1D30 EQ PUSH2 0x12D JUMPI DUP1 PUSH4 0x7341C10C EQ PUSH2 0x15D JUMPI DUP1 PUSH4 0x808974FF EQ PUSH2 0x179 JUMPI JUMPDEST PUSH1 0x0 DUP1 REVERT JUMPDEST PUSH2 0xDB PUSH2 0x274 JUMP JUMPDEST PUSH1 0x40 MLOAD PUSH2 0xEA SWAP4 SWAP3 SWAP2 SWAP1 PUSH2 0x138C JUMP JUMPDEST PUSH1 0x40 MLOAD DUP1 SWAP2 SUB SWAP1 RETURN JUMPDEST PUSH2 0x10D PUSH1 0x4 DUP1 CALLDATASIZE SUB DUP2 ADD SWAP1 PUSH2 0x108 SWAP2 SWAP1 PUSH2 0x146D JUMP JUMPDEST PUSH2 0x2D4 JUMP JUMPDEST STOP JUMPDEST PUSH2 0x117 PUSH2 0x30F JUMP JUMPDEST PUSH1 0x40 MLOAD PUSH2 0x124 SWAP2 SWAP1 PUSH2 0x14D4 JUMP JUMPDEST PUSH1 0x40 MLOAD DUP1 SWAP2 SUB SWAP1 RETURN JUMPDEST PUSH2 0x147 PUSH1 0x4 DUP1 CALLDATASIZE SUB DUP2 ADD SWAP1 PUSH2 0x142 SWAP2 SWAP1 PUSH2 0x1573 JUMP JUMPDEST PUSH2 0x333 JUMP JUMPDEST PUSH1 0x40 MLOAD PUSH2 0x154 SWAP2 SWAP1 PUSH2 0x1607 JUMP JUMPDEST PUSH1 0x40 MLOAD DUP1 SWAP2 SUB SWAP1 RETURN JUMPDEST PUSH2 0x177 PUSH1 0x4 DUP1 CALLDATASIZE SUB DUP2 ADD SWAP1 PUSH2 0x172 SWAP2 SWAP1 PUSH2 0x146D JUMP JUMPDEST PUSH2 0x54E JUMP JUMPDEST STOP JUMPDEST PUSH2 0x193 PUSH1 0x4 DUP1 CALLDATASIZE SUB DUP2 ADD SWAP1 PUSH2 0x18E SWAP2 SWAP1 PUSH2 0x164E JUMP JUMPDEST PUSH2 0x589 JUMP JUMPDEST STOP JUMPDEST PUSH2 0x1AF PUSH1 0x4 DUP1 CALLDATASIZE SUB DUP2 ADD SWAP1 PUSH2 0x1AA SWAP2 SWAP1 PUSH2 0x168E JUMP JUMPDEST PUSH2 0xAAD JUMP JUMPDEST STOP JUMPDEST PUSH2 0x1CB PUSH1 0x4 DUP1 CALLDATASIZE SUB DUP2 ADD SWAP1 PUSH2 0x1C6 SWAP2 SWAP1 PUSH2 0x146D JUMP JUMPDEST PUSH2 0xAE8 JUMP JUMPDEST STOP JUMPDEST PUSH2 0x1D5 PUSH2 0xB23 JUMP JUMPDEST PUSH1 0x40 MLOAD PUSH2 0x1E2 SWAP2 SWAP1 PUSH2 0x16CA JUMP JUMPDEST PUSH1 0x40 MLOAD DUP1 SWAP2 SUB SWAP1 RETURN JUMPDEST PUSH2 0x1F3 PUSH2 0xCD8 JUMP JUMPDEST PUSH1 0x40 MLOAD PUSH2 0x200 SWAP2 SWAP1 PUSH2 0x14D4 JUMP JUMPDEST PUSH1 0x40 MLOAD DUP1 SWAP2 SUB SWAP1 RETURN JUMPDEST PUSH2 0x223 PUSH1 0x4 DUP1 CALLDATASIZE SUB DUP2 ADD SWAP1 PUSH2 0x21E SWAP2 SWAP1 PUSH2 0x168E JUMP JUMPDEST PUSH2 0xCFC JUMP JUMPDEST PUSH1 0x40 MLOAD PUSH2 0x233 SWAP5 SWAP4 SWAP3 SWAP2 SWAP1 PUSH2 0x17B2 JUMP JUMPDEST PUSH1 0x40 MLOAD DUP1 SWAP2 SUB SWAP1 RETURN JUMPDEST PUSH2 0x256 PUSH1 0x4 DUP1 CALLDATASIZE SUB DUP2 ADD SWAP1 PUSH2 0x251 SWAP2 SWAP1 PUSH2 0x182A JUMP JUMPDEST PUSH2 0xE9C JUMP JUMPDEST STOP JUMPDEST PUSH2 0x272 PUSH1 0x4 DUP1 CALLDATASIZE SUB DUP2 ADD SWAP1 PUSH2 0x26D SWAP2 SWAP1 PUSH2 0x146D JUMP JUMPDEST PUSH2 0x1066 JUMP JUMPDEST STOP JUMPDEST PUSH1 0x0 DUP1 PUSH1 0x60 PUSH1 0x3 PUSH3 0x1E8480 PUSH1 0x0 PUSH8 0xFFFFFFFFFFFFFFFF DUP2 GT ISZERO PUSH2 0x29A JUMPI PUSH2 0x299 PUSH2 0x186A JUMP JUMPDEST JUMPDEST PUSH1 0x40 MLOAD SWAP1 DUP1 DUP3 MSTORE DUP1 PUSH1 0x20 MUL PUSH1 0x20 ADD DUP3 ADD PUSH1 0x40 MSTORE DUP1 ISZERO PUSH2 0x2C8 JUMPI DUP2 PUSH1 0x20 ADD PUSH1 0x20 DUP3 MUL DUP1 CALLDATASIZE DUP4 CALLDATACOPY DUP1 DUP3 ADD SWAP2 POP POP SWAP1 POP JUMPDEST POP SWAP3 POP SWAP3 POP SWAP3 POP SWAP1 SWAP2 SWAP3 JUMP JUMPDEST PUSH1 0x40 MLOAD PUSH32 0x8C379A000000000000000000000000000000000000000000000000000000000 DUP2 MSTORE PUSH1 0x4 ADD PUSH2 0x306 SWAP1 PUSH2 0x18F6 JUMP JUMPDEST PUSH1 0x40 MLOAD DUP1 SWAP2 SUB SWAP1 REVERT JUMPDEST PUSH32 0x0 DUP2 JUMP JUMPDEST PUSH1 0x0 DUP1 PUSH20 0xFFFFFFFFFFFFFFFFFFFFFFFFFFFFFFFFFFFFFFFF AND PUSH1 0x3 PUSH1 0x0 DUP8 PUSH8 0xFFFFFFFFFFFFFFFF AND PUSH8 0xFFFFFFFFFFFFFFFF AND DUP2 MSTORE PUSH1 0x20 ADD SWAP1 DUP2 MSTORE PUSH1 0x20 ADD PUSH1 0x0 KECCAK256 PUSH1 0x0 ADD PUSH1 0x0 SWAP1 SLOAD SWAP1 PUSH2 0x100 EXP SWAP1 DIV PUSH20 0xFFFFFFFFFFFFFFFFFFFFFFFFFFFFFFFFFFFFFFFF AND PUSH20 0xFFFFFFFFFFFFFFFFFFFFFFFFFFFFFFFFFFFFFFFF AND SUB PUSH2 0x3E4 JUMPI PUSH1 0x40 MLOAD PUSH32 0x1F6A65B600000000000000000000000000000000000000000000000000000000 DUP2 MSTORE PUSH1 0x4 ADD PUSH1 0x40 MLOAD DUP1 SWAP2 SUB SWAP1 REVERT JUMPDEST PUSH1 0x0 PUSH1 0x1 PUSH1 0x0 DUP2 SLOAD DUP1 SWAP3 SWAP2 SWAP1 PUSH2 0x3F9 SWAP1 PUSH2 0x1945 JUMP JUMPDEST SWAP2 SWAP1 POP SSTORE SWAP1 POP PUSH1 0x0 PUSH1 0x2 PUSH1 0x0 DUP2 SLOAD DUP1 SWAP3 SWAP2 SWAP1 PUSH2 0x414 SWAP1 PUSH2 0x1945 JUMP JUMPDEST SWAP2 SWAP1 POP SSTORE SWAP1 POP PUSH1 0x40 MLOAD DUP1 PUSH1 0x60 ADD PUSH1 0x40 MSTORE DUP1 DUP9 PUSH8 0xFFFFFFFFFFFFFFFF AND DUP2 MSTORE PUSH1 0x20 ADD DUP7 PUSH4 0xFFFFFFFF AND DUP2 MSTORE PUSH1 0x20 ADD DUP6 PUSH4 0xFFFFFFFF AND DUP2 MSTORE POP PUSH1 0x4 PUSH1 0x0 DUP5 DUP2 MSTORE PUSH1 0x20 ADD SWAP1 DUP2 MSTORE PUSH1 0x20 ADD PUSH1 0x0 KECCAK256 PUSH1 0x0 DUP3 ADD MLOAD DUP2 PUSH1 0x0 ADD PUSH1 0x0 PUSH2 0x100 EXP DUP2 SLOAD DUP2 PUSH8 0xFFFFFFFFFFFFFFFF MUL NOT AND SWAP1 DUP4 PUSH8 0xFFFFFFFFFFFFFFFF AND MUL OR SWAP1 SSTORE POP PUSH1 0x20 DUP3 ADD MLOAD DUP2 PUSH1 0x0 ADD PUSH1 0x8 PUSH2 0x100 EXP DUP2 SLOAD DUP2 PUSH4 0xFFFFFFFF MUL NOT AND SWAP1 DUP4 PUSH4 0xFFFFFFFF AND MUL OR SWAP1 SSTORE POP PUSH1 0x40 DUP3 ADD MLOAD DUP2 PUSH1 0x0 ADD PUSH1 0xC PUSH2 0x100 EXP DUP2 SLOAD DUP2 PUSH4 0xFFFFFFFF MUL NOT AND SWAP1 DUP4 PUSH4 0xFFFFFFFF AND MUL OR SWAP1 SSTORE POP SWAP1 POP POP CALLER PUSH20 0xFFFFFFFFFFFFFFFFFFFFFFFFFFFFFFFFFFFFFFFF AND DUP8 PUSH8 0xFFFFFFFFFFFFFFFF AND DUP10 PUSH32 0x63373D1C4696214B898952999C9AAEC57DAC1EE2723CEC59BEA6888F489A9772 DUP6 DUP6 DUP12 DUP12 DUP12 PUSH1 0x40 MLOAD PUSH2 0x538 SWAP6 SWAP5 SWAP4 SWAP3 SWAP2 SWAP1 PUSH2 0x198D JUMP JUMPDEST PUSH1 0x40 MLOAD DUP1 SWAP2 SUB SWAP1 LOG4 DUP2 SWAP3 POP POP POP SWAP6 SWAP5 POP POP POP POP POP JUMP JUMPDEST PUSH1 0x40 MLOAD PUSH32 0x8C379A000000000000000000000000000000000000000000000000000000000 DUP2 MSTORE PUSH1 0x4 ADD PUSH2 0x580 SWAP1 PUSH2 0x18F6 JUMP JUMPDEST PUSH1 0x40 MLOAD DUP1 SWAP2 SUB SWAP1 REVERT JUMPDEST PUSH1 0x0 GAS SWAP1 POP PUSH1 0x0 PUSH1 0x4 PUSH1 0x0 DUP6 DUP2 MSTORE PUSH1 0x20 ADD SWAP1 DUP2 MSTORE PUSH1 0x20 ADD PUSH1 0x0 KECCAK256 PUSH1 0x0 ADD PUSH1 0x0 SWAP1 SLOAD SWAP1 PUSH2 0x100 EXP SWAP1 DIV PUSH8 0xFFFFFFFFFFFFFFFF AND PUSH8 0xFFFFFFFFFFFFFFFF AND SUB PUSH2 0x605 JUMPI PUSH1 0x40 MLOAD PUSH32 0x8C379A000000000000000000000000000000000000000000000000000000000 DUP2 MSTORE PUSH1 0x4 ADD PUSH2 0x5FC SWAP1 PUSH2 0x1A2C JUMP JUMPDEST PUSH1 0x40 MLOAD DUP1 SWAP2 SUB SWAP1 REVERT JUMPDEST PUSH1 0x0 PUSH1 0x4 PUSH1 0x0 DUP6 DUP2 MSTORE PUSH1 0x20 ADD SWAP1 DUP2 MSTORE PUSH1 0x20 ADD PUSH1 0x0 KECCAK256 PUSH1 0x40 MLOAD DUP1 PUSH1 0x60 ADD PUSH1 0x40 MSTORE SWAP1 DUP2 PUSH1 0x0 DUP3 ADD PUSH1 0x0 SWAP1 SLOAD SWAP1 PUSH2 0x100 EXP SWAP1 DIV PUSH8 0xFFFFFFFFFFFFFFFF AND PUSH8 0xFFFFFFFFFFFFFFFF AND PUSH8 0xFFFFFFFFFFFFFFFF AND DUP2 MSTORE PUSH1 0x20 ADD PUSH1 0x0 DUP3 ADD PUSH1 0x8 SWAP1 SLOAD SWAP1 PUSH2 0x100 EXP SWAP1 DIV PUSH4 0xFFFFFFFF AND PUSH4 0xFFFFFFFF AND PUSH4 0xFFFFFFFF AND DUP2 MSTORE PUSH1 0x20 ADD PUSH1 0x0 DUP3 ADD PUSH1 0xC SWAP1 SLOAD SWAP1 PUSH2 0x100 EXP SWAP1 DIV PUSH4 0xFFFFFFFF AND PUSH4 0xFFFFFFFF AND PUSH4 0xFFFFFFFF AND DUP2 MSTORE POP POP SWAP1 POP PUSH1 0x0 DUP2 PUSH1 0x40 ADD MLOAD PUSH4 0xFFFFFFFF AND PUSH8 0xFFFFFFFFFFFFFFFF DUP2 GT ISZERO PUSH2 0x6CB JUMPI PUSH2 0x6CA PUSH2 0x186A JUMP JUMPDEST JUMPDEST PUSH1 0x40 MLOAD SWAP1 DUP1 DUP3 MSTORE DUP1 PUSH1 0x20 MUL PUSH1 0x20 ADD DUP3 ADD PUSH1 0x40 MSTORE DUP1 ISZERO PUSH2 0x6F9 JUMPI DUP2 PUSH1 0x20 ADD PUSH1 0x20 DUP3 MUL DUP1 CALLDATASIZE DUP4 CALLDATACOPY DUP1 DUP3 ADD SWAP2 POP POP SWAP1 POP JUMPDEST POP SWAP1 POP PUSH1 0x0 JUMPDEST DUP3 PUSH1 0x40 ADD MLOAD PUSH4 0xFFFFFFFF AND DUP2 LT ISZERO PUSH2 0x76F JUMPI DUP6 DUP2 PUSH1 0x40 MLOAD PUSH1 0x20 ADD PUSH2 0x724 SWAP3 SWAP2 SWAP1 PUSH2 0x1A4C JUMP JUMPDEST PUSH1 0x40 MLOAD PUSH1 0x20 DUP2 DUP4 SUB SUB DUP2 MSTORE SWAP1 PUSH1 0x40 MSTORE DUP1 MLOAD SWAP1 PUSH1 0x20 ADD KECCAK256 PUSH1 0x0 SHR DUP3 DUP3 DUP2 MLOAD DUP2 LT PUSH2 0x750 JUMPI PUSH2 0x74F PUSH2 0x1A75 JUMP JUMPDEST JUMPDEST PUSH1 0x20 MUL PUSH1 0x20 ADD ADD DUP2 DUP2 MSTORE POP POP DUP1 DUP1 PUSH2 0x767 SWAP1 PUSH2 0x1945 JUMP JUMPDEST SWAP2 POP POP PUSH2 0x6FF JUMP JUMPDEST POP PUSH1 0x0 DUP1 PUSH4 0x1FE543E3 PUSH1 0xE0 SHL DUP8 DUP5 PUSH1 0x40 MLOAD PUSH1 0x24 ADD PUSH2 0x78E SWAP3 SWAP2 SWAP1 PUSH2 0x1B62 JUMP JUMPDEST PUSH1 0x40 MLOAD PUSH1 0x20 DUP2 DUP4 SUB SUB DUP2 MSTORE SWAP1 PUSH1 0x40 MSTORE SWAP1 PUSH28 0xFFFFFFFFFFFFFFFFFFFFFFFFFFFFFFFFFFFFFFFFFFFFFFFFFFFFFFFF NOT AND PUSH1 0x20 DUP3 ADD DUP1 MLOAD PUSH28 0xFFFFFFFFFFFFFFFFFFFFFFFFFFFFFFFFFFFFFFFFFFFFFFFFFFFFFFFF DUP4 DUP2 DUP4 AND OR DUP4 MSTORE POP POP POP POP SWAP1 POP PUSH1 0x0 DUP7 PUSH20 0xFFFFFFFFFFFFFFFFFFFFFFFFFFFFFFFFFFFFFFFF AND DUP6 PUSH1 0x20 ADD MLOAD PUSH4 0xFFFFFFFF AND DUP4 PUSH1 0x40 MLOAD PUSH2 0x81F SWAP2 SWAP1 PUSH2 0x1C03 JUMP JUMPDEST PUSH1 0x0 PUSH1 0x40 MLOAD DUP1 DUP4 SUB DUP2 PUSH1 0x0 DUP8 DUP8 CALL SWAP3 POP POP POP RETURNDATASIZE DUP1 PUSH1 0x0 DUP2 EQ PUSH2 0x85D JUMPI PUSH1 0x40 MLOAD SWAP2 POP PUSH1 0x1F NOT PUSH1 0x3F RETURNDATASIZE ADD AND DUP3 ADD PUSH1 0x40 MSTORE RETURNDATASIZE DUP3 MSTORE RETURNDATASIZE PUSH1 0x0 PUSH1 0x20 DUP5 ADD RETURNDATACOPY PUSH2 0x862 JUMP JUMPDEST PUSH1 0x60 SWAP2 POP JUMPDEST POP POP SWAP1 POP PUSH1 0x0 PUSH32 0x0 PUSH12 0xFFFFFFFFFFFFFFFFFFFFFFFF AND GAS DUP9 PUSH2 0x8A3 SWAP2 SWAP1 PUSH2 0x1C1A JUMP JUMPDEST PUSH2 0x8AD SWAP2 SWAP1 PUSH2 0x1C4E JUMP JUMPDEST PUSH32 0x0 PUSH12 0xFFFFFFFFFFFFFFFFFFFFFFFF AND PUSH2 0x8E6 SWAP2 SWAP1 PUSH2 0x1C90 JUMP JUMPDEST SWAP1 POP DUP1 PUSH12 0xFFFFFFFFFFFFFFFFFFFFFFFF AND PUSH1 0x3 PUSH1 0x0 DUP9 PUSH1 0x0 ADD MLOAD PUSH8 0xFFFFFFFFFFFFFFFF AND PUSH8 0xFFFFFFFFFFFFFFFF AND DUP2 MSTORE PUSH1 0x20 ADD SWAP1 DUP2 MSTORE PUSH1 0x20 ADD PUSH1 0x0 KECCAK256 PUSH1 0x0 ADD PUSH1 0x14 SWAP1 SLOAD SWAP1 PUSH2 0x100 EXP SWAP1 DIV PUSH12 0xFFFFFFFFFFFFFFFFFFFFFFFF AND PUSH12 0xFFFFFFFFFFFFFFFFFFFFFFFF AND LT ISZERO PUSH2 0x984 JUMPI PUSH1 0x40 MLOAD PUSH32 0xF4D678B800000000000000000000000000000000000000000000000000000000 DUP2 MSTORE PUSH1 0x4 ADD PUSH1 0x40 MLOAD DUP1 SWAP2 SUB SWAP1 REVERT JUMPDEST DUP1 PUSH1 0x3 PUSH1 0x0 DUP9 PUSH1 0x0 ADD MLOAD PUSH8 0xFFFFFFFFFFFFFFFF AND PUSH8 0xFFFFFFFFFFFFFFFF AND DUP2 MSTORE PUSH1 0x20 ADD SWAP1 DUP2 MSTORE PUSH1 0x20 ADD PUSH1 0x0 KECCAK256 PUSH1 0x0 ADD PUSH1 0x14 DUP3 DUP3 DUP3 SWAP1 SLOAD SWAP1 PUSH2 0x100 EXP SWAP1 DIV PUSH12 0xFFFFFFFFFFFFFFFFFFFFFFFF AND PUSH2 0x9D9 SWAP2 SWAP1 PUSH2 0x1CC4 JUMP JUMPDEST SWAP3 POP PUSH2 0x100 EXP DUP2 SLOAD DUP2 PUSH12 0xFFFFFFFFFFFFFFFFFFFFFFFF MUL NOT AND SWAP1 DUP4 PUSH12 0xFFFFFFFFFFFFFFFFFFFFFFFF AND MUL OR SWAP1 SSTORE POP PUSH1 0x4 PUSH1 0x0 DUP11 DUP2 MSTORE PUSH1 0x20 ADD SWAP1 DUP2 MSTORE PUSH1 0x20 ADD PUSH1 0x0 KECCAK256 PUSH1 0x0 DUP1 DUP3 ADD PUSH1 0x0 PUSH2 0x100 EXP DUP2 SLOAD SWAP1 PUSH8 0xFFFFFFFFFFFFFFFF MUL NOT AND SWAP1 SSTORE PUSH1 0x0 DUP3 ADD PUSH1 0x8 PUSH2 0x100 EXP DUP2 SLOAD SWAP1 PUSH4 0xFFFFFFFF MUL NOT AND SWAP1 SSTORE PUSH1 0x0 DUP3 ADD PUSH1 0xC PUSH2 0x100 EXP DUP2 SLOAD SWAP1 PUSH4 0xFFFFFFFF MUL NOT AND SWAP1 SSTORE POP POP DUP9 PUSH32 0x7DFFC5AE5EE4E2E4DF1651CF6AD329A73CEBDB728F37EA0187B9B17E036756E4 DUP11 DUP4 DUP6 PUSH1 0x40 MLOAD PUSH2 0xA9A SWAP4 SWAP3 SWAP2 SWAP1 PUSH2 0x1D1F JUMP JUMPDEST PUSH1 0x40 MLOAD DUP1 SWAP2 SUB SWAP1 LOG2 POP POP POP POP POP POP POP POP POP JUMP JUMPDEST PUSH1 0x40 MLOAD PUSH32 0x8C379A000000000000000000000000000000000000000000000000000000000 DUP2 MSTORE PUSH1 0x4 ADD PUSH2 0xADF SWAP1 PUSH2 0x18F6 JUMP JUMPDEST PUSH1 0x40 MLOAD DUP1 SWAP2 SUB SWAP1 REVERT JUMPDEST PUSH1 0x40 MLOAD PUSH32 0x8C379A000000000000000000000000000000000000000000000000000000000 DUP2 MSTORE PUSH1 0x4 ADD PUSH2 0xB1A SWAP1 PUSH2 0x18F6 JUMP JUMPDEST PUSH1 0x40 MLOAD DUP1 SWAP2 SUB SWAP1 REVERT JUMPDEST PUSH1 0x0 DUP1 PUSH1 0x0 DUP2 DUP2 SWAP1 SLOAD SWAP1 PUSH2 0x100 EXP SWAP1 DIV PUSH8 0xFFFFFFFFFFFFFFFF AND DUP1 SWAP3 SWAP2 SWAP1 PUSH2 0xB4A SWAP1 PUSH2 0x1D56 JUMP JUMPDEST SWAP2 SWAP1 PUSH2 0x100 EXP DUP2 SLOAD DUP2 PUSH8 0xFFFFFFFFFFFFFFFF MUL NOT AND SWAP1 DUP4 PUSH8 0xFFFFFFFFFFFFFFFF AND MUL OR SWAP1 SSTORE POP POP PUSH1 0x40 MLOAD DUP1 PUSH1 0x40 ADD PUSH1 0x40 MSTORE DUP1 CALLER PUSH20 0xFFFFFFFFFFFFFFFFFFFFFFFFFFFFFFFFFFFFFFFF AND DUP2 MSTORE PUSH1 0x20 ADD PUSH1 0x0 PUSH12 0xFFFFFFFFFFFFFFFFFFFFFFFF AND DUP2 MSTORE POP PUSH1 0x3 PUSH1 0x0 DUP1 PUSH1 0x0 SWAP1 SLOAD SWAP1 PUSH2 0x100 EXP SWAP1 DIV PUSH8 0xFFFFFFFFFFFFFFFF AND PUSH8 0xFFFFFFFFFFFFFFFF AND PUSH8 0xFFFFFFFFFFFFFFFF AND DUP2 MSTORE PUSH1 0x20 ADD SWAP1 DUP2 MSTORE PUSH1 0x20 ADD PUSH1 0x0 KECCAK256 PUSH1 0x0 DUP3 ADD MLOAD DUP2 PUSH1 0x0 ADD PUSH1 0x0 PUSH2 0x100 EXP DUP2 SLOAD DUP2 PUSH20 0xFFFFFFFFFFFFFFFFFFFFFFFFFFFFFFFFFFFFFFFF MUL NOT AND SWAP1 DUP4 PUSH20 0xFFFFFFFFFFFFFFFFFFFFFFFFFFFFFFFFFFFFFFFF AND MUL OR SWAP1 SSTORE POP PUSH1 0x20 DUP3 ADD MLOAD DUP2 PUSH1 0x0 ADD PUSH1 0x14 PUSH2 0x100 EXP DUP2 SLOAD DUP2 PUSH12 0xFFFFFFFFFFFFFFFFFFFFFFFF MUL NOT AND SWAP1 DUP4 PUSH12 0xFFFFFFFFFFFFFFFFFFFFFFFF AND MUL OR SWAP1 SSTORE POP SWAP1 POP POP PUSH1 0x0 DUP1 SLOAD SWAP1 PUSH2 0x100 EXP SWAP1 DIV PUSH8 0xFFFFFFFFFFFFFFFF AND PUSH8 0xFFFFFFFFFFFFFFFF AND PUSH32 0x464722B4166576D3DCBBA877B999BC35CF911F4EAF434B7EBA68FA113951D0BF CALLER PUSH1 0x40 MLOAD PUSH2 0xCB6 SWAP2 SWAP1 PUSH2 0x1D86 JUMP JUMPDEST PUSH1 0x40 MLOAD DUP1 SWAP2 SUB SWAP1 LOG2 PUSH1 0x0 DUP1 SLOAD SWAP1 PUSH2 0x100 EXP SWAP1 DIV PUSH8 0xFFFFFFFFFFFFFFFF AND SWAP1 POP SWAP1 JUMP JUMPDEST PUSH32 0x0 DUP2 JUMP JUMPDEST PUSH1 0x0 DUP1 PUSH1 0x0 PUSH1 0x60 PUSH1 0x0 PUSH20 0xFFFFFFFFFFFFFFFFFFFFFFFFFFFFFFFFFFFFFFFF AND PUSH1 0x3 PUSH1 0x0 DUP8 PUSH8 0xFFFFFFFFFFFFFFFF AND PUSH8 0xFFFFFFFFFFFFFFFF AND DUP2 MSTORE PUSH1 0x20 ADD SWAP1 DUP2 MSTORE PUSH1 0x20 ADD PUSH1 0x0 KECCAK256 PUSH1 0x0 ADD PUSH1 0x0 SWAP1 SLOAD SWAP1 PUSH2 0x100 EXP SWAP1 DIV PUSH20 0xFFFFFFFFFFFFFFFFFFFFFFFFFFFFFFFFFFFFFFFF AND PUSH20 0xFFFFFFFFFFFFFFFFFFFFFFFFFFFFFFFFFFFFFFFF AND SUB PUSH2 0xDB3 JUMPI PUSH1 0x40 MLOAD PUSH32 0x1F6A65B600000000000000000000000000000000000000000000000000000000 DUP2 MSTORE PUSH1 0x4 ADD PUSH1 0x40 MLOAD DUP1 SWAP2 SUB SWAP1 REVERT JUMPDEST PUSH1 0x3 PUSH1 0x0 DUP7 PUSH8 0xFFFFFFFFFFFFFFFF AND PUSH8 0xFFFFFFFFFFFFFFFF AND DUP2 MSTORE PUSH1 0x20 ADD SWAP1 DUP2 MSTORE PUSH1 0x20 ADD PUSH1 0x0 KECCAK256 PUSH1 0x0 ADD PUSH1 0x14 SWAP1 SLOAD SWAP1 PUSH2 0x100 EXP SWAP1 DIV PUSH12 0xFFFFFFFFFFFFFFFFFFFFFFFF AND PUSH1 0x0 PUSH1 0x3 PUSH1 0x0 DUP9 PUSH8 0xFFFFFFFFFFFFFFFF AND PUSH8 0xFFFFFFFFFFFFFFFF AND DUP2 MSTORE PUSH1 0x20 ADD SWAP1 DUP2 MSTORE PUSH1 0x20 ADD PUSH1 0x0 KECCAK256 PUSH1 0x0 ADD PUSH1 0x0 SWAP1 SLOAD SWAP1 PUSH2 0x100 EXP SWAP1 DIV PUSH20 0xFFFFFFFFFFFFFFFFFFFFFFFFFFFFFFFFFFFFFFFF AND PUSH1 0x0 PUSH8 0xFFFFFFFFFFFFFFFF DUP2 GT ISZERO PUSH2 0xE5E JUMPI PUSH2 0xE5D PUSH2 0x186A JUMP JUMPDEST JUMPDEST PUSH1 0x40 MLOAD SWAP1 DUP1 DUP3 MSTORE DUP1 PUSH1 0x20 MUL PUSH1 0x20 ADD DUP3 ADD PUSH1 0x40 MSTORE DUP1 ISZERO PUSH2 0xE8C JUMPI DUP2 PUSH1 0x20 ADD PUSH1 0x20 DUP3 MUL DUP1 CALLDATASIZE DUP4 CALLDATACOPY DUP1 DUP3 ADD SWAP2 POP POP SWAP1 POP JUMPDEST POP SWAP4 POP SWAP4 POP SWAP4 POP SWAP4 POP SWAP2 SWAP4 POP SWAP2 SWAP4 JUMP JUMPDEST PUSH1 0x0 PUSH20 0xFFFFFFFFFFFFFFFFFFFFFFFFFFFFFFFFFFFFFFFF AND PUSH1 0x3 PUSH1 0x0 DUP5 PUSH8 0xFFFFFFFFFFFFFFFF AND PUSH8 0xFFFFFFFFFFFFFFFF AND DUP2 MSTORE PUSH1 0x20 ADD SWAP1 DUP2 MSTORE PUSH1 0x20 ADD PUSH1 0x0 KECCAK256 PUSH1 0x0 ADD PUSH1 0x0 SWAP1 SLOAD SWAP1 PUSH2 0x100 EXP SWAP1 DIV PUSH20 0xFFFFFFFFFFFFFFFFFFFFFFFFFFFFFFFFFFFFFFFF AND PUSH20 0xFFFFFFFFFFFFFFFFFFFFFFFFFFFFFFFFFFFFFFFF AND SUB PUSH2 0xF4C JUMPI PUSH1 0x40 MLOAD PUSH32 0x1F6A65B600000000000000000000000000000000000000000000000000000000 DUP2 MSTORE PUSH1 0x4 ADD PUSH1 0x40 MLOAD DUP1 SWAP2 SUB SWAP1 REVERT JUMPDEST PUSH1 0x0 PUSH1 0x3 PUSH1 0x0 DUP5 PUSH8 0xFFFFFFFFFFFFFFFF AND PUSH8 0xFFFFFFFFFFFFFFFF AND DUP2 MSTORE PUSH1 0x20 ADD SWAP1 DUP2 MSTORE PUSH1 0x20 ADD PUSH1 0x0 KECCAK256 PUSH1 0x0 ADD PUSH1 0x14 SWAP1 SLOAD SWAP1 PUSH2 0x100 EXP SWAP1 DIV PUSH12 0xFFFFFFFFFFFFFFFFFFFFFFFF AND SWAP1 POP DUP2 PUSH1 0x3 PUSH1 0x0 DUP6 PUSH8 0xFFFFFFFFFFFFFFFF AND PUSH8 0xFFFFFFFFFFFFFFFF AND DUP2 MSTORE PUSH1 0x20 ADD SWAP1 DUP2 MSTORE PUSH1 0x20 ADD PUSH1 0x0 KECCAK256 PUSH1 0x0 ADD PUSH1 0x14 DUP3 DUP3 DUP3 SWAP1 SLOAD SWAP1 PUSH2 0x100 EXP SWAP1 DIV PUSH12 0xFFFFFFFFFFFFFFFFFFFFFFFF AND PUSH2 0xFE4 SWAP2 SWAP1 PUSH2 0x1DA1 JUMP JUMPDEST SWAP3 POP PUSH2 0x100 EXP DUP2 SLOAD DUP2 PUSH12 0xFFFFFFFFFFFFFFFFFFFFFFFF MUL NOT AND SWAP1 DUP4 PUSH12 0xFFFFFFFFFFFFFFFFFFFFFFFF AND MUL OR SWAP1 SSTORE POP DUP3 PUSH8 0xFFFFFFFFFFFFFFFF AND PUSH32 0xD39EC07F4E209F627A4C427971473820DC129761BA28DE8906BD56F57101D4F8 DUP3 DUP5 DUP5 PUSH2 0x104B SWAP2 SWAP1 PUSH2 0x1DA1 JUMP JUMPDEST PUSH1 0x40 MLOAD PUSH2 0x1059 SWAP3 SWAP2 SWAP1 PUSH2 0x1E1C JUMP JUMPDEST PUSH1 0x40 MLOAD DUP1 SWAP2 SUB SWAP1 LOG2 POP POP POP JUMP JUMPDEST DUP2 PUSH1 0x0 PUSH1 0x3 PUSH1 0x0 DUP4 PUSH8 0xFFFFFFFFFFFFFFFF AND PUSH8 0xFFFFFFFFFFFFFFFF AND DUP2 MSTORE PUSH1 0x20 ADD SWAP1 DUP2 MSTORE PUSH1 0x20 ADD PUSH1 0x0 KECCAK256 PUSH1 0x0 ADD PUSH1 0x0 SWAP1 SLOAD SWAP1 PUSH2 0x100 EXP SWAP1 DIV PUSH20 0xFFFFFFFFFFFFFFFFFFFFFFFFFFFFFFFFFFFFFFFF AND SWAP1 POP PUSH1 0x0 PUSH20 0xFFFFFFFFFFFFFFFFFFFFFFFFFFFFFFFFFFFFFFFF AND DUP2 PUSH20 0xFFFFFFFFFFFFFFFFFFFFFFFFFFFFFFFFFFFFFFFF AND SUB PUSH2 0x111C JUMPI PUSH1 0x40 MLOAD PUSH32 0x1F6A65B600000000000000000000000000000000000000000000000000000000 DUP2 MSTORE PUSH1 0x4 ADD PUSH1 0x40 MLOAD DUP1 SWAP2 SUB SWAP1 REVERT JUMPDEST DUP1 PUSH20 0xFFFFFFFFFFFFFFFFFFFFFFFFFFFFFFFFFFFFFFFF AND CALLER PUSH20 0xFFFFFFFFFFFFFFFFFFFFFFFFFFFFFFFFFFFFFFFF AND EQ PUSH2 0x118C JUMPI DUP1 PUSH1 0x40 MLOAD PUSH32 0xD8A3FB5200000000000000000000000000000000000000000000000000000000 DUP2 MSTORE PUSH1 0x4 ADD PUSH2 0x1183 SWAP2 SWAP1 PUSH2 0x1D86 JUMP JUMPDEST PUSH1 0x40 MLOAD DUP1 SWAP2 SUB SWAP1 REVERT JUMPDEST DUP4 PUSH8 0xFFFFFFFFFFFFFFFF AND PUSH32 0xE8ED5B475A5B5987AA9165E8731BB78043F39EEE32EC5A1169A89E27FCD49815 DUP5 PUSH1 0x3 PUSH1 0x0 DUP9 PUSH8 0xFFFFFFFFFFFFFFFF AND PUSH8 0xFFFFFFFFFFFFFFFF AND DUP2 MSTORE PUSH1 0x20 ADD SWAP1 DUP2 MSTORE PUSH1 0x20 ADD PUSH1 0x0 KECCAK256 PUSH1 0x0 ADD PUSH1 0x14 SWAP1 SLOAD SWAP1 PUSH2 0x100 EXP SWAP1 DIV PUSH12 0xFFFFFFFFFFFFFFFFFFFFFFFF AND PUSH1 0x40 MLOAD PUSH2 0x120A SWAP3 SWAP2 SWAP1 PUSH2 0x1E45 JUMP JUMPDEST PUSH1 0x40 MLOAD DUP1 SWAP2 SUB SWAP1 LOG2 PUSH1 0x3 PUSH1 0x0 DUP6 PUSH8 0xFFFFFFFFFFFFFFFF AND PUSH8 0xFFFFFFFFFFFFFFFF AND DUP2 MSTORE PUSH1 0x20 ADD SWAP1 DUP2 MSTORE PUSH1 0x20 ADD PUSH1 0x0 KECCAK256 PUSH1 0x0 DUP1 DUP3 ADD PUSH1 0x0 PUSH2 0x100 EXP DUP2 SLOAD SWAP1 PUSH20 0xFFFFFFFFFFFFFFFFFFFFFFFFFFFFFFFFFFFFFFFF MUL NOT AND SWAP1 SSTORE PUSH1 0x0 DUP3 ADD PUSH1 0x14 PUSH2 0x100 EXP DUP2 SLOAD SWAP1 PUSH12 0xFFFFFFFFFFFFFFFFFFFFFFFF MUL NOT AND SWAP1 SSTORE POP POP POP POP POP POP JUMP JUMPDEST PUSH1 0x0 PUSH2 0xFFFF DUP3 AND SWAP1 POP SWAP2 SWAP1 POP JUMP JUMPDEST PUSH2 0x129F DUP2 PUSH2 0x1288 JUMP JUMPDEST DUP3 MSTORE POP POP JUMP JUMPDEST PUSH1 0x0 PUSH4 0xFFFFFFFF DUP3 AND SWAP1 POP SWAP2 SWAP1 POP JUMP JUMPDEST PUSH2 0x12BE DUP2 PUSH2 0x12A5 JUMP JUMPDEST DUP3 MSTORE POP POP JUMP JUMPDEST PUSH1 0x0 DUP2 MLOAD SWAP1 POP SWAP2 SWAP1 POP JUMP JUMPDEST PUSH1 0x0 DUP3 DUP3 MSTORE PUSH1 0x20 DUP3 ADD SWAP1 POP SWAP3 SWAP2 POP POP JUMP JUMPDEST PUSH1 0x0 DUP2 SWAP1 POP PUSH1 0x20 DUP3 ADD SWAP1 POP SWAP2 SWAP1 POP JUMP JUMPDEST PUSH1 0x0 DUP2 SWAP1 POP SWAP2 SWAP1 POP JUMP JUMPDEST PUSH2 0x1303 DUP2 PUSH2 0x12F0 JUMP JUMPDEST DUP3 MSTORE POP POP JUMP JUMPDEST PUSH1 0x0 PUSH2 0x1315 DUP4 DUP4 PUSH2 0x12FA JUMP JUMPDEST PUSH1 0x20 DUP4 ADD SWAP1 POP SWAP3 SWAP2 POP POP JUMP JUMPDEST PUSH1 0x0 PUSH1 0x20 DUP3 ADD SWAP1 POP SWAP2 SWAP1 POP JUMP JUMPDEST PUSH1 0x0 PUSH2 0x1339 DUP3 PUSH2 0x12C4 JUMP JUMPDEST PUSH2 0x1343 DUP2 DUP6 PUSH2 0x12CF JUMP JUMPDEST SWAP4 POP PUSH2 0x134E DUP4 PUSH2 0x12E0 JUMP JUMPDEST DUP1 PUSH1 0x0 JUMPDEST DUP4 DUP2 LT ISZERO PUSH2 0x137F JUMPI DUP2 MLOAD PUSH2 0x1366 DUP9 DUP3 PUSH2 0x1309 JUMP JUMPDEST SWAP8 POP PUSH2 0x1371 DUP4 PUSH2 0x1321 JUMP JUMPDEST SWAP3 POP POP PUSH1 0x1 DUP2 ADD SWAP1 POP PUSH2 0x1352 JUMP JUMPDEST POP DUP6 SWAP4 POP POP POP POP SWAP3 SWAP2 POP POP JUMP JUMPDEST PUSH1 0x0 PUSH1 0x60 DUP3 ADD SWAP1 POP PUSH2 0x13A1 PUSH1 0x0 DUP4 ADD DUP7 PUSH2 0x1296 JUMP JUMPDEST PUSH2 0x13AE PUSH1 0x20 DUP4 ADD DUP6 PUSH2 0x12B5 JUMP JUMPDEST DUP2 DUP2 SUB PUSH1 0x40 DUP4 ADD MSTORE PUSH2 0x13C0 DUP2 DUP5 PUSH2 0x132E JUMP JUMPDEST SWAP1 POP SWAP5 SWAP4 POP POP POP POP JUMP JUMPDEST PUSH1 0x0 DUP1 REVERT JUMPDEST PUSH1 0x0 PUSH8 0xFFFFFFFFFFFFFFFF DUP3 AND SWAP1 POP SWAP2 SWAP1 POP JUMP JUMPDEST PUSH2 0x13EC DUP2 PUSH2 0x13CF JUMP JUMPDEST DUP2 EQ PUSH2 0x13F7 JUMPI PUSH1 0x0 DUP1 REVERT JUMPDEST POP JUMP JUMPDEST PUSH1 0x0 DUP2 CALLDATALOAD SWAP1 POP PUSH2 0x1409 DUP2 PUSH2 0x13E3 JUMP JUMPDEST SWAP3 SWAP2 POP POP JUMP JUMPDEST PUSH1 0x0 PUSH20 0xFFFFFFFFFFFFFFFFFFFFFFFFFFFFFFFFFFFFFFFF DUP3 AND SWAP1 POP SWAP2 SWAP1 POP JUMP JUMPDEST PUSH1 0x0 PUSH2 0x143A DUP3 PUSH2 0x140F JUMP JUMPDEST SWAP1 POP SWAP2 SWAP1 POP JUMP JUMPDEST PUSH2 0x144A DUP2 PUSH2 0x142F JUMP JUMPDEST DUP2 EQ PUSH2 0x1455 JUMPI PUSH1 0x0 DUP1 REVERT JUMPDEST POP JUMP JUMPDEST PUSH1 0x0 DUP2 CALLDATALOAD SWAP1 POP PUSH2 0x1467 DUP2 PUSH2 0x1441 JUMP JUMPDEST SWAP3 SWAP2 POP POP JUMP JUMPDEST PUSH1 0x0 DUP1 PUSH1 0x40 DUP4 DUP6 SUB SLT ISZERO PUSH2 0x1484 JUMPI PUSH2 0x1483 PUSH2 0x13CA JUMP JUMPDEST JUMPDEST PUSH1 0x0 PUSH2 0x1492 DUP6 DUP3 DUP7 ADD PUSH2 0x13FA JUMP JUMPDEST SWAP3 POP POP PUSH1 0x20 PUSH2 0x14A3 DUP6 DUP3 DUP7 ADD PUSH2 0x1458 JUMP JUMPDEST SWAP2 POP POP SWAP3 POP SWAP3 SWAP1 POP JUMP JUMPDEST PUSH1 0x0 PUSH12 0xFFFFFFFFFFFFFFFFFFFFFFFF DUP3 AND SWAP1 POP SWAP2 SWAP1 POP JUMP JUMPDEST PUSH2 0x14CE DUP2 PUSH2 0x14AD JUMP JUMPDEST DUP3 MSTORE POP POP JUMP JUMPDEST PUSH1 0x0 PUSH1 0x20 DUP3 ADD SWAP1 POP PUSH2 0x14E9 PUSH1 0x0 DUP4 ADD DUP5 PUSH2 0x14C5 JUMP JUMPDEST SWAP3 SWAP2 POP POP JUMP JUMPDEST PUSH2 0x14F8 DUP2 PUSH2 0x12F0 JUMP JUMPDEST DUP2 EQ PUSH2 0x1503 JUMPI PUSH1 0x0 DUP1 REVERT JUMPDEST POP JUMP JUMPDEST PUSH1 0x0 DUP2 CALLDATALOAD SWAP1 POP PUSH2 0x1515 DUP2 PUSH2 0x14EF JUMP JUMPDEST SWAP3 SWAP2 POP POP JUMP JUMPDEST PUSH2 0x1524 DUP2 PUSH2 0x1288 JUMP JUMPDEST DUP2 EQ PUSH2 0x152F JUMPI PUSH1 0x0 DUP1 REVERT JUMPDEST POP JUMP JUMPDEST PUSH1 0x0 DUP2 CALLDATALOAD SWAP1 POP PUSH2 0x1541 DUP2 PUSH2 0x151B JUMP JUMPDEST SWAP3 SWAP2 POP POP JUMP JUMPDEST PUSH2 0x1550 DUP2 PUSH2 0x12A5 JUMP JUMPDEST DUP2 EQ PUSH2 0x155B JUMPI PUSH1 0x0 DUP1 REVERT JUMPDEST POP JUMP JUMPDEST PUSH1 0x0 DUP2 CALLDATALOAD SWAP1 POP PUSH2 0x156D DUP2 PUSH2 0x1547 JUMP JUMPDEST SWAP3 SWAP2 POP POP JUMP JUMPDEST PUSH1 0x0 DUP1 PUSH1 0x0 DUP1 PUSH1 0x0 PUSH1 0xA0 DUP7 DUP9 SUB SLT ISZERO PUSH2 0x158F JUMPI PUSH2 0x158E PUSH2 0x13CA JUMP JUMPDEST JUMPDEST PUSH1 0x0 PUSH2 0x159D DUP9 DUP3 DUP10 ADD PUSH2 0x1506 JUMP JUMPDEST SWAP6 POP POP PUSH1 0x20 PUSH2 0x15AE DUP9 DUP3 DUP10 ADD PUSH2 0x13FA JUMP JUMPDEST SWAP5 POP POP PUSH1 0x40 PUSH2 0x15BF DUP9 DUP3 DUP10 ADD PUSH2 0x1532 JUMP JUMPDEST SWAP4 POP POP PUSH1 0x60 PUSH2 0x15D0 DUP9 DUP3 DUP10 ADD PUSH2 0x155E JUMP JUMPDEST SWAP3 POP POP PUSH1 0x80 PUSH2 0x15E1 DUP9 DUP3 DUP10 ADD PUSH2 0x155E JUMP JUMPDEST SWAP2 POP POP SWAP3 SWAP6 POP SWAP3 SWAP6 SWAP1 SWAP4 POP JUMP JUMPDEST PUSH1 0x0 DUP2 SWAP1 POP SWAP2 SWAP1 POP JUMP JUMPDEST PUSH2 0x1601 DUP2 PUSH2 0x15EE JUMP JUMPDEST DUP3 MSTORE POP POP JUMP JUMPDEST PUSH1 0x0 PUSH1 0x20 DUP3 ADD SWAP1 POP PUSH2 0x161C PUSH1 0x0 DUP4 ADD DUP5 PUSH2 0x15F8 JUMP JUMPDEST SWAP3 SWAP2 POP POP JUMP JUMPDEST PUSH2 0x162B DUP2 PUSH2 0x15EE JUMP JUMPDEST DUP2 EQ PUSH2 0x1636 JUMPI PUSH1 0x0 DUP1 REVERT JUMPDEST POP JUMP JUMPDEST PUSH1 0x0 DUP2 CALLDATALOAD SWAP1 POP PUSH2 0x1648 DUP2 PUSH2 0x1622 JUMP JUMPDEST SWAP3 SWAP2 POP POP JUMP JUMPDEST PUSH1 0x0 DUP1 PUSH1 0x40 DUP4 DUP6 SUB SLT ISZERO PUSH2 0x1665 JUMPI PUSH2 0x1664 PUSH2 0x13CA JUMP JUMPDEST JUMPDEST PUSH1 0x0 PUSH2 0x1673 DUP6 DUP3 DUP7 ADD PUSH2 0x1639 JUMP JUMPDEST SWAP3 POP POP PUSH1 0x20 PUSH2 0x1684 DUP6 DUP3 DUP7 ADD PUSH2 0x1458 JUMP JUMPDEST SWAP2 POP POP SWAP3 POP SWAP3 SWAP1 POP JUMP JUMPDEST PUSH1 0x0 PUSH1 0x20 DUP3 DUP5 SUB SLT ISZERO PUSH2 0x16A4 JUMPI PUSH2 0x16A3 PUSH2 0x13CA JUMP JUMPDEST JUMPDEST PUSH1 0x0 PUSH2 0x16B2 DUP5 DUP3 DUP6 ADD PUSH2 0x13FA JUMP JUMPDEST SWAP2 POP POP SWAP3 SWAP2 POP POP JUMP JUMPDEST PUSH2 0x16C4 DUP2 PUSH2 0x13CF JUMP JUMPDEST DUP3 MSTORE POP POP JUMP JUMPDEST PUSH1 0x0 PUSH1 0x20 DUP3 ADD SWAP1 POP PUSH2 0x16DF PUSH1 0x0 DUP4 ADD DUP5 PUSH2 0x16BB JUMP JUMPDEST SWAP3 SWAP2 POP POP JUMP JUMPDEST PUSH2 0x16EE DUP2 PUSH2 0x142F JUMP JUMPDEST DUP3 MSTORE POP POP JUMP JUMPDEST PUSH1 0x0 DUP2 MLOAD SWAP1 POP SWAP2 SWAP1 POP JUMP JUMPDEST PUSH1 0x0 DUP3 DUP3 MSTORE PUSH1 0x20 DUP3 ADD SWAP1 POP SWAP3 SWAP2 POP POP JUMP JUMPDEST PUSH1 0x0 DUP2 SWAP1 POP PUSH1 0x20 DUP3 ADD SWAP1 POP SWAP2 SWAP1 POP JUMP JUMPDEST PUSH2 0x1729 DUP2 PUSH2 0x142F JUMP JUMPDEST DUP3 MSTORE POP POP JUMP JUMPDEST PUSH1 0x0 PUSH2 0x173B DUP4 DUP4 PUSH2 0x1720 JUMP JUMPDEST PUSH1 0x20 DUP4 ADD SWAP1 POP SWAP3 SWAP2 POP POP JUMP JUMPDEST PUSH1 0x0 PUSH1 0x20 DUP3 ADD SWAP1 POP SWAP2 SWAP1 POP JUMP JUMPDEST PUSH1 0x0 PUSH2 0x175F DUP3 PUSH2 0x16F4 JUMP JUMPDEST PUSH2 0x1769 DUP2 DUP6 PUSH2 0x16FF JUMP JUMPDEST SWAP4 POP PUSH2 0x1774 DUP4 PUSH2 0x1710 JUMP JUMPDEST DUP1 PUSH1 0x0 JUMPDEST DUP4 DUP2 LT ISZERO PUSH2 0x17A5 JUMPI DUP2 MLOAD PUSH2 0x178C DUP9 DUP3 PUSH2 0x172F JUMP JUMPDEST SWAP8 POP PUSH2 0x1797 DUP4 PUSH2 0x1747 JUMP JUMPDEST SWAP3 POP POP PUSH1 0x1 DUP2 ADD SWAP1 POP PUSH2 0x1778 JUMP JUMPDEST POP DUP6 SWAP4 POP POP POP POP SWAP3 SWAP2 POP POP JUMP JUMPDEST PUSH1 0x0 PUSH1 0x80 DUP3 ADD SWAP1 POP PUSH2 0x17C7 PUSH1 0x0 DUP4 ADD DUP8 PUSH2 0x14C5 JUMP JUMPDEST PUSH2 0x17D4 PUSH1 0x20 DUP4 ADD DUP7 PUSH2 0x16BB JUMP JUMPDEST PUSH2 0x17E1 PUSH1 0x40 DUP4 ADD DUP6 PUSH2 0x16E5 JUMP JUMPDEST DUP2 DUP2 SUB PUSH1 0x60 DUP4 ADD MSTORE PUSH2 0x17F3 DUP2 DUP5 PUSH2 0x1754 JUMP JUMPDEST SWAP1 POP SWAP6 SWAP5 POP POP POP POP POP JUMP JUMPDEST PUSH2 0x1807 DUP2 PUSH2 0x14AD JUMP JUMPDEST DUP2 EQ PUSH2 0x1812 JUMPI PUSH1 0x0 DUP1 REVERT JUMPDEST POP JUMP JUMPDEST PUSH1 0x0 DUP2 CALLDATALOAD SWAP1 POP PUSH2 0x1824 DUP2 PUSH2 0x17FE JUMP JUMPDEST SWAP3 SWAP2 POP POP JUMP JUMPDEST PUSH1 0x0 DUP1 PUSH1 0x40 DUP4 DUP6 SUB SLT ISZERO PUSH2 0x1841 JUMPI PUSH2 0x1840 PUSH2 0x13CA JUMP JUMPDEST JUMPDEST PUSH1 0x0 PUSH2 0x184F DUP6 DUP3 DUP7 ADD PUSH2 0x13FA JUMP JUMPDEST SWAP3 POP POP PUSH1 0x20 PUSH2 0x1860 DUP6 DUP3 DUP7 ADD PUSH2 0x1815 JUMP JUMPDEST SWAP2 POP POP SWAP3 POP SWAP3 SWAP1 POP JUMP JUMPDEST PUSH32 0x4E487B7100000000000000000000000000000000000000000000000000000000 PUSH1 0x0 MSTORE PUSH1 0x41 PUSH1 0x4 MSTORE PUSH1 0x24 PUSH1 0x0 REVERT JUMPDEST PUSH1 0x0 DUP3 DUP3 MSTORE PUSH1 0x20 DUP3 ADD SWAP1 POP SWAP3 SWAP2 POP POP JUMP JUMPDEST PUSH32 0x6E6F7420696D706C656D656E7465640000000000000000000000000000000000 PUSH1 0x0 DUP3 ADD MSTORE POP JUMP JUMPDEST PUSH1 0x0 PUSH2 0x18E0 PUSH1 0xF DUP4 PUSH2 0x1899 JUMP JUMPDEST SWAP2 POP PUSH2 0x18EB DUP3 PUSH2 0x18AA JUMP JUMPDEST PUSH1 0x20 DUP3 ADD SWAP1 POP SWAP2 SWAP1 POP JUMP JUMPDEST PUSH1 0x0 PUSH1 0x20 DUP3 ADD SWAP1 POP DUP2 DUP2 SUB PUSH1 0x0 DUP4 ADD MSTORE PUSH2 0x190F DUP2 PUSH2 0x18D3 JUMP JUMPDEST SWAP1 POP SWAP2 SWAP1 POP JUMP JUMPDEST PUSH32 0x4E487B7100000000000000000000000000000000000000000000000000000000 PUSH1 0x0 MSTORE PUSH1 0x11 PUSH1 0x4 MSTORE PUSH1 0x24 PUSH1 0x0 REVERT JUMPDEST PUSH1 0x0 PUSH2 0x1950 DUP3 PUSH2 0x15EE JUMP JUMPDEST SWAP2 POP PUSH32 0xFFFFFFFFFFFFFFFFFFFFFFFFFFFFFFFFFFFFFFFFFFFFFFFFFFFFFFFFFFFFFFFF DUP3 SUB PUSH2 0x1982 JUMPI PUSH2 0x1981 PUSH2 0x1916 JUMP JUMPDEST JUMPDEST PUSH1 0x1 DUP3 ADD SWAP1 POP SWAP2 SWAP1 POP JUMP JUMPDEST PUSH1 0x0 PUSH1 0xA0 DUP3 ADD SWAP1 POP PUSH2 0x19A2 PUSH1 0x0 DUP4 ADD DUP9 PUSH2 0x15F8 JUMP JUMPDEST PUSH2 0x19AF PUSH1 0x20 DUP4 ADD DUP8 PUSH2 0x15F8 JUMP JUMPDEST PUSH2 0x19BC PUSH1 0x40 DUP4 ADD DUP7 PUSH2 0x1296 JUMP JUMPDEST PUSH2 0x19C9 PUSH1 0x60 DUP4 ADD DUP6 PUSH2 0x12B5 JUMP JUMPDEST PUSH2 0x19D6 PUSH1 0x80 DUP4 ADD DUP5 PUSH2 0x12B5 JUMP JUMPDEST SWAP7 SWAP6 POP POP POP POP POP POP JUMP JUMPDEST PUSH32 0x6E6F6E6578697374656E74207265717565737400000000000000000000000000 PUSH1 0x0 DUP3 ADD MSTORE POP JUMP JUMPDEST PUSH1 0x0 PUSH2 0x1A16 PUSH1 0x13 DUP4 PUSH2 0x1899 JUMP JUMPDEST SWAP2 POP PUSH2 0x1A21 DUP3 PUSH2 0x19E0 JUMP JUMPDEST PUSH1 0x20 DUP3 ADD SWAP1 POP SWAP2 SWAP1 POP JUMP JUMPDEST PUSH1 0x0 PUSH1 0x20 DUP3 ADD SWAP1 POP DUP2 DUP2 SUB PUSH1 0x0 DUP4 ADD MSTORE PUSH2 0x1A45 DUP2 PUSH2 0x1A09 JUMP JUMPDEST SWAP1 POP SWAP2 SWAP1 POP JUMP JUMPDEST PUSH1 0x0 PUSH1 0x40 DUP3 ADD SWAP1 POP PUSH2 0x1A61 PUSH1 0x0 DUP4 ADD DUP6 PUSH2 0x15F8 JUMP JUMPDEST PUSH2 0x1A6E PUSH1 0x20 DUP4 ADD DUP5 PUSH2 0x15F8 JUMP JUMPDEST SWAP4 SWAP3 POP POP POP JUMP JUMPDEST PUSH32 0x4E487B7100000000000000000000000000000000000000000000000000000000 PUSH1 0x0 MSTORE PUSH1 0x32 PUSH1 0x4 MSTORE PUSH1 0x24 PUSH1 0x0 REVERT JUMPDEST PUSH1 0x0 DUP2 MLOAD SWAP1 POP SWAP2 SWAP1 POP JUMP JUMPDEST PUSH1 0x0 DUP3 DUP3 MSTORE PUSH1 0x20 DUP3 ADD SWAP1 POP SWAP3 SWAP2 POP POP JUMP JUMPDEST PUSH1 0x0 DUP2 SWAP1 POP PUSH1 0x20 DUP3 ADD SWAP1 POP SWAP2 SWAP1 POP JUMP JUMPDEST PUSH2 0x1AD9 DUP2 PUSH2 0x15EE JUMP JUMPDEST DUP3 MSTORE POP POP JUMP JUMPDEST PUSH1 0x0 PUSH2 0x1AEB DUP4 DUP4 PUSH2 0x1AD0 JUMP JUMPDEST PUSH1 0x20 DUP4 ADD SWAP1 POP SWAP3 SWAP2 POP POP JUMP JUMPDEST PUSH1 0x0 PUSH1 0x20 DUP3 ADD SWAP1 POP SWAP2 SWAP1 POP JUMP JUMPDEST PUSH1 0x0 PUSH2 0x1B0F DUP3 PUSH2 0x1AA4 JUMP JUMPDEST PUSH2 0x1B19 DUP2 DUP6 PUSH2 0x1AAF JUMP JUMPDEST SWAP4 POP PUSH2 0x1B24 DUP4 PUSH2 0x1AC0 JUMP JUMPDEST DUP1 PUSH1 0x0 JUMPDEST DUP4 DUP2 LT ISZERO PUSH2 0x1B55 JUMPI DUP2 MLOAD PUSH2 0x1B3C DUP9 DUP3 PUSH2 0x1ADF JUMP JUMPDEST SWAP8 POP PUSH2 0x1B47 DUP4 PUSH2 0x1AF7 JUMP JUMPDEST SWAP3 POP POP PUSH1 0x1 DUP2 ADD SWAP1 POP PUSH2 0x1B28 JUMP JUMPDEST POP DUP6 SWAP4 POP POP POP POP SWAP3 SWAP2 POP POP JUMP JUMPDEST PUSH1 0x0 PUSH1 0x40 DUP3 ADD SWAP1 POP PUSH2 0x1B77 PUSH1 0x0 DUP4 ADD DUP6 PUSH2 0x15F8 JUMP JUMPDEST DUP2 DUP2 SUB PUSH1 0x20 DUP4 ADD MSTORE PUSH2 0x1B89 DUP2 DUP5 PUSH2 0x1B04 JUMP JUMPDEST SWAP1 POP SWAP4 SWAP3 POP POP POP JUMP JUMPDEST PUSH1 0x0 DUP2 MLOAD SWAP1 POP SWAP2 SWAP1 POP JUMP JUMPDEST PUSH1 0x0 DUP2 SWAP1 POP SWAP3 SWAP2 POP POP JUMP JUMPDEST PUSH1 0x0 JUMPDEST DUP4 DUP2 LT ISZERO PUSH2 0x1BC6 JUMPI DUP1 DUP3 ADD MLOAD DUP2 DUP5 ADD MSTORE PUSH1 0x20 DUP2 ADD SWAP1 POP PUSH2 0x1BAB JUMP JUMPDEST PUSH1 0x0 DUP5 DUP5 ADD MSTORE POP POP POP POP JUMP JUMPDEST PUSH1 0x0 PUSH2 0x1BDD DUP3 PUSH2 0x1B92 JUMP JUMPDEST PUSH2 0x1BE7 DUP2 DUP6 PUSH2 0x1B9D JUMP JUMPDEST SWAP4 POP PUSH2 0x1BF7 DUP2 DUP6 PUSH1 0x20 DUP7 ADD PUSH2 0x1BA8 JUMP JUMPDEST DUP1 DUP5 ADD SWAP2 POP POP SWAP3 SWAP2 POP POP JUMP JUMPDEST PUSH1 0x0 PUSH2 0x1C0F DUP3 DUP5 PUSH2 0x1BD2 JUMP JUMPDEST SWAP2 POP DUP2 SWAP1 POP SWAP3 SWAP2 POP POP JUMP JUMPDEST PUSH1 0x0 PUSH2 0x1C25 DUP3 PUSH2 0x15EE JUMP JUMPDEST SWAP2 POP PUSH2 0x1C30 DUP4 PUSH2 0x15EE JUMP JUMPDEST SWAP3 POP DUP3 DUP3 SUB SWAP1 POP DUP2 DUP2 GT ISZERO PUSH2 0x1C48 JUMPI PUSH2 0x1C47 PUSH2 0x1916 JUMP JUMPDEST JUMPDEST SWAP3 SWAP2 POP POP JUMP JUMPDEST PUSH1 0x0 PUSH2 0x1C59 DUP3 PUSH2 0x15EE JUMP JUMPDEST SWAP2 POP PUSH2 0x1C64 DUP4 PUSH2 0x15EE JUMP JUMPDEST SWAP3 POP DUP3 DUP3 MUL PUSH2 0x1C72 DUP2 PUSH2 0x15EE JUMP JUMPDEST SWAP2 POP DUP3 DUP3 DIV DUP5 EQ DUP4 ISZERO OR PUSH2 0x1C89 JUMPI PUSH2 0x1C88 PUSH2 0x1916 JUMP JUMPDEST JUMPDEST POP SWAP3 SWAP2 POP POP JUMP JUMPDEST PUSH1 0x0 PUSH2 0x1C9B DUP3 PUSH2 0x15EE JUMP JUMPDEST SWAP2 POP PUSH2 0x1CA6 DUP4 PUSH2 0x15EE JUMP JUMPDEST SWAP3 POP DUP3 DUP3 ADD SWAP1 POP DUP1 DUP3 GT ISZERO PUSH2 0x1CBE JUMPI PUSH2 0x1CBD PUSH2 0x1916 JUMP JUMPDEST JUMPDEST SWAP3 SWAP2 POP POP JUMP JUMPDEST PUSH1 0x0 PUSH2 0x1CCF DUP3 PUSH2 0x14AD JUMP JUMPDEST SWAP2 POP PUSH2 0x1CDA DUP4 PUSH2 0x14AD JUMP JUMPDEST SWAP3 POP DUP3 DUP3 SUB SWAP1 POP PUSH12 0xFFFFFFFFFFFFFFFFFFFFFFFF DUP2 GT ISZERO PUSH2 0x1CFE JUMPI PUSH2 0x1CFD PUSH2 0x1916 JUMP JUMPDEST JUMPDEST SWAP3 SWAP2 POP POP JUMP JUMPDEST PUSH1 0x0 DUP2 ISZERO ISZERO SWAP1 POP SWAP2 SWAP1 POP JUMP JUMPDEST PUSH2 0x1D19 DUP2 PUSH2 0x1D04 JUMP JUMPDEST DUP3 MSTORE POP POP JUMP JUMPDEST PUSH1 0x0 PUSH1 0x60 DUP3 ADD SWAP1 POP PUSH2 0x1D34 PUSH1 0x0 DUP4 ADD DUP7 PUSH2 0x15F8 JUMP JUMPDEST PUSH2 0x1D41 PUSH1 0x20 DUP4 ADD DUP6 PUSH2 0x14C5 JUMP JUMPDEST PUSH2 0x1D4E PUSH1 0x40 DUP4 ADD DUP5 PUSH2 0x1D10 JUMP JUMPDEST SWAP5 SWAP4 POP POP POP POP JUMP JUMPDEST PUSH1 0x0 PUSH2 0x1D61 DUP3 PUSH2 0x13CF JUMP JUMPDEST SWAP2 POP PUSH8 0xFFFFFFFFFFFFFFFF DUP3 SUB PUSH2 0x1D7B JUMPI PUSH2 0x1D7A PUSH2 0x1916 JUMP JUMPDEST JUMPDEST PUSH1 0x1 DUP3 ADD SWAP1 POP SWAP2 SWAP1 POP JUMP JUMPDEST PUSH1 0x0 PUSH1 0x20 DUP3 ADD SWAP1 POP PUSH2 0x1D9B PUSH1 0x0 DUP4 ADD DUP5 PUSH2 0x16E5 JUMP JUMPDEST SWAP3 SWAP2 POP POP JUMP JUMPDEST PUSH1 0x0 PUSH2 0x1DAC DUP3 PUSH2 0x14AD JUMP JUMPDEST SWAP2 POP PUSH2 0x1DB7 DUP4 PUSH2 0x14AD JUMP JUMPDEST SWAP3 POP DUP3 DUP3 ADD SWAP1 POP PUSH12 0xFFFFFFFFFFFFFFFFFFFFFFFF DUP2 GT ISZERO PUSH2 0x1DDB JUMPI PUSH2 0x1DDA PUSH2 0x1916 JUMP JUMPDEST JUMPDEST SWAP3 SWAP2 POP POP JUMP JUMPDEST PUSH1 0x0 DUP2 SWAP1 POP SWAP2 SWAP1 POP JUMP JUMPDEST PUSH1 0x0 PUSH2 0x1E06 PUSH2 0x1E01 PUSH2 0x1DFC DUP5 PUSH2 0x14AD JUMP JUMPDEST PUSH2 0x1DE1 JUMP JUMPDEST PUSH2 0x15EE JUMP JUMPDEST SWAP1 POP SWAP2 SWAP1 POP JUMP JUMPDEST PUSH2 0x1E16 DUP2 PUSH2 0x1DEB JUMP JUMPDEST DUP3 MSTORE POP POP JUMP JUMPDEST PUSH1 0x0 PUSH1 0x40 DUP3 ADD SWAP1 POP PUSH2 0x1E31 PUSH1 0x0 DUP4 ADD DUP6 PUSH2 0x1E0D JUMP JUMPDEST PUSH2 0x1E3E PUSH1 0x20 DUP4 ADD DUP5 PUSH2 0x1E0D JUMP JUMPDEST SWAP4 SWAP3 POP POP POP JUMP JUMPDEST PUSH1 0x0 PUSH1 0x40 DUP3 ADD SWAP1 POP PUSH2 0x1E5A PUSH1 0x0 DUP4 ADD DUP6 PUSH2 0x16E5 JUMP JUMPDEST PUSH2 0x1E67 PUSH1 0x20 DUP4 ADD DUP5 PUSH2 0x1E0D JUMP JUMPDEST SWAP4 SWAP3 POP POP POP JUMP INVALID LOG2 PUSH5 0x6970667358 0x22 SLT KECCAK256 0xB7 CALLVALUE DUP13 PUSH8 0x378F123C1C78A131 SWAP15 XOR 0xDD CODESIZE DUP13 SWAP6 CREATE 0xE7 OR DIV SGT 0xBC 0xDC ORIGIN 0x4F 0xBF 0xB3 MUL ADDRESS 0x4A PUSH5 0x736F6C6343 STOP ADDMOD GT STOP CALLER "},"gasEstimates":{"creation":{"codeDepositCost":"1568800","executionCost":"infinite","totalCost":"infinite"},"external":{"BASE_FEE()":"infinite","GAS_PRICE_LINK()":"infinite","acceptSubscriptionOwnerTransfer(uint64)":"723","addConsumer(uint64,address)":"1009","cancelSubscription(uint64,address)":"infinite","createSubscription()":"infinite","fulfillRandomWords(uint256,address)":"infinite","fundSubscription(uint64,uint96)":"infinite","getRequestConfig()":"885","getSubscription(uint64)":"infinite","removeConsumer(uint64,address)":"965","requestRandomWords(bytes32,uint64,uint16,uint32,uint32)":"infinite","requestSubscriptionOwnerTransfer(uint64,address)":"943"}},"methodIdentifiers":{"BASE_FEE()":"3d18651e","GAS_PRICE_LINK()":"a410347f","acceptSubscriptionOwnerTransfer(uint64)":"82359740","addConsumer(uint64,address)":"7341c10c","cancelSubscription(uint64,address)":"d7ae1d30","createSubscription()":"a21a23e4","fulfillRandomWords(uint256,address)":"808974ff","fundSubscription(uint64,uint96)":"afc69b53","getRequestConfig()":"00012291","getSubscription(uint64)":"a47c7696","removeConsumer(uint64,address)":"9f87fad7","requestRandomWords(bytes32,uint64,uint16,uint32,uint32)":"5d3b1d30","requestSubscriptionOwnerTransfer(uint64,address)":"04c357cb"}},"storageLayout":{"storage":[{"astId":358,"contract":"@chainlink/contracts/src/v0.8/mocks/VRFCoordinatorV2Mock.sol:VRFCoordinatorV2Mock","label":"s_currentSubId","offset":0,"slot":"0","type":"t_uint64"},{"astId":361,"contract":"@chainlink/contracts/src/v0.8/mocks/VRFCoordinatorV2Mock.sol:VRFCoordinatorV2Mock","label":"s_nextRequestId","offset":0,"slot":"1","type":"t_uint256"},{"astId":364,"contract":"@chainlink/contracts/src/v0.8/mocks/VRFCoordinatorV2Mock.sol:VRFCoordinatorV2Mock","label":"s_nextPreSeed","offset":0,"slot":"2","type":"t_uint256"},{"astId":374,"contract":"@chainlink/contracts/src/v0.8/mocks/VRFCoordinatorV2Mock.sol:VRFCoordinatorV2Mock","label":"s_subscriptions","offset":0,"slot":"3","type":"t_mapping(t_uint64,t_struct(Subscription)369_storage)"},{"astId":386,"contract":"@chainlink/contracts/src/v0.8/mocks/VRFCoordinatorV2Mock.sol:VRFCoordinatorV2Mock","label":"s_requests","offset":0,"slot":"4","type":"t_mapping(t_uint256,t_struct(Request)381_storage)"}],"types":{"t_address":{"encoding":"inplace","label":"address","numberOfBytes":"20"},"t_mapping(t_uint256,t_struct(Request)381_storage)":{"encoding":"mapping","key":"t_uint256","label":"mapping(uint256 => struct VRFCoordinatorV2Mock.Request)","numberOfBytes":"32","value":"t_struct(Request)381_storage"},"t_mapping(t_uint64,t_struct(Subscription)369_storage)":{"encoding":"mapping","key":"t_uint64","label":"mapping(uint64 => struct VRFCoordinatorV2Mock.Subscription)","numberOfBytes":"32","value":"t_struct(Subscription)369_storage"},"t_struct(Request)381_storage":{"encoding":"inplace","label":"struct VRFCoordinatorV2Mock.Request","members":[{"astId":376,"contract":"@chainlink/contracts/src/v0.8/mocks/VRFCoordinatorV2Mock.sol:VRFCoordinatorV2Mock","label":"subId","offset":0,"slot":"0","type":"t_uint64"},{"astId":378,"contract":"@chainlink/contracts/src/v0.8/mocks/VRFCoordinatorV2Mock.sol:VRFCoordinatorV2Mock","label":"callbackGasLimit","offset":8,"slot":"0","type":"t_uint32"},{"astId":380,"contract":"@chainlink/contracts/src/v0.8/mocks/VRFCoordinatorV2Mock.sol:VRFCoordinatorV2Mock","label":"numWords","offset":12,"slot":"0","type":"t_uint32"}],"numberOfBytes":"32"},"t_struct(Subscription)369_storage":{"encoding":"inplace","label":"struct VRFCoordinatorV2Mock.Subscription","members":[{"astId":366,"contract":"@chainlink/contracts/src/v0.8/mocks/VRFCoordinatorV2Mock.sol:VRFCoordinatorV2Mock","label":"owner","offset":0,"slot":"0","type":"t_address"},{"astId":368,"contract":"@chainlink/contracts/src/v0.8/mocks/VRFCoordinatorV2Mock.sol:VRFCoordinatorV2Mock","label":"balance","offset":20,"slot":"0","type":"t_uint96"}],"numberOfBytes":"32"},"t_uint256":{"encoding":"inplace","label":"uint256","numberOfBytes":"32"},"t_uint32":{"encoding":"inplace","label":"uint32","numberOfBytes":"4"},"t_uint64":{"encoding":"inplace","label":"uint64","numberOfBytes":"8"},"t_uint96":{"encoding":"inplace","label":"uint96","numberOfBytes":"12"}}},"userdoc":{"kind":"user","methods":{"createSubscription()":{"notice":"Create a VRF subscription."},"fulfillRandomWords(uint256,address)":{"notice":"fulfillRandomWords fulfills the given request, sending the random words to the suppliedconsumer."},"fundSubscription(uint64,uint96)":{"notice":"fundSubscription allows funding a subscription with an arbitrary amount for testing."},"getRequestConfig()":{"notice":"Get configuration relevant for making requests"}},"version":1}}}}