{"contracts/RandomIpfsNft.sol":{"RandomIpfsNft":{"abi":[{"inputs":[{"internalType":"address","name":"vrfCoordinatorV2","type":"address"},{"internalType":"uint64","name":"subscriptionId","type":"uint64"},{"internalType":"bytes32","name":"gasLane","type":"bytes32"},{"internalType":"uint32","name":"callbackGasLimit","type":"uint32"},{"internalType":"string[3]","name":"dogTokenUris","type":"string[3]"},{"internalType":"uint256","name":"mintFee","type":"uint256"}],"stateMutability":"nonpayable","type":"constructor"},{"inputs":[{"internalType":"address","name":"have","type":"address"},{"internalType":"address","name":"want","type":"address"}],"name":"OnlyCoordinatorCanFulfill","type":"error"},{"inputs":[],"name":"RandomIpfsNft__AlreadyInitialized","type":"error"},{"inputs":[],"name":"RandomIpfsNft__NeedMoreETHSent","type":"error"},{"inputs":[],"name":"RandomIpfsNft__RangeOutOfBounds","type":"error"},{"inputs":[],"name":"RandomIpfsNft__TransferFailed","type":"error"},{"anonymous":false,"inputs":[{"indexed":true,"internalType":"address","name":"owner","type":"address"},{"indexed":true,"internalType":"address","name":"approved","type":"address"},{"indexed":true,"internalType":"uint256","name":"tokenId","type":"uint256"}],"name":"Approval","type":"event"},{"anonymous":false,"inputs":[{"indexed":true,"internalType":"address","name":"owner","type":"address"},{"indexed":true,"internalType":"address","name":"operator","type":"address"},{"indexed":false,"internalType":"bool","name":"approved","type":"bool"}],"name":"ApprovalForAll","type":"event"},{"anonymous":false,"inputs":[{"indexed":false,"internalType":"enum RandomIpfsNft.Breed","name":"dogBreed","type":"uint8"},{"indexed":false,"internalType":"address","name":"minter","type":"address"}],"name":"NftMinted","type":"event"},{"anonymous":false,"inputs":[{"indexed":true,"internalType":"uint256","name":"requestId","type":"uint256"},{"indexed":false,"internalType":"address","name":"requester","type":"address"}],"name":"NftRequested","type":"event"},{"anonymous":false,"inputs":[{"indexed":true,"internalType":"address","name":"previousOwner","type":"address"},{"indexed":true,"internalType":"address","name":"newOwner","type":"address"}],"name":"OwnershipTransferred","type":"event"},{"anonymous":false,"inputs":[{"indexed":true,"internalType":"address","name":"from","type":"address"},{"indexed":true,"internalType":"address","name":"to","type":"address"},{"indexed":true,"internalType":"uint256","name":"tokenId","type":"uint256"}],"name":"Transfer","type":"event"},{"inputs":[{"internalType":"address","name":"to","type":"address"},{"internalType":"uint256","name":"tokenId","type":"uint256"}],"name":"approve","outputs":[],"stateMutability":"nonpayable","type":"function"},{"inputs":[{"internalType":"address","name":"owner","type":"address"}],"name":"balanceOf","outputs":[{"internalType":"uint256","name":"","type":"uint256"}],"stateMutability":"view","type":"function"},{"inputs":[{"internalType":"uint256","name":"tokenId","type":"uint256"}],"name":"getApproved","outputs":[{"internalType":"address","name":"","type":"address"}],"stateMutability":"view","type":"function"},{"inputs":[{"internalType":"uint256","name":"moddedRng","type":"uint256"}],"name":"getBreedFromModdedRng","outputs":[{"internalType":"enum RandomIpfsNft.Breed","name":"","type":"uint8"}],"stateMutability":"pure","type":"function"},{"inputs":[],"name":"getChanceArray","outputs":[{"internalType":"uint256[3]","name":"","type":"uint256[3]"}],"stateMutability":"pure","type":"function"},{"inputs":[{"internalType":"uint256","name":"index","type":"uint256"}],"name":"getDogTokenUris","outputs":[{"internalType":"string","name":"","type":"string"}],"stateMutability":"view","type":"function"},{"inputs":[],"name":"getInitialized","outputs":[{"internalType":"bool","name":"","type":"bool"}],"stateMutability":"view","type":"function"},{"inputs":[],"name":"getMintFee","outputs":[{"internalType":"uint256","name":"","type":"uint256"}],"stateMutability":"view","type":"function"},{"inputs":[],"name":"getTokenCounter","outputs":[{"internalType":"uint256","name":"","type":"uint256"}],"stateMutability":"view","type":"function"},{"inputs":[{"internalType":"address","name":"owner","type":"address"},{"internalType":"address","name":"operator","type":"address"}],"name":"isApprovedForAll","outputs":[{"internalType":"bool","name":"","type":"bool"}],"stateMutability":"view","type":"function"},{"inputs":[],"name":"name","outputs":[{"internalType":"string","name":"","type":"string"}],"stateMutability":"view","type":"function"},{"inputs":[],"name":"owner","outputs":[{"internalType":"address","name":"","type":"address"}],"stateMutability":"view","type":"function"},{"inputs":[{"internalType":"uint256","name":"tokenId","type":"uint256"}],"name":"ownerOf","outputs":[{"internalType":"address","name":"","type":"address"}],"stateMutability":"view","type":"function"},{"inputs":[{"internalType":"uint256","name":"requestId","type":"uint256"},{"internalType":"uint256[]","name":"randomWords","type":"uint256[]"}],"name":"rawFulfillRandomWords","outputs":[],"stateMutability":"nonpayable","type":"function"},{"inputs":[],"name":"renounceOwnership","outputs":[],"stateMutability":"nonpayable","type":"function"},{"inputs":[],"name":"requestNft","outputs":[{"internalType":"uint256","name":"requestId","type":"uint256"}],"stateMutability":"payable","type":"function"},{"inputs":[{"internalType":"uint256","name":"","type":"uint256"}],"name":"s_requestIdToSender","outputs":[{"internalType":"address","name":"","type":"address"}],"stateMutability":"view","type":"function"},{"inputs":[{"internalType":"address","name":"from","type":"address"},{"internalType":"address","name":"to","type":"address"},{"internalType":"uint256","name":"tokenId","type":"uint256"}],"name":"safeTransferFrom","outputs":[],"stateMutability":"nonpayable","type":"function"},{"inputs":[{"internalType":"address","name":"from","type":"address"},{"internalType":"address","name":"to","type":"address"},{"internalType":"uint256","name":"tokenId","type":"uint256"},{"internalType":"bytes","name":"data","type":"bytes"}],"name":"safeTransferFrom","outputs":[],"stateMutability":"nonpayable","type":"function"},{"inputs":[{"internalType":"address","name":"operator","type":"address"},{"internalType":"bool","name":"approved","type":"bool"}],"name":"setApprovalForAll","outputs":[],"stateMutability":"nonpayable","type":"function"},{"inputs":[{"internalType":"bytes4","name":"interfaceId","type":"bytes4"}],"name":"supportsInterface","outputs":[{"internalType":"bool","name":"","type":"bool"}],"stateMutability":"view","type":"function"},{"inputs":[],"name":"symbol","outputs":[{"internalType":"string","name":"","type":"string"}],"stateMutability":"view","type":"function"},{"inputs":[{"internalType":"uint256","name":"tokenId","type":"uint256"}],"name":"tokenURI","outputs":[{"internalType":"string","name":"","type":"string"}],"stateMutability":"view","type":"function"},{"inputs":[{"internalType":"address","name":"from","type":"address"},{"internalType":"address","name":"to","type":"address"},{"internalType":"uint256","name":"tokenId","type":"uint256"}],"name":"transferFrom","outputs":[],"stateMutability":"nonpayable","type":"function"},{"inputs":[{"internalType":"address","name":"newOwner","type":"address"}],"name":"transferOwnership","outputs":[],"stateMutability":"nonpayable","type":"function"},{"inputs":[],"name":"withdraw","outputs":[],"stateMutability":"nonpayable","type":"function"}],"devdoc":{"kind":"dev","methods":{"approve(address,uint256)":{"details":"See {IERC721-approve}."},"balanceOf(address)":{"details":"See {IERC721-balanceOf}."},"getApproved(uint256)":{"details":"See {IERC721-getApproved}."},"isApprovedForAll(address,address)":{"details":"See {IERC721-isApprovedForAll}."},"name()":{"details":"See {IERC721Metadata-name}."},"owner()":{"details":"Returns the address of the current owner."},"ownerOf(uint256)":{"details":"See {IERC721-ownerOf}."},"renounceOwnership()":{"details":"Leaves the contract without owner. It will not be possible to call `onlyOwner` functions anymore. Can only be called by the current owner. NOTE: Renouncing ownership will leave the contract without an owner, thereby removing any functionality that is only available to the owner."},"safeTransferFrom(address,address,uint256)":{"details":"See {IERC721-safeTransferFrom}."},"safeTransferFrom(address,address,uint256,bytes)":{"details":"See {IERC721-safeTransferFrom}."},"setApprovalForAll(address,bool)":{"details":"See {IERC721-setApprovalForAll}."},"supportsInterface(bytes4)":{"details":"See {IERC165-supportsInterface}."},"symbol()":{"details":"See {IERC721Metadata-symbol}."},"tokenURI(uint256)":{"details":"See {IERC721Metadata-tokenURI}."},"transferFrom(address,address,uint256)":{"details":"See {IERC721-transferFrom}."},"transferOwnership(address)":{"details":"Transfers ownership of the contract to a new account (`newOwner`). Can only be called by the current owner."}},"version":1},"evm":{"bytecode":{"linkReferences":{},"object":"6101406040523480156200001257600080fd5b506040516200471b3803806200471b8339818101604052810190620000389190620007da565b6040518060400160405280600f81526020017f52616e646f6d2049504653204e465400000000000000000000000000000000008152506040518060400160405280600381526020017f52494e0000000000000000000000000000000000000000000000000000000000815250878073ffffffffffffffffffffffffffffffffffffffff1660808173ffffffffffffffffffffffffffffffffffffffff1681525050508160009081620000eb919062000ad6565b508060019081620000fd919062000ad6565b5050506200012062000114620001c760201b60201c565b620001cf60201b60201c565b8573ffffffffffffffffffffffffffffffffffffffff1660a08173ffffffffffffffffffffffffffffffffffffffff16815250508467ffffffffffffffff1660c08167ffffffffffffffff16815250508360e081815250508263ffffffff166101008163ffffffff168152505081600a906003620001a09291906200030f565b50806101208181525050620001bb826200029560201b60201c565b50505050505062000bbd565b600033905090565b6000600760009054906101000a900473ffffffffffffffffffffffffffffffffffffffff16905081600760006101000a81548173ffffffffffffffffffffffffffffffffffffffff021916908373ffffffffffffffffffffffffffffffffffffffff1602179055508173ffffffffffffffffffffffffffffffffffffffff168173ffffffffffffffffffffffffffffffffffffffff167f8be0079c531659141344cd1fd0a4f28419497f9722a3daafe3b4186f6b6457e060405160405180910390a35050565b600b60009054906101000a900460ff1615620002dd576040517fddf8bf7000000000000000000000000000000000000000000000000000000000815260040160405180910390fd5b80600a906003620002f09291906200030f565b506001600b60006101000a81548160ff02191690831515021790555050565b8280548282559060005260206000209081019282156200035c579160200282015b828111156200035b5782518290816200034a919062000ad6565b509160200191906001019062000330565b5b5090506200036b91906200036f565b5090565b5b8082111562000393576000818162000389919062000397565b5060010162000370565b5090565b508054620003a590620008cf565b6000825580601f10620003b95750620003da565b601f016020900490600052602060002090810190620003d99190620003dd565b5b50565b5b80821115620003f8576000816000905550600101620003de565b5090565b6000604051905090565b600080fd5b600080fd5b600073ffffffffffffffffffffffffffffffffffffffff82169050919050565b60006200043d8262000410565b9050919050565b6200044f8162000430565b81146200045b57600080fd5b50565b6000815190506200046f8162000444565b92915050565b600067ffffffffffffffff82169050919050565b620004948162000475565b8114620004a057600080fd5b50565b600081519050620004b48162000489565b92915050565b6000819050919050565b620004cf81620004ba565b8114620004db57600080fd5b50565b600081519050620004ef81620004c4565b92915050565b600063ffffffff82169050919050565b6200051081620004f5565b81146200051c57600080fd5b50565b600081519050620005308162000505565b92915050565b600080fd5b6000601f19601f8301169050919050565b7f4e487b7100000000000000000000000000000000000000000000000000000000600052604160045260246000fd5b62000586826200053b565b810181811067ffffffffffffffff82111715620005a857620005a76200054c565b5b80604052505050565b6000620005bd620003fc565b9050620005cb82826200057b565b919050565b600067ffffffffffffffff821115620005ee57620005ed6200054c565b5b602082029050919050565b600080fd5b600080fd5b600067ffffffffffffffff8211156200062157620006206200054c565b5b6200062c826200053b565b9050602081019050919050565b60005b83811015620006595780820151818401526020810190506200063c565b60008484015250505050565b60006200067c620006768462000603565b620005b1565b9050828152602081018484840111156200069b576200069a620005fe565b5b620006a884828562000639565b509392505050565b600082601f830112620006c857620006c762000536565b5b8151620006da84826020860162000665565b91505092915050565b6000620006fa620006f484620005d0565b620005b1565b90508060208402830185811115620007175762000716620005f9565b5b835b818110156200076557805167ffffffffffffffff81111562000740576200073f62000536565b5b8086016200074f8982620006b0565b8552602085019450505060208101905062000719565b5050509392505050565b600082601f83011262000787576200078662000536565b5b600362000796848285620006e3565b91505092915050565b6000819050919050565b620007b4816200079f565b8114620007c057600080fd5b50565b600081519050620007d481620007a9565b92915050565b60008060008060008060c08789031215620007fa57620007f962000406565b5b60006200080a89828a016200045e565b96505060206200081d89828a01620004a3565b95505060406200083089828a01620004de565b94505060606200084389828a016200051f565b935050608087015167ffffffffffffffff8111156200086757620008666200040b565b5b6200087589828a016200076f565b92505060a06200088889828a01620007c3565b9150509295509295509295565b600081519050919050565b7f4e487b7100000000000000000000000000000000000000000000000000000000600052602260045260246000fd5b60006002820490506001821680620008e857607f821691505b602082108103620008fe57620008fd620008a0565b5b50919050565b60008190508160005260206000209050919050565b60006020601f8301049050919050565b600082821b905092915050565b600060088302620009687fffffffffffffffffffffffffffffffffffffffffffffffffffffffffffffffff8262000929565b62000974868362000929565b95508019841693508086168417925050509392505050565b6000819050919050565b6000620009b7620009b1620009ab846200079f565b6200098c565b6200079f565b9050919050565b6000819050919050565b620009d38362000996565b620009eb620009e282620009be565b84845462000936565b825550505050565b600090565b62000a02620009f3565b62000a0f818484620009c8565b505050565b5b8181101562000a375762000a2b600082620009f8565b60018101905062000a15565b5050565b601f82111562000a865762000a508162000904565b62000a5b8462000919565b8101602085101562000a6b578190505b62000a8362000a7a8562000919565b83018262000a14565b50505b505050565b600082821c905092915050565b600062000aab6000198460080262000a8b565b1980831691505092915050565b600062000ac6838362000a98565b9150826002028217905092915050565b62000ae18262000895565b67ffffffffffffffff81111562000afd5762000afc6200054c565b5b62000b098254620008cf565b62000b1682828562000a3b565b600060209050601f83116001811462000b4e576000841562000b39578287015190505b62000b45858262000ab8565b86555062000bb5565b601f19841662000b5e8662000904565b60005b8281101562000b885784890151825560018201915060208501945060208101905062000b61565b8683101562000ba8578489015162000ba4601f89168262000a98565b8355505b6001600288020188555050505b505050505050565b60805160a05160c05160e0516101005161012051613b0062000c1b60003960008181610d6d0152610f660152600061104001526000610ffc0152600061101d01526000610fc0015260008181610916015261096a0152613b006000f3fe6080604052600436106101815760003560e01c8063715018a6116100d1578063a51cccf31161008a578063c87b56dd11610064578063c87b56dd14610575578063e985e9c5146105b2578063ee89dab4146105ef578063f2fde38b1461061a57610181565b8063a51cccf3146104f1578063aa1524911461052e578063b88d4fde1461054c57610181565b8063715018a6146103f35780637a5caab31461040a5780638da5cb5b1461043557806395d89b4114610460578063a22cb4651461048b578063a36f573b146104b457610181565b80633af259751161013e5780635dacf5f4116101185780635dacf5f4146103235780636352211e1461034e5780636e02007d1461038b57806370a08231146103b657610181565b80633af25975146102a65780633ccfd60b146102e357806342842e0e146102fa57610181565b806301ffc9a71461018657806306fdde03146101c3578063081812fc146101ee578063095ea7b31461022b5780631fe543e31461025457806323b872dd1461027d575b600080fd5b34801561019257600080fd5b506101ad60048036038101906101a8919061245d565b610643565b6040516101ba91906124a5565b60405180910390f35b3480156101cf57600080fd5b506101d8610725565b6040516101e59190612550565b60405180910390f35b3480156101fa57600080fd5b50610215600480360381019061021091906125a8565b6107b7565b6040516102229190612616565b60405180910390f35b34801561023757600080fd5b50610252600480360381019061024d919061265d565b6107fd565b005b34801561026057600080fd5b5061027b600480360381019061027691906127e5565b610914565b005b34801561028957600080fd5b506102a4600480360381019061029f9190612841565b6109d4565b005b3480156102b257600080fd5b506102cd60048036038101906102c891906125a8565b610a34565b6040516102da9190612550565b60405180910390f35b3480156102ef57600080fd5b506102f8610ae4565b005b34801561030657600080fd5b50610321600480360381019061031c9190612841565b610b98565b005b34801561032f57600080fd5b50610338610bb8565b604051610345919061293f565b60405180910390f35b34801561035a57600080fd5b50610375600480360381019061037091906125a8565b610be3565b6040516103829190612616565b60405180910390f35b34801561039757600080fd5b506103a0610c94565b6040516103ad9190612969565b60405180910390f35b3480156103c257600080fd5b506103dd60048036038101906103d89190612984565b610c9e565b6040516103ea9190612969565b60405180910390f35b3480156103ff57600080fd5b50610408610d55565b005b34801561041657600080fd5b5061041f610d69565b60405161042c9190612969565b60405180910390f35b34801561044157600080fd5b5061044a610d91565b6040516104579190612616565b60405180910390f35b34801561046c57600080fd5b50610475610dbb565b6040516104829190612550565b60405180910390f35b34801561049757600080fd5b506104b260048036038101906104ad91906129dd565b610e4d565b005b3480156104c057600080fd5b506104db60048036038101906104d691906125a8565b610e63565b6040516104e89190612616565b60405180910390f35b3480156104fd57600080fd5b50610518600480360381019061051391906125a8565b610e96565b6040516105259190612a94565b60405180910390f35b610536610f62565b6040516105439190612969565b60405180910390f35b34801561055857600080fd5b50610573600480360381019061056e9190612b64565b611153565b005b34801561058157600080fd5b5061059c600480360381019061059791906125a8565b6111b5565b6040516105a99190612550565b60405180910390f35b3480156105be57600080fd5b506105d960048036038101906105d49190612be7565b6112c7565b6040516105e691906124a5565b60405180910390f35b3480156105fb57600080fd5b5061060461135b565b60405161061191906124a5565b60405180910390f35b34801561062657600080fd5b50610641600480360381019061063c9190612984565b611372565b005b60007f80ac58cd000000000000000000000000000000000000000000000000000000007bffffffffffffffffffffffffffffffffffffffffffffffffffffffff1916827bffffffffffffffffffffffffffffffffffffffffffffffffffffffff1916148061070e57507f5b5e139f000000000000000000000000000000000000000000000000000000007bffffffffffffffffffffffffffffffffffffffffffffffffffffffff1916827bffffffffffffffffffffffffffffffffffffffffffffffffffffffff1916145b8061071e575061071d826113f5565b5b9050919050565b60606000805461073490612c56565b80601f016020809104026020016040519081016040528092919081815260200182805461076090612c56565b80156107ad5780601f10610782576101008083540402835291602001916107ad565b820191906000526020600020905b81548152906001019060200180831161079057829003601f168201915b5050505050905090565b60006107c28261145f565b6004600083815260200190815260200160002060009054906101000a900473ffffffffffffffffffffffffffffffffffffffff169050919050565b600061080882610be3565b90508073ffffffffffffffffffffffffffffffffffffffff168373ffffffffffffffffffffffffffffffffffffffff1603610878576040517f08c379a000000000000000000000000000000000000000000000000000000000815260040161086f90612cf9565b60405180910390fd5b8073ffffffffffffffffffffffffffffffffffffffff166108976114aa565b73ffffffffffffffffffffffffffffffffffffffff1614806108c657506108c5816108c06114aa565b6112c7565b5b610905576040517f08c379a00000000000000000000000000000000000000000000000000000000081526004016108fc90612d8b565b60405180910390fd5b61090f83836114b2565b505050565b7f000000000000000000000000000000000000000000000000000000000000000073ffffffffffffffffffffffffffffffffffffffff163373ffffffffffffffffffffffffffffffffffffffff16146109c657337f00000000000000000000000000000000000000000000000000000000000000006040517f1cf993f40000000000000000000000000000000000000000000000000000000081526004016109bd929190612dab565b60405180910390fd5b6109d0828261156b565b5050565b6109e56109df6114aa565b8261170a565b610a24576040517f08c379a0000000000000000000000000000000000000000000000000000000008152600401610a1b90612e46565b60405180910390fd5b610a2f83838361179f565b505050565b6060600a8281548110610a4a57610a49612e66565b5b906000526020600020018054610a5f90612c56565b80601f0160208091040260200160405190810160405280929190818152602001828054610a8b90612c56565b8015610ad85780601f10610aad57610100808354040283529160200191610ad8565b820191906000526020600020905b815481529060010190602001808311610abb57829003601f168201915b50505050509050919050565b610aec611a05565b600047905060003373ffffffffffffffffffffffffffffffffffffffff1682604051610b1790612ec6565b60006040518083038185875af1925050503d8060008114610b54576040519150601f19603f3d011682016040523d82523d6000602084013e610b59565b606091505b5050905080610b94576040517fca7e25b700000000000000000000000000000000000000000000000000000000815260040160405180910390fd5b5050565b610bb383838360405180602001604052806000815250611153565b505050565b610bc06123cf565b6040518060600160405280600a8152602001601e81526020016064815250905090565b6000806002600084815260200190815260200160002060009054906101000a900473ffffffffffffffffffffffffffffffffffffffff169050600073ffffffffffffffffffffffffffffffffffffffff168173ffffffffffffffffffffffffffffffffffffffff1603610c8b576040517f08c379a0000000000000000000000000000000000000000000000000000000008152600401610c8290612f27565b60405180910390fd5b80915050919050565b6000600954905090565b60008073ffffffffffffffffffffffffffffffffffffffff168273ffffffffffffffffffffffffffffffffffffffff1603610d0e576040517f08c379a0000000000000000000000000000000000000000000000000000000008152600401610d0590612fb9565b60405180910390fd5b600360008373ffffffffffffffffffffffffffffffffffffffff1673ffffffffffffffffffffffffffffffffffffffff168152602001908152602001600020549050919050565b610d5d611a05565b610d676000611a83565b565b60007f0000000000000000000000000000000000000000000000000000000000000000905090565b6000600760009054906101000a900473ffffffffffffffffffffffffffffffffffffffff16905090565b606060018054610dca90612c56565b80601f0160208091040260200160405190810160405280929190818152602001828054610df690612c56565b8015610e435780601f10610e1857610100808354040283529160200191610e43565b820191906000526020600020905b815481529060010190602001808311610e2657829003601f168201915b5050505050905090565b610e5f610e586114aa565b8383611b49565b5050565b60086020528060005260406000206000915054906101000a900473ffffffffffffffffffffffffffffffffffffffff1681565b600080600090506000610ea7610bb8565b905060005b6003811015610f2a57828510158015610edb5750818160038110610ed357610ed2612e66565b5b602002015185105b15610efd57806002811115610ef357610ef2612a1d565b5b9350505050610f5d565b818160038110610f1057610f0f612e66565b5b602002015192508080610f2290613008565b915050610eac565b506040517f12806c9d00000000000000000000000000000000000000000000000000000000815260040160405180910390fd5b919050565b60007f0000000000000000000000000000000000000000000000000000000000000000341015610fbe576040517fb90f491000000000000000000000000000000000000000000000000000000000815260040160405180910390fd5b7f000000000000000000000000000000000000000000000000000000000000000073ffffffffffffffffffffffffffffffffffffffff16635d3b1d307f00000000000000000000000000000000000000000000000000000000000000007f000000000000000000000000000000000000000000000000000000000000000060037f000000000000000000000000000000000000000000000000000000000000000060016040518663ffffffff1660e01b81526004016110819594939291906130c8565b6020604051808303816000875af11580156110a0573d6000803e3d6000fd5b505050506040513d601f19601f820116820180604052508101906110c49190613130565b9050336008600083815260200190815260200160002060006101000a81548173ffffffffffffffffffffffffffffffffffffffff021916908373ffffffffffffffffffffffffffffffffffffffff160217905550807ff873236e6cc0ecc5be1a9a35c95ee5b8d1ac4cc7bfef0cc5060391d6cc98e26b336040516111489190612616565b60405180910390a290565b61116461115e6114aa565b8361170a565b6111a3576040517f08c379a000000000000000000000000000000000000000000000000000000000815260040161119a90612e46565b60405180910390fd5b6111af84848484611cb5565b50505050565b60606111c08261145f565b60006006600084815260200190815260200160002080546111e090612c56565b80601f016020809104026020016040519081016040528092919081815260200182805461120c90612c56565b80156112595780601f1061122e57610100808354040283529160200191611259565b820191906000526020600020905b81548152906001019060200180831161123c57829003601f168201915b50505050509050600061126a611d11565b9050600081510361127f5781925050506112c2565b6000825111156112b457808260405160200161129c929190613199565b604051602081830303815290604052925050506112c2565b6112bd84611d28565b925050505b919050565b6000600560008473ffffffffffffffffffffffffffffffffffffffff1673ffffffffffffffffffffffffffffffffffffffff16815260200190815260200160002060008373ffffffffffffffffffffffffffffffffffffffff1673ffffffffffffffffffffffffffffffffffffffff16815260200190815260200160002060009054906101000a900460ff16905092915050565b6000600b60009054906101000a900460ff16905090565b61137a611a05565b600073ffffffffffffffffffffffffffffffffffffffff168173ffffffffffffffffffffffffffffffffffffffff16036113e9576040517f08c379a00000000000000000000000000000000000000000000000000000000081526004016113e09061322f565b60405180910390fd5b6113f281611a83565b50565b60007f01ffc9a7000000000000000000000000000000000000000000000000000000007bffffffffffffffffffffffffffffffffffffffffffffffffffffffff1916827bffffffffffffffffffffffffffffffffffffffffffffffffffffffff1916149050919050565b61146881611d90565b6114a7576040517f08c379a000000000000000000000000000000000000000000000000000000000815260040161149e90612f27565b60405180910390fd5b50565b600033905090565b816004600083815260200190815260200160002060006101000a81548173ffffffffffffffffffffffffffffffffffffffff021916908373ffffffffffffffffffffffffffffffffffffffff160217905550808273ffffffffffffffffffffffffffffffffffffffff1661152583610be3565b73ffffffffffffffffffffffffffffffffffffffff167f8c5be1e5ebec7d5bd14f71427d1e84f3dd0314c0f7b2291e5b200ac8c7c3b92560405160405180910390a45050565b60006008600084815260200190815260200160002060009054906101000a900473ffffffffffffffffffffffffffffffffffffffff1690506000600954905060006064846000815181106115c2576115c1612e66565b5b60200260200101516115d4919061327e565b905060006115e182610e96565b90506001600960008282546115f691906132af565b925050819055506116078484611dfc565b6116c983600a8360028111156116205761161f612a1d565b5b8154811061163157611630612e66565b5b90600052602060002001805461164690612c56565b80601f016020809104026020016040519081016040528092919081815260200182805461167290612c56565b80156116bf5780601f10611694576101008083540402835291602001916116bf565b820191906000526020600020905b8154815290600101906020018083116116a257829003601f168201915b5050505050611e1a565b7f8a269f26b688e110e9cbd887d163dab35cae678fa353a0292de532c0cac1ecdc81856040516116fa9291906132e3565b60405180910390a1505050505050565b60008061171683610be3565b90508073ffffffffffffffffffffffffffffffffffffffff168473ffffffffffffffffffffffffffffffffffffffff161480611758575061175781856112c7565b5b8061179657508373ffffffffffffffffffffffffffffffffffffffff1661177e846107b7565b73ffffffffffffffffffffffffffffffffffffffff16145b91505092915050565b8273ffffffffffffffffffffffffffffffffffffffff166117bf82610be3565b73ffffffffffffffffffffffffffffffffffffffff1614611815576040517f08c379a000000000000000000000000000000000000000000000000000000000815260040161180c9061337e565b60405180910390fd5b600073ffffffffffffffffffffffffffffffffffffffff168273ffffffffffffffffffffffffffffffffffffffff1603611884576040517f08c379a000000000000000000000000000000000000000000000000000000000815260040161187b90613410565b60405180910390fd5b61188f838383611e87565b61189a6000826114b2565b6001600360008573ffffffffffffffffffffffffffffffffffffffff1673ffffffffffffffffffffffffffffffffffffffff16815260200190815260200160002060008282546118ea9190613430565b925050819055506001600360008473ffffffffffffffffffffffffffffffffffffffff1673ffffffffffffffffffffffffffffffffffffffff168152602001908152602001600020600082825461194191906132af565b92505081905550816002600083815260200190815260200160002060006101000a81548173ffffffffffffffffffffffffffffffffffffffff021916908373ffffffffffffffffffffffffffffffffffffffff160217905550808273ffffffffffffffffffffffffffffffffffffffff168473ffffffffffffffffffffffffffffffffffffffff167fddf252ad1be2c89b69c2b068fc378daa952ba7f163c4a11628f55a4df523b3ef60405160405180910390a4611a00838383611e8c565b505050565b611a0d6114aa565b73ffffffffffffffffffffffffffffffffffffffff16611a2b610d91565b73ffffffffffffffffffffffffffffffffffffffff1614611a81576040517f08c379a0000000000000000000000000000000000000000000000000000000008152600401611a78906134b0565b60405180910390fd5b565b6000600760009054906101000a900473ffffffffffffffffffffffffffffffffffffffff16905081600760006101000a81548173ffffffffffffffffffffffffffffffffffffffff021916908373ffffffffffffffffffffffffffffffffffffffff1602179055508173ffffffffffffffffffffffffffffffffffffffff168173ffffffffffffffffffffffffffffffffffffffff167f8be0079c531659141344cd1fd0a4f28419497f9722a3daafe3b4186f6b6457e060405160405180910390a35050565b8173ffffffffffffffffffffffffffffffffffffffff168373ffffffffffffffffffffffffffffffffffffffff1603611bb7576040517f08c379a0000000000000000000000000000000000000000000000000000000008152600401611bae9061351c565b60405180910390fd5b80600560008573ffffffffffffffffffffffffffffffffffffffff1673ffffffffffffffffffffffffffffffffffffffff16815260200190815260200160002060008473ffffffffffffffffffffffffffffffffffffffff1673ffffffffffffffffffffffffffffffffffffffff16815260200190815260200160002060006101000a81548160ff0219169083151502179055508173ffffffffffffffffffffffffffffffffffffffff168373ffffffffffffffffffffffffffffffffffffffff167f17307eab39ab6107e8899845ad3d59bd9653f200f220920489ca2b5937696c3183604051611ca891906124a5565b60405180910390a3505050565b611cc084848461179f565b611ccc84848484611e91565b611d0b576040517f08c379a0000000000000000000000000000000000000000000000000000000008152600401611d02906135ae565b60405180910390fd5b50505050565b606060405180602001604052806000815250905090565b6060611d338261145f565b6000611d3d611d11565b90506000815111611d5d5760405180602001604052806000815250611d88565b80611d6784612018565b604051602001611d78929190613199565b6040516020818303038152906040525b915050919050565b60008073ffffffffffffffffffffffffffffffffffffffff166002600084815260200190815260200160002060009054906101000a900473ffffffffffffffffffffffffffffffffffffffff1673ffffffffffffffffffffffffffffffffffffffff1614159050919050565b611e16828260405180602001604052806000815250612178565b5050565b611e2382611d90565b611e62576040517f08c379a0000000000000000000000000000000000000000000000000000000008152600401611e5990613640565b60405180910390fd5b80600660008481526020019081526020016000209081611e82919061380c565b505050565b505050565b505050565b6000611eb28473ffffffffffffffffffffffffffffffffffffffff166121d3565b1561200b578373ffffffffffffffffffffffffffffffffffffffff1663150b7a02611edb6114aa565b8786866040518563ffffffff1660e01b8152600401611efd9493929190613933565b6020604051808303816000875af1925050508015611f3957506040513d601f19601f82011682018060405250810190611f369190613994565b60015b611fbb573d8060008114611f69576040519150601f19603f3d011682016040523d82523d6000602084013e611f6e565b606091505b506000815103611fb3576040517f08c379a0000000000000000000000000000000000000000000000000000000008152600401611faa906135ae565b60405180910390fd5b805181602001fd5b63150b7a0260e01b7bffffffffffffffffffffffffffffffffffffffffffffffffffffffff1916817bffffffffffffffffffffffffffffffffffffffffffffffffffffffff191614915050612010565b600190505b949350505050565b60606000820361205f576040518060400160405280600181526020017f30000000000000000000000000000000000000000000000000000000000000008152509050612173565b600082905060005b6000821461209157808061207a90613008565b915050600a8261208a91906139c1565b9150612067565b60008167ffffffffffffffff8111156120ad576120ac6126a2565b5b6040519080825280601f01601f1916602001820160405280156120df5781602001600182028036833780820191505090505b5090505b6000851461216c576001826120f89190613430565b9150600a85612107919061327e565b603061211391906132af565b60f81b81838151811061212957612128612e66565b5b60200101907effffffffffffffffffffffffffffffffffffffffffffffffffffffffffffff1916908160001a905350600a8561216591906139c1565b94506120e3565b8093505050505b919050565b61218283836121f6565b61218f6000848484611e91565b6121ce576040517f08c379a00000000000000000000000000000000000000000000000000000000081526004016121c5906135ae565b60405180910390fd5b505050565b6000808273ffffffffffffffffffffffffffffffffffffffff163b119050919050565b600073ffffffffffffffffffffffffffffffffffffffff168273ffffffffffffffffffffffffffffffffffffffff1603612265576040517f08c379a000000000000000000000000000000000000000000000000000000000815260040161225c90613a3e565b60405180910390fd5b61226e81611d90565b156122ae576040517f08c379a00000000000000000000000000000000000000000000000000000000081526004016122a590613aaa565b60405180910390fd5b6122ba60008383611e87565b6001600360008473ffffffffffffffffffffffffffffffffffffffff1673ffffffffffffffffffffffffffffffffffffffff168152602001908152602001600020600082825461230a91906132af565b92505081905550816002600083815260200190815260200160002060006101000a81548173ffffffffffffffffffffffffffffffffffffffff021916908373ffffffffffffffffffffffffffffffffffffffff160217905550808273ffffffffffffffffffffffffffffffffffffffff16600073ffffffffffffffffffffffffffffffffffffffff167fddf252ad1be2c89b69c2b068fc378daa952ba7f163c4a11628f55a4df523b3ef60405160405180910390a46123cb60008383611e8c565b5050565b6040518060600160405280600390602082028036833780820191505090505090565b6000604051905090565b600080fd5b600080fd5b60007fffffffff0000000000000000000000000000000000000000000000000000000082169050919050565b61243a81612405565b811461244557600080fd5b50565b60008135905061245781612431565b92915050565b600060208284031215612473576124726123fb565b5b600061248184828501612448565b91505092915050565b60008115159050919050565b61249f8161248a565b82525050565b60006020820190506124ba6000830184612496565b92915050565b600081519050919050565b600082825260208201905092915050565b60005b838110156124fa5780820151818401526020810190506124df565b60008484015250505050565b6000601f19601f8301169050919050565b6000612522826124c0565b61252c81856124cb565b935061253c8185602086016124dc565b61254581612506565b840191505092915050565b6000602082019050818103600083015261256a8184612517565b905092915050565b6000819050919050565b61258581612572565b811461259057600080fd5b50565b6000813590506125a28161257c565b92915050565b6000602082840312156125be576125bd6123fb565b5b60006125cc84828501612593565b91505092915050565b600073ffffffffffffffffffffffffffffffffffffffff82169050919050565b6000612600826125d5565b9050919050565b612610816125f5565b82525050565b600060208201905061262b6000830184612607565b92915050565b61263a816125f5565b811461264557600080fd5b50565b60008135905061265781612631565b92915050565b60008060408385031215612674576126736123fb565b5b600061268285828601612648565b925050602061269385828601612593565b9150509250929050565b600080fd5b7f4e487b7100000000000000000000000000000000000000000000000000000000600052604160045260246000fd5b6126da82612506565b810181811067ffffffffffffffff821117156126f9576126f86126a2565b5b80604052505050565b600061270c6123f1565b905061271882826126d1565b919050565b600067ffffffffffffffff821115612738576127376126a2565b5b602082029050602081019050919050565b600080fd5b600061276161275c8461271d565b612702565b9050808382526020820190506020840283018581111561278457612783612749565b5b835b818110156127ad57806127998882612593565b845260208401935050602081019050612786565b5050509392505050565b600082601f8301126127cc576127cb61269d565b5b81356127dc84826020860161274e565b91505092915050565b600080604083850312156127fc576127fb6123fb565b5b600061280a85828601612593565b925050602083013567ffffffffffffffff81111561282b5761282a612400565b5b612837858286016127b7565b9150509250929050565b60008060006060848603121561285a576128596123fb565b5b600061286886828701612648565b935050602061287986828701612648565b925050604061288a86828701612593565b9150509250925092565b600060039050919050565b600081905092915050565b6000819050919050565b6128bd81612572565b82525050565b60006128cf83836128b4565b60208301905092915050565b6000602082019050919050565b6128f181612894565b6128fb818461289f565b9250612906826128aa565b8060005b8381101561293757815161291e87826128c3565b9650612929836128db565b92505060018101905061290a565b505050505050565b600060608201905061295460008301846128e8565b92915050565b61296381612572565b82525050565b600060208201905061297e600083018461295a565b92915050565b60006020828403121561299a576129996123fb565b5b60006129a884828501612648565b91505092915050565b6129ba8161248a565b81146129c557600080fd5b50565b6000813590506129d7816129b1565b92915050565b600080604083850312156129f4576129f36123fb565b5b6000612a0285828601612648565b9250506020612a13858286016129c8565b9150509250929050565b7f4e487b7100000000000000000000000000000000000000000000000000000000600052602160045260246000fd5b60038110612a5d57612a5c612a1d565b5b50565b6000819050612a6e82612a4c565b919050565b6000612a7e82612a60565b9050919050565b612a8e81612a73565b82525050565b6000602082019050612aa96000830184612a85565b92915050565b600080fd5b600067ffffffffffffffff821115612acf57612ace6126a2565b5b612ad882612506565b9050602081019050919050565b82818337600083830152505050565b6000612b07612b0284612ab4565b612702565b905082815260208101848484011115612b2357612b22612aaf565b5b612b2e848285612ae5565b509392505050565b600082601f830112612b4b57612b4a61269d565b5b8135612b5b848260208601612af4565b91505092915050565b60008060008060808587031215612b7e57612b7d6123fb565b5b6000612b8c87828801612648565b9450506020612b9d87828801612648565b9350506040612bae87828801612593565b925050606085013567ffffffffffffffff811115612bcf57612bce612400565b5b612bdb87828801612b36565b91505092959194509250565b60008060408385031215612bfe57612bfd6123fb565b5b6000612c0c85828601612648565b9250506020612c1d85828601612648565b9150509250929050565b7f4e487b7100000000000000000000000000000000000000000000000000000000600052602260045260246000fd5b60006002820490506001821680612c6e57607f821691505b602082108103612c8157612c80612c27565b5b50919050565b7f4552433732313a20617070726f76616c20746f2063757272656e74206f776e6560008201527f7200000000000000000000000000000000000000000000000000000000000000602082015250565b6000612ce36021836124cb565b9150612cee82612c87565b604082019050919050565b60006020820190508181036000830152612d1281612cd6565b9050919050565b7f4552433732313a20617070726f76652063616c6c6572206973206e6f7420746f60008201527f6b656e206f776e6572206e6f7220617070726f76656420666f7220616c6c0000602082015250565b6000612d75603e836124cb565b9150612d8082612d19565b604082019050919050565b60006020820190508181036000830152612da481612d68565b9050919050565b6000604082019050612dc06000830185612607565b612dcd6020830184612607565b9392505050565b7f4552433732313a2063616c6c6572206973206e6f7420746f6b656e206f776e6560008201527f72206e6f7220617070726f766564000000000000000000000000000000000000602082015250565b6000612e30602e836124cb565b9150612e3b82612dd4565b604082019050919050565b60006020820190508181036000830152612e5f81612e23565b9050919050565b7f4e487b7100000000000000000000000000000000000000000000000000000000600052603260045260246000fd5b600081905092915050565b50565b6000612eb0600083612e95565b9150612ebb82612ea0565b600082019050919050565b6000612ed182612ea3565b9150819050919050565b7f4552433732313a20696e76616c696420746f6b656e2049440000000000000000600082015250565b6000612f116018836124cb565b9150612f1c82612edb565b602082019050919050565b60006020820190508181036000830152612f4081612f04565b9050919050565b7f4552433732313a2061646472657373207a65726f206973206e6f74206120766160008201527f6c6964206f776e65720000000000000000000000000000000000000000000000602082015250565b6000612fa36029836124cb565b9150612fae82612f47565b604082019050919050565b60006020820190508181036000830152612fd281612f96565b9050919050565b7f4e487b7100000000000000000000000000000000000000000000000000000000600052601160045260246000fd5b600061301382612572565b91507fffffffffffffffffffffffffffffffffffffffffffffffffffffffffffffffff820361304557613044612fd9565b5b600182019050919050565b6000819050919050565b61306381613050565b82525050565b600067ffffffffffffffff82169050919050565b61308681613069565b82525050565b600061ffff82169050919050565b6130a38161308c565b82525050565b600063ffffffff82169050919050565b6130c2816130a9565b82525050565b600060a0820190506130dd600083018861305a565b6130ea602083018761307d565b6130f7604083018661309a565b61310460608301856130b9565b61311160808301846130b9565b9695505050505050565b60008151905061312a8161257c565b92915050565b600060208284031215613146576131456123fb565b5b60006131548482850161311b565b91505092915050565b600081905092915050565b6000613173826124c0565b61317d818561315d565b935061318d8185602086016124dc565b80840191505092915050565b60006131a58285613168565b91506131b18284613168565b91508190509392505050565b7f4f776e61626c653a206e6577206f776e657220697320746865207a65726f206160008201527f6464726573730000000000000000000000000000000000000000000000000000602082015250565b60006132196026836124cb565b9150613224826131bd565b604082019050919050565b600060208201905081810360008301526132488161320c565b9050919050565b7f4e487b7100000000000000000000000000000000000000000000000000000000600052601260045260246000fd5b600061328982612572565b915061329483612572565b9250826132a4576132a361324f565b5b828206905092915050565b60006132ba82612572565b91506132c583612572565b92508282019050808211156132dd576132dc612fd9565b5b92915050565b60006040820190506132f86000830185612a85565b6133056020830184612607565b9392505050565b7f4552433732313a207472616e736665722066726f6d20696e636f72726563742060008201527f6f776e6572000000000000000000000000000000000000000000000000000000602082015250565b60006133686025836124cb565b91506133738261330c565b604082019050919050565b600060208201905081810360008301526133978161335b565b9050919050565b7f4552433732313a207472616e7366657220746f20746865207a65726f2061646460008201527f7265737300000000000000000000000000000000000000000000000000000000602082015250565b60006133fa6024836124cb565b91506134058261339e565b604082019050919050565b60006020820190508181036000830152613429816133ed565b9050919050565b600061343b82612572565b915061344683612572565b925082820390508181111561345e5761345d612fd9565b5b92915050565b7f4f776e61626c653a2063616c6c6572206973206e6f7420746865206f776e6572600082015250565b600061349a6020836124cb565b91506134a582613464565b602082019050919050565b600060208201905081810360008301526134c98161348d565b9050919050565b7f4552433732313a20617070726f766520746f2063616c6c657200000000000000600082015250565b60006135066019836124cb565b9150613511826134d0565b602082019050919050565b60006020820190508181036000830152613535816134f9565b9050919050565b7f4552433732313a207472616e7366657220746f206e6f6e20455243373231526560008201527f63656976657220696d706c656d656e7465720000000000000000000000000000602082015250565b60006135986032836124cb565b91506135a38261353c565b604082019050919050565b600060208201905081810360008301526135c78161358b565b9050919050565b7f45524337323155524953746f726167653a2055524920736574206f66206e6f6e60008201527f6578697374656e7420746f6b656e000000000000000000000000000000000000602082015250565b600061362a602e836124cb565b9150613635826135ce565b604082019050919050565b600060208201905081810360008301526136598161361d565b9050919050565b60008190508160005260206000209050919050565b60006020601f8301049050919050565b600082821b905092915050565b6000600883026136c27fffffffffffffffffffffffffffffffffffffffffffffffffffffffffffffffff82613685565b6136cc8683613685565b95508019841693508086168417925050509392505050565b6000819050919050565b60006137096137046136ff84612572565b6136e4565b612572565b9050919050565b6000819050919050565b613723836136ee565b61373761372f82613710565b848454613692565b825550505050565b600090565b61374c61373f565b61375781848461371a565b505050565b5b8181101561377b57613770600082613744565b60018101905061375d565b5050565b601f8211156137c05761379181613660565b61379a84613675565b810160208510156137a9578190505b6137bd6137b585613675565b83018261375c565b50505b505050565b600082821c905092915050565b60006137e3600019846008026137c5565b1980831691505092915050565b60006137fc83836137d2565b9150826002028217905092915050565b613815826124c0565b67ffffffffffffffff81111561382e5761382d6126a2565b5b6138388254612c56565b61384382828561377f565b600060209050601f8311600181146138765760008415613864578287015190505b61386e85826137f0565b8655506138d6565b601f19841661388486613660565b60005b828110156138ac57848901518255600182019150602085019450602081019050613887565b868310156138c957848901516138c5601f8916826137d2565b8355505b6001600288020188555050505b505050505050565b600081519050919050565b600082825260208201905092915050565b6000613905826138de565b61390f81856138e9565b935061391f8185602086016124dc565b61392881612506565b840191505092915050565b60006080820190506139486000830187612607565b6139556020830186612607565b613962604083018561295a565b818103606083015261397481846138fa565b905095945050505050565b60008151905061398e81612431565b92915050565b6000602082840312156139aa576139a96123fb565b5b60006139b88482850161397f565b91505092915050565b60006139cc82612572565b91506139d783612572565b9250826139e7576139e661324f565b5b828204905092915050565b7f4552433732313a206d696e7420746f20746865207a65726f2061646472657373600082015250565b6000613a286020836124cb565b9150613a33826139f2565b602082019050919050565b60006020820190508181036000830152613a5781613a1b565b9050919050565b7f4552433732313a20746f6b656e20616c7265616479206d696e74656400000000600082015250565b6000613a94601c836124cb565b9150613a9f82613a5e565b602082019050919050565b60006020820190508181036000830152613ac381613a87565b905091905056fea264697066735822122034b189d3f36e677da13cd5be0d97ca3da87d36c249b8a8dfbd58d33f987bc95c64736f6c63430008110033","opcodes":"PUSH2 0x140 PUSH1 0x40 MSTORE CALLVALUE DUP1 ISZERO PUSH3 0x12 JUMPI PUSH1 0x0 DUP1 REVERT JUMPDEST POP PUSH1 0x40 MLOAD PUSH3 0x471B CODESIZE SUB DUP1 PUSH3 0x471B DUP4 CODECOPY DUP2 DUP2 ADD PUSH1 0x40 MSTORE DUP2 ADD SWAP1 PUSH3 0x38 SWAP2 SWAP1 PUSH3 0x7DA JUMP JUMPDEST PUSH1 0x40 MLOAD DUP1 PUSH1 0x40 ADD PUSH1 0x40 MSTORE DUP1 PUSH1 0xF DUP2 MSTORE PUSH1 0x20 ADD PUSH32 0x52616E646F6D2049504653204E46540000000000000000000000000000000000 DUP2 MSTORE POP PUSH1 0x40 MLOAD DUP1 PUSH1 0x40 ADD PUSH1 0x40 MSTORE DUP1 PUSH1 0x3 DUP2 MSTORE PUSH1 0x20 ADD PUSH32 0x52494E0000000000000000000000000000000000000000000000000000000000 DUP2 MSTORE POP DUP8 DUP1 PUSH20 0xFFFFFFFFFFFFFFFFFFFFFFFFFFFFFFFFFFFFFFFF AND PUSH1 0x80 DUP2 PUSH20 0xFFFFFFFFFFFFFFFFFFFFFFFFFFFFFFFFFFFFFFFF AND DUP2 MSTORE POP POP POP DUP2 PUSH1 0x0 SWAP1 DUP2 PUSH3 0xEB SWAP2 SWAP1 PUSH3 0xAD6 JUMP JUMPDEST POP DUP1 PUSH1 0x1 SWAP1 DUP2 PUSH3 0xFD SWAP2 SWAP1 PUSH3 0xAD6 JUMP JUMPDEST POP POP POP PUSH3 0x120 PUSH3 0x114 PUSH3 0x1C7 PUSH1 0x20 SHL PUSH1 0x20 SHR JUMP JUMPDEST PUSH3 0x1CF PUSH1 0x20 SHL PUSH1 0x20 SHR JUMP JUMPDEST DUP6 PUSH20 0xFFFFFFFFFFFFFFFFFFFFFFFFFFFFFFFFFFFFFFFF AND PUSH1 0xA0 DUP2 PUSH20 0xFFFFFFFFFFFFFFFFFFFFFFFFFFFFFFFFFFFFFFFF AND DUP2 MSTORE POP POP DUP5 PUSH8 0xFFFFFFFFFFFFFFFF AND PUSH1 0xC0 DUP2 PUSH8 0xFFFFFFFFFFFFFFFF AND DUP2 MSTORE POP POP DUP4 PUSH1 0xE0 DUP2 DUP2 MSTORE POP POP DUP3 PUSH4 0xFFFFFFFF AND PUSH2 0x100 DUP2 PUSH4 0xFFFFFFFF AND DUP2 MSTORE POP POP DUP2 PUSH1 0xA SWAP1 PUSH1 0x3 PUSH3 0x1A0 SWAP3 SWAP2 SWAP1 PUSH3 0x30F JUMP JUMPDEST POP DUP1 PUSH2 0x120 DUP2 DUP2 MSTORE POP POP PUSH3 0x1BB DUP3 PUSH3 0x295 PUSH1 0x20 SHL PUSH1 0x20 SHR JUMP JUMPDEST POP POP POP POP POP POP PUSH3 0xBBD JUMP JUMPDEST PUSH1 0x0 CALLER SWAP1 POP SWAP1 JUMP JUMPDEST PUSH1 0x0 PUSH1 0x7 PUSH1 0x0 SWAP1 SLOAD SWAP1 PUSH2 0x100 EXP SWAP1 DIV PUSH20 0xFFFFFFFFFFFFFFFFFFFFFFFFFFFFFFFFFFFFFFFF AND SWAP1 POP DUP2 PUSH1 0x7 PUSH1 0x0 PUSH2 0x100 EXP DUP2 SLOAD DUP2 PUSH20 0xFFFFFFFFFFFFFFFFFFFFFFFFFFFFFFFFFFFFFFFF MUL NOT AND SWAP1 DUP4 PUSH20 0xFFFFFFFFFFFFFFFFFFFFFFFFFFFFFFFFFFFFFFFF AND MUL OR SWAP1 SSTORE POP DUP2 PUSH20 0xFFFFFFFFFFFFFFFFFFFFFFFFFFFFFFFFFFFFFFFF AND DUP2 PUSH20 0xFFFFFFFFFFFFFFFFFFFFFFFFFFFFFFFFFFFFFFFF AND PUSH32 0x8BE0079C531659141344CD1FD0A4F28419497F9722A3DAAFE3B4186F6B6457E0 PUSH1 0x40 MLOAD PUSH1 0x40 MLOAD DUP1 SWAP2 SUB SWAP1 LOG3 POP POP JUMP JUMPDEST PUSH1 0xB PUSH1 0x0 SWAP1 SLOAD SWAP1 PUSH2 0x100 EXP SWAP1 DIV PUSH1 0xFF AND ISZERO PUSH3 0x2DD JUMPI PUSH1 0x40 MLOAD PUSH32 0xDDF8BF7000000000000000000000000000000000000000000000000000000000 DUP2 MSTORE PUSH1 0x4 ADD PUSH1 0x40 MLOAD DUP1 SWAP2 SUB SWAP1 REVERT JUMPDEST DUP1 PUSH1 0xA SWAP1 PUSH1 0x3 PUSH3 0x2F0 SWAP3 SWAP2 SWAP1 PUSH3 0x30F JUMP JUMPDEST POP PUSH1 0x1 PUSH1 0xB PUSH1 0x0 PUSH2 0x100 EXP DUP2 SLOAD DUP2 PUSH1 0xFF MUL NOT AND SWAP1 DUP4 ISZERO ISZERO MUL OR SWAP1 SSTORE POP POP JUMP JUMPDEST DUP3 DUP1 SLOAD DUP3 DUP3 SSTORE SWAP1 PUSH1 0x0 MSTORE PUSH1 0x20 PUSH1 0x0 KECCAK256 SWAP1 DUP2 ADD SWAP3 DUP3 ISZERO PUSH3 0x35C JUMPI SWAP2 PUSH1 0x20 MUL DUP3 ADD JUMPDEST DUP3 DUP2 GT ISZERO PUSH3 0x35B JUMPI DUP3 MLOAD DUP3 SWAP1 DUP2 PUSH3 0x34A SWAP2 SWAP1 PUSH3 0xAD6 JUMP JUMPDEST POP SWAP2 PUSH1 0x20 ADD SWAP2 SWAP1 PUSH1 0x1 ADD SWAP1 PUSH3 0x330 JUMP JUMPDEST JUMPDEST POP SWAP1 POP PUSH3 0x36B SWAP2 SWAP1 PUSH3 0x36F JUMP JUMPDEST POP SWAP1 JUMP JUMPDEST JUMPDEST DUP1 DUP3 GT ISZERO PUSH3 0x393 JUMPI PUSH1 0x0 DUP2 DUP2 PUSH3 0x389 SWAP2 SWAP1 PUSH3 0x397 JUMP JUMPDEST POP PUSH1 0x1 ADD PUSH3 0x370 JUMP JUMPDEST POP SWAP1 JUMP JUMPDEST POP DUP1 SLOAD PUSH3 0x3A5 SWAP1 PUSH3 0x8CF JUMP JUMPDEST PUSH1 0x0 DUP3 SSTORE DUP1 PUSH1 0x1F LT PUSH3 0x3B9 JUMPI POP PUSH3 0x3DA JUMP JUMPDEST PUSH1 0x1F ADD PUSH1 0x20 SWAP1 DIV SWAP1 PUSH1 0x0 MSTORE PUSH1 0x20 PUSH1 0x0 KECCAK256 SWAP1 DUP2 ADD SWAP1 PUSH3 0x3D9 SWAP2 SWAP1 PUSH3 0x3DD JUMP JUMPDEST JUMPDEST POP JUMP JUMPDEST JUMPDEST DUP1 DUP3 GT ISZERO PUSH3 0x3F8 JUMPI PUSH1 0x0 DUP2 PUSH1 0x0 SWAP1 SSTORE POP PUSH1 0x1 ADD PUSH3 0x3DE JUMP JUMPDEST POP SWAP1 JUMP JUMPDEST PUSH1 0x0 PUSH1 0x40 MLOAD SWAP1 POP SWAP1 JUMP JUMPDEST PUSH1 0x0 DUP1 REVERT JUMPDEST PUSH1 0x0 DUP1 REVERT JUMPDEST PUSH1 0x0 PUSH20 0xFFFFFFFFFFFFFFFFFFFFFFFFFFFFFFFFFFFFFFFF DUP3 AND SWAP1 POP SWAP2 SWAP1 POP JUMP JUMPDEST PUSH1 0x0 PUSH3 0x43D DUP3 PUSH3 0x410 JUMP JUMPDEST SWAP1 POP SWAP2 SWAP1 POP JUMP JUMPDEST PUSH3 0x44F DUP2 PUSH3 0x430 JUMP JUMPDEST DUP2 EQ PUSH3 0x45B JUMPI PUSH1 0x0 DUP1 REVERT JUMPDEST POP JUMP JUMPDEST PUSH1 0x0 DUP2 MLOAD SWAP1 POP PUSH3 0x46F DUP2 PUSH3 0x444 JUMP JUMPDEST SWAP3 SWAP2 POP POP JUMP JUMPDEST PUSH1 0x0 PUSH8 0xFFFFFFFFFFFFFFFF DUP3 AND SWAP1 POP SWAP2 SWAP1 POP JUMP JUMPDEST PUSH3 0x494 DUP2 PUSH3 0x475 JUMP JUMPDEST DUP2 EQ PUSH3 0x4A0 JUMPI PUSH1 0x0 DUP1 REVERT JUMPDEST POP JUMP JUMPDEST PUSH1 0x0 DUP2 MLOAD SWAP1 POP PUSH3 0x4B4 DUP2 PUSH3 0x489 JUMP JUMPDEST SWAP3 SWAP2 POP POP JUMP JUMPDEST PUSH1 0x0 DUP2 SWAP1 POP SWAP2 SWAP1 POP JUMP JUMPDEST PUSH3 0x4CF DUP2 PUSH3 0x4BA JUMP JUMPDEST DUP2 EQ PUSH3 0x4DB JUMPI PUSH1 0x0 DUP1 REVERT JUMPDEST POP JUMP JUMPDEST PUSH1 0x0 DUP2 MLOAD SWAP1 POP PUSH3 0x4EF DUP2 PUSH3 0x4C4 JUMP JUMPDEST SWAP3 SWAP2 POP POP JUMP JUMPDEST PUSH1 0x0 PUSH4 0xFFFFFFFF DUP3 AND SWAP1 POP SWAP2 SWAP1 POP JUMP JUMPDEST PUSH3 0x510 DUP2 PUSH3 0x4F5 JUMP JUMPDEST DUP2 EQ PUSH3 0x51C JUMPI PUSH1 0x0 DUP1 REVERT JUMPDEST POP JUMP JUMPDEST PUSH1 0x0 DUP2 MLOAD SWAP1 POP PUSH3 0x530 DUP2 PUSH3 0x505 JUMP JUMPDEST SWAP3 SWAP2 POP POP JUMP JUMPDEST PUSH1 0x0 DUP1 REVERT JUMPDEST PUSH1 0x0 PUSH1 0x1F NOT PUSH1 0x1F DUP4 ADD AND SWAP1 POP SWAP2 SWAP1 POP JUMP JUMPDEST PUSH32 0x4E487B7100000000000000000000000000000000000000000000000000000000 PUSH1 0x0 MSTORE PUSH1 0x41 PUSH1 0x4 MSTORE PUSH1 0x24 PUSH1 0x0 REVERT JUMPDEST PUSH3 0x586 DUP3 PUSH3 0x53B JUMP JUMPDEST DUP2 ADD DUP2 DUP2 LT PUSH8 0xFFFFFFFFFFFFFFFF DUP3 GT OR ISZERO PUSH3 0x5A8 JUMPI PUSH3 0x5A7 PUSH3 0x54C JUMP JUMPDEST JUMPDEST DUP1 PUSH1 0x40 MSTORE POP POP POP JUMP JUMPDEST PUSH1 0x0 PUSH3 0x5BD PUSH3 0x3FC JUMP JUMPDEST SWAP1 POP PUSH3 0x5CB DUP3 DUP3 PUSH3 0x57B JUMP JUMPDEST SWAP2 SWAP1 POP JUMP JUMPDEST PUSH1 0x0 PUSH8 0xFFFFFFFFFFFFFFFF DUP3 GT ISZERO PUSH3 0x5EE JUMPI PUSH3 0x5ED PUSH3 0x54C JUMP JUMPDEST JUMPDEST PUSH1 0x20 DUP3 MUL SWAP1 POP SWAP2 SWAP1 POP JUMP JUMPDEST PUSH1 0x0 DUP1 REVERT JUMPDEST PUSH1 0x0 DUP1 REVERT JUMPDEST PUSH1 0x0 PUSH8 0xFFFFFFFFFFFFFFFF DUP3 GT ISZERO PUSH3 0x621 JUMPI PUSH3 0x620 PUSH3 0x54C JUMP JUMPDEST JUMPDEST PUSH3 0x62C DUP3 PUSH3 0x53B JUMP JUMPDEST SWAP1 POP PUSH1 0x20 DUP2 ADD SWAP1 POP SWAP2 SWAP1 POP JUMP JUMPDEST PUSH1 0x0 JUMPDEST DUP4 DUP2 LT ISZERO PUSH3 0x659 JUMPI DUP1 DUP3 ADD MLOAD DUP2 DUP5 ADD MSTORE PUSH1 0x20 DUP2 ADD SWAP1 POP PUSH3 0x63C JUMP JUMPDEST PUSH1 0x0 DUP5 DUP5 ADD MSTORE POP POP POP POP JUMP JUMPDEST PUSH1 0x0 PUSH3 0x67C PUSH3 0x676 DUP5 PUSH3 0x603 JUMP JUMPDEST PUSH3 0x5B1 JUMP JUMPDEST SWAP1 POP DUP3 DUP2 MSTORE PUSH1 0x20 DUP2 ADD DUP5 DUP5 DUP5 ADD GT ISZERO PUSH3 0x69B JUMPI PUSH3 0x69A PUSH3 0x5FE JUMP JUMPDEST JUMPDEST PUSH3 0x6A8 DUP5 DUP3 DUP6 PUSH3 0x639 JUMP JUMPDEST POP SWAP4 SWAP3 POP POP POP JUMP JUMPDEST PUSH1 0x0 DUP3 PUSH1 0x1F DUP4 ADD SLT PUSH3 0x6C8 JUMPI PUSH3 0x6C7 PUSH3 0x536 JUMP JUMPDEST JUMPDEST DUP2 MLOAD PUSH3 0x6DA DUP5 DUP3 PUSH1 0x20 DUP7 ADD PUSH3 0x665 JUMP JUMPDEST SWAP2 POP POP SWAP3 SWAP2 POP POP JUMP JUMPDEST PUSH1 0x0 PUSH3 0x6FA PUSH3 0x6F4 DUP5 PUSH3 0x5D0 JUMP JUMPDEST PUSH3 0x5B1 JUMP JUMPDEST SWAP1 POP DUP1 PUSH1 0x20 DUP5 MUL DUP4 ADD DUP6 DUP2 GT ISZERO PUSH3 0x717 JUMPI PUSH3 0x716 PUSH3 0x5F9 JUMP JUMPDEST JUMPDEST DUP4 JUMPDEST DUP2 DUP2 LT ISZERO PUSH3 0x765 JUMPI DUP1 MLOAD PUSH8 0xFFFFFFFFFFFFFFFF DUP2 GT ISZERO PUSH3 0x740 JUMPI PUSH3 0x73F PUSH3 0x536 JUMP JUMPDEST JUMPDEST DUP1 DUP7 ADD PUSH3 0x74F DUP10 DUP3 PUSH3 0x6B0 JUMP JUMPDEST DUP6 MSTORE PUSH1 0x20 DUP6 ADD SWAP5 POP POP POP PUSH1 0x20 DUP2 ADD SWAP1 POP PUSH3 0x719 JUMP JUMPDEST POP POP POP SWAP4 SWAP3 POP POP POP JUMP JUMPDEST PUSH1 0x0 DUP3 PUSH1 0x1F DUP4 ADD SLT PUSH3 0x787 JUMPI PUSH3 0x786 PUSH3 0x536 JUMP JUMPDEST JUMPDEST PUSH1 0x3 PUSH3 0x796 DUP5 DUP3 DUP6 PUSH3 0x6E3 JUMP JUMPDEST SWAP2 POP POP SWAP3 SWAP2 POP POP JUMP JUMPDEST PUSH1 0x0 DUP2 SWAP1 POP SWAP2 SWAP1 POP JUMP JUMPDEST PUSH3 0x7B4 DUP2 PUSH3 0x79F JUMP JUMPDEST DUP2 EQ PUSH3 0x7C0 JUMPI PUSH1 0x0 DUP1 REVERT JUMPDEST POP JUMP JUMPDEST PUSH1 0x0 DUP2 MLOAD SWAP1 POP PUSH3 0x7D4 DUP2 PUSH3 0x7A9 JUMP JUMPDEST SWAP3 SWAP2 POP POP JUMP JUMPDEST PUSH1 0x0 DUP1 PUSH1 0x0 DUP1 PUSH1 0x0 DUP1 PUSH1 0xC0 DUP8 DUP10 SUB SLT ISZERO PUSH3 0x7FA JUMPI PUSH3 0x7F9 PUSH3 0x406 JUMP JUMPDEST JUMPDEST PUSH1 0x0 PUSH3 0x80A DUP10 DUP3 DUP11 ADD PUSH3 0x45E JUMP JUMPDEST SWAP7 POP POP PUSH1 0x20 PUSH3 0x81D DUP10 DUP3 DUP11 ADD PUSH3 0x4A3 JUMP JUMPDEST SWAP6 POP POP PUSH1 0x40 PUSH3 0x830 DUP10 DUP3 DUP11 ADD PUSH3 0x4DE JUMP JUMPDEST SWAP5 POP POP PUSH1 0x60 PUSH3 0x843 DUP10 DUP3 DUP11 ADD PUSH3 0x51F JUMP JUMPDEST SWAP4 POP POP PUSH1 0x80 DUP8 ADD MLOAD PUSH8 0xFFFFFFFFFFFFFFFF DUP2 GT ISZERO PUSH3 0x867 JUMPI PUSH3 0x866 PUSH3 0x40B JUMP JUMPDEST JUMPDEST PUSH3 0x875 DUP10 DUP3 DUP11 ADD PUSH3 0x76F JUMP JUMPDEST SWAP3 POP POP PUSH1 0xA0 PUSH3 0x888 DUP10 DUP3 DUP11 ADD PUSH3 0x7C3 JUMP JUMPDEST SWAP2 POP POP SWAP3 SWAP6 POP SWAP3 SWAP6 POP SWAP3 SWAP6 JUMP JUMPDEST PUSH1 0x0 DUP2 MLOAD SWAP1 POP SWAP2 SWAP1 POP JUMP JUMPDEST PUSH32 0x4E487B7100000000000000000000000000000000000000000000000000000000 PUSH1 0x0 MSTORE PUSH1 0x22 PUSH1 0x4 MSTORE PUSH1 0x24 PUSH1 0x0 REVERT JUMPDEST PUSH1 0x0 PUSH1 0x2 DUP3 DIV SWAP1 POP PUSH1 0x1 DUP3 AND DUP1 PUSH3 0x8E8 JUMPI PUSH1 0x7F DUP3 AND SWAP2 POP JUMPDEST PUSH1 0x20 DUP3 LT DUP2 SUB PUSH3 0x8FE JUMPI PUSH3 0x8FD PUSH3 0x8A0 JUMP JUMPDEST JUMPDEST POP SWAP2 SWAP1 POP JUMP JUMPDEST PUSH1 0x0 DUP2 SWAP1 POP DUP2 PUSH1 0x0 MSTORE PUSH1 0x20 PUSH1 0x0 KECCAK256 SWAP1 POP SWAP2 SWAP1 POP JUMP JUMPDEST PUSH1 0x0 PUSH1 0x20 PUSH1 0x1F DUP4 ADD DIV SWAP1 POP SWAP2 SWAP1 POP JUMP JUMPDEST PUSH1 0x0 DUP3 DUP3 SHL SWAP1 POP SWAP3 SWAP2 POP POP JUMP JUMPDEST PUSH1 0x0 PUSH1 0x8 DUP4 MUL PUSH3 0x968 PUSH32 0xFFFFFFFFFFFFFFFFFFFFFFFFFFFFFFFFFFFFFFFFFFFFFFFFFFFFFFFFFFFFFFFF DUP3 PUSH3 0x929 JUMP JUMPDEST PUSH3 0x974 DUP7 DUP4 PUSH3 0x929 JUMP JUMPDEST SWAP6 POP DUP1 NOT DUP5 AND SWAP4 POP DUP1 DUP7 AND DUP5 OR SWAP3 POP POP POP SWAP4 SWAP3 POP POP POP JUMP JUMPDEST PUSH1 0x0 DUP2 SWAP1 POP SWAP2 SWAP1 POP JUMP JUMPDEST PUSH1 0x0 PUSH3 0x9B7 PUSH3 0x9B1 PUSH3 0x9AB DUP5 PUSH3 0x79F JUMP JUMPDEST PUSH3 0x98C JUMP JUMPDEST PUSH3 0x79F JUMP JUMPDEST SWAP1 POP SWAP2 SWAP1 POP JUMP JUMPDEST PUSH1 0x0 DUP2 SWAP1 POP SWAP2 SWAP1 POP JUMP JUMPDEST PUSH3 0x9D3 DUP4 PUSH3 0x996 JUMP JUMPDEST PUSH3 0x9EB PUSH3 0x9E2 DUP3 PUSH3 0x9BE JUMP JUMPDEST DUP5 DUP5 SLOAD PUSH3 0x936 JUMP JUMPDEST DUP3 SSTORE POP POP POP POP JUMP JUMPDEST PUSH1 0x0 SWAP1 JUMP JUMPDEST PUSH3 0xA02 PUSH3 0x9F3 JUMP JUMPDEST PUSH3 0xA0F DUP2 DUP5 DUP5 PUSH3 0x9C8 JUMP JUMPDEST POP POP POP JUMP JUMPDEST JUMPDEST DUP2 DUP2 LT ISZERO PUSH3 0xA37 JUMPI PUSH3 0xA2B PUSH1 0x0 DUP3 PUSH3 0x9F8 JUMP JUMPDEST PUSH1 0x1 DUP2 ADD SWAP1 POP PUSH3 0xA15 JUMP JUMPDEST POP POP JUMP JUMPDEST PUSH1 0x1F DUP3 GT ISZERO PUSH3 0xA86 JUMPI PUSH3 0xA50 DUP2 PUSH3 0x904 JUMP JUMPDEST PUSH3 0xA5B DUP5 PUSH3 0x919 JUMP JUMPDEST DUP2 ADD PUSH1 0x20 DUP6 LT ISZERO PUSH3 0xA6B JUMPI DUP2 SWAP1 POP JUMPDEST PUSH3 0xA83 PUSH3 0xA7A DUP6 PUSH3 0x919 JUMP JUMPDEST DUP4 ADD DUP3 PUSH3 0xA14 JUMP JUMPDEST POP POP JUMPDEST POP POP POP JUMP JUMPDEST PUSH1 0x0 DUP3 DUP3 SHR SWAP1 POP SWAP3 SWAP2 POP POP JUMP JUMPDEST PUSH1 0x0 PUSH3 0xAAB PUSH1 0x0 NOT DUP5 PUSH1 0x8 MUL PUSH3 0xA8B JUMP JUMPDEST NOT DUP1 DUP4 AND SWAP2 POP POP SWAP3 SWAP2 POP POP JUMP JUMPDEST PUSH1 0x0 PUSH3 0xAC6 DUP4 DUP4 PUSH3 0xA98 JUMP JUMPDEST SWAP2 POP DUP3 PUSH1 0x2 MUL DUP3 OR SWAP1 POP SWAP3 SWAP2 POP POP JUMP JUMPDEST PUSH3 0xAE1 DUP3 PUSH3 0x895 JUMP JUMPDEST PUSH8 0xFFFFFFFFFFFFFFFF DUP2 GT ISZERO PUSH3 0xAFD JUMPI PUSH3 0xAFC PUSH3 0x54C JUMP JUMPDEST JUMPDEST PUSH3 0xB09 DUP3 SLOAD PUSH3 0x8CF JUMP JUMPDEST PUSH3 0xB16 DUP3 DUP3 DUP6 PUSH3 0xA3B JUMP JUMPDEST PUSH1 0x0 PUSH1 0x20 SWAP1 POP PUSH1 0x1F DUP4 GT PUSH1 0x1 DUP2 EQ PUSH3 0xB4E JUMPI PUSH1 0x0 DUP5 ISZERO PUSH3 0xB39 JUMPI DUP3 DUP8 ADD MLOAD SWAP1 POP JUMPDEST PUSH3 0xB45 DUP6 DUP3 PUSH3 0xAB8 JUMP JUMPDEST DUP7 SSTORE POP PUSH3 0xBB5 JUMP JUMPDEST PUSH1 0x1F NOT DUP5 AND PUSH3 0xB5E DUP7 PUSH3 0x904 JUMP JUMPDEST PUSH1 0x0 JUMPDEST DUP3 DUP2 LT ISZERO PUSH3 0xB88 JUMPI DUP5 DUP10 ADD MLOAD DUP3 SSTORE PUSH1 0x1 DUP3 ADD SWAP2 POP PUSH1 0x20 DUP6 ADD SWAP5 POP PUSH1 0x20 DUP2 ADD SWAP1 POP PUSH3 0xB61 JUMP JUMPDEST DUP7 DUP4 LT ISZERO PUSH3 0xBA8 JUMPI DUP5 DUP10 ADD MLOAD PUSH3 0xBA4 PUSH1 0x1F DUP10 AND DUP3 PUSH3 0xA98 JUMP JUMPDEST DUP4 SSTORE POP JUMPDEST PUSH1 0x1 PUSH1 0x2 DUP9 MUL ADD DUP9 SSTORE POP POP POP JUMPDEST POP POP POP POP POP POP JUMP JUMPDEST PUSH1 0x80 MLOAD PUSH1 0xA0 MLOAD PUSH1 0xC0 MLOAD PUSH1 0xE0 MLOAD PUSH2 0x100 MLOAD PUSH2 0x120 MLOAD PUSH2 0x3B00 PUSH3 0xC1B PUSH1 0x0 CODECOPY PUSH1 0x0 DUP2 DUP2 PUSH2 0xD6D ADD MSTORE PUSH2 0xF66 ADD MSTORE PUSH1 0x0 PUSH2 0x1040 ADD MSTORE PUSH1 0x0 PUSH2 0xFFC ADD MSTORE PUSH1 0x0 PUSH2 0x101D ADD MSTORE PUSH1 0x0 PUSH2 0xFC0 ADD MSTORE PUSH1 0x0 DUP2 DUP2 PUSH2 0x916 ADD MSTORE PUSH2 0x96A ADD MSTORE PUSH2 0x3B00 PUSH1 0x0 RETURN INVALID PUSH1 0x80 PUSH1 0x40 MSTORE PUSH1 0x4 CALLDATASIZE LT PUSH2 0x181 JUMPI PUSH1 0x0 CALLDATALOAD PUSH1 0xE0 SHR DUP1 PUSH4 0x715018A6 GT PUSH2 0xD1 JUMPI DUP1 PUSH4 0xA51CCCF3 GT PUSH2 0x8A JUMPI DUP1 PUSH4 0xC87B56DD GT PUSH2 0x64 JUMPI DUP1 PUSH4 0xC87B56DD EQ PUSH2 0x575 JUMPI DUP1 PUSH4 0xE985E9C5 EQ PUSH2 0x5B2 JUMPI DUP1 PUSH4 0xEE89DAB4 EQ PUSH2 0x5EF JUMPI DUP1 PUSH4 0xF2FDE38B EQ PUSH2 0x61A JUMPI PUSH2 0x181 JUMP JUMPDEST DUP1 PUSH4 0xA51CCCF3 EQ PUSH2 0x4F1 JUMPI DUP1 PUSH4 0xAA152491 EQ PUSH2 0x52E JUMPI DUP1 PUSH4 0xB88D4FDE EQ PUSH2 0x54C JUMPI PUSH2 0x181 JUMP JUMPDEST DUP1 PUSH4 0x715018A6 EQ PUSH2 0x3F3 JUMPI DUP1 PUSH4 0x7A5CAAB3 EQ PUSH2 0x40A JUMPI DUP1 PUSH4 0x8DA5CB5B EQ PUSH2 0x435 JUMPI DUP1 PUSH4 0x95D89B41 EQ PUSH2 0x460 JUMPI DUP1 PUSH4 0xA22CB465 EQ PUSH2 0x48B JUMPI DUP1 PUSH4 0xA36F573B EQ PUSH2 0x4B4 JUMPI PUSH2 0x181 JUMP JUMPDEST DUP1 PUSH4 0x3AF25975 GT PUSH2 0x13E JUMPI DUP1 PUSH4 0x5DACF5F4 GT PUSH2 0x118 JUMPI DUP1 PUSH4 0x5DACF5F4 EQ PUSH2 0x323 JUMPI DUP1 PUSH4 0x6352211E EQ PUSH2 0x34E JUMPI DUP1 PUSH4 0x6E02007D EQ PUSH2 0x38B JUMPI DUP1 PUSH4 0x70A08231 EQ PUSH2 0x3B6 JUMPI PUSH2 0x181 JUMP JUMPDEST DUP1 PUSH4 0x3AF25975 EQ PUSH2 0x2A6 JUMPI DUP1 PUSH4 0x3CCFD60B EQ PUSH2 0x2E3 JUMPI DUP1 PUSH4 0x42842E0E EQ PUSH2 0x2FA JUMPI PUSH2 0x181 JUMP JUMPDEST DUP1 PUSH4 0x1FFC9A7 EQ PUSH2 0x186 JUMPI DUP1 PUSH4 0x6FDDE03 EQ PUSH2 0x1C3 JUMPI DUP1 PUSH4 0x81812FC EQ PUSH2 0x1EE JUMPI DUP1 PUSH4 0x95EA7B3 EQ PUSH2 0x22B JUMPI DUP1 PUSH4 0x1FE543E3 EQ PUSH2 0x254 JUMPI DUP1 PUSH4 0x23B872DD EQ PUSH2 0x27D JUMPI JUMPDEST PUSH1 0x0 DUP1 REVERT JUMPDEST CALLVALUE DUP1 ISZERO PUSH2 0x192 JUMPI PUSH1 0x0 DUP1 REVERT JUMPDEST POP PUSH2 0x1AD PUSH1 0x4 DUP1 CALLDATASIZE SUB DUP2 ADD SWAP1 PUSH2 0x1A8 SWAP2 SWAP1 PUSH2 0x245D JUMP JUMPDEST PUSH2 0x643 JUMP JUMPDEST PUSH1 0x40 MLOAD PUSH2 0x1BA SWAP2 SWAP1 PUSH2 0x24A5 JUMP JUMPDEST PUSH1 0x40 MLOAD DUP1 SWAP2 SUB SWAP1 RETURN JUMPDEST CALLVALUE DUP1 ISZERO PUSH2 0x1CF JUMPI PUSH1 0x0 DUP1 REVERT JUMPDEST POP PUSH2 0x1D8 PUSH2 0x725 JUMP JUMPDEST PUSH1 0x40 MLOAD PUSH2 0x1E5 SWAP2 SWAP1 PUSH2 0x2550 JUMP JUMPDEST PUSH1 0x40 MLOAD DUP1 SWAP2 SUB SWAP1 RETURN JUMPDEST CALLVALUE DUP1 ISZERO PUSH2 0x1FA JUMPI PUSH1 0x0 DUP1 REVERT JUMPDEST POP PUSH2 0x215 PUSH1 0x4 DUP1 CALLDATASIZE SUB DUP2 ADD SWAP1 PUSH2 0x210 SWAP2 SWAP1 PUSH2 0x25A8 JUMP JUMPDEST PUSH2 0x7B7 JUMP JUMPDEST PUSH1 0x40 MLOAD PUSH2 0x222 SWAP2 SWAP1 PUSH2 0x2616 JUMP JUMPDEST PUSH1 0x40 MLOAD DUP1 SWAP2 SUB SWAP1 RETURN JUMPDEST CALLVALUE DUP1 ISZERO PUSH2 0x237 JUMPI PUSH1 0x0 DUP1 REVERT JUMPDEST POP PUSH2 0x252 PUSH1 0x4 DUP1 CALLDATASIZE SUB DUP2 ADD SWAP1 PUSH2 0x24D SWAP2 SWAP1 PUSH2 0x265D JUMP JUMPDEST PUSH2 0x7FD JUMP JUMPDEST STOP JUMPDEST CALLVALUE DUP1 ISZERO PUSH2 0x260 JUMPI PUSH1 0x0 DUP1 REVERT JUMPDEST POP PUSH2 0x27B PUSH1 0x4 DUP1 CALLDATASIZE SUB DUP2 ADD SWAP1 PUSH2 0x276 SWAP2 SWAP1 PUSH2 0x27E5 JUMP JUMPDEST PUSH2 0x914 JUMP JUMPDEST STOP JUMPDEST CALLVALUE DUP1 ISZERO PUSH2 0x289 JUMPI PUSH1 0x0 DUP1 REVERT JUMPDEST POP PUSH2 0x2A4 PUSH1 0x4 DUP1 CALLDATASIZE SUB DUP2 ADD SWAP1 PUSH2 0x29F SWAP2 SWAP1 PUSH2 0x2841 JUMP JUMPDEST PUSH2 0x9D4 JUMP JUMPDEST STOP JUMPDEST CALLVALUE DUP1 ISZERO PUSH2 0x2B2 JUMPI PUSH1 0x0 DUP1 REVERT JUMPDEST POP PUSH2 0x2CD PUSH1 0x4 DUP1 CALLDATASIZE SUB DUP2 ADD SWAP1 PUSH2 0x2C8 SWAP2 SWAP1 PUSH2 0x25A8 JUMP JUMPDEST PUSH2 0xA34 JUMP JUMPDEST PUSH1 0x40 MLOAD PUSH2 0x2DA SWAP2 SWAP1 PUSH2 0x2550 JUMP JUMPDEST PUSH1 0x40 MLOAD DUP1 SWAP2 SUB SWAP1 RETURN JUMPDEST CALLVALUE DUP1 ISZERO PUSH2 0x2EF JUMPI PUSH1 0x0 DUP1 REVERT JUMPDEST POP PUSH2 0x2F8 PUSH2 0xAE4 JUMP JUMPDEST STOP JUMPDEST CALLVALUE DUP1 ISZERO PUSH2 0x306 JUMPI PUSH1 0x0 DUP1 REVERT JUMPDEST POP PUSH2 0x321 PUSH1 0x4 DUP1 CALLDATASIZE SUB DUP2 ADD SWAP1 PUSH2 0x31C SWAP2 SWAP1 PUSH2 0x2841 JUMP JUMPDEST PUSH2 0xB98 JUMP JUMPDEST STOP JUMPDEST CALLVALUE DUP1 ISZERO PUSH2 0x32F JUMPI PUSH1 0x0 DUP1 REVERT JUMPDEST POP PUSH2 0x338 PUSH2 0xBB8 JUMP JUMPDEST PUSH1 0x40 MLOAD PUSH2 0x345 SWAP2 SWAP1 PUSH2 0x293F JUMP JUMPDEST PUSH1 0x40 MLOAD DUP1 SWAP2 SUB SWAP1 RETURN JUMPDEST CALLVALUE DUP1 ISZERO PUSH2 0x35A JUMPI PUSH1 0x0 DUP1 REVERT JUMPDEST POP PUSH2 0x375 PUSH1 0x4 DUP1 CALLDATASIZE SUB DUP2 ADD SWAP1 PUSH2 0x370 SWAP2 SWAP1 PUSH2 0x25A8 JUMP JUMPDEST PUSH2 0xBE3 JUMP JUMPDEST PUSH1 0x40 MLOAD PUSH2 0x382 SWAP2 SWAP1 PUSH2 0x2616 JUMP JUMPDEST PUSH1 0x40 MLOAD DUP1 SWAP2 SUB SWAP1 RETURN JUMPDEST CALLVALUE DUP1 ISZERO PUSH2 0x397 JUMPI PUSH1 0x0 DUP1 REVERT JUMPDEST POP PUSH2 0x3A0 PUSH2 0xC94 JUMP JUMPDEST PUSH1 0x40 MLOAD PUSH2 0x3AD SWAP2 SWAP1 PUSH2 0x2969 JUMP JUMPDEST PUSH1 0x40 MLOAD DUP1 SWAP2 SUB SWAP1 RETURN JUMPDEST CALLVALUE DUP1 ISZERO PUSH2 0x3C2 JUMPI PUSH1 0x0 DUP1 REVERT JUMPDEST POP PUSH2 0x3DD PUSH1 0x4 DUP1 CALLDATASIZE SUB DUP2 ADD SWAP1 PUSH2 0x3D8 SWAP2 SWAP1 PUSH2 0x2984 JUMP JUMPDEST PUSH2 0xC9E JUMP JUMPDEST PUSH1 0x40 MLOAD PUSH2 0x3EA SWAP2 SWAP1 PUSH2 0x2969 JUMP JUMPDEST PUSH1 0x40 MLOAD DUP1 SWAP2 SUB SWAP1 RETURN JUMPDEST CALLVALUE DUP1 ISZERO PUSH2 0x3FF JUMPI PUSH1 0x0 DUP1 REVERT JUMPDEST POP PUSH2 0x408 PUSH2 0xD55 JUMP JUMPDEST STOP JUMPDEST CALLVALUE DUP1 ISZERO PUSH2 0x416 JUMPI PUSH1 0x0 DUP1 REVERT JUMPDEST POP PUSH2 0x41F PUSH2 0xD69 JUMP JUMPDEST PUSH1 0x40 MLOAD PUSH2 0x42C SWAP2 SWAP1 PUSH2 0x2969 JUMP JUMPDEST PUSH1 0x40 MLOAD DUP1 SWAP2 SUB SWAP1 RETURN JUMPDEST CALLVALUE DUP1 ISZERO PUSH2 0x441 JUMPI PUSH1 0x0 DUP1 REVERT JUMPDEST POP PUSH2 0x44A PUSH2 0xD91 JUMP JUMPDEST PUSH1 0x40 MLOAD PUSH2 0x457 SWAP2 SWAP1 PUSH2 0x2616 JUMP JUMPDEST PUSH1 0x40 MLOAD DUP1 SWAP2 SUB SWAP1 RETURN JUMPDEST CALLVALUE DUP1 ISZERO PUSH2 0x46C JUMPI PUSH1 0x0 DUP1 REVERT JUMPDEST POP PUSH2 0x475 PUSH2 0xDBB JUMP JUMPDEST PUSH1 0x40 MLOAD PUSH2 0x482 SWAP2 SWAP1 PUSH2 0x2550 JUMP JUMPDEST PUSH1 0x40 MLOAD DUP1 SWAP2 SUB SWAP1 RETURN JUMPDEST CALLVALUE DUP1 ISZERO PUSH2 0x497 JUMPI PUSH1 0x0 DUP1 REVERT JUMPDEST POP PUSH2 0x4B2 PUSH1 0x4 DUP1 CALLDATASIZE SUB DUP2 ADD SWAP1 PUSH2 0x4AD SWAP2 SWAP1 PUSH2 0x29DD JUMP JUMPDEST PUSH2 0xE4D JUMP JUMPDEST STOP JUMPDEST CALLVALUE DUP1 ISZERO PUSH2 0x4C0 JUMPI PUSH1 0x0 DUP1 REVERT JUMPDEST POP PUSH2 0x4DB PUSH1 0x4 DUP1 CALLDATASIZE SUB DUP2 ADD SWAP1 PUSH2 0x4D6 SWAP2 SWAP1 PUSH2 0x25A8 JUMP JUMPDEST PUSH2 0xE63 JUMP JUMPDEST PUSH1 0x40 MLOAD PUSH2 0x4E8 SWAP2 SWAP1 PUSH2 0x2616 JUMP JUMPDEST PUSH1 0x40 MLOAD DUP1 SWAP2 SUB SWAP1 RETURN JUMPDEST CALLVALUE DUP1 ISZERO PUSH2 0x4FD JUMPI PUSH1 0x0 DUP1 REVERT JUMPDEST POP PUSH2 0x518 PUSH1 0x4 DUP1 CALLDATASIZE SUB DUP2 ADD SWAP1 PUSH2 0x513 SWAP2 SWAP1 PUSH2 0x25A8 JUMP JUMPDEST PUSH2 0xE96 JUMP JUMPDEST PUSH1 0x40 MLOAD PUSH2 0x525 SWAP2 SWAP1 PUSH2 0x2A94 JUMP JUMPDEST PUSH1 0x40 MLOAD DUP1 SWAP2 SUB SWAP1 RETURN JUMPDEST PUSH2 0x536 PUSH2 0xF62 JUMP JUMPDEST PUSH1 0x40 MLOAD PUSH2 0x543 SWAP2 SWAP1 PUSH2 0x2969 JUMP JUMPDEST PUSH1 0x40 MLOAD DUP1 SWAP2 SUB SWAP1 RETURN JUMPDEST CALLVALUE DUP1 ISZERO PUSH2 0x558 JUMPI PUSH1 0x0 DUP1 REVERT JUMPDEST POP PUSH2 0x573 PUSH1 0x4 DUP1 CALLDATASIZE SUB DUP2 ADD SWAP1 PUSH2 0x56E SWAP2 SWAP1 PUSH2 0x2B64 JUMP JUMPDEST PUSH2 0x1153 JUMP JUMPDEST STOP JUMPDEST CALLVALUE DUP1 ISZERO PUSH2 0x581 JUMPI PUSH1 0x0 DUP1 REVERT JUMPDEST POP PUSH2 0x59C PUSH1 0x4 DUP1 CALLDATASIZE SUB DUP2 ADD SWAP1 PUSH2 0x597 SWAP2 SWAP1 PUSH2 0x25A8 JUMP JUMPDEST PUSH2 0x11B5 JUMP JUMPDEST PUSH1 0x40 MLOAD PUSH2 0x5A9 SWAP2 SWAP1 PUSH2 0x2550 JUMP JUMPDEST PUSH1 0x40 MLOAD DUP1 SWAP2 SUB SWAP1 RETURN JUMPDEST CALLVALUE DUP1 ISZERO PUSH2 0x5BE JUMPI PUSH1 0x0 DUP1 REVERT JUMPDEST POP PUSH2 0x5D9 PUSH1 0x4 DUP1 CALLDATASIZE SUB DUP2 ADD SWAP1 PUSH2 0x5D4 SWAP2 SWAP1 PUSH2 0x2BE7 JUMP JUMPDEST PUSH2 0x12C7 JUMP JUMPDEST PUSH1 0x40 MLOAD PUSH2 0x5E6 SWAP2 SWAP1 PUSH2 0x24A5 JUMP JUMPDEST PUSH1 0x40 MLOAD DUP1 SWAP2 SUB SWAP1 RETURN JUMPDEST CALLVALUE DUP1 ISZERO PUSH2 0x5FB JUMPI PUSH1 0x0 DUP1 REVERT JUMPDEST POP PUSH2 0x604 PUSH2 0x135B JUMP JUMPDEST PUSH1 0x40 MLOAD PUSH2 0x611 SWAP2 SWAP1 PUSH2 0x24A5 JUMP JUMPDEST PUSH1 0x40 MLOAD DUP1 SWAP2 SUB SWAP1 RETURN JUMPDEST CALLVALUE DUP1 ISZERO PUSH2 0x626 JUMPI PUSH1 0x0 DUP1 REVERT JUMPDEST POP PUSH2 0x641 PUSH1 0x4 DUP1 CALLDATASIZE SUB DUP2 ADD SWAP1 PUSH2 0x63C SWAP2 SWAP1 PUSH2 0x2984 JUMP JUMPDEST PUSH2 0x1372 JUMP JUMPDEST STOP JUMPDEST PUSH1 0x0 PUSH32 0x80AC58CD00000000000000000000000000000000000000000000000000000000 PUSH28 0xFFFFFFFFFFFFFFFFFFFFFFFFFFFFFFFFFFFFFFFFFFFFFFFFFFFFFFFF NOT AND DUP3 PUSH28 0xFFFFFFFFFFFFFFFFFFFFFFFFFFFFFFFFFFFFFFFFFFFFFFFFFFFFFFFF NOT AND EQ DUP1 PUSH2 0x70E JUMPI POP PUSH32 0x5B5E139F00000000000000000000000000000000000000000000000000000000 PUSH28 0xFFFFFFFFFFFFFFFFFFFFFFFFFFFFFFFFFFFFFFFFFFFFFFFFFFFFFFFF NOT AND DUP3 PUSH28 0xFFFFFFFFFFFFFFFFFFFFFFFFFFFFFFFFFFFFFFFFFFFFFFFFFFFFFFFF NOT AND EQ JUMPDEST DUP1 PUSH2 0x71E JUMPI POP PUSH2 0x71D DUP3 PUSH2 0x13F5 JUMP JUMPDEST JUMPDEST SWAP1 POP SWAP2 SWAP1 POP JUMP JUMPDEST PUSH1 0x60 PUSH1 0x0 DUP1 SLOAD PUSH2 0x734 SWAP1 PUSH2 0x2C56 JUMP JUMPDEST DUP1 PUSH1 0x1F ADD PUSH1 0x20 DUP1 SWAP2 DIV MUL PUSH1 0x20 ADD PUSH1 0x40 MLOAD SWAP1 DUP2 ADD PUSH1 0x40 MSTORE DUP1 SWAP3 SWAP2 SWAP1 DUP2 DUP2 MSTORE PUSH1 0x20 ADD DUP3 DUP1 SLOAD PUSH2 0x760 SWAP1 PUSH2 0x2C56 JUMP JUMPDEST DUP1 ISZERO PUSH2 0x7AD JUMPI DUP1 PUSH1 0x1F LT PUSH2 0x782 JUMPI PUSH2 0x100 DUP1 DUP4 SLOAD DIV MUL DUP4 MSTORE SWAP2 PUSH1 0x20 ADD SWAP2 PUSH2 0x7AD JUMP JUMPDEST DUP3 ADD SWAP2 SWAP1 PUSH1 0x0 MSTORE PUSH1 0x20 PUSH1 0x0 KECCAK256 SWAP1 JUMPDEST DUP2 SLOAD DUP2 MSTORE SWAP1 PUSH1 0x1 ADD SWAP1 PUSH1 0x20 ADD DUP1 DUP4 GT PUSH2 0x790 JUMPI DUP3 SWAP1 SUB PUSH1 0x1F AND DUP3 ADD SWAP2 JUMPDEST POP POP POP POP POP SWAP1 POP SWAP1 JUMP JUMPDEST PUSH1 0x0 PUSH2 0x7C2 DUP3 PUSH2 0x145F JUMP JUMPDEST PUSH1 0x4 PUSH1 0x0 DUP4 DUP2 MSTORE PUSH1 0x20 ADD SWAP1 DUP2 MSTORE PUSH1 0x20 ADD PUSH1 0x0 KECCAK256 PUSH1 0x0 SWAP1 SLOAD SWAP1 PUSH2 0x100 EXP SWAP1 DIV PUSH20 0xFFFFFFFFFFFFFFFFFFFFFFFFFFFFFFFFFFFFFFFF AND SWAP1 POP SWAP2 SWAP1 POP JUMP JUMPDEST PUSH1 0x0 PUSH2 0x808 DUP3 PUSH2 0xBE3 JUMP JUMPDEST SWAP1 POP DUP1 PUSH20 0xFFFFFFFFFFFFFFFFFFFFFFFFFFFFFFFFFFFFFFFF AND DUP4 PUSH20 0xFFFFFFFFFFFFFFFFFFFFFFFFFFFFFFFFFFFFFFFF AND SUB PUSH2 0x878 JUMPI PUSH1 0x40 MLOAD PUSH32 0x8C379A000000000000000000000000000000000000000000000000000000000 DUP2 MSTORE PUSH1 0x4 ADD PUSH2 0x86F SWAP1 PUSH2 0x2CF9 JUMP JUMPDEST PUSH1 0x40 MLOAD DUP1 SWAP2 SUB SWAP1 REVERT JUMPDEST DUP1 PUSH20 0xFFFFFFFFFFFFFFFFFFFFFFFFFFFFFFFFFFFFFFFF AND PUSH2 0x897 PUSH2 0x14AA JUMP JUMPDEST PUSH20 0xFFFFFFFFFFFFFFFFFFFFFFFFFFFFFFFFFFFFFFFF AND EQ DUP1 PUSH2 0x8C6 JUMPI POP PUSH2 0x8C5 DUP2 PUSH2 0x8C0 PUSH2 0x14AA JUMP JUMPDEST PUSH2 0x12C7 JUMP JUMPDEST JUMPDEST PUSH2 0x905 JUMPI PUSH1 0x40 MLOAD PUSH32 0x8C379A000000000000000000000000000000000000000000000000000000000 DUP2 MSTORE PUSH1 0x4 ADD PUSH2 0x8FC SWAP1 PUSH2 0x2D8B JUMP JUMPDEST PUSH1 0x40 MLOAD DUP1 SWAP2 SUB SWAP1 REVERT JUMPDEST PUSH2 0x90F DUP4 DUP4 PUSH2 0x14B2 JUMP JUMPDEST POP POP POP JUMP JUMPDEST PUSH32 0x0 PUSH20 0xFFFFFFFFFFFFFFFFFFFFFFFFFFFFFFFFFFFFFFFF AND CALLER PUSH20 0xFFFFFFFFFFFFFFFFFFFFFFFFFFFFFFFFFFFFFFFF AND EQ PUSH2 0x9C6 JUMPI CALLER PUSH32 0x0 PUSH1 0x40 MLOAD PUSH32 0x1CF993F400000000000000000000000000000000000000000000000000000000 DUP2 MSTORE PUSH1 0x4 ADD PUSH2 0x9BD SWAP3 SWAP2 SWAP1 PUSH2 0x2DAB JUMP JUMPDEST PUSH1 0x40 MLOAD DUP1 SWAP2 SUB SWAP1 REVERT JUMPDEST PUSH2 0x9D0 DUP3 DUP3 PUSH2 0x156B JUMP JUMPDEST POP POP JUMP JUMPDEST PUSH2 0x9E5 PUSH2 0x9DF PUSH2 0x14AA JUMP JUMPDEST DUP3 PUSH2 0x170A JUMP JUMPDEST PUSH2 0xA24 JUMPI PUSH1 0x40 MLOAD PUSH32 0x8C379A000000000000000000000000000000000000000000000000000000000 DUP2 MSTORE PUSH1 0x4 ADD PUSH2 0xA1B SWAP1 PUSH2 0x2E46 JUMP JUMPDEST PUSH1 0x40 MLOAD DUP1 SWAP2 SUB SWAP1 REVERT JUMPDEST PUSH2 0xA2F DUP4 DUP4 DUP4 PUSH2 0x179F JUMP JUMPDEST POP POP POP JUMP JUMPDEST PUSH1 0x60 PUSH1 0xA DUP3 DUP2 SLOAD DUP2 LT PUSH2 0xA4A JUMPI PUSH2 0xA49 PUSH2 0x2E66 JUMP JUMPDEST JUMPDEST SWAP1 PUSH1 0x0 MSTORE PUSH1 0x20 PUSH1 0x0 KECCAK256 ADD DUP1 SLOAD PUSH2 0xA5F SWAP1 PUSH2 0x2C56 JUMP JUMPDEST DUP1 PUSH1 0x1F ADD PUSH1 0x20 DUP1 SWAP2 DIV MUL PUSH1 0x20 ADD PUSH1 0x40 MLOAD SWAP1 DUP2 ADD PUSH1 0x40 MSTORE DUP1 SWAP3 SWAP2 SWAP1 DUP2 DUP2 MSTORE PUSH1 0x20 ADD DUP3 DUP1 SLOAD PUSH2 0xA8B SWAP1 PUSH2 0x2C56 JUMP JUMPDEST DUP1 ISZERO PUSH2 0xAD8 JUMPI DUP1 PUSH1 0x1F LT PUSH2 0xAAD JUMPI PUSH2 0x100 DUP1 DUP4 SLOAD DIV MUL DUP4 MSTORE SWAP2 PUSH1 0x20 ADD SWAP2 PUSH2 0xAD8 JUMP JUMPDEST DUP3 ADD SWAP2 SWAP1 PUSH1 0x0 MSTORE PUSH1 0x20 PUSH1 0x0 KECCAK256 SWAP1 JUMPDEST DUP2 SLOAD DUP2 MSTORE SWAP1 PUSH1 0x1 ADD SWAP1 PUSH1 0x20 ADD DUP1 DUP4 GT PUSH2 0xABB JUMPI DUP3 SWAP1 SUB PUSH1 0x1F AND DUP3 ADD SWAP2 JUMPDEST POP POP POP POP POP SWAP1 POP SWAP2 SWAP1 POP JUMP JUMPDEST PUSH2 0xAEC PUSH2 0x1A05 JUMP JUMPDEST PUSH1 0x0 SELFBALANCE SWAP1 POP PUSH1 0x0 CALLER PUSH20 0xFFFFFFFFFFFFFFFFFFFFFFFFFFFFFFFFFFFFFFFF AND DUP3 PUSH1 0x40 MLOAD PUSH2 0xB17 SWAP1 PUSH2 0x2EC6 JUMP JUMPDEST PUSH1 0x0 PUSH1 0x40 MLOAD DUP1 DUP4 SUB DUP2 DUP6 DUP8 GAS CALL SWAP3 POP POP POP RETURNDATASIZE DUP1 PUSH1 0x0 DUP2 EQ PUSH2 0xB54 JUMPI PUSH1 0x40 MLOAD SWAP2 POP PUSH1 0x1F NOT PUSH1 0x3F RETURNDATASIZE ADD AND DUP3 ADD PUSH1 0x40 MSTORE RETURNDATASIZE DUP3 MSTORE RETURNDATASIZE PUSH1 0x0 PUSH1 0x20 DUP5 ADD RETURNDATACOPY PUSH2 0xB59 JUMP JUMPDEST PUSH1 0x60 SWAP2 POP JUMPDEST POP POP SWAP1 POP DUP1 PUSH2 0xB94 JUMPI PUSH1 0x40 MLOAD PUSH32 0xCA7E25B700000000000000000000000000000000000000000000000000000000 DUP2 MSTORE PUSH1 0x4 ADD PUSH1 0x40 MLOAD DUP1 SWAP2 SUB SWAP1 REVERT JUMPDEST POP POP JUMP JUMPDEST PUSH2 0xBB3 DUP4 DUP4 DUP4 PUSH1 0x40 MLOAD DUP1 PUSH1 0x20 ADD PUSH1 0x40 MSTORE DUP1 PUSH1 0x0 DUP2 MSTORE POP PUSH2 0x1153 JUMP JUMPDEST POP POP POP JUMP JUMPDEST PUSH2 0xBC0 PUSH2 0x23CF JUMP JUMPDEST PUSH1 0x40 MLOAD DUP1 PUSH1 0x60 ADD PUSH1 0x40 MSTORE DUP1 PUSH1 0xA DUP2 MSTORE PUSH1 0x20 ADD PUSH1 0x1E DUP2 MSTORE PUSH1 0x20 ADD PUSH1 0x64 DUP2 MSTORE POP SWAP1 POP SWAP1 JUMP JUMPDEST PUSH1 0x0 DUP1 PUSH1 0x2 PUSH1 0x0 DUP5 DUP2 MSTORE PUSH1 0x20 ADD SWAP1 DUP2 MSTORE PUSH1 0x20 ADD PUSH1 0x0 KECCAK256 PUSH1 0x0 SWAP1 SLOAD SWAP1 PUSH2 0x100 EXP SWAP1 DIV PUSH20 0xFFFFFFFFFFFFFFFFFFFFFFFFFFFFFFFFFFFFFFFF AND SWAP1 POP PUSH1 0x0 PUSH20 0xFFFFFFFFFFFFFFFFFFFFFFFFFFFFFFFFFFFFFFFF AND DUP2 PUSH20 0xFFFFFFFFFFFFFFFFFFFFFFFFFFFFFFFFFFFFFFFF AND SUB PUSH2 0xC8B JUMPI PUSH1 0x40 MLOAD PUSH32 0x8C379A000000000000000000000000000000000000000000000000000000000 DUP2 MSTORE PUSH1 0x4 ADD PUSH2 0xC82 SWAP1 PUSH2 0x2F27 JUMP JUMPDEST PUSH1 0x40 MLOAD DUP1 SWAP2 SUB SWAP1 REVERT JUMPDEST DUP1 SWAP2 POP POP SWAP2 SWAP1 POP JUMP JUMPDEST PUSH1 0x0 PUSH1 0x9 SLOAD SWAP1 POP SWAP1 JUMP JUMPDEST PUSH1 0x0 DUP1 PUSH20 0xFFFFFFFFFFFFFFFFFFFFFFFFFFFFFFFFFFFFFFFF AND DUP3 PUSH20 0xFFFFFFFFFFFFFFFFFFFFFFFFFFFFFFFFFFFFFFFF AND SUB PUSH2 0xD0E JUMPI PUSH1 0x40 MLOAD PUSH32 0x8C379A000000000000000000000000000000000000000000000000000000000 DUP2 MSTORE PUSH1 0x4 ADD PUSH2 0xD05 SWAP1 PUSH2 0x2FB9 JUMP JUMPDEST PUSH1 0x40 MLOAD DUP1 SWAP2 SUB SWAP1 REVERT JUMPDEST PUSH1 0x3 PUSH1 0x0 DUP4 PUSH20 0xFFFFFFFFFFFFFFFFFFFFFFFFFFFFFFFFFFFFFFFF AND PUSH20 0xFFFFFFFFFFFFFFFFFFFFFFFFFFFFFFFFFFFFFFFF AND DUP2 MSTORE PUSH1 0x20 ADD SWAP1 DUP2 MSTORE PUSH1 0x20 ADD PUSH1 0x0 KECCAK256 SLOAD SWAP1 POP SWAP2 SWAP1 POP JUMP JUMPDEST PUSH2 0xD5D PUSH2 0x1A05 JUMP JUMPDEST PUSH2 0xD67 PUSH1 0x0 PUSH2 0x1A83 JUMP JUMPDEST JUMP JUMPDEST PUSH1 0x0 PUSH32 0x0 SWAP1 POP SWAP1 JUMP JUMPDEST PUSH1 0x0 PUSH1 0x7 PUSH1 0x0 SWAP1 SLOAD SWAP1 PUSH2 0x100 EXP SWAP1 DIV PUSH20 0xFFFFFFFFFFFFFFFFFFFFFFFFFFFFFFFFFFFFFFFF AND SWAP1 POP SWAP1 JUMP JUMPDEST PUSH1 0x60 PUSH1 0x1 DUP1 SLOAD PUSH2 0xDCA SWAP1 PUSH2 0x2C56 JUMP JUMPDEST DUP1 PUSH1 0x1F ADD PUSH1 0x20 DUP1 SWAP2 DIV MUL PUSH1 0x20 ADD PUSH1 0x40 MLOAD SWAP1 DUP2 ADD PUSH1 0x40 MSTORE DUP1 SWAP3 SWAP2 SWAP1 DUP2 DUP2 MSTORE PUSH1 0x20 ADD DUP3 DUP1 SLOAD PUSH2 0xDF6 SWAP1 PUSH2 0x2C56 JUMP JUMPDEST DUP1 ISZERO PUSH2 0xE43 JUMPI DUP1 PUSH1 0x1F LT PUSH2 0xE18 JUMPI PUSH2 0x100 DUP1 DUP4 SLOAD DIV MUL DUP4 MSTORE SWAP2 PUSH1 0x20 ADD SWAP2 PUSH2 0xE43 JUMP JUMPDEST DUP3 ADD SWAP2 SWAP1 PUSH1 0x0 MSTORE PUSH1 0x20 PUSH1 0x0 KECCAK256 SWAP1 JUMPDEST DUP2 SLOAD DUP2 MSTORE SWAP1 PUSH1 0x1 ADD SWAP1 PUSH1 0x20 ADD DUP1 DUP4 GT PUSH2 0xE26 JUMPI DUP3 SWAP1 SUB PUSH1 0x1F AND DUP3 ADD SWAP2 JUMPDEST POP POP POP POP POP SWAP1 POP SWAP1 JUMP JUMPDEST PUSH2 0xE5F PUSH2 0xE58 PUSH2 0x14AA JUMP JUMPDEST DUP4 DUP4 PUSH2 0x1B49 JUMP JUMPDEST POP POP JUMP JUMPDEST PUSH1 0x8 PUSH1 0x20 MSTORE DUP1 PUSH1 0x0 MSTORE PUSH1 0x40 PUSH1 0x0 KECCAK256 PUSH1 0x0 SWAP2 POP SLOAD SWAP1 PUSH2 0x100 EXP SWAP1 DIV PUSH20 0xFFFFFFFFFFFFFFFFFFFFFFFFFFFFFFFFFFFFFFFF AND DUP2 JUMP JUMPDEST PUSH1 0x0 DUP1 PUSH1 0x0 SWAP1 POP PUSH1 0x0 PUSH2 0xEA7 PUSH2 0xBB8 JUMP JUMPDEST SWAP1 POP PUSH1 0x0 JUMPDEST PUSH1 0x3 DUP2 LT ISZERO PUSH2 0xF2A JUMPI DUP3 DUP6 LT ISZERO DUP1 ISZERO PUSH2 0xEDB JUMPI POP DUP2 DUP2 PUSH1 0x3 DUP2 LT PUSH2 0xED3 JUMPI PUSH2 0xED2 PUSH2 0x2E66 JUMP JUMPDEST JUMPDEST PUSH1 0x20 MUL ADD MLOAD DUP6 LT JUMPDEST ISZERO PUSH2 0xEFD JUMPI DUP1 PUSH1 0x2 DUP2 GT ISZERO PUSH2 0xEF3 JUMPI PUSH2 0xEF2 PUSH2 0x2A1D JUMP JUMPDEST JUMPDEST SWAP4 POP POP POP POP PUSH2 0xF5D JUMP JUMPDEST DUP2 DUP2 PUSH1 0x3 DUP2 LT PUSH2 0xF10 JUMPI PUSH2 0xF0F PUSH2 0x2E66 JUMP JUMPDEST JUMPDEST PUSH1 0x20 MUL ADD MLOAD SWAP3 POP DUP1 DUP1 PUSH2 0xF22 SWAP1 PUSH2 0x3008 JUMP JUMPDEST SWAP2 POP POP PUSH2 0xEAC JUMP JUMPDEST POP PUSH1 0x40 MLOAD PUSH32 0x12806C9D00000000000000000000000000000000000000000000000000000000 DUP2 MSTORE PUSH1 0x4 ADD PUSH1 0x40 MLOAD DUP1 SWAP2 SUB SWAP1 REVERT JUMPDEST SWAP2 SWAP1 POP JUMP JUMPDEST PUSH1 0x0 PUSH32 0x0 CALLVALUE LT ISZERO PUSH2 0xFBE JUMPI PUSH1 0x40 MLOAD PUSH32 0xB90F491000000000000000000000000000000000000000000000000000000000 DUP2 MSTORE PUSH1 0x4 ADD PUSH1 0x40 MLOAD DUP1 SWAP2 SUB SWAP1 REVERT JUMPDEST PUSH32 0x0 PUSH20 0xFFFFFFFFFFFFFFFFFFFFFFFFFFFFFFFFFFFFFFFF AND PUSH4 0x5D3B1D30 PUSH32 0x0 PUSH32 0x0 PUSH1 0x3 PUSH32 0x0 PUSH1 0x1 PUSH1 0x40 MLOAD DUP7 PUSH4 0xFFFFFFFF AND PUSH1 0xE0 SHL DUP2 MSTORE PUSH1 0x4 ADD PUSH2 0x1081 SWAP6 SWAP5 SWAP4 SWAP3 SWAP2 SWAP1 PUSH2 0x30C8 JUMP JUMPDEST PUSH1 0x20 PUSH1 0x40 MLOAD DUP1 DUP4 SUB DUP2 PUSH1 0x0 DUP8 GAS CALL ISZERO DUP1 ISZERO PUSH2 0x10A0 JUMPI RETURNDATASIZE PUSH1 0x0 DUP1 RETURNDATACOPY RETURNDATASIZE PUSH1 0x0 REVERT JUMPDEST POP POP POP POP PUSH1 0x40 MLOAD RETURNDATASIZE PUSH1 0x1F NOT PUSH1 0x1F DUP3 ADD AND DUP3 ADD DUP1 PUSH1 0x40 MSTORE POP DUP2 ADD SWAP1 PUSH2 0x10C4 SWAP2 SWAP1 PUSH2 0x3130 JUMP JUMPDEST SWAP1 POP CALLER PUSH1 0x8 PUSH1 0x0 DUP4 DUP2 MSTORE PUSH1 0x20 ADD SWAP1 DUP2 MSTORE PUSH1 0x20 ADD PUSH1 0x0 KECCAK256 PUSH1 0x0 PUSH2 0x100 EXP DUP2 SLOAD DUP2 PUSH20 0xFFFFFFFFFFFFFFFFFFFFFFFFFFFFFFFFFFFFFFFF MUL NOT AND SWAP1 DUP4 PUSH20 0xFFFFFFFFFFFFFFFFFFFFFFFFFFFFFFFFFFFFFFFF AND MUL OR SWAP1 SSTORE POP DUP1 PUSH32 0xF873236E6CC0ECC5BE1A9A35C95EE5B8D1AC4CC7BFEF0CC5060391D6CC98E26B CALLER PUSH1 0x40 MLOAD PUSH2 0x1148 SWAP2 SWAP1 PUSH2 0x2616 JUMP JUMPDEST PUSH1 0x40 MLOAD DUP1 SWAP2 SUB SWAP1 LOG2 SWAP1 JUMP JUMPDEST PUSH2 0x1164 PUSH2 0x115E PUSH2 0x14AA JUMP JUMPDEST DUP4 PUSH2 0x170A JUMP JUMPDEST PUSH2 0x11A3 JUMPI PUSH1 0x40 MLOAD PUSH32 0x8C379A000000000000000000000000000000000000000000000000000000000 DUP2 MSTORE PUSH1 0x4 ADD PUSH2 0x119A SWAP1 PUSH2 0x2E46 JUMP JUMPDEST PUSH1 0x40 MLOAD DUP1 SWAP2 SUB SWAP1 REVERT JUMPDEST PUSH2 0x11AF DUP5 DUP5 DUP5 DUP5 PUSH2 0x1CB5 JUMP JUMPDEST POP POP POP POP JUMP JUMPDEST PUSH1 0x60 PUSH2 0x11C0 DUP3 PUSH2 0x145F JUMP JUMPDEST PUSH1 0x0 PUSH1 0x6 PUSH1 0x0 DUP5 DUP2 MSTORE PUSH1 0x20 ADD SWAP1 DUP2 MSTORE PUSH1 0x20 ADD PUSH1 0x0 KECCAK256 DUP1 SLOAD PUSH2 0x11E0 SWAP1 PUSH2 0x2C56 JUMP JUMPDEST DUP1 PUSH1 0x1F ADD PUSH1 0x20 DUP1 SWAP2 DIV MUL PUSH1 0x20 ADD PUSH1 0x40 MLOAD SWAP1 DUP2 ADD PUSH1 0x40 MSTORE DUP1 SWAP3 SWAP2 SWAP1 DUP2 DUP2 MSTORE PUSH1 0x20 ADD DUP3 DUP1 SLOAD PUSH2 0x120C SWAP1 PUSH2 0x2C56 JUMP JUMPDEST DUP1 ISZERO PUSH2 0x1259 JUMPI DUP1 PUSH1 0x1F LT PUSH2 0x122E JUMPI PUSH2 0x100 DUP1 DUP4 SLOAD DIV MUL DUP4 MSTORE SWAP2 PUSH1 0x20 ADD SWAP2 PUSH2 0x1259 JUMP JUMPDEST DUP3 ADD SWAP2 SWAP1 PUSH1 0x0 MSTORE PUSH1 0x20 PUSH1 0x0 KECCAK256 SWAP1 JUMPDEST DUP2 SLOAD DUP2 MSTORE SWAP1 PUSH1 0x1 ADD SWAP1 PUSH1 0x20 ADD DUP1 DUP4 GT PUSH2 0x123C JUMPI DUP3 SWAP1 SUB PUSH1 0x1F AND DUP3 ADD SWAP2 JUMPDEST POP POP POP POP POP SWAP1 POP PUSH1 0x0 PUSH2 0x126A PUSH2 0x1D11 JUMP JUMPDEST SWAP1 POP PUSH1 0x0 DUP2 MLOAD SUB PUSH2 0x127F JUMPI DUP2 SWAP3 POP POP POP PUSH2 0x12C2 JUMP JUMPDEST PUSH1 0x0 DUP3 MLOAD GT ISZERO PUSH2 0x12B4 JUMPI DUP1 DUP3 PUSH1 0x40 MLOAD PUSH1 0x20 ADD PUSH2 0x129C SWAP3 SWAP2 SWAP1 PUSH2 0x3199 JUMP JUMPDEST PUSH1 0x40 MLOAD PUSH1 0x20 DUP2 DUP4 SUB SUB DUP2 MSTORE SWAP1 PUSH1 0x40 MSTORE SWAP3 POP POP POP PUSH2 0x12C2 JUMP JUMPDEST PUSH2 0x12BD DUP5 PUSH2 0x1D28 JUMP JUMPDEST SWAP3 POP POP POP JUMPDEST SWAP2 SWAP1 POP JUMP JUMPDEST PUSH1 0x0 PUSH1 0x5 PUSH1 0x0 DUP5 PUSH20 0xFFFFFFFFFFFFFFFFFFFFFFFFFFFFFFFFFFFFFFFF AND PUSH20 0xFFFFFFFFFFFFFFFFFFFFFFFFFFFFFFFFFFFFFFFF AND DUP2 MSTORE PUSH1 0x20 ADD SWAP1 DUP2 MSTORE PUSH1 0x20 ADD PUSH1 0x0 KECCAK256 PUSH1 0x0 DUP4 PUSH20 0xFFFFFFFFFFFFFFFFFFFFFFFFFFFFFFFFFFFFFFFF AND PUSH20 0xFFFFFFFFFFFFFFFFFFFFFFFFFFFFFFFFFFFFFFFF AND DUP2 MSTORE PUSH1 0x20 ADD SWAP1 DUP2 MSTORE PUSH1 0x20 ADD PUSH1 0x0 KECCAK256 PUSH1 0x0 SWAP1 SLOAD SWAP1 PUSH2 0x100 EXP SWAP1 DIV PUSH1 0xFF AND SWAP1 POP SWAP3 SWAP2 POP POP JUMP JUMPDEST PUSH1 0x0 PUSH1 0xB PUSH1 0x0 SWAP1 SLOAD SWAP1 PUSH2 0x100 EXP SWAP1 DIV PUSH1 0xFF AND SWAP1 POP SWAP1 JUMP JUMPDEST PUSH2 0x137A PUSH2 0x1A05 JUMP JUMPDEST PUSH1 0x0 PUSH20 0xFFFFFFFFFFFFFFFFFFFFFFFFFFFFFFFFFFFFFFFF AND DUP2 PUSH20 0xFFFFFFFFFFFFFFFFFFFFFFFFFFFFFFFFFFFFFFFF AND SUB PUSH2 0x13E9 JUMPI PUSH1 0x40 MLOAD PUSH32 0x8C379A000000000000000000000000000000000000000000000000000000000 DUP2 MSTORE PUSH1 0x4 ADD PUSH2 0x13E0 SWAP1 PUSH2 0x322F JUMP JUMPDEST PUSH1 0x40 MLOAD DUP1 SWAP2 SUB SWAP1 REVERT JUMPDEST PUSH2 0x13F2 DUP2 PUSH2 0x1A83 JUMP JUMPDEST POP JUMP JUMPDEST PUSH1 0x0 PUSH32 0x1FFC9A700000000000000000000000000000000000000000000000000000000 PUSH28 0xFFFFFFFFFFFFFFFFFFFFFFFFFFFFFFFFFFFFFFFFFFFFFFFFFFFFFFFF NOT AND DUP3 PUSH28 0xFFFFFFFFFFFFFFFFFFFFFFFFFFFFFFFFFFFFFFFFFFFFFFFFFFFFFFFF NOT AND EQ SWAP1 POP SWAP2 SWAP1 POP JUMP JUMPDEST PUSH2 0x1468 DUP2 PUSH2 0x1D90 JUMP JUMPDEST PUSH2 0x14A7 JUMPI PUSH1 0x40 MLOAD PUSH32 0x8C379A000000000000000000000000000000000000000000000000000000000 DUP2 MSTORE PUSH1 0x4 ADD PUSH2 0x149E SWAP1 PUSH2 0x2F27 JUMP JUMPDEST PUSH1 0x40 MLOAD DUP1 SWAP2 SUB SWAP1 REVERT JUMPDEST POP JUMP JUMPDEST PUSH1 0x0 CALLER SWAP1 POP SWAP1 JUMP JUMPDEST DUP2 PUSH1 0x4 PUSH1 0x0 DUP4 DUP2 MSTORE PUSH1 0x20 ADD SWAP1 DUP2 MSTORE PUSH1 0x20 ADD PUSH1 0x0 KECCAK256 PUSH1 0x0 PUSH2 0x100 EXP DUP2 SLOAD DUP2 PUSH20 0xFFFFFFFFFFFFFFFFFFFFFFFFFFFFFFFFFFFFFFFF MUL NOT AND SWAP1 DUP4 PUSH20 0xFFFFFFFFFFFFFFFFFFFFFFFFFFFFFFFFFFFFFFFF AND MUL OR SWAP1 SSTORE POP DUP1 DUP3 PUSH20 0xFFFFFFFFFFFFFFFFFFFFFFFFFFFFFFFFFFFFFFFF AND PUSH2 0x1525 DUP4 PUSH2 0xBE3 JUMP JUMPDEST PUSH20 0xFFFFFFFFFFFFFFFFFFFFFFFFFFFFFFFFFFFFFFFF AND PUSH32 0x8C5BE1E5EBEC7D5BD14F71427D1E84F3DD0314C0F7B2291E5B200AC8C7C3B925 PUSH1 0x40 MLOAD PUSH1 0x40 MLOAD DUP1 SWAP2 SUB SWAP1 LOG4 POP POP JUMP JUMPDEST PUSH1 0x0 PUSH1 0x8 PUSH1 0x0 DUP5 DUP2 MSTORE PUSH1 0x20 ADD SWAP1 DUP2 MSTORE PUSH1 0x20 ADD PUSH1 0x0 KECCAK256 PUSH1 0x0 SWAP1 SLOAD SWAP1 PUSH2 0x100 EXP SWAP1 DIV PUSH20 0xFFFFFFFFFFFFFFFFFFFFFFFFFFFFFFFFFFFFFFFF AND SWAP1 POP PUSH1 0x0 PUSH1 0x9 SLOAD SWAP1 POP PUSH1 0x0 PUSH1 0x64 DUP5 PUSH1 0x0 DUP2 MLOAD DUP2 LT PUSH2 0x15C2 JUMPI PUSH2 0x15C1 PUSH2 0x2E66 JUMP JUMPDEST JUMPDEST PUSH1 0x20 MUL PUSH1 0x20 ADD ADD MLOAD PUSH2 0x15D4 SWAP2 SWAP1 PUSH2 0x327E JUMP JUMPDEST SWAP1 POP PUSH1 0x0 PUSH2 0x15E1 DUP3 PUSH2 0xE96 JUMP JUMPDEST SWAP1 POP PUSH1 0x1 PUSH1 0x9 PUSH1 0x0 DUP3 DUP3 SLOAD PUSH2 0x15F6 SWAP2 SWAP1 PUSH2 0x32AF JUMP JUMPDEST SWAP3 POP POP DUP2 SWAP1 SSTORE POP PUSH2 0x1607 DUP5 DUP5 PUSH2 0x1DFC JUMP JUMPDEST PUSH2 0x16C9 DUP4 PUSH1 0xA DUP4 PUSH1 0x2 DUP2 GT ISZERO PUSH2 0x1620 JUMPI PUSH2 0x161F PUSH2 0x2A1D JUMP JUMPDEST JUMPDEST DUP2 SLOAD DUP2 LT PUSH2 0x1631 JUMPI PUSH2 0x1630 PUSH2 0x2E66 JUMP JUMPDEST JUMPDEST SWAP1 PUSH1 0x0 MSTORE PUSH1 0x20 PUSH1 0x0 KECCAK256 ADD DUP1 SLOAD PUSH2 0x1646 SWAP1 PUSH2 0x2C56 JUMP JUMPDEST DUP1 PUSH1 0x1F ADD PUSH1 0x20 DUP1 SWAP2 DIV MUL PUSH1 0x20 ADD PUSH1 0x40 MLOAD SWAP1 DUP2 ADD PUSH1 0x40 MSTORE DUP1 SWAP3 SWAP2 SWAP1 DUP2 DUP2 MSTORE PUSH1 0x20 ADD DUP3 DUP1 SLOAD PUSH2 0x1672 SWAP1 PUSH2 0x2C56 JUMP JUMPDEST DUP1 ISZERO PUSH2 0x16BF JUMPI DUP1 PUSH1 0x1F LT PUSH2 0x1694 JUMPI PUSH2 0x100 DUP1 DUP4 SLOAD DIV MUL DUP4 MSTORE SWAP2 PUSH1 0x20 ADD SWAP2 PUSH2 0x16BF JUMP JUMPDEST DUP3 ADD SWAP2 SWAP1 PUSH1 0x0 MSTORE PUSH1 0x20 PUSH1 0x0 KECCAK256 SWAP1 JUMPDEST DUP2 SLOAD DUP2 MSTORE SWAP1 PUSH1 0x1 ADD SWAP1 PUSH1 0x20 ADD DUP1 DUP4 GT PUSH2 0x16A2 JUMPI DUP3 SWAP1 SUB PUSH1 0x1F AND DUP3 ADD SWAP2 JUMPDEST POP POP POP POP POP PUSH2 0x1E1A JUMP JUMPDEST PUSH32 0x8A269F26B688E110E9CBD887D163DAB35CAE678FA353A0292DE532C0CAC1ECDC DUP2 DUP6 PUSH1 0x40 MLOAD PUSH2 0x16FA SWAP3 SWAP2 SWAP1 PUSH2 0x32E3 JUMP JUMPDEST PUSH1 0x40 MLOAD DUP1 SWAP2 SUB SWAP1 LOG1 POP POP POP POP POP POP JUMP JUMPDEST PUSH1 0x0 DUP1 PUSH2 0x1716 DUP4 PUSH2 0xBE3 JUMP JUMPDEST SWAP1 POP DUP1 PUSH20 0xFFFFFFFFFFFFFFFFFFFFFFFFFFFFFFFFFFFFFFFF AND DUP5 PUSH20 0xFFFFFFFFFFFFFFFFFFFFFFFFFFFFFFFFFFFFFFFF AND EQ DUP1 PUSH2 0x1758 JUMPI POP PUSH2 0x1757 DUP2 DUP6 PUSH2 0x12C7 JUMP JUMPDEST JUMPDEST DUP1 PUSH2 0x1796 JUMPI POP DUP4 PUSH20 0xFFFFFFFFFFFFFFFFFFFFFFFFFFFFFFFFFFFFFFFF AND PUSH2 0x177E DUP5 PUSH2 0x7B7 JUMP JUMPDEST PUSH20 0xFFFFFFFFFFFFFFFFFFFFFFFFFFFFFFFFFFFFFFFF AND EQ JUMPDEST SWAP2 POP POP SWAP3 SWAP2 POP POP JUMP JUMPDEST DUP3 PUSH20 0xFFFFFFFFFFFFFFFFFFFFFFFFFFFFFFFFFFFFFFFF AND PUSH2 0x17BF DUP3 PUSH2 0xBE3 JUMP JUMPDEST PUSH20 0xFFFFFFFFFFFFFFFFFFFFFFFFFFFFFFFFFFFFFFFF AND EQ PUSH2 0x1815 JUMPI PUSH1 0x40 MLOAD PUSH32 0x8C379A000000000000000000000000000000000000000000000000000000000 DUP2 MSTORE PUSH1 0x4 ADD PUSH2 0x180C SWAP1 PUSH2 0x337E JUMP JUMPDEST PUSH1 0x40 MLOAD DUP1 SWAP2 SUB SWAP1 REVERT JUMPDEST PUSH1 0x0 PUSH20 0xFFFFFFFFFFFFFFFFFFFFFFFFFFFFFFFFFFFFFFFF AND DUP3 PUSH20 0xFFFFFFFFFFFFFFFFFFFFFFFFFFFFFFFFFFFFFFFF AND SUB PUSH2 0x1884 JUMPI PUSH1 0x40 MLOAD PUSH32 0x8C379A000000000000000000000000000000000000000000000000000000000 DUP2 MSTORE PUSH1 0x4 ADD PUSH2 0x187B SWAP1 PUSH2 0x3410 JUMP JUMPDEST PUSH1 0x40 MLOAD DUP1 SWAP2 SUB SWAP1 REVERT JUMPDEST PUSH2 0x188F DUP4 DUP4 DUP4 PUSH2 0x1E87 JUMP JUMPDEST PUSH2 0x189A PUSH1 0x0 DUP3 PUSH2 0x14B2 JUMP JUMPDEST PUSH1 0x1 PUSH1 0x3 PUSH1 0x0 DUP6 PUSH20 0xFFFFFFFFFFFFFFFFFFFFFFFFFFFFFFFFFFFFFFFF AND PUSH20 0xFFFFFFFFFFFFFFFFFFFFFFFFFFFFFFFFFFFFFFFF AND DUP2 MSTORE PUSH1 0x20 ADD SWAP1 DUP2 MSTORE PUSH1 0x20 ADD PUSH1 0x0 KECCAK256 PUSH1 0x0 DUP3 DUP3 SLOAD PUSH2 0x18EA SWAP2 SWAP1 PUSH2 0x3430 JUMP JUMPDEST SWAP3 POP POP DUP2 SWAP1 SSTORE POP PUSH1 0x1 PUSH1 0x3 PUSH1 0x0 DUP5 PUSH20 0xFFFFFFFFFFFFFFFFFFFFFFFFFFFFFFFFFFFFFFFF AND PUSH20 0xFFFFFFFFFFFFFFFFFFFFFFFFFFFFFFFFFFFFFFFF AND DUP2 MSTORE PUSH1 0x20 ADD SWAP1 DUP2 MSTORE PUSH1 0x20 ADD PUSH1 0x0 KECCAK256 PUSH1 0x0 DUP3 DUP3 SLOAD PUSH2 0x1941 SWAP2 SWAP1 PUSH2 0x32AF JUMP JUMPDEST SWAP3 POP POP DUP2 SWAP1 SSTORE POP DUP2 PUSH1 0x2 PUSH1 0x0 DUP4 DUP2 MSTORE PUSH1 0x20 ADD SWAP1 DUP2 MSTORE PUSH1 0x20 ADD PUSH1 0x0 KECCAK256 PUSH1 0x0 PUSH2 0x100 EXP DUP2 SLOAD DUP2 PUSH20 0xFFFFFFFFFFFFFFFFFFFFFFFFFFFFFFFFFFFFFFFF MUL NOT AND SWAP1 DUP4 PUSH20 0xFFFFFFFFFFFFFFFFFFFFFFFFFFFFFFFFFFFFFFFF AND MUL OR SWAP1 SSTORE POP DUP1 DUP3 PUSH20 0xFFFFFFFFFFFFFFFFFFFFFFFFFFFFFFFFFFFFFFFF AND DUP5 PUSH20 0xFFFFFFFFFFFFFFFFFFFFFFFFFFFFFFFFFFFFFFFF AND PUSH32 0xDDF252AD1BE2C89B69C2B068FC378DAA952BA7F163C4A11628F55A4DF523B3EF PUSH1 0x40 MLOAD PUSH1 0x40 MLOAD DUP1 SWAP2 SUB SWAP1 LOG4 PUSH2 0x1A00 DUP4 DUP4 DUP4 PUSH2 0x1E8C JUMP JUMPDEST POP POP POP JUMP JUMPDEST PUSH2 0x1A0D PUSH2 0x14AA JUMP JUMPDEST PUSH20 0xFFFFFFFFFFFFFFFFFFFFFFFFFFFFFFFFFFFFFFFF AND PUSH2 0x1A2B PUSH2 0xD91 JUMP JUMPDEST PUSH20 0xFFFFFFFFFFFFFFFFFFFFFFFFFFFFFFFFFFFFFFFF AND EQ PUSH2 0x1A81 JUMPI PUSH1 0x40 MLOAD PUSH32 0x8C379A000000000000000000000000000000000000000000000000000000000 DUP2 MSTORE PUSH1 0x4 ADD PUSH2 0x1A78 SWAP1 PUSH2 0x34B0 JUMP JUMPDEST PUSH1 0x40 MLOAD DUP1 SWAP2 SUB SWAP1 REVERT JUMPDEST JUMP JUMPDEST PUSH1 0x0 PUSH1 0x7 PUSH1 0x0 SWAP1 SLOAD SWAP1 PUSH2 0x100 EXP SWAP1 DIV PUSH20 0xFFFFFFFFFFFFFFFFFFFFFFFFFFFFFFFFFFFFFFFF AND SWAP1 POP DUP2 PUSH1 0x7 PUSH1 0x0 PUSH2 0x100 EXP DUP2 SLOAD DUP2 PUSH20 0xFFFFFFFFFFFFFFFFFFFFFFFFFFFFFFFFFFFFFFFF MUL NOT AND SWAP1 DUP4 PUSH20 0xFFFFFFFFFFFFFFFFFFFFFFFFFFFFFFFFFFFFFFFF AND MUL OR SWAP1 SSTORE POP DUP2 PUSH20 0xFFFFFFFFFFFFFFFFFFFFFFFFFFFFFFFFFFFFFFFF AND DUP2 PUSH20 0xFFFFFFFFFFFFFFFFFFFFFFFFFFFFFFFFFFFFFFFF AND PUSH32 0x8BE0079C531659141344CD1FD0A4F28419497F9722A3DAAFE3B4186F6B6457E0 PUSH1 0x40 MLOAD PUSH1 0x40 MLOAD DUP1 SWAP2 SUB SWAP1 LOG3 POP POP JUMP JUMPDEST DUP2 PUSH20 0xFFFFFFFFFFFFFFFFFFFFFFFFFFFFFFFFFFFFFFFF AND DUP4 PUSH20 0xFFFFFFFFFFFFFFFFFFFFFFFFFFFFFFFFFFFFFFFF AND SUB PUSH2 0x1BB7 JUMPI PUSH1 0x40 MLOAD PUSH32 0x8C379A000000000000000000000000000000000000000000000000000000000 DUP2 MSTORE PUSH1 0x4 ADD PUSH2 0x1BAE SWAP1 PUSH2 0x351C JUMP JUMPDEST PUSH1 0x40 MLOAD DUP1 SWAP2 SUB SWAP1 REVERT JUMPDEST DUP1 PUSH1 0x5 PUSH1 0x0 DUP6 PUSH20 0xFFFFFFFFFFFFFFFFFFFFFFFFFFFFFFFFFFFFFFFF AND PUSH20 0xFFFFFFFFFFFFFFFFFFFFFFFFFFFFFFFFFFFFFFFF AND DUP2 MSTORE PUSH1 0x20 ADD SWAP1 DUP2 MSTORE PUSH1 0x20 ADD PUSH1 0x0 KECCAK256 PUSH1 0x0 DUP5 PUSH20 0xFFFFFFFFFFFFFFFFFFFFFFFFFFFFFFFFFFFFFFFF AND PUSH20 0xFFFFFFFFFFFFFFFFFFFFFFFFFFFFFFFFFFFFFFFF AND DUP2 MSTORE PUSH1 0x20 ADD SWAP1 DUP2 MSTORE PUSH1 0x20 ADD PUSH1 0x0 KECCAK256 PUSH1 0x0 PUSH2 0x100 EXP DUP2 SLOAD DUP2 PUSH1 0xFF MUL NOT AND SWAP1 DUP4 ISZERO ISZERO MUL OR SWAP1 SSTORE POP DUP2 PUSH20 0xFFFFFFFFFFFFFFFFFFFFFFFFFFFFFFFFFFFFFFFF AND DUP4 PUSH20 0xFFFFFFFFFFFFFFFFFFFFFFFFFFFFFFFFFFFFFFFF AND PUSH32 0x17307EAB39AB6107E8899845AD3D59BD9653F200F220920489CA2B5937696C31 DUP4 PUSH1 0x40 MLOAD PUSH2 0x1CA8 SWAP2 SWAP1 PUSH2 0x24A5 JUMP JUMPDEST PUSH1 0x40 MLOAD DUP1 SWAP2 SUB SWAP1 LOG3 POP POP POP JUMP JUMPDEST PUSH2 0x1CC0 DUP5 DUP5 DUP5 PUSH2 0x179F JUMP JUMPDEST PUSH2 0x1CCC DUP5 DUP5 DUP5 DUP5 PUSH2 0x1E91 JUMP JUMPDEST PUSH2 0x1D0B JUMPI PUSH1 0x40 MLOAD PUSH32 0x8C379A000000000000000000000000000000000000000000000000000000000 DUP2 MSTORE PUSH1 0x4 ADD PUSH2 0x1D02 SWAP1 PUSH2 0x35AE JUMP JUMPDEST PUSH1 0x40 MLOAD DUP1 SWAP2 SUB SWAP1 REVERT JUMPDEST POP POP POP POP JUMP JUMPDEST PUSH1 0x60 PUSH1 0x40 MLOAD DUP1 PUSH1 0x20 ADD PUSH1 0x40 MSTORE DUP1 PUSH1 0x0 DUP2 MSTORE POP SWAP1 POP SWAP1 JUMP JUMPDEST PUSH1 0x60 PUSH2 0x1D33 DUP3 PUSH2 0x145F JUMP JUMPDEST PUSH1 0x0 PUSH2 0x1D3D PUSH2 0x1D11 JUMP JUMPDEST SWAP1 POP PUSH1 0x0 DUP2 MLOAD GT PUSH2 0x1D5D JUMPI PUSH1 0x40 MLOAD DUP1 PUSH1 0x20 ADD PUSH1 0x40 MSTORE DUP1 PUSH1 0x0 DUP2 MSTORE POP PUSH2 0x1D88 JUMP JUMPDEST DUP1 PUSH2 0x1D67 DUP5 PUSH2 0x2018 JUMP JUMPDEST PUSH1 0x40 MLOAD PUSH1 0x20 ADD PUSH2 0x1D78 SWAP3 SWAP2 SWAP1 PUSH2 0x3199 JUMP JUMPDEST PUSH1 0x40 MLOAD PUSH1 0x20 DUP2 DUP4 SUB SUB DUP2 MSTORE SWAP1 PUSH1 0x40 MSTORE JUMPDEST SWAP2 POP POP SWAP2 SWAP1 POP JUMP JUMPDEST PUSH1 0x0 DUP1 PUSH20 0xFFFFFFFFFFFFFFFFFFFFFFFFFFFFFFFFFFFFFFFF AND PUSH1 0x2 PUSH1 0x0 DUP5 DUP2 MSTORE PUSH1 0x20 ADD SWAP1 DUP2 MSTORE PUSH1 0x20 ADD PUSH1 0x0 KECCAK256 PUSH1 0x0 SWAP1 SLOAD SWAP1 PUSH2 0x100 EXP SWAP1 DIV PUSH20 0xFFFFFFFFFFFFFFFFFFFFFFFFFFFFFFFFFFFFFFFF AND PUSH20 0xFFFFFFFFFFFFFFFFFFFFFFFFFFFFFFFFFFFFFFFF AND EQ ISZERO SWAP1 POP SWAP2 SWAP1 POP JUMP JUMPDEST PUSH2 0x1E16 DUP3 DUP3 PUSH1 0x40 MLOAD DUP1 PUSH1 0x20 ADD PUSH1 0x40 MSTORE DUP1 PUSH1 0x0 DUP2 MSTORE POP PUSH2 0x2178 JUMP JUMPDEST POP POP JUMP JUMPDEST PUSH2 0x1E23 DUP3 PUSH2 0x1D90 JUMP JUMPDEST PUSH2 0x1E62 JUMPI PUSH1 0x40 MLOAD PUSH32 0x8C379A000000000000000000000000000000000000000000000000000000000 DUP2 MSTORE PUSH1 0x4 ADD PUSH2 0x1E59 SWAP1 PUSH2 0x3640 JUMP JUMPDEST PUSH1 0x40 MLOAD DUP1 SWAP2 SUB SWAP1 REVERT JUMPDEST DUP1 PUSH1 0x6 PUSH1 0x0 DUP5 DUP2 MSTORE PUSH1 0x20 ADD SWAP1 DUP2 MSTORE PUSH1 0x20 ADD PUSH1 0x0 KECCAK256 SWAP1 DUP2 PUSH2 0x1E82 SWAP2 SWAP1 PUSH2 0x380C JUMP JUMPDEST POP POP POP JUMP JUMPDEST POP POP POP JUMP JUMPDEST POP POP POP JUMP JUMPDEST PUSH1 0x0 PUSH2 0x1EB2 DUP5 PUSH20 0xFFFFFFFFFFFFFFFFFFFFFFFFFFFFFFFFFFFFFFFF AND PUSH2 0x21D3 JUMP JUMPDEST ISZERO PUSH2 0x200B JUMPI DUP4 PUSH20 0xFFFFFFFFFFFFFFFFFFFFFFFFFFFFFFFFFFFFFFFF AND PUSH4 0x150B7A02 PUSH2 0x1EDB PUSH2 0x14AA JUMP JUMPDEST DUP8 DUP7 DUP7 PUSH1 0x40 MLOAD DUP6 PUSH4 0xFFFFFFFF AND PUSH1 0xE0 SHL DUP2 MSTORE PUSH1 0x4 ADD PUSH2 0x1EFD SWAP5 SWAP4 SWAP3 SWAP2 SWAP1 PUSH2 0x3933 JUMP JUMPDEST PUSH1 0x20 PUSH1 0x40 MLOAD DUP1 DUP4 SUB DUP2 PUSH1 0x0 DUP8 GAS CALL SWAP3 POP POP POP DUP1 ISZERO PUSH2 0x1F39 JUMPI POP PUSH1 0x40 MLOAD RETURNDATASIZE PUSH1 0x1F NOT PUSH1 0x1F DUP3 ADD AND DUP3 ADD DUP1 PUSH1 0x40 MSTORE POP DUP2 ADD SWAP1 PUSH2 0x1F36 SWAP2 SWAP1 PUSH2 0x3994 JUMP JUMPDEST PUSH1 0x1 JUMPDEST PUSH2 0x1FBB JUMPI RETURNDATASIZE DUP1 PUSH1 0x0 DUP2 EQ PUSH2 0x1F69 JUMPI PUSH1 0x40 MLOAD SWAP2 POP PUSH1 0x1F NOT PUSH1 0x3F RETURNDATASIZE ADD AND DUP3 ADD PUSH1 0x40 MSTORE RETURNDATASIZE DUP3 MSTORE RETURNDATASIZE PUSH1 0x0 PUSH1 0x20 DUP5 ADD RETURNDATACOPY PUSH2 0x1F6E JUMP JUMPDEST PUSH1 0x60 SWAP2 POP JUMPDEST POP PUSH1 0x0 DUP2 MLOAD SUB PUSH2 0x1FB3 JUMPI PUSH1 0x40 MLOAD PUSH32 0x8C379A000000000000000000000000000000000000000000000000000000000 DUP2 MSTORE PUSH1 0x4 ADD PUSH2 0x1FAA SWAP1 PUSH2 0x35AE JUMP JUMPDEST PUSH1 0x40 MLOAD DUP1 SWAP2 SUB SWAP1 REVERT JUMPDEST DUP1 MLOAD DUP2 PUSH1 0x20 ADD REVERT JUMPDEST PUSH4 0x150B7A02 PUSH1 0xE0 SHL PUSH28 0xFFFFFFFFFFFFFFFFFFFFFFFFFFFFFFFFFFFFFFFFFFFFFFFFFFFFFFFF NOT AND DUP2 PUSH28 0xFFFFFFFFFFFFFFFFFFFFFFFFFFFFFFFFFFFFFFFFFFFFFFFFFFFFFFFF NOT AND EQ SWAP2 POP POP PUSH2 0x2010 JUMP JUMPDEST PUSH1 0x1 SWAP1 POP JUMPDEST SWAP5 SWAP4 POP POP POP POP JUMP JUMPDEST PUSH1 0x60 PUSH1 0x0 DUP3 SUB PUSH2 0x205F JUMPI PUSH1 0x40 MLOAD DUP1 PUSH1 0x40 ADD PUSH1 0x40 MSTORE DUP1 PUSH1 0x1 DUP2 MSTORE PUSH1 0x20 ADD PUSH32 0x3000000000000000000000000000000000000000000000000000000000000000 DUP2 MSTORE POP SWAP1 POP PUSH2 0x2173 JUMP JUMPDEST PUSH1 0x0 DUP3 SWAP1 POP PUSH1 0x0 JUMPDEST PUSH1 0x0 DUP3 EQ PUSH2 0x2091 JUMPI DUP1 DUP1 PUSH2 0x207A SWAP1 PUSH2 0x3008 JUMP JUMPDEST SWAP2 POP POP PUSH1 0xA DUP3 PUSH2 0x208A SWAP2 SWAP1 PUSH2 0x39C1 JUMP JUMPDEST SWAP2 POP PUSH2 0x2067 JUMP JUMPDEST PUSH1 0x0 DUP2 PUSH8 0xFFFFFFFFFFFFFFFF DUP2 GT ISZERO PUSH2 0x20AD JUMPI PUSH2 0x20AC PUSH2 0x26A2 JUMP JUMPDEST JUMPDEST PUSH1 0x40 MLOAD SWAP1 DUP1 DUP3 MSTORE DUP1 PUSH1 0x1F ADD PUSH1 0x1F NOT AND PUSH1 0x20 ADD DUP3 ADD PUSH1 0x40 MSTORE DUP1 ISZERO PUSH2 0x20DF JUMPI DUP2 PUSH1 0x20 ADD PUSH1 0x1 DUP3 MUL DUP1 CALLDATASIZE DUP4 CALLDATACOPY DUP1 DUP3 ADD SWAP2 POP POP SWAP1 POP JUMPDEST POP SWAP1 POP JUMPDEST PUSH1 0x0 DUP6 EQ PUSH2 0x216C JUMPI PUSH1 0x1 DUP3 PUSH2 0x20F8 SWAP2 SWAP1 PUSH2 0x3430 JUMP JUMPDEST SWAP2 POP PUSH1 0xA DUP6 PUSH2 0x2107 SWAP2 SWAP1 PUSH2 0x327E JUMP JUMPDEST PUSH1 0x30 PUSH2 0x2113 SWAP2 SWAP1 PUSH2 0x32AF JUMP JUMPDEST PUSH1 0xF8 SHL DUP2 DUP4 DUP2 MLOAD DUP2 LT PUSH2 0x2129 JUMPI PUSH2 0x2128 PUSH2 0x2E66 JUMP JUMPDEST JUMPDEST PUSH1 0x20 ADD ADD SWAP1 PUSH31 0xFFFFFFFFFFFFFFFFFFFFFFFFFFFFFFFFFFFFFFFFFFFFFFFFFFFFFFFFFFFFFF NOT AND SWAP1 DUP2 PUSH1 0x0 BYTE SWAP1 MSTORE8 POP PUSH1 0xA DUP6 PUSH2 0x2165 SWAP2 SWAP1 PUSH2 0x39C1 JUMP JUMPDEST SWAP5 POP PUSH2 0x20E3 JUMP JUMPDEST DUP1 SWAP4 POP POP POP POP JUMPDEST SWAP2 SWAP1 POP JUMP JUMPDEST PUSH2 0x2182 DUP4 DUP4 PUSH2 0x21F6 JUMP JUMPDEST PUSH2 0x218F PUSH1 0x0 DUP5 DUP5 DUP5 PUSH2 0x1E91 JUMP JUMPDEST PUSH2 0x21CE JUMPI PUSH1 0x40 MLOAD PUSH32 0x8C379A000000000000000000000000000000000000000000000000000000000 DUP2 MSTORE PUSH1 0x4 ADD PUSH2 0x21C5 SWAP1 PUSH2 0x35AE JUMP JUMPDEST PUSH1 0x40 MLOAD DUP1 SWAP2 SUB SWAP1 REVERT JUMPDEST POP POP POP JUMP JUMPDEST PUSH1 0x0 DUP1 DUP3 PUSH20 0xFFFFFFFFFFFFFFFFFFFFFFFFFFFFFFFFFFFFFFFF AND EXTCODESIZE GT SWAP1 POP SWAP2 SWAP1 POP JUMP JUMPDEST PUSH1 0x0 PUSH20 0xFFFFFFFFFFFFFFFFFFFFFFFFFFFFFFFFFFFFFFFF AND DUP3 PUSH20 0xFFFFFFFFFFFFFFFFFFFFFFFFFFFFFFFFFFFFFFFF AND SUB PUSH2 0x2265 JUMPI PUSH1 0x40 MLOAD PUSH32 0x8C379A000000000000000000000000000000000000000000000000000000000 DUP2 MSTORE PUSH1 0x4 ADD PUSH2 0x225C SWAP1 PUSH2 0x3A3E JUMP JUMPDEST PUSH1 0x40 MLOAD DUP1 SWAP2 SUB SWAP1 REVERT JUMPDEST PUSH2 0x226E DUP2 PUSH2 0x1D90 JUMP JUMPDEST ISZERO PUSH2 0x22AE JUMPI PUSH1 0x40 MLOAD PUSH32 0x8C379A000000000000000000000000000000000000000000000000000000000 DUP2 MSTORE PUSH1 0x4 ADD PUSH2 0x22A5 SWAP1 PUSH2 0x3AAA JUMP JUMPDEST PUSH1 0x40 MLOAD DUP1 SWAP2 SUB SWAP1 REVERT JUMPDEST PUSH2 0x22BA PUSH1 0x0 DUP4 DUP4 PUSH2 0x1E87 JUMP JUMPDEST PUSH1 0x1 PUSH1 0x3 PUSH1 0x0 DUP5 PUSH20 0xFFFFFFFFFFFFFFFFFFFFFFFFFFFFFFFFFFFFFFFF AND PUSH20 0xFFFFFFFFFFFFFFFFFFFFFFFFFFFFFFFFFFFFFFFF AND DUP2 MSTORE PUSH1 0x20 ADD SWAP1 DUP2 MSTORE PUSH1 0x20 ADD PUSH1 0x0 KECCAK256 PUSH1 0x0 DUP3 DUP3 SLOAD PUSH2 0x230A SWAP2 SWAP1 PUSH2 0x32AF JUMP JUMPDEST SWAP3 POP POP DUP2 SWAP1 SSTORE POP DUP2 PUSH1 0x2 PUSH1 0x0 DUP4 DUP2 MSTORE PUSH1 0x20 ADD SWAP1 DUP2 MSTORE PUSH1 0x20 ADD PUSH1 0x0 KECCAK256 PUSH1 0x0 PUSH2 0x100 EXP DUP2 SLOAD DUP2 PUSH20 0xFFFFFFFFFFFFFFFFFFFFFFFFFFFFFFFFFFFFFFFF MUL NOT AND SWAP1 DUP4 PUSH20 0xFFFFFFFFFFFFFFFFFFFFFFFFFFFFFFFFFFFFFFFF AND MUL OR SWAP1 SSTORE POP DUP1 DUP3 PUSH20 0xFFFFFFFFFFFFFFFFFFFFFFFFFFFFFFFFFFFFFFFF AND PUSH1 0x0 PUSH20 0xFFFFFFFFFFFFFFFFFFFFFFFFFFFFFFFFFFFFFFFF AND PUSH32 0xDDF252AD1BE2C89B69C2B068FC378DAA952BA7F163C4A11628F55A4DF523B3EF PUSH1 0x40 MLOAD PUSH1 0x40 MLOAD DUP1 SWAP2 SUB SWAP1 LOG4 PUSH2 0x23CB PUSH1 0x0 DUP4 DUP4 PUSH2 0x1E8C JUMP JUMPDEST POP POP JUMP JUMPDEST PUSH1 0x40 MLOAD DUP1 PUSH1 0x60 ADD PUSH1 0x40 MSTORE DUP1 PUSH1 0x3 SWAP1 PUSH1 0x20 DUP3 MUL DUP1 CALLDATASIZE DUP4 CALLDATACOPY DUP1 DUP3 ADD SWAP2 POP POP SWAP1 POP POP SWAP1 JUMP JUMPDEST PUSH1 0x0 PUSH1 0x40 MLOAD SWAP1 POP SWAP1 JUMP JUMPDEST PUSH1 0x0 DUP1 REVERT JUMPDEST PUSH1 0x0 DUP1 REVERT JUMPDEST PUSH1 0x0 PUSH32 0xFFFFFFFF00000000000000000000000000000000000000000000000000000000 DUP3 AND SWAP1 POP SWAP2 SWAP1 POP JUMP JUMPDEST PUSH2 0x243A DUP2 PUSH2 0x2405 JUMP JUMPDEST DUP2 EQ PUSH2 0x2445 JUMPI PUSH1 0x0 DUP1 REVERT JUMPDEST POP JUMP JUMPDEST PUSH1 0x0 DUP2 CALLDATALOAD SWAP1 POP PUSH2 0x2457 DUP2 PUSH2 0x2431 JUMP JUMPDEST SWAP3 SWAP2 POP POP JUMP JUMPDEST PUSH1 0x0 PUSH1 0x20 DUP3 DUP5 SUB SLT ISZERO PUSH2 0x2473 JUMPI PUSH2 0x2472 PUSH2 0x23FB JUMP JUMPDEST JUMPDEST PUSH1 0x0 PUSH2 0x2481 DUP5 DUP3 DUP6 ADD PUSH2 0x2448 JUMP JUMPDEST SWAP2 POP POP SWAP3 SWAP2 POP POP JUMP JUMPDEST PUSH1 0x0 DUP2 ISZERO ISZERO SWAP1 POP SWAP2 SWAP1 POP JUMP JUMPDEST PUSH2 0x249F DUP2 PUSH2 0x248A JUMP JUMPDEST DUP3 MSTORE POP POP JUMP JUMPDEST PUSH1 0x0 PUSH1 0x20 DUP3 ADD SWAP1 POP PUSH2 0x24BA PUSH1 0x0 DUP4 ADD DUP5 PUSH2 0x2496 JUMP JUMPDEST SWAP3 SWAP2 POP POP JUMP JUMPDEST PUSH1 0x0 DUP2 MLOAD SWAP1 POP SWAP2 SWAP1 POP JUMP JUMPDEST PUSH1 0x0 DUP3 DUP3 MSTORE PUSH1 0x20 DUP3 ADD SWAP1 POP SWAP3 SWAP2 POP POP JUMP JUMPDEST PUSH1 0x0 JUMPDEST DUP4 DUP2 LT ISZERO PUSH2 0x24FA JUMPI DUP1 DUP3 ADD MLOAD DUP2 DUP5 ADD MSTORE PUSH1 0x20 DUP2 ADD SWAP1 POP PUSH2 0x24DF JUMP JUMPDEST PUSH1 0x0 DUP5 DUP5 ADD MSTORE POP POP POP POP JUMP JUMPDEST PUSH1 0x0 PUSH1 0x1F NOT PUSH1 0x1F DUP4 ADD AND SWAP1 POP SWAP2 SWAP1 POP JUMP JUMPDEST PUSH1 0x0 PUSH2 0x2522 DUP3 PUSH2 0x24C0 JUMP JUMPDEST PUSH2 0x252C DUP2 DUP6 PUSH2 0x24CB JUMP JUMPDEST SWAP4 POP PUSH2 0x253C DUP2 DUP6 PUSH1 0x20 DUP7 ADD PUSH2 0x24DC JUMP JUMPDEST PUSH2 0x2545 DUP2 PUSH2 0x2506 JUMP JUMPDEST DUP5 ADD SWAP2 POP POP SWAP3 SWAP2 POP POP JUMP JUMPDEST PUSH1 0x0 PUSH1 0x20 DUP3 ADD SWAP1 POP DUP2 DUP2 SUB PUSH1 0x0 DUP4 ADD MSTORE PUSH2 0x256A DUP2 DUP5 PUSH2 0x2517 JUMP JUMPDEST SWAP1 POP SWAP3 SWAP2 POP POP JUMP JUMPDEST PUSH1 0x0 DUP2 SWAP1 POP SWAP2 SWAP1 POP JUMP JUMPDEST PUSH2 0x2585 DUP2 PUSH2 0x2572 JUMP JUMPDEST DUP2 EQ PUSH2 0x2590 JUMPI PUSH1 0x0 DUP1 REVERT JUMPDEST POP JUMP JUMPDEST PUSH1 0x0 DUP2 CALLDATALOAD SWAP1 POP PUSH2 0x25A2 DUP2 PUSH2 0x257C JUMP JUMPDEST SWAP3 SWAP2 POP POP JUMP JUMPDEST PUSH1 0x0 PUSH1 0x20 DUP3 DUP5 SUB SLT ISZERO PUSH2 0x25BE JUMPI PUSH2 0x25BD PUSH2 0x23FB JUMP JUMPDEST JUMPDEST PUSH1 0x0 PUSH2 0x25CC DUP5 DUP3 DUP6 ADD PUSH2 0x2593 JUMP JUMPDEST SWAP2 POP POP SWAP3 SWAP2 POP POP JUMP JUMPDEST PUSH1 0x0 PUSH20 0xFFFFFFFFFFFFFFFFFFFFFFFFFFFFFFFFFFFFFFFF DUP3 AND SWAP1 POP SWAP2 SWAP1 POP JUMP JUMPDEST PUSH1 0x0 PUSH2 0x2600 DUP3 PUSH2 0x25D5 JUMP JUMPDEST SWAP1 POP SWAP2 SWAP1 POP JUMP JUMPDEST PUSH2 0x2610 DUP2 PUSH2 0x25F5 JUMP JUMPDEST DUP3 MSTORE POP POP JUMP JUMPDEST PUSH1 0x0 PUSH1 0x20 DUP3 ADD SWAP1 POP PUSH2 0x262B PUSH1 0x0 DUP4 ADD DUP5 PUSH2 0x2607 JUMP JUMPDEST SWAP3 SWAP2 POP POP JUMP JUMPDEST PUSH2 0x263A DUP2 PUSH2 0x25F5 JUMP JUMPDEST DUP2 EQ PUSH2 0x2645 JUMPI PUSH1 0x0 DUP1 REVERT JUMPDEST POP JUMP JUMPDEST PUSH1 0x0 DUP2 CALLDATALOAD SWAP1 POP PUSH2 0x2657 DUP2 PUSH2 0x2631 JUMP JUMPDEST SWAP3 SWAP2 POP POP JUMP JUMPDEST PUSH1 0x0 DUP1 PUSH1 0x40 DUP4 DUP6 SUB SLT ISZERO PUSH2 0x2674 JUMPI PUSH2 0x2673 PUSH2 0x23FB JUMP JUMPDEST JUMPDEST PUSH1 0x0 PUSH2 0x2682 DUP6 DUP3 DUP7 ADD PUSH2 0x2648 JUMP JUMPDEST SWAP3 POP POP PUSH1 0x20 PUSH2 0x2693 DUP6 DUP3 DUP7 ADD PUSH2 0x2593 JUMP JUMPDEST SWAP2 POP POP SWAP3 POP SWAP3 SWAP1 POP JUMP JUMPDEST PUSH1 0x0 DUP1 REVERT JUMPDEST PUSH32 0x4E487B7100000000000000000000000000000000000000000000000000000000 PUSH1 0x0 MSTORE PUSH1 0x41 PUSH1 0x4 MSTORE PUSH1 0x24 PUSH1 0x0 REVERT JUMPDEST PUSH2 0x26DA DUP3 PUSH2 0x2506 JUMP JUMPDEST DUP2 ADD DUP2 DUP2 LT PUSH8 0xFFFFFFFFFFFFFFFF DUP3 GT OR ISZERO PUSH2 0x26F9 JUMPI PUSH2 0x26F8 PUSH2 0x26A2 JUMP JUMPDEST JUMPDEST DUP1 PUSH1 0x40 MSTORE POP POP POP JUMP JUMPDEST PUSH1 0x0 PUSH2 0x270C PUSH2 0x23F1 JUMP JUMPDEST SWAP1 POP PUSH2 0x2718 DUP3 DUP3 PUSH2 0x26D1 JUMP JUMPDEST SWAP2 SWAP1 POP JUMP JUMPDEST PUSH1 0x0 PUSH8 0xFFFFFFFFFFFFFFFF DUP3 GT ISZERO PUSH2 0x2738 JUMPI PUSH2 0x2737 PUSH2 0x26A2 JUMP JUMPDEST JUMPDEST PUSH1 0x20 DUP3 MUL SWAP1 POP PUSH1 0x20 DUP2 ADD SWAP1 POP SWAP2 SWAP1 POP JUMP JUMPDEST PUSH1 0x0 DUP1 REVERT JUMPDEST PUSH1 0x0 PUSH2 0x2761 PUSH2 0x275C DUP5 PUSH2 0x271D JUMP JUMPDEST PUSH2 0x2702 JUMP JUMPDEST SWAP1 POP DUP1 DUP4 DUP3 MSTORE PUSH1 0x20 DUP3 ADD SWAP1 POP PUSH1 0x20 DUP5 MUL DUP4 ADD DUP6 DUP2 GT ISZERO PUSH2 0x2784 JUMPI PUSH2 0x2783 PUSH2 0x2749 JUMP JUMPDEST JUMPDEST DUP4 JUMPDEST DUP2 DUP2 LT ISZERO PUSH2 0x27AD JUMPI DUP1 PUSH2 0x2799 DUP9 DUP3 PUSH2 0x2593 JUMP JUMPDEST DUP5 MSTORE PUSH1 0x20 DUP5 ADD SWAP4 POP POP PUSH1 0x20 DUP2 ADD SWAP1 POP PUSH2 0x2786 JUMP JUMPDEST POP POP POP SWAP4 SWAP3 POP POP POP JUMP JUMPDEST PUSH1 0x0 DUP3 PUSH1 0x1F DUP4 ADD SLT PUSH2 0x27CC JUMPI PUSH2 0x27CB PUSH2 0x269D JUMP JUMPDEST JUMPDEST DUP2 CALLDATALOAD PUSH2 0x27DC DUP5 DUP3 PUSH1 0x20 DUP7 ADD PUSH2 0x274E JUMP JUMPDEST SWAP2 POP POP SWAP3 SWAP2 POP POP JUMP JUMPDEST PUSH1 0x0 DUP1 PUSH1 0x40 DUP4 DUP6 SUB SLT ISZERO PUSH2 0x27FC JUMPI PUSH2 0x27FB PUSH2 0x23FB JUMP JUMPDEST JUMPDEST PUSH1 0x0 PUSH2 0x280A DUP6 DUP3 DUP7 ADD PUSH2 0x2593 JUMP JUMPDEST SWAP3 POP POP PUSH1 0x20 DUP4 ADD CALLDATALOAD PUSH8 0xFFFFFFFFFFFFFFFF DUP2 GT ISZERO PUSH2 0x282B JUMPI PUSH2 0x282A PUSH2 0x2400 JUMP JUMPDEST JUMPDEST PUSH2 0x2837 DUP6 DUP3 DUP7 ADD PUSH2 0x27B7 JUMP JUMPDEST SWAP2 POP POP SWAP3 POP SWAP3 SWAP1 POP JUMP JUMPDEST PUSH1 0x0 DUP1 PUSH1 0x0 PUSH1 0x60 DUP5 DUP7 SUB SLT ISZERO PUSH2 0x285A JUMPI PUSH2 0x2859 PUSH2 0x23FB JUMP JUMPDEST JUMPDEST PUSH1 0x0 PUSH2 0x2868 DUP7 DUP3 DUP8 ADD PUSH2 0x2648 JUMP JUMPDEST SWAP4 POP POP PUSH1 0x20 PUSH2 0x2879 DUP7 DUP3 DUP8 ADD PUSH2 0x2648 JUMP JUMPDEST SWAP3 POP POP PUSH1 0x40 PUSH2 0x288A DUP7 DUP3 DUP8 ADD PUSH2 0x2593 JUMP JUMPDEST SWAP2 POP POP SWAP3 POP SWAP3 POP SWAP3 JUMP JUMPDEST PUSH1 0x0 PUSH1 0x3 SWAP1 POP SWAP2 SWAP1 POP JUMP JUMPDEST PUSH1 0x0 DUP2 SWAP1 POP SWAP3 SWAP2 POP POP JUMP JUMPDEST PUSH1 0x0 DUP2 SWAP1 POP SWAP2 SWAP1 POP JUMP JUMPDEST PUSH2 0x28BD DUP2 PUSH2 0x2572 JUMP JUMPDEST DUP3 MSTORE POP POP JUMP JUMPDEST PUSH1 0x0 PUSH2 0x28CF DUP4 DUP4 PUSH2 0x28B4 JUMP JUMPDEST PUSH1 0x20 DUP4 ADD SWAP1 POP SWAP3 SWAP2 POP POP JUMP JUMPDEST PUSH1 0x0 PUSH1 0x20 DUP3 ADD SWAP1 POP SWAP2 SWAP1 POP JUMP JUMPDEST PUSH2 0x28F1 DUP2 PUSH2 0x2894 JUMP JUMPDEST PUSH2 0x28FB DUP2 DUP5 PUSH2 0x289F JUMP JUMPDEST SWAP3 POP PUSH2 0x2906 DUP3 PUSH2 0x28AA JUMP JUMPDEST DUP1 PUSH1 0x0 JUMPDEST DUP4 DUP2 LT ISZERO PUSH2 0x2937 JUMPI DUP2 MLOAD PUSH2 0x291E DUP8 DUP3 PUSH2 0x28C3 JUMP JUMPDEST SWAP7 POP PUSH2 0x2929 DUP4 PUSH2 0x28DB JUMP JUMPDEST SWAP3 POP POP PUSH1 0x1 DUP2 ADD SWAP1 POP PUSH2 0x290A JUMP JUMPDEST POP POP POP POP POP POP JUMP JUMPDEST PUSH1 0x0 PUSH1 0x60 DUP3 ADD SWAP1 POP PUSH2 0x2954 PUSH1 0x0 DUP4 ADD DUP5 PUSH2 0x28E8 JUMP JUMPDEST SWAP3 SWAP2 POP POP JUMP JUMPDEST PUSH2 0x2963 DUP2 PUSH2 0x2572 JUMP JUMPDEST DUP3 MSTORE POP POP JUMP JUMPDEST PUSH1 0x0 PUSH1 0x20 DUP3 ADD SWAP1 POP PUSH2 0x297E PUSH1 0x0 DUP4 ADD DUP5 PUSH2 0x295A JUMP JUMPDEST SWAP3 SWAP2 POP POP JUMP JUMPDEST PUSH1 0x0 PUSH1 0x20 DUP3 DUP5 SUB SLT ISZERO PUSH2 0x299A JUMPI PUSH2 0x2999 PUSH2 0x23FB JUMP JUMPDEST JUMPDEST PUSH1 0x0 PUSH2 0x29A8 DUP5 DUP3 DUP6 ADD PUSH2 0x2648 JUMP JUMPDEST SWAP2 POP POP SWAP3 SWAP2 POP POP JUMP JUMPDEST PUSH2 0x29BA DUP2 PUSH2 0x248A JUMP JUMPDEST DUP2 EQ PUSH2 0x29C5 JUMPI PUSH1 0x0 DUP1 REVERT JUMPDEST POP JUMP JUMPDEST PUSH1 0x0 DUP2 CALLDATALOAD SWAP1 POP PUSH2 0x29D7 DUP2 PUSH2 0x29B1 JUMP JUMPDEST SWAP3 SWAP2 POP POP JUMP JUMPDEST PUSH1 0x0 DUP1 PUSH1 0x40 DUP4 DUP6 SUB SLT ISZERO PUSH2 0x29F4 JUMPI PUSH2 0x29F3 PUSH2 0x23FB JUMP JUMPDEST JUMPDEST PUSH1 0x0 PUSH2 0x2A02 DUP6 DUP3 DUP7 ADD PUSH2 0x2648 JUMP JUMPDEST SWAP3 POP POP PUSH1 0x20 PUSH2 0x2A13 DUP6 DUP3 DUP7 ADD PUSH2 0x29C8 JUMP JUMPDEST SWAP2 POP POP SWAP3 POP SWAP3 SWAP1 POP JUMP JUMPDEST PUSH32 0x4E487B7100000000000000000000000000000000000000000000000000000000 PUSH1 0x0 MSTORE PUSH1 0x21 PUSH1 0x4 MSTORE PUSH1 0x24 PUSH1 0x0 REVERT JUMPDEST PUSH1 0x3 DUP2 LT PUSH2 0x2A5D JUMPI PUSH2 0x2A5C PUSH2 0x2A1D JUMP JUMPDEST JUMPDEST POP JUMP JUMPDEST PUSH1 0x0 DUP2 SWAP1 POP PUSH2 0x2A6E DUP3 PUSH2 0x2A4C JUMP JUMPDEST SWAP2 SWAP1 POP JUMP JUMPDEST PUSH1 0x0 PUSH2 0x2A7E DUP3 PUSH2 0x2A60 JUMP JUMPDEST SWAP1 POP SWAP2 SWAP1 POP JUMP JUMPDEST PUSH2 0x2A8E DUP2 PUSH2 0x2A73 JUMP JUMPDEST DUP3 MSTORE POP POP JUMP JUMPDEST PUSH1 0x0 PUSH1 0x20 DUP3 ADD SWAP1 POP PUSH2 0x2AA9 PUSH1 0x0 DUP4 ADD DUP5 PUSH2 0x2A85 JUMP JUMPDEST SWAP3 SWAP2 POP POP JUMP JUMPDEST PUSH1 0x0 DUP1 REVERT JUMPDEST PUSH1 0x0 PUSH8 0xFFFFFFFFFFFFFFFF DUP3 GT ISZERO PUSH2 0x2ACF JUMPI PUSH2 0x2ACE PUSH2 0x26A2 JUMP JUMPDEST JUMPDEST PUSH2 0x2AD8 DUP3 PUSH2 0x2506 JUMP JUMPDEST SWAP1 POP PUSH1 0x20 DUP2 ADD SWAP1 POP SWAP2 SWAP1 POP JUMP JUMPDEST DUP3 DUP2 DUP4 CALLDATACOPY PUSH1 0x0 DUP4 DUP4 ADD MSTORE POP POP POP JUMP JUMPDEST PUSH1 0x0 PUSH2 0x2B07 PUSH2 0x2B02 DUP5 PUSH2 0x2AB4 JUMP JUMPDEST PUSH2 0x2702 JUMP JUMPDEST SWAP1 POP DUP3 DUP2 MSTORE PUSH1 0x20 DUP2 ADD DUP5 DUP5 DUP5 ADD GT ISZERO PUSH2 0x2B23 JUMPI PUSH2 0x2B22 PUSH2 0x2AAF JUMP JUMPDEST JUMPDEST PUSH2 0x2B2E DUP5 DUP3 DUP6 PUSH2 0x2AE5 JUMP JUMPDEST POP SWAP4 SWAP3 POP POP POP JUMP JUMPDEST PUSH1 0x0 DUP3 PUSH1 0x1F DUP4 ADD SLT PUSH2 0x2B4B JUMPI PUSH2 0x2B4A PUSH2 0x269D JUMP JUMPDEST JUMPDEST DUP2 CALLDATALOAD PUSH2 0x2B5B DUP5 DUP3 PUSH1 0x20 DUP7 ADD PUSH2 0x2AF4 JUMP JUMPDEST SWAP2 POP POP SWAP3 SWAP2 POP POP JUMP JUMPDEST PUSH1 0x0 DUP1 PUSH1 0x0 DUP1 PUSH1 0x80 DUP6 DUP8 SUB SLT ISZERO PUSH2 0x2B7E JUMPI PUSH2 0x2B7D PUSH2 0x23FB JUMP JUMPDEST JUMPDEST PUSH1 0x0 PUSH2 0x2B8C DUP8 DUP3 DUP9 ADD PUSH2 0x2648 JUMP JUMPDEST SWAP5 POP POP PUSH1 0x20 PUSH2 0x2B9D DUP8 DUP3 DUP9 ADD PUSH2 0x2648 JUMP JUMPDEST SWAP4 POP POP PUSH1 0x40 PUSH2 0x2BAE DUP8 DUP3 DUP9 ADD PUSH2 0x2593 JUMP JUMPDEST SWAP3 POP POP PUSH1 0x60 DUP6 ADD CALLDATALOAD PUSH8 0xFFFFFFFFFFFFFFFF DUP2 GT ISZERO PUSH2 0x2BCF JUMPI PUSH2 0x2BCE PUSH2 0x2400 JUMP JUMPDEST JUMPDEST PUSH2 0x2BDB DUP8 DUP3 DUP9 ADD PUSH2 0x2B36 JUMP JUMPDEST SWAP2 POP POP SWAP3 SWAP6 SWAP2 SWAP5 POP SWAP3 POP JUMP JUMPDEST PUSH1 0x0 DUP1 PUSH1 0x40 DUP4 DUP6 SUB SLT ISZERO PUSH2 0x2BFE JUMPI PUSH2 0x2BFD PUSH2 0x23FB JUMP JUMPDEST JUMPDEST PUSH1 0x0 PUSH2 0x2C0C DUP6 DUP3 DUP7 ADD PUSH2 0x2648 JUMP JUMPDEST SWAP3 POP POP PUSH1 0x20 PUSH2 0x2C1D DUP6 DUP3 DUP7 ADD PUSH2 0x2648 JUMP JUMPDEST SWAP2 POP POP SWAP3 POP SWAP3 SWAP1 POP JUMP JUMPDEST PUSH32 0x4E487B7100000000000000000000000000000000000000000000000000000000 PUSH1 0x0 MSTORE PUSH1 0x22 PUSH1 0x4 MSTORE PUSH1 0x24 PUSH1 0x0 REVERT JUMPDEST PUSH1 0x0 PUSH1 0x2 DUP3 DIV SWAP1 POP PUSH1 0x1 DUP3 AND DUP1 PUSH2 0x2C6E JUMPI PUSH1 0x7F DUP3 AND SWAP2 POP JUMPDEST PUSH1 0x20 DUP3 LT DUP2 SUB PUSH2 0x2C81 JUMPI PUSH2 0x2C80 PUSH2 0x2C27 JUMP JUMPDEST JUMPDEST POP SWAP2 SWAP1 POP JUMP JUMPDEST PUSH32 0x4552433732313A20617070726F76616C20746F2063757272656E74206F776E65 PUSH1 0x0 DUP3 ADD MSTORE PUSH32 0x7200000000000000000000000000000000000000000000000000000000000000 PUSH1 0x20 DUP3 ADD MSTORE POP JUMP JUMPDEST PUSH1 0x0 PUSH2 0x2CE3 PUSH1 0x21 DUP4 PUSH2 0x24CB JUMP JUMPDEST SWAP2 POP PUSH2 0x2CEE DUP3 PUSH2 0x2C87 JUMP JUMPDEST PUSH1 0x40 DUP3 ADD SWAP1 POP SWAP2 SWAP1 POP JUMP JUMPDEST PUSH1 0x0 PUSH1 0x20 DUP3 ADD SWAP1 POP DUP2 DUP2 SUB PUSH1 0x0 DUP4 ADD MSTORE PUSH2 0x2D12 DUP2 PUSH2 0x2CD6 JUMP JUMPDEST SWAP1 POP SWAP2 SWAP1 POP JUMP JUMPDEST PUSH32 0x4552433732313A20617070726F76652063616C6C6572206973206E6F7420746F PUSH1 0x0 DUP3 ADD MSTORE PUSH32 0x6B656E206F776E6572206E6F7220617070726F76656420666F7220616C6C0000 PUSH1 0x20 DUP3 ADD MSTORE POP JUMP JUMPDEST PUSH1 0x0 PUSH2 0x2D75 PUSH1 0x3E DUP4 PUSH2 0x24CB JUMP JUMPDEST SWAP2 POP PUSH2 0x2D80 DUP3 PUSH2 0x2D19 JUMP JUMPDEST PUSH1 0x40 DUP3 ADD SWAP1 POP SWAP2 SWAP1 POP JUMP JUMPDEST PUSH1 0x0 PUSH1 0x20 DUP3 ADD SWAP1 POP DUP2 DUP2 SUB PUSH1 0x0 DUP4 ADD MSTORE PUSH2 0x2DA4 DUP2 PUSH2 0x2D68 JUMP JUMPDEST SWAP1 POP SWAP2 SWAP1 POP JUMP JUMPDEST PUSH1 0x0 PUSH1 0x40 DUP3 ADD SWAP1 POP PUSH2 0x2DC0 PUSH1 0x0 DUP4 ADD DUP6 PUSH2 0x2607 JUMP JUMPDEST PUSH2 0x2DCD PUSH1 0x20 DUP4 ADD DUP5 PUSH2 0x2607 JUMP JUMPDEST SWAP4 SWAP3 POP POP POP JUMP JUMPDEST PUSH32 0x4552433732313A2063616C6C6572206973206E6F7420746F6B656E206F776E65 PUSH1 0x0 DUP3 ADD MSTORE PUSH32 0x72206E6F7220617070726F766564000000000000000000000000000000000000 PUSH1 0x20 DUP3 ADD MSTORE POP JUMP JUMPDEST PUSH1 0x0 PUSH2 0x2E30 PUSH1 0x2E DUP4 PUSH2 0x24CB JUMP JUMPDEST SWAP2 POP PUSH2 0x2E3B DUP3 PUSH2 0x2DD4 JUMP JUMPDEST PUSH1 0x40 DUP3 ADD SWAP1 POP SWAP2 SWAP1 POP JUMP JUMPDEST PUSH1 0x0 PUSH1 0x20 DUP3 ADD SWAP1 POP DUP2 DUP2 SUB PUSH1 0x0 DUP4 ADD MSTORE PUSH2 0x2E5F DUP2 PUSH2 0x2E23 JUMP JUMPDEST SWAP1 POP SWAP2 SWAP1 POP JUMP JUMPDEST PUSH32 0x4E487B7100000000000000000000000000000000000000000000000000000000 PUSH1 0x0 MSTORE PUSH1 0x32 PUSH1 0x4 MSTORE PUSH1 0x24 PUSH1 0x0 REVERT JUMPDEST PUSH1 0x0 DUP2 SWAP1 POP SWAP3 SWAP2 POP POP JUMP JUMPDEST POP JUMP JUMPDEST PUSH1 0x0 PUSH2 0x2EB0 PUSH1 0x0 DUP4 PUSH2 0x2E95 JUMP JUMPDEST SWAP2 POP PUSH2 0x2EBB DUP3 PUSH2 0x2EA0 JUMP JUMPDEST PUSH1 0x0 DUP3 ADD SWAP1 POP SWAP2 SWAP1 POP JUMP JUMPDEST PUSH1 0x0 PUSH2 0x2ED1 DUP3 PUSH2 0x2EA3 JUMP JUMPDEST SWAP2 POP DUP2 SWAP1 POP SWAP2 SWAP1 POP JUMP JUMPDEST PUSH32 0x4552433732313A20696E76616C696420746F6B656E2049440000000000000000 PUSH1 0x0 DUP3 ADD MSTORE POP JUMP JUMPDEST PUSH1 0x0 PUSH2 0x2F11 PUSH1 0x18 DUP4 PUSH2 0x24CB JUMP JUMPDEST SWAP2 POP PUSH2 0x2F1C DUP3 PUSH2 0x2EDB JUMP JUMPDEST PUSH1 0x20 DUP3 ADD SWAP1 POP SWAP2 SWAP1 POP JUMP JUMPDEST PUSH1 0x0 PUSH1 0x20 DUP3 ADD SWAP1 POP DUP2 DUP2 SUB PUSH1 0x0 DUP4 ADD MSTORE PUSH2 0x2F40 DUP2 PUSH2 0x2F04 JUMP JUMPDEST SWAP1 POP SWAP2 SWAP1 POP JUMP JUMPDEST PUSH32 0x4552433732313A2061646472657373207A65726F206973206E6F742061207661 PUSH1 0x0 DUP3 ADD MSTORE PUSH32 0x6C6964206F776E65720000000000000000000000000000000000000000000000 PUSH1 0x20 DUP3 ADD MSTORE POP JUMP JUMPDEST PUSH1 0x0 PUSH2 0x2FA3 PUSH1 0x29 DUP4 PUSH2 0x24CB JUMP JUMPDEST SWAP2 POP PUSH2 0x2FAE DUP3 PUSH2 0x2F47 JUMP JUMPDEST PUSH1 0x40 DUP3 ADD SWAP1 POP SWAP2 SWAP1 POP JUMP JUMPDEST PUSH1 0x0 PUSH1 0x20 DUP3 ADD SWAP1 POP DUP2 DUP2 SUB PUSH1 0x0 DUP4 ADD MSTORE PUSH2 0x2FD2 DUP2 PUSH2 0x2F96 JUMP JUMPDEST SWAP1 POP SWAP2 SWAP1 POP JUMP JUMPDEST PUSH32 0x4E487B7100000000000000000000000000000000000000000000000000000000 PUSH1 0x0 MSTORE PUSH1 0x11 PUSH1 0x4 MSTORE PUSH1 0x24 PUSH1 0x0 REVERT JUMPDEST PUSH1 0x0 PUSH2 0x3013 DUP3 PUSH2 0x2572 JUMP JUMPDEST SWAP2 POP PUSH32 0xFFFFFFFFFFFFFFFFFFFFFFFFFFFFFFFFFFFFFFFFFFFFFFFFFFFFFFFFFFFFFFFF DUP3 SUB PUSH2 0x3045 JUMPI PUSH2 0x3044 PUSH2 0x2FD9 JUMP JUMPDEST JUMPDEST PUSH1 0x1 DUP3 ADD SWAP1 POP SWAP2 SWAP1 POP JUMP JUMPDEST PUSH1 0x0 DUP2 SWAP1 POP SWAP2 SWAP1 POP JUMP JUMPDEST PUSH2 0x3063 DUP2 PUSH2 0x3050 JUMP JUMPDEST DUP3 MSTORE POP POP JUMP JUMPDEST PUSH1 0x0 PUSH8 0xFFFFFFFFFFFFFFFF DUP3 AND SWAP1 POP SWAP2 SWAP1 POP JUMP JUMPDEST PUSH2 0x3086 DUP2 PUSH2 0x3069 JUMP JUMPDEST DUP3 MSTORE POP POP JUMP JUMPDEST PUSH1 0x0 PUSH2 0xFFFF DUP3 AND SWAP1 POP SWAP2 SWAP1 POP JUMP JUMPDEST PUSH2 0x30A3 DUP2 PUSH2 0x308C JUMP JUMPDEST DUP3 MSTORE POP POP JUMP JUMPDEST PUSH1 0x0 PUSH4 0xFFFFFFFF DUP3 AND SWAP1 POP SWAP2 SWAP1 POP JUMP JUMPDEST PUSH2 0x30C2 DUP2 PUSH2 0x30A9 JUMP JUMPDEST DUP3 MSTORE POP POP JUMP JUMPDEST PUSH1 0x0 PUSH1 0xA0 DUP3 ADD SWAP1 POP PUSH2 0x30DD PUSH1 0x0 DUP4 ADD DUP9 PUSH2 0x305A JUMP JUMPDEST PUSH2 0x30EA PUSH1 0x20 DUP4 ADD DUP8 PUSH2 0x307D JUMP JUMPDEST PUSH2 0x30F7 PUSH1 0x40 DUP4 ADD DUP7 PUSH2 0x309A JUMP JUMPDEST PUSH2 0x3104 PUSH1 0x60 DUP4 ADD DUP6 PUSH2 0x30B9 JUMP JUMPDEST PUSH2 0x3111 PUSH1 0x80 DUP4 ADD DUP5 PUSH2 0x30B9 JUMP JUMPDEST SWAP7 SWAP6 POP POP POP POP POP POP JUMP JUMPDEST PUSH1 0x0 DUP2 MLOAD SWAP1 POP PUSH2 0x312A DUP2 PUSH2 0x257C JUMP JUMPDEST SWAP3 SWAP2 POP POP JUMP JUMPDEST PUSH1 0x0 PUSH1 0x20 DUP3 DUP5 SUB SLT ISZERO PUSH2 0x3146 JUMPI PUSH2 0x3145 PUSH2 0x23FB JUMP JUMPDEST JUMPDEST PUSH1 0x0 PUSH2 0x3154 DUP5 DUP3 DUP6 ADD PUSH2 0x311B JUMP JUMPDEST SWAP2 POP POP SWAP3 SWAP2 POP POP JUMP JUMPDEST PUSH1 0x0 DUP2 SWAP1 POP SWAP3 SWAP2 POP POP JUMP JUMPDEST PUSH1 0x0 PUSH2 0x3173 DUP3 PUSH2 0x24C0 JUMP JUMPDEST PUSH2 0x317D DUP2 DUP6 PUSH2 0x315D JUMP JUMPDEST SWAP4 POP PUSH2 0x318D DUP2 DUP6 PUSH1 0x20 DUP7 ADD PUSH2 0x24DC JUMP JUMPDEST DUP1 DUP5 ADD SWAP2 POP POP SWAP3 SWAP2 POP POP JUMP JUMPDEST PUSH1 0x0 PUSH2 0x31A5 DUP3 DUP6 PUSH2 0x3168 JUMP JUMPDEST SWAP2 POP PUSH2 0x31B1 DUP3 DUP5 PUSH2 0x3168 JUMP JUMPDEST SWAP2 POP DUP2 SWAP1 POP SWAP4 SWAP3 POP POP POP JUMP JUMPDEST PUSH32 0x4F776E61626C653A206E6577206F776E657220697320746865207A65726F2061 PUSH1 0x0 DUP3 ADD MSTORE PUSH32 0x6464726573730000000000000000000000000000000000000000000000000000 PUSH1 0x20 DUP3 ADD MSTORE POP JUMP JUMPDEST PUSH1 0x0 PUSH2 0x3219 PUSH1 0x26 DUP4 PUSH2 0x24CB JUMP JUMPDEST SWAP2 POP PUSH2 0x3224 DUP3 PUSH2 0x31BD JUMP JUMPDEST PUSH1 0x40 DUP3 ADD SWAP1 POP SWAP2 SWAP1 POP JUMP JUMPDEST PUSH1 0x0 PUSH1 0x20 DUP3 ADD SWAP1 POP DUP2 DUP2 SUB PUSH1 0x0 DUP4 ADD MSTORE PUSH2 0x3248 DUP2 PUSH2 0x320C JUMP JUMPDEST SWAP1 POP SWAP2 SWAP1 POP JUMP JUMPDEST PUSH32 0x4E487B7100000000000000000000000000000000000000000000000000000000 PUSH1 0x0 MSTORE PUSH1 0x12 PUSH1 0x4 MSTORE PUSH1 0x24 PUSH1 0x0 REVERT JUMPDEST PUSH1 0x0 PUSH2 0x3289 DUP3 PUSH2 0x2572 JUMP JUMPDEST SWAP2 POP PUSH2 0x3294 DUP4 PUSH2 0x2572 JUMP JUMPDEST SWAP3 POP DUP3 PUSH2 0x32A4 JUMPI PUSH2 0x32A3 PUSH2 0x324F JUMP JUMPDEST JUMPDEST DUP3 DUP3 MOD SWAP1 POP SWAP3 SWAP2 POP POP JUMP JUMPDEST PUSH1 0x0 PUSH2 0x32BA DUP3 PUSH2 0x2572 JUMP JUMPDEST SWAP2 POP PUSH2 0x32C5 DUP4 PUSH2 0x2572 JUMP JUMPDEST SWAP3 POP DUP3 DUP3 ADD SWAP1 POP DUP1 DUP3 GT ISZERO PUSH2 0x32DD JUMPI PUSH2 0x32DC PUSH2 0x2FD9 JUMP JUMPDEST JUMPDEST SWAP3 SWAP2 POP POP JUMP JUMPDEST PUSH1 0x0 PUSH1 0x40 DUP3 ADD SWAP1 POP PUSH2 0x32F8 PUSH1 0x0 DUP4 ADD DUP6 PUSH2 0x2A85 JUMP JUMPDEST PUSH2 0x3305 PUSH1 0x20 DUP4 ADD DUP5 PUSH2 0x2607 JUMP JUMPDEST SWAP4 SWAP3 POP POP POP JUMP JUMPDEST PUSH32 0x4552433732313A207472616E736665722066726F6D20696E636F727265637420 PUSH1 0x0 DUP3 ADD MSTORE PUSH32 0x6F776E6572000000000000000000000000000000000000000000000000000000 PUSH1 0x20 DUP3 ADD MSTORE POP JUMP JUMPDEST PUSH1 0x0 PUSH2 0x3368 PUSH1 0x25 DUP4 PUSH2 0x24CB JUMP JUMPDEST SWAP2 POP PUSH2 0x3373 DUP3 PUSH2 0x330C JUMP JUMPDEST PUSH1 0x40 DUP3 ADD SWAP1 POP SWAP2 SWAP1 POP JUMP JUMPDEST PUSH1 0x0 PUSH1 0x20 DUP3 ADD SWAP1 POP DUP2 DUP2 SUB PUSH1 0x0 DUP4 ADD MSTORE PUSH2 0x3397 DUP2 PUSH2 0x335B JUMP JUMPDEST SWAP1 POP SWAP2 SWAP1 POP JUMP JUMPDEST PUSH32 0x4552433732313A207472616E7366657220746F20746865207A65726F20616464 PUSH1 0x0 DUP3 ADD MSTORE PUSH32 0x7265737300000000000000000000000000000000000000000000000000000000 PUSH1 0x20 DUP3 ADD MSTORE POP JUMP JUMPDEST PUSH1 0x0 PUSH2 0x33FA PUSH1 0x24 DUP4 PUSH2 0x24CB JUMP JUMPDEST SWAP2 POP PUSH2 0x3405 DUP3 PUSH2 0x339E JUMP JUMPDEST PUSH1 0x40 DUP3 ADD SWAP1 POP SWAP2 SWAP1 POP JUMP JUMPDEST PUSH1 0x0 PUSH1 0x20 DUP3 ADD SWAP1 POP DUP2 DUP2 SUB PUSH1 0x0 DUP4 ADD MSTORE PUSH2 0x3429 DUP2 PUSH2 0x33ED JUMP JUMPDEST SWAP1 POP SWAP2 SWAP1 POP JUMP JUMPDEST PUSH1 0x0 PUSH2 0x343B DUP3 PUSH2 0x2572 JUMP JUMPDEST SWAP2 POP PUSH2 0x3446 DUP4 PUSH2 0x2572 JUMP JUMPDEST SWAP3 POP DUP3 DUP3 SUB SWAP1 POP DUP2 DUP2 GT ISZERO PUSH2 0x345E JUMPI PUSH2 0x345D PUSH2 0x2FD9 JUMP JUMPDEST JUMPDEST SWAP3 SWAP2 POP POP JUMP JUMPDEST PUSH32 0x4F776E61626C653A2063616C6C6572206973206E6F7420746865206F776E6572 PUSH1 0x0 DUP3 ADD MSTORE POP JUMP JUMPDEST PUSH1 0x0 PUSH2 0x349A PUSH1 0x20 DUP4 PUSH2 0x24CB JUMP JUMPDEST SWAP2 POP PUSH2 0x34A5 DUP3 PUSH2 0x3464 JUMP JUMPDEST PUSH1 0x20 DUP3 ADD SWAP1 POP SWAP2 SWAP1 POP JUMP JUMPDEST PUSH1 0x0 PUSH1 0x20 DUP3 ADD SWAP1 POP DUP2 DUP2 SUB PUSH1 0x0 DUP4 ADD MSTORE PUSH2 0x34C9 DUP2 PUSH2 0x348D JUMP JUMPDEST SWAP1 POP SWAP2 SWAP1 POP JUMP JUMPDEST PUSH32 0x4552433732313A20617070726F766520746F2063616C6C657200000000000000 PUSH1 0x0 DUP3 ADD MSTORE POP JUMP JUMPDEST PUSH1 0x0 PUSH2 0x3506 PUSH1 0x19 DUP4 PUSH2 0x24CB JUMP JUMPDEST SWAP2 POP PUSH2 0x3511 DUP3 PUSH2 0x34D0 JUMP JUMPDEST PUSH1 0x20 DUP3 ADD SWAP1 POP SWAP2 SWAP1 POP JUMP JUMPDEST PUSH1 0x0 PUSH1 0x20 DUP3 ADD SWAP1 POP DUP2 DUP2 SUB PUSH1 0x0 DUP4 ADD MSTORE PUSH2 0x3535 DUP2 PUSH2 0x34F9 JUMP JUMPDEST SWAP1 POP SWAP2 SWAP1 POP JUMP JUMPDEST PUSH32 0x4552433732313A207472616E7366657220746F206E6F6E204552433732315265 PUSH1 0x0 DUP3 ADD MSTORE PUSH32 0x63656976657220696D706C656D656E7465720000000000000000000000000000 PUSH1 0x20 DUP3 ADD MSTORE POP JUMP JUMPDEST PUSH1 0x0 PUSH2 0x3598 PUSH1 0x32 DUP4 PUSH2 0x24CB JUMP JUMPDEST SWAP2 POP PUSH2 0x35A3 DUP3 PUSH2 0x353C JUMP JUMPDEST PUSH1 0x40 DUP3 ADD SWAP1 POP SWAP2 SWAP1 POP JUMP JUMPDEST PUSH1 0x0 PUSH1 0x20 DUP3 ADD SWAP1 POP DUP2 DUP2 SUB PUSH1 0x0 DUP4 ADD MSTORE PUSH2 0x35C7 DUP2 PUSH2 0x358B JUMP JUMPDEST SWAP1 POP SWAP2 SWAP1 POP JUMP JUMPDEST PUSH32 0x45524337323155524953746F726167653A2055524920736574206F66206E6F6E PUSH1 0x0 DUP3 ADD MSTORE PUSH32 0x6578697374656E7420746F6B656E000000000000000000000000000000000000 PUSH1 0x20 DUP3 ADD MSTORE POP JUMP JUMPDEST PUSH1 0x0 PUSH2 0x362A PUSH1 0x2E DUP4 PUSH2 0x24CB JUMP JUMPDEST SWAP2 POP PUSH2 0x3635 DUP3 PUSH2 0x35CE JUMP JUMPDEST PUSH1 0x40 DUP3 ADD SWAP1 POP SWAP2 SWAP1 POP JUMP JUMPDEST PUSH1 0x0 PUSH1 0x20 DUP3 ADD SWAP1 POP DUP2 DUP2 SUB PUSH1 0x0 DUP4 ADD MSTORE PUSH2 0x3659 DUP2 PUSH2 0x361D JUMP JUMPDEST SWAP1 POP SWAP2 SWAP1 POP JUMP JUMPDEST PUSH1 0x0 DUP2 SWAP1 POP DUP2 PUSH1 0x0 MSTORE PUSH1 0x20 PUSH1 0x0 KECCAK256 SWAP1 POP SWAP2 SWAP1 POP JUMP JUMPDEST PUSH1 0x0 PUSH1 0x20 PUSH1 0x1F DUP4 ADD DIV SWAP1 POP SWAP2 SWAP1 POP JUMP JUMPDEST PUSH1 0x0 DUP3 DUP3 SHL SWAP1 POP SWAP3 SWAP2 POP POP JUMP JUMPDEST PUSH1 0x0 PUSH1 0x8 DUP4 MUL PUSH2 0x36C2 PUSH32 0xFFFFFFFFFFFFFFFFFFFFFFFFFFFFFFFFFFFFFFFFFFFFFFFFFFFFFFFFFFFFFFFF DUP3 PUSH2 0x3685 JUMP JUMPDEST PUSH2 0x36CC DUP7 DUP4 PUSH2 0x3685 JUMP JUMPDEST SWAP6 POP DUP1 NOT DUP5 AND SWAP4 POP DUP1 DUP7 AND DUP5 OR SWAP3 POP POP POP SWAP4 SWAP3 POP POP POP JUMP JUMPDEST PUSH1 0x0 DUP2 SWAP1 POP SWAP2 SWAP1 POP JUMP JUMPDEST PUSH1 0x0 PUSH2 0x3709 PUSH2 0x3704 PUSH2 0x36FF DUP5 PUSH2 0x2572 JUMP JUMPDEST PUSH2 0x36E4 JUMP JUMPDEST PUSH2 0x2572 JUMP JUMPDEST SWAP1 POP SWAP2 SWAP1 POP JUMP JUMPDEST PUSH1 0x0 DUP2 SWAP1 POP SWAP2 SWAP1 POP JUMP JUMPDEST PUSH2 0x3723 DUP4 PUSH2 0x36EE JUMP JUMPDEST PUSH2 0x3737 PUSH2 0x372F DUP3 PUSH2 0x3710 JUMP JUMPDEST DUP5 DUP5 SLOAD PUSH2 0x3692 JUMP JUMPDEST DUP3 SSTORE POP POP POP POP JUMP JUMPDEST PUSH1 0x0 SWAP1 JUMP JUMPDEST PUSH2 0x374C PUSH2 0x373F JUMP JUMPDEST PUSH2 0x3757 DUP2 DUP5 DUP5 PUSH2 0x371A JUMP JUMPDEST POP POP POP JUMP JUMPDEST JUMPDEST DUP2 DUP2 LT ISZERO PUSH2 0x377B JUMPI PUSH2 0x3770 PUSH1 0x0 DUP3 PUSH2 0x3744 JUMP JUMPDEST PUSH1 0x1 DUP2 ADD SWAP1 POP PUSH2 0x375D JUMP JUMPDEST POP POP JUMP JUMPDEST PUSH1 0x1F DUP3 GT ISZERO PUSH2 0x37C0 JUMPI PUSH2 0x3791 DUP2 PUSH2 0x3660 JUMP JUMPDEST PUSH2 0x379A DUP5 PUSH2 0x3675 JUMP JUMPDEST DUP2 ADD PUSH1 0x20 DUP6 LT ISZERO PUSH2 0x37A9 JUMPI DUP2 SWAP1 POP JUMPDEST PUSH2 0x37BD PUSH2 0x37B5 DUP6 PUSH2 0x3675 JUMP JUMPDEST DUP4 ADD DUP3 PUSH2 0x375C JUMP JUMPDEST POP POP JUMPDEST POP POP POP JUMP JUMPDEST PUSH1 0x0 DUP3 DUP3 SHR SWAP1 POP SWAP3 SWAP2 POP POP JUMP JUMPDEST PUSH1 0x0 PUSH2 0x37E3 PUSH1 0x0 NOT DUP5 PUSH1 0x8 MUL PUSH2 0x37C5 JUMP JUMPDEST NOT DUP1 DUP4 AND SWAP2 POP POP SWAP3 SWAP2 POP POP JUMP JUMPDEST PUSH1 0x0 PUSH2 0x37FC DUP4 DUP4 PUSH2 0x37D2 JUMP JUMPDEST SWAP2 POP DUP3 PUSH1 0x2 MUL DUP3 OR SWAP1 POP SWAP3 SWAP2 POP POP JUMP JUMPDEST PUSH2 0x3815 DUP3 PUSH2 0x24C0 JUMP JUMPDEST PUSH8 0xFFFFFFFFFFFFFFFF DUP2 GT ISZERO PUSH2 0x382E JUMPI PUSH2 0x382D PUSH2 0x26A2 JUMP JUMPDEST JUMPDEST PUSH2 0x3838 DUP3 SLOAD PUSH2 0x2C56 JUMP JUMPDEST PUSH2 0x3843 DUP3 DUP3 DUP6 PUSH2 0x377F JUMP JUMPDEST PUSH1 0x0 PUSH1 0x20 SWAP1 POP PUSH1 0x1F DUP4 GT PUSH1 0x1 DUP2 EQ PUSH2 0x3876 JUMPI PUSH1 0x0 DUP5 ISZERO PUSH2 0x3864 JUMPI DUP3 DUP8 ADD MLOAD SWAP1 POP JUMPDEST PUSH2 0x386E DUP6 DUP3 PUSH2 0x37F0 JUMP JUMPDEST DUP7 SSTORE POP PUSH2 0x38D6 JUMP JUMPDEST PUSH1 0x1F NOT DUP5 AND PUSH2 0x3884 DUP7 PUSH2 0x3660 JUMP JUMPDEST PUSH1 0x0 JUMPDEST DUP3 DUP2 LT ISZERO PUSH2 0x38AC JUMPI DUP5 DUP10 ADD MLOAD DUP3 SSTORE PUSH1 0x1 DUP3 ADD SWAP2 POP PUSH1 0x20 DUP6 ADD SWAP5 POP PUSH1 0x20 DUP2 ADD SWAP1 POP PUSH2 0x3887 JUMP JUMPDEST DUP7 DUP4 LT ISZERO PUSH2 0x38C9 JUMPI DUP5 DUP10 ADD MLOAD PUSH2 0x38C5 PUSH1 0x1F DUP10 AND DUP3 PUSH2 0x37D2 JUMP JUMPDEST DUP4 SSTORE POP JUMPDEST PUSH1 0x1 PUSH1 0x2 DUP9 MUL ADD DUP9 SSTORE POP POP POP JUMPDEST POP POP POP POP POP POP JUMP JUMPDEST PUSH1 0x0 DUP2 MLOAD SWAP1 POP SWAP2 SWAP1 POP JUMP JUMPDEST PUSH1 0x0 DUP3 DUP3 MSTORE PUSH1 0x20 DUP3 ADD SWAP1 POP SWAP3 SWAP2 POP POP JUMP JUMPDEST PUSH1 0x0 PUSH2 0x3905 DUP3 PUSH2 0x38DE JUMP JUMPDEST PUSH2 0x390F DUP2 DUP6 PUSH2 0x38E9 JUMP JUMPDEST SWAP4 POP PUSH2 0x391F DUP2 DUP6 PUSH1 0x20 DUP7 ADD PUSH2 0x24DC JUMP JUMPDEST PUSH2 0x3928 DUP2 PUSH2 0x2506 JUMP JUMPDEST DUP5 ADD SWAP2 POP POP SWAP3 SWAP2 POP POP JUMP JUMPDEST PUSH1 0x0 PUSH1 0x80 DUP3 ADD SWAP1 POP PUSH2 0x3948 PUSH1 0x0 DUP4 ADD DUP8 PUSH2 0x2607 JUMP JUMPDEST PUSH2 0x3955 PUSH1 0x20 DUP4 ADD DUP7 PUSH2 0x2607 JUMP JUMPDEST PUSH2 0x3962 PUSH1 0x40 DUP4 ADD DUP6 PUSH2 0x295A JUMP JUMPDEST DUP2 DUP2 SUB PUSH1 0x60 DUP4 ADD MSTORE PUSH2 0x3974 DUP2 DUP5 PUSH2 0x38FA JUMP JUMPDEST SWAP1 POP SWAP6 SWAP5 POP POP POP POP POP JUMP JUMPDEST PUSH1 0x0 DUP2 MLOAD SWAP1 POP PUSH2 0x398E DUP2 PUSH2 0x2431 JUMP JUMPDEST SWAP3 SWAP2 POP POP JUMP JUMPDEST PUSH1 0x0 PUSH1 0x20 DUP3 DUP5 SUB SLT ISZERO PUSH2 0x39AA JUMPI PUSH2 0x39A9 PUSH2 0x23FB JUMP JUMPDEST JUMPDEST PUSH1 0x0 PUSH2 0x39B8 DUP5 DUP3 DUP6 ADD PUSH2 0x397F JUMP JUMPDEST SWAP2 POP POP SWAP3 SWAP2 POP POP JUMP JUMPDEST PUSH1 0x0 PUSH2 0x39CC DUP3 PUSH2 0x2572 JUMP JUMPDEST SWAP2 POP PUSH2 0x39D7 DUP4 PUSH2 0x2572 JUMP JUMPDEST SWAP3 POP DUP3 PUSH2 0x39E7 JUMPI PUSH2 0x39E6 PUSH2 0x324F JUMP JUMPDEST JUMPDEST DUP3 DUP3 DIV SWAP1 POP SWAP3 SWAP2 POP POP JUMP JUMPDEST PUSH32 0x4552433732313A206D696E7420746F20746865207A65726F2061646472657373 PUSH1 0x0 DUP3 ADD MSTORE POP JUMP JUMPDEST PUSH1 0x0 PUSH2 0x3A28 PUSH1 0x20 DUP4 PUSH2 0x24CB JUMP JUMPDEST SWAP2 POP PUSH2 0x3A33 DUP3 PUSH2 0x39F2 JUMP JUMPDEST PUSH1 0x20 DUP3 ADD SWAP1 POP SWAP2 SWAP1 POP JUMP JUMPDEST PUSH1 0x0 PUSH1 0x20 DUP3 ADD SWAP1 POP DUP2 DUP2 SUB PUSH1 0x0 DUP4 ADD MSTORE PUSH2 0x3A57 DUP2 PUSH2 0x3A1B JUMP JUMPDEST SWAP1 POP SWAP2 SWAP1 POP JUMP JUMPDEST PUSH32 0x4552433732313A20746F6B656E20616C7265616479206D696E74656400000000 PUSH1 0x0 DUP3 ADD MSTORE POP JUMP JUMPDEST PUSH1 0x0 PUSH2 0x3A94 PUSH1 0x1C DUP4 PUSH2 0x24CB JUMP JUMPDEST SWAP2 POP PUSH2 0x3A9F DUP3 PUSH2 0x3A5E JUMP JUMPDEST PUSH1 0x20 DUP3 ADD SWAP1 POP SWAP2 SWAP1 POP JUMP JUMPDEST PUSH1 0x0 PUSH1 0x20 DUP3 ADD SWAP1 POP DUP2 DUP2 SUB PUSH1 0x0 DUP4 ADD MSTORE PUSH2 0x3AC3 DUP2 PUSH2 0x3A87 JUMP JUMPDEST SWAP1 POP SWAP2 SWAP1 POP JUMP INVALID LOG2 PUSH5 0x6970667358 0x22 SLT KECCAK256 CALLVALUE 0xB1 DUP10 0xD3 RETURN PUSH15 0x677DA13CD5BE0D97CA3DA87D36C249 0xB8 0xA8 0xDF 0xBD PC 0xD3 EXTCODEHASH SWAP9 PUSH28 0xC95C64736F6C63430008110033000000000000000000000000000000 "},"gasEstimates":{"creation":{"codeDepositCost":"3020800","executionCost":"infinite","totalCost":"infinite"},"external":{"approve(address,uint256)":"infinite","balanceOf(address)":"2987","getApproved(uint256)":"5257","getBreedFromModdedRng(uint256)":"infinite","getChanceArray()":"infinite","getDogTokenUris(uint256)":"infinite","getInitialized()":"2567","getMintFee()":"infinite","getTokenCounter()":"2526","isApprovedForAll(address,address)":"infinite","name()":"infinite","owner()":"2589","ownerOf(uint256)":"3023","rawFulfillRandomWords(uint256,uint256[])":"infinite","renounceOwnership()":"30421","requestNft()":"infinite","s_requestIdToSender(uint256)":"2972","safeTransferFrom(address,address,uint256)":"infinite","safeTransferFrom(address,address,uint256,bytes)":"infinite","setApprovalForAll(address,bool)":"infinite","supportsInterface(bytes4)":"797","symbol()":"infinite","tokenURI(uint256)":"infinite","transferFrom(address,address,uint256)":"infinite","transferOwnership(address)":"30854","withdraw()":"infinite"},"internal":{"_initializeContract(string memory[3] memory)":"infinite","fulfillRandomWords(uint256,uint256[] memory)":"infinite"}},"methodIdentifiers":{"approve(address,uint256)":"095ea7b3","balanceOf(address)":"70a08231","getApproved(uint256)":"081812fc","getBreedFromModdedRng(uint256)":"a51cccf3","getChanceArray()":"5dacf5f4","getDogTokenUris(uint256)":"3af25975","getInitialized()":"ee89dab4","getMintFee()":"7a5caab3","getTokenCounter()":"6e02007d","isApprovedForAll(address,address)":"e985e9c5","name()":"06fdde03","owner()":"8da5cb5b","ownerOf(uint256)":"6352211e","rawFulfillRandomWords(uint256,uint256[])":"1fe543e3","renounceOwnership()":"715018a6","requestNft()":"aa152491","s_requestIdToSender(uint256)":"a36f573b","safeTransferFrom(address,address,uint256)":"42842e0e","safeTransferFrom(address,address,uint256,bytes)":"b88d4fde","setApprovalForAll(address,bool)":"a22cb465","supportsInterface(bytes4)":"01ffc9a7","symbol()":"95d89b41","tokenURI(uint256)":"c87b56dd","transferFrom(address,address,uint256)":"23b872dd","transferOwnership(address)":"f2fde38b","withdraw()":"3ccfd60b"}},"storageLayout":{"storage":[{"astId":1296,"contract":"contracts/RandomIpfsNft.sol:RandomIpfsNft","label":"_name","offset":0,"slot":"0","type":"t_string_storage"},{"astId":1298,"contract":"contracts/RandomIpfsNft.sol:RandomIpfsNft","label":"_symbol","offset":0,"slot":"1","type":"t_string_storage"},{"astId":1302,"contract":"contracts/RandomIpfsNft.sol:RandomIpfsNft","label":"_owners","offset":0,"slot":"2","type":"t_mapping(t_uint256,t_address)"},{"astId":1306,"contract":"contracts/RandomIpfsNft.sol:RandomIpfsNft","label":"_balances","offset":0,"slot":"3","type":"t_mapping(t_address,t_uint256)"},{"astId":1310,"contract":"contracts/RandomIpfsNft.sol:RandomIpfsNft","label":"_tokenApprovals","offset":0,"slot":"4","type":"t_mapping(t_uint256,t_address)"},{"astId":1316,"contract":"contracts/RandomIpfsNft.sol:RandomIpfsNft","label":"_operatorApprovals","offset":0,"slot":"5","type":"t_mapping(t_address,t_mapping(t_address,t_bool))"},{"astId":2284,"contract":"contracts/RandomIpfsNft.sol:RandomIpfsNft","label":"_tokenURIs","offset":0,"slot":"6","type":"t_mapping(t_uint256,t_string_storage)"},{"astId":1165,"contract":"contracts/RandomIpfsNft.sol:RandomIpfsNft","label":"_owner","offset":0,"slot":"7","type":"t_address"},{"astId":3450,"contract":"contracts/RandomIpfsNft.sol:RandomIpfsNft","label":"s_requestIdToSender","offset":0,"slot":"8","type":"t_mapping(t_uint256,t_address)"},{"astId":3452,"contract":"contracts/RandomIpfsNft.sol:RandomIpfsNft","label":"s_tokenCounter","offset":0,"slot":"9","type":"t_uint256"},{"astId":3458,"contract":"contracts/RandomIpfsNft.sol:RandomIpfsNft","label":"s_dogTokenUris","offset":0,"slot":"10","type":"t_array(t_string_storage)dyn_storage"},{"astId":3462,"contract":"contracts/RandomIpfsNft.sol:RandomIpfsNft","label":"s_initialized","offset":0,"slot":"11","type":"t_bool"}],"types":{"t_address":{"encoding":"inplace","label":"address","numberOfBytes":"20"},"t_array(t_string_storage)dyn_storage":{"base":"t_string_storage","encoding":"dynamic_array","label":"string[]","numberOfBytes":"32"},"t_bool":{"encoding":"inplace","label":"bool","numberOfBytes":"1"},"t_mapping(t_address,t_bool)":{"encoding":"mapping","key":"t_address","label":"mapping(address => bool)","numberOfBytes":"32","value":"t_bool"},"t_mapping(t_address,t_mapping(t_address,t_bool))":{"encoding":"mapping","key":"t_address","label":"mapping(address => mapping(address => bool))","numberOfBytes":"32","value":"t_mapping(t_address,t_bool)"},"t_mapping(t_address,t_uint256)":{"encoding":"mapping","key":"t_address","label":"mapping(address => uint256)","numberOfBytes":"32","value":"t_uint256"},"t_mapping(t_uint256,t_address)":{"encoding":"mapping","key":"t_uint256","label":"mapping(uint256 => address)","numberOfBytes":"32","value":"t_address"},"t_mapping(t_uint256,t_string_storage)":{"encoding":"mapping","key":"t_uint256","label":"mapping(uint256 => string)","numberOfBytes":"32","value":"t_string_storage"},"t_string_storage":{"encoding":"bytes","label":"string","numberOfBytes":"32"},"t_uint256":{"encoding":"inplace","label":"uint256","numberOfBytes":"32"}}},"userdoc":{"kind":"user","methods":{},"version":1}}}}