{
  "_format": "hh-sol-artifact-1",
  "contractName": "DynamicSvgNft",
  "sourceName": "contracts/DynamicSvgNft.sol",
  "abi": [
    {
      "inputs": [
        {
          "internalType": "address",
          "name": "priceFeedAddress",
          "type": "address"
        },
        {
          "internalType": "string",
          "name": "lowSvg",
          "type": "string"
        },
        {
          "internalType": "string",
          "name": "highSvg",
          "type": "string"
        }
      ],
      "stateMutability": "nonpayable",
      "type": "constructor"
    },
    {
      "inputs": [],
      "name": "ERC721Metadata__URI_QueryFor_NonExistentToken",
      "type": "error"
    },
    {
      "anonymous": false,
      "inputs": [
        {
          "indexed": true,
          "internalType": "address",
          "name": "owner",
          "type": "address"
        },
        {
          "indexed": true,
          "internalType": "address",
          "name": "approved",
          "type": "address"
        },
        {
          "indexed": true,
          "internalType": "uint256",
          "name": "tokenId",
          "type": "uint256"
        }
      ],
      "name": "Approval",
      "type": "event"
    },
    {
      "anonymous": false,
      "inputs": [
        {
          "indexed": true,
          "internalType": "address",
          "name": "owner",
          "type": "address"
        },
        {
          "indexed": true,
          "internalType": "address",
          "name": "operator",
          "type": "address"
        },
        {
          "indexed": false,
          "internalType": "bool",
          "name": "approved",
          "type": "bool"
        }
      ],
      "name": "ApprovalForAll",
      "type": "event"
    },
    {
      "anonymous": false,
      "inputs": [
        {
          "indexed": true,
          "internalType": "uint256",
          "name": "tokenId",
          "type": "uint256"
        },
        {
          "indexed": false,
          "internalType": "int256",
          "name": "highValue",
          "type": "int256"
        }
      ],
      "name": "CreatedNFT",
      "type": "event"
    },
    {
      "anonymous": false,
      "inputs": [
        {
          "indexed": true,
          "internalType": "address",
          "name": "previousOwner",
          "type": "address"
        },
        {
          "indexed": true,
          "internalType": "address",
          "name": "newOwner",
          "type": "address"
        }
      ],
      "name": "OwnershipTransferred",
      "type": "event"
    },
    {
      "anonymous": false,
      "inputs": [
        {
          "indexed": true,
          "internalType": "address",
          "name": "from",
          "type": "address"
        },
        {
          "indexed": true,
          "internalType": "address",
          "name": "to",
          "type": "address"
        },
        {
          "indexed": true,
          "internalType": "uint256",
          "name": "tokenId",
          "type": "uint256"
        }
      ],
      "name": "Transfer",
      "type": "event"
    },
    {
      "inputs": [
        {
          "internalType": "address",
          "name": "to",
          "type": "address"
        },
        {
          "internalType": "uint256",
          "name": "tokenId",
          "type": "uint256"
        }
      ],
      "name": "approve",
      "outputs": [],
      "stateMutability": "nonpayable",
      "type": "function"
    },
    {
      "inputs": [
        {
          "internalType": "address",
          "name": "owner",
          "type": "address"
        }
      ],
      "name": "balanceOf",
      "outputs": [
        {
          "internalType": "uint256",
          "name": "",
          "type": "uint256"
        }
      ],
      "stateMutability": "view",
      "type": "function"
    },
    {
      "inputs": [
        {
          "internalType": "uint256",
          "name": "tokenId",
          "type": "uint256"
        }
      ],
      "name": "getApproved",
      "outputs": [
        {
          "internalType": "address",
          "name": "",
          "type": "address"
        }
      ],
      "stateMutability": "view",
      "type": "function"
    },
    {
      "inputs": [],
      "name": "getHighSVG",
      "outputs": [
        {
          "internalType": "string",
          "name": "",
          "type": "string"
        }
      ],
      "stateMutability": "view",
      "type": "function"
    },
    {
      "inputs": [],
      "name": "getLowSVG",
      "outputs": [
        {
          "internalType": "string",
          "name": "",
          "type": "string"
        }
      ],
      "stateMutability": "view",
      "type": "function"
    },
    {
      "inputs": [],
      "name": "getPriceFeed",
      "outputs": [
        {
          "internalType": "contract AggregatorV3Interface",
          "name": "",
          "type": "address"
        }
      ],
      "stateMutability": "view",
      "type": "function"
    },
    {
      "inputs": [],
      "name": "getTokenCounter",
      "outputs": [
        {
          "internalType": "uint256",
          "name": "",
          "type": "uint256"
        }
      ],
      "stateMutability": "view",
      "type": "function"
    },
    {
      "inputs": [
        {
          "internalType": "address",
          "name": "owner",
          "type": "address"
        },
        {
          "internalType": "address",
          "name": "operator",
          "type": "address"
        }
      ],
      "name": "isApprovedForAll",
      "outputs": [
        {
          "internalType": "bool",
          "name": "",
          "type": "bool"
        }
      ],
      "stateMutability": "view",
      "type": "function"
    },
    {
      "inputs": [
        {
          "internalType": "int256",
          "name": "highValue",
          "type": "int256"
        }
      ],
      "name": "mintNft",
      "outputs": [],
      "stateMutability": "nonpayable",
      "type": "function"
    },
    {
      "inputs": [],
      "name": "name",
      "outputs": [
        {
          "internalType": "string",
          "name": "",
          "type": "string"
        }
      ],
      "stateMutability": "view",
      "type": "function"
    },
    {
      "inputs": [],
      "name": "owner",
      "outputs": [
        {
          "internalType": "address",
          "name": "",
          "type": "address"
        }
      ],
      "stateMutability": "view",
      "type": "function"
    },
    {
      "inputs": [
        {
          "internalType": "uint256",
          "name": "tokenId",
          "type": "uint256"
        }
      ],
      "name": "ownerOf",
      "outputs": [
        {
          "internalType": "address",
          "name": "",
          "type": "address"
        }
      ],
      "stateMutability": "view",
      "type": "function"
    },
    {
      "inputs": [],
      "name": "renounceOwnership",
      "outputs": [],
      "stateMutability": "nonpayable",
      "type": "function"
    },
    {
      "inputs": [
        {
          "internalType": "uint256",
          "name": "",
          "type": "uint256"
        }
      ],
      "name": "s_tokenIdToHighValue",
      "outputs": [
        {
          "internalType": "int256",
          "name": "",
          "type": "int256"
        }
      ],
      "stateMutability": "view",
      "type": "function"
    },
    {
      "inputs": [
        {
          "internalType": "address",
          "name": "from",
          "type": "address"
        },
        {
          "internalType": "address",
          "name": "to",
          "type": "address"
        },
        {
          "internalType": "uint256",
          "name": "tokenId",
          "type": "uint256"
        }
      ],
      "name": "safeTransferFrom",
      "outputs": [],
      "stateMutability": "nonpayable",
      "type": "function"
    },
    {
      "inputs": [
        {
          "internalType": "address",
          "name": "from",
          "type": "address"
        },
        {
          "internalType": "address",
          "name": "to",
          "type": "address"
        },
        {
          "internalType": "uint256",
          "name": "tokenId",
          "type": "uint256"
        },
        {
          "internalType": "bytes",
          "name": "data",
          "type": "bytes"
        }
      ],
      "name": "safeTransferFrom",
      "outputs": [],
      "stateMutability": "nonpayable",
      "type": "function"
    },
    {
      "inputs": [
        {
          "internalType": "address",
          "name": "operator",
          "type": "address"
        },
        {
          "internalType": "bool",
          "name": "approved",
          "type": "bool"
        }
      ],
      "name": "setApprovalForAll",
      "outputs": [],
      "stateMutability": "nonpayable",
      "type": "function"
    },
    {
      "inputs": [
        {
          "internalType": "bytes4",
          "name": "interfaceId",
          "type": "bytes4"
        }
      ],
      "name": "supportsInterface",
      "outputs": [
        {
          "internalType": "bool",
          "name": "",
          "type": "bool"
        }
      ],
      "stateMutability": "view",
      "type": "function"
    },
    {
      "inputs": [
        {
          "internalType": "string",
          "name": "svg",
          "type": "string"
        }
      ],
      "name": "svgToImageURI",
      "outputs": [
        {
          "internalType": "string",
          "name": "",
          "type": "string"
        }
      ],
      "stateMutability": "pure",
      "type": "function"
    },
    {
      "inputs": [],
      "name": "symbol",
      "outputs": [
        {
          "internalType": "string",
          "name": "",
          "type": "string"
        }
      ],
      "stateMutability": "view",
      "type": "function"
    },
    {
      "inputs": [
        {
          "internalType": "uint256",
          "name": "tokenId",
          "type": "uint256"
        }
      ],
      "name": "tokenURI",
      "outputs": [
        {
          "internalType": "string",
          "name": "",
          "type": "string"
        }
      ],
      "stateMutability": "view",
      "type": "function"
    },
    {
      "inputs": [
        {
          "internalType": "address",
          "name": "from",
          "type": "address"
        },
        {
          "internalType": "address",
          "name": "to",
          "type": "address"
        },
        {
          "internalType": "uint256",
          "name": "tokenId",
          "type": "uint256"
        }
      ],
      "name": "transferFrom",
      "outputs": [],
      "stateMutability": "nonpayable",
      "type": "function"
    },
    {
      "inputs": [
        {
          "internalType": "address",
          "name": "newOwner",
          "type": "address"
        }
      ],
      "name": "transferOwnership",
      "outputs": [],
      "stateMutability": "nonpayable",
      "type": "function"
    }
  ],
  "bytecode": "0x60a06040523480156200001157600080fd5b5060405162003f1338038062003f13833981810160405281019062000037919062000669565b6040518060400160405280600f81526020017f44796e616d696320535647204e465400000000000000000000000000000000008152506040518060400160405280600381526020017f44534e00000000000000000000000000000000000000000000000000000000008152508160009081620000b491906200094e565b508060019081620000c691906200094e565b505050620000e9620000dd6200017260201b60201c565b6200017a60201b60201c565b600060078190555062000102826200024060201b60201c565b600890816200011291906200094e565b5062000124816200024060201b60201c565b600990816200013491906200094e565b508273ffffffffffffffffffffffffffffffffffffffff1660808173ffffffffffffffffffffffffffffffffffffffff168152505050505062000bd4565b600033905090565b6000600660009054906101000a900473ffffffffffffffffffffffffffffffffffffffff16905081600660006101000a81548173ffffffffffffffffffffffffffffffffffffffff021916908373ffffffffffffffffffffffffffffffffffffffff1602179055508173ffffffffffffffffffffffffffffffffffffffff168173ffffffffffffffffffffffffffffffffffffffff167f8be0079c531659141344cd1fd0a4f28419497f9722a3daafe3b4186f6b6457e060405160405180910390a35050565b606060006040518060400160405280601a81526020017f646174613a696d6167652f7376672b786d6c3b6261736536342c00000000000081525090506000620002b58460405160200162000295919062000a77565b604051602081830303815290604052620002e460201b620010791760201c565b90508181604051602001620002cc92919062000a90565b60405160208183030381529060405292505050919050565b6060600082510362000308576040518060200160405280600081525090506200046c565b600060405180606001604052806040815260200162003ed360409139905060006003600285516200033a919062000ae7565b62000346919062000b51565b600462000354919062000b89565b9050600060208262000367919062000ae7565b67ffffffffffffffff81111562000383576200038262000505565b5b6040519080825280601f01601f191660200182016040528015620003b65781602001600182028036833780820191505090505b509050818152600183018586518101602084015b8183101562000427576003830192508251603f8160121c168501518253600182019150603f81600c1c168501518253600182019150603f8160061c168501518253600182019150603f8116850151825360018201915050620003ca565b600389510660018114620004445760028114620004555762000460565b613d3d60f01b600283035262000460565b603d60f81b60018303525b50505050508093505050505b919050565b6000604051905090565b600080fd5b600080fd5b600073ffffffffffffffffffffffffffffffffffffffff82169050919050565b6000620004b28262000485565b9050919050565b620004c481620004a5565b8114620004d057600080fd5b50565b600081519050620004e481620004b9565b92915050565b600080fd5b600080fd5b6000601f19601f8301169050919050565b7f4e487b7100000000000000000000000000000000000000000000000000000000600052604160045260246000fd5b6200053f82620004f4565b810181811067ffffffffffffffff8211171562000561576200056062000505565b5b80604052505050565b60006200057662000471565b905062000584828262000534565b919050565b600067ffffffffffffffff821115620005a757620005a662000505565b5b620005b282620004f4565b9050602081019050919050565b60005b83811015620005df578082015181840152602081019050620005c2565b60008484015250505050565b600062000602620005fc8462000589565b6200056a565b905082815260208101848484011115620006215762000620620004ef565b5b6200062e848285620005bf565b509392505050565b600082601f8301126200064e576200064d620004ea565b5b815162000660848260208601620005eb565b91505092915050565b6000806000606084860312156200068557620006846200047b565b5b60006200069586828701620004d3565b935050602084015167ffffffffffffffff811115620006b957620006b862000480565b5b620006c78682870162000636565b925050604084015167ffffffffffffffff811115620006eb57620006ea62000480565b5b620006f98682870162000636565b9150509250925092565b600081519050919050565b7f4e487b7100000000000000000000000000000000000000000000000000000000600052602260045260246000fd5b600060028204905060018216806200075657607f821691505b6020821081036200076c576200076b6200070e565b5b50919050565b60008190508160005260206000209050919050565b60006020601f8301049050919050565b600082821b905092915050565b600060088302620007d67fffffffffffffffffffffffffffffffffffffffffffffffffffffffffffffffff8262000797565b620007e2868362000797565b95508019841693508086168417925050509392505050565b6000819050919050565b6000819050919050565b60006200082f620008296200082384620007fa565b62000804565b620007fa565b9050919050565b6000819050919050565b6200084b836200080e565b620008636200085a8262000836565b848454620007a4565b825550505050565b600090565b6200087a6200086b565b6200088781848462000840565b505050565b5b81811015620008af57620008a360008262000870565b6001810190506200088d565b5050565b601f821115620008fe57620008c88162000772565b620008d38462000787565b81016020851015620008e3578190505b620008fb620008f28562000787565b8301826200088c565b50505b505050565b600082821c905092915050565b6000620009236000198460080262000903565b1980831691505092915050565b60006200093e838362000910565b9150826002028217905092915050565b620009598262000703565b67ffffffffffffffff81111562000975576200097462000505565b5b6200098182546200073d565b6200098e828285620008b3565b600060209050601f831160018114620009c65760008415620009b1578287015190505b620009bd858262000930565b86555062000a2d565b601f198416620009d68662000772565b60005b8281101562000a0057848901518255600182019150602085019450602081019050620009d9565b8683101562000a20578489015162000a1c601f89168262000910565b8355505b6001600288020188555050505b505050505050565b600081905092915050565b600062000a4d8262000703565b62000a59818562000a35565b935062000a6b818560208601620005bf565b80840191505092915050565b600062000a85828462000a40565b915081905092915050565b600062000a9e828562000a40565b915062000aac828462000a40565b91508190509392505050565b7f4e487b7100000000000000000000000000000000000000000000000000000000600052601160045260246000fd5b600062000af482620007fa565b915062000b0183620007fa565b925082820190508082111562000b1c5762000b1b62000ab8565b5b92915050565b7f4e487b7100000000000000000000000000000000000000000000000000000000600052601260045260246000fd5b600062000b5e82620007fa565b915062000b6b83620007fa565b92508262000b7e5762000b7d62000b22565b5b828204905092915050565b600062000b9682620007fa565b915062000ba383620007fa565b925082820262000bb381620007fa565b9150828204841483151762000bcd5762000bcc62000ab8565b5b5092915050565b6080516132dc62000bf760003960008181610bab0152610c8c01526132dc6000f3fe608060405234801561001057600080fd5b506004361061014d5760003560e01c8063715018a6116100c3578063b88d4fde1161007c578063b88d4fde1461038c578063c87b56dd146103a8578063e425aded146103d8578063e985e9c514610408578063ed28a12214610438578063f2fde38b146104565761014d565b8063715018a6146102ee57806376f6056b146102f85780638da5cb5b1461031657806395d89b41146103345780639e87a5cd14610352578063a22cb465146103705761014d565b806323b872dd1161011557806323b872dd1461020857806330d871c61461022457806342842e0e146102545780636352211e146102705780636e02007d146102a057806370a08231146102be5761014d565b806301ffc9a71461015257806306fdde0314610182578063081812fc146101a0578063095ea7b3146101d05780631e930812146101ec575b600080fd5b61016c60048036038101906101679190611e89565b610472565b6040516101799190611ed1565b60405180910390f35b61018a610554565b6040516101979190611f7c565b60405180910390f35b6101ba60048036038101906101b59190611fd4565b6105e6565b6040516101c79190612042565b60405180910390f35b6101ea60048036038101906101e59190612089565b61062c565b005b610206600480360381019061020191906120ff565b610743565b005b610222600480360381019061021d919061212c565b6107c0565b005b61023e600480360381019061023991906122b4565b610820565b60405161024b9190611f7c565b60405180910390f35b61026e6004803603810190610269919061212c565b6108b3565b005b61028a60048036038101906102859190611fd4565b6108d3565b6040516102979190612042565b60405180910390f35b6102a8610984565b6040516102b5919061230c565b60405180910390f35b6102d860048036038101906102d39190612327565b61098e565b6040516102e5919061230c565b60405180910390f35b6102f6610a45565b005b610300610a59565b60405161030d9190611f7c565b60405180910390f35b61031e610aeb565b60405161032b9190612042565b60405180910390f35b61033c610b15565b6040516103499190611f7c565b60405180910390f35b61035a610ba7565b60405161036791906123b3565b60405180910390f35b61038a600480360381019061038591906123fa565b610bcf565b005b6103a660048036038101906103a191906124db565b610be5565b005b6103c260048036038101906103bd9190611fd4565b610c47565b6040516103cf9190611f7c565b60405180910390f35b6103f260048036038101906103ed9190611fd4565b610eb8565b6040516103ff919061256d565b60405180910390f35b610422600480360381019061041d9190612588565b610ed0565b60405161042f9190611ed1565b60405180910390f35b610440610f64565b60405161044d9190611f7c565b60405180910390f35b610470600480360381019061046b9190612327565b610ff6565b005b60007f80ac58cd000000000000000000000000000000000000000000000000000000007bffffffffffffffffffffffffffffffffffffffffffffffffffffffff1916827bffffffffffffffffffffffffffffffffffffffffffffffffffffffff1916148061053d57507f5b5e139f000000000000000000000000000000000000000000000000000000007bffffffffffffffffffffffffffffffffffffffffffffffffffffffff1916827bffffffffffffffffffffffffffffffffffffffffffffffffffffffff1916145b8061054d575061054c826111f1565b5b9050919050565b606060008054610563906125f7565b80601f016020809104026020016040519081016040528092919081815260200182805461058f906125f7565b80156105dc5780601f106105b1576101008083540402835291602001916105dc565b820191906000526020600020905b8154815290600101906020018083116105bf57829003601f168201915b5050505050905090565b60006105f18261125b565b6004600083815260200190815260200160002060009054906101000a900473ffffffffffffffffffffffffffffffffffffffff169050919050565b6000610637826108d3565b90508073ffffffffffffffffffffffffffffffffffffffff168373ffffffffffffffffffffffffffffffffffffffff16036106a7576040517f08c379a000000000000000000000000000000000000000000000000000000000815260040161069e9061269a565b60405180910390fd5b8073ffffffffffffffffffffffffffffffffffffffff166106c66112a6565b73ffffffffffffffffffffffffffffffffffffffff1614806106f557506106f4816106ef6112a6565b610ed0565b5b610734576040517f08c379a000000000000000000000000000000000000000000000000000000000815260040161072b9061272c565b60405180910390fd5b61073e83836112ae565b505050565b80600a600060075481526020019081526020016000208190555061076933600754611367565b60016007600082825461077c919061277b565b925050819055506007547f882d3b5a729a8bb95cf6c0083c99b42ecd9637123d4425bd7b768877fd8af8b0826040516107b5919061256d565b60405180910390a250565b6107d16107cb6112a6565b82611385565b610810576040517f08c379a000000000000000000000000000000000000000000000000000000000815260040161080790612821565b60405180910390fd5b61081b83838361141a565b505050565b606060006040518060400160405280601a81526020017f646174613a696d6167652f7376672b786d6c3b6261736536342c0000000000008152509050600061088684604051602001610872919061287d565b604051602081830303815290604052611079565b9050818160405160200161089b929190612894565b60405160208183030381529060405292505050919050565b6108ce83838360405180602001604052806000815250610be5565b505050565b6000806002600084815260200190815260200160002060009054906101000a900473ffffffffffffffffffffffffffffffffffffffff169050600073ffffffffffffffffffffffffffffffffffffffff168173ffffffffffffffffffffffffffffffffffffffff160361097b576040517f08c379a000000000000000000000000000000000000000000000000000000000815260040161097290612904565b60405180910390fd5b80915050919050565b6000600754905090565b60008073ffffffffffffffffffffffffffffffffffffffff168273ffffffffffffffffffffffffffffffffffffffff16036109fe576040517f08c379a00000000000000000000000000000000000000000000000000000000081526004016109f590612996565b60405180910390fd5b600360008373ffffffffffffffffffffffffffffffffffffffff1673ffffffffffffffffffffffffffffffffffffffff168152602001908152602001600020549050919050565b610a4d611680565b610a5760006116fe565b565b606060098054610a68906125f7565b80601f0160208091040260200160405190810160405280929190818152602001828054610a94906125f7565b8015610ae15780601f10610ab657610100808354040283529160200191610ae1565b820191906000526020600020905b815481529060010190602001808311610ac457829003601f168201915b5050505050905090565b6000600660009054906101000a900473ffffffffffffffffffffffffffffffffffffffff16905090565b606060018054610b24906125f7565b80601f0160208091040260200160405190810160405280929190818152602001828054610b50906125f7565b8015610b9d5780601f10610b7257610100808354040283529160200191610b9d565b820191906000526020600020905b815481529060010190602001808311610b8057829003601f168201915b5050505050905090565b60007f0000000000000000000000000000000000000000000000000000000000000000905090565b610be1610bda6112a6565b83836117c4565b5050565b610bf6610bf06112a6565b83611385565b610c35576040517f08c379a0000000000000000000000000000000000000000000000000000000008152600401610c2c90612821565b60405180910390fd5b610c4184848484611930565b50505050565b6060610c528261198c565b610c88576040517f6df5edae00000000000000000000000000000000000000000000000000000000815260040160405180910390fd5b60007f000000000000000000000000000000000000000000000000000000000000000073ffffffffffffffffffffffffffffffffffffffff1663feaf968c6040518163ffffffff1660e01b815260040160a060405180830381865afa158015610cf5573d6000803e3d6000fd5b505050506040513d601f19601f82011682018060405250810190610d199190612a22565b505050915050600060088054610d2e906125f7565b80601f0160208091040260200160405190810160405280929190818152602001828054610d5a906125f7565b8015610da75780601f10610d7c57610100808354040283529160200191610da7565b820191906000526020600020905b815481529060010190602001808311610d8a57829003601f168201915b50505050509050600a6000858152602001908152602001600020548212610e565760098054610dd5906125f7565b80601f0160208091040260200160405190810160405280929190818152602001828054610e01906125f7565b8015610e4e5780601f10610e2357610100808354040283529160200191610e4e565b820191906000526020600020905b815481529060010190602001808311610e3157829003601f168201915b505050505090505b610e5e6119f8565b610e8f610e69610554565b83604051602001610e7b929190612c65565b604051602081830303815290604052611079565b604051602001610ea0929190612894565b60405160208183030381529060405292505050919050565b600a6020528060005260406000206000915090505481565b6000600560008473ffffffffffffffffffffffffffffffffffffffff1673ffffffffffffffffffffffffffffffffffffffff16815260200190815260200160002060008373ffffffffffffffffffffffffffffffffffffffff1673ffffffffffffffffffffffffffffffffffffffff16815260200190815260200160002060009054906101000a900460ff16905092915050565b606060088054610f73906125f7565b80601f0160208091040260200160405190810160405280929190818152602001828054610f9f906125f7565b8015610fec5780601f10610fc157610100808354040283529160200191610fec565b820191906000526020600020905b815481529060010190602001808311610fcf57829003601f168201915b5050505050905090565b610ffe611680565b600073ffffffffffffffffffffffffffffffffffffffff168173ffffffffffffffffffffffffffffffffffffffff160361106d576040517f08c379a000000000000000000000000000000000000000000000000000000000815260040161106490612d27565b60405180910390fd5b611076816116fe565b50565b6060600082510361109b576040518060200160405280600081525090506111ec565b600060405180606001604052806040815260200161326760409139905060006003600285516110ca919061277b565b6110d49190612d76565b60046110e09190612da7565b905060006020826110f1919061277b565b67ffffffffffffffff81111561110a57611109612189565b5b6040519080825280601f01601f19166020018201604052801561113c5781602001600182028036833780820191505090505b509050818152600183018586518101602084015b818310156111ab576003830192508251603f8160121c168501518253600182019150603f81600c1c168501518253600182019150603f8160061c168501518253600182019150603f8116850151825360018201915050611150565b6003895106600181146111c557600281146111d5576111e0565b613d3d60f01b60028303526111e0565b603d60f81b60018303525b50505050508093505050505b919050565b60007f01ffc9a7000000000000000000000000000000000000000000000000000000007bffffffffffffffffffffffffffffffffffffffffffffffffffffffff1916827bffffffffffffffffffffffffffffffffffffffffffffffffffffffff1916149050919050565b6112648161198c565b6112a3576040517f08c379a000000000000000000000000000000000000000000000000000000000815260040161129a90612904565b60405180910390fd5b50565b600033905090565b816004600083815260200190815260200160002060006101000a81548173ffffffffffffffffffffffffffffffffffffffff021916908373ffffffffffffffffffffffffffffffffffffffff160217905550808273ffffffffffffffffffffffffffffffffffffffff16611321836108d3565b73ffffffffffffffffffffffffffffffffffffffff167f8c5be1e5ebec7d5bd14f71427d1e84f3dd0314c0f7b2291e5b200ac8c7c3b92560405160405180910390a45050565b611381828260405180602001604052806000815250611a35565b5050565b600080611391836108d3565b90508073ffffffffffffffffffffffffffffffffffffffff168473ffffffffffffffffffffffffffffffffffffffff1614806113d357506113d28185610ed0565b5b8061141157508373ffffffffffffffffffffffffffffffffffffffff166113f9846105e6565b73ffffffffffffffffffffffffffffffffffffffff16145b91505092915050565b8273ffffffffffffffffffffffffffffffffffffffff1661143a826108d3565b73ffffffffffffffffffffffffffffffffffffffff1614611490576040517f08c379a000000000000000000000000000000000000000000000000000000000815260040161148790612e5b565b60405180910390fd5b600073ffffffffffffffffffffffffffffffffffffffff168273ffffffffffffffffffffffffffffffffffffffff16036114ff576040517f08c379a00000000000000000000000000000000000000000000000000000000081526004016114f690612eed565b60405180910390fd5b61150a838383611a90565b6115156000826112ae565b6001600360008573ffffffffffffffffffffffffffffffffffffffff1673ffffffffffffffffffffffffffffffffffffffff16815260200190815260200160002060008282546115659190612f0d565b925050819055506001600360008473ffffffffffffffffffffffffffffffffffffffff1673ffffffffffffffffffffffffffffffffffffffff16815260200190815260200160002060008282546115bc919061277b565b92505081905550816002600083815260200190815260200160002060006101000a81548173ffffffffffffffffffffffffffffffffffffffff021916908373ffffffffffffffffffffffffffffffffffffffff160217905550808273ffffffffffffffffffffffffffffffffffffffff168473ffffffffffffffffffffffffffffffffffffffff167fddf252ad1be2c89b69c2b068fc378daa952ba7f163c4a11628f55a4df523b3ef60405160405180910390a461167b838383611a95565b505050565b6116886112a6565b73ffffffffffffffffffffffffffffffffffffffff166116a6610aeb565b73ffffffffffffffffffffffffffffffffffffffff16146116fc576040517f08c379a00000000000000000000000000000000000000000000000000000000081526004016116f390612f8d565b60405180910390fd5b565b6000600660009054906101000a900473ffffffffffffffffffffffffffffffffffffffff16905081600660006101000a81548173ffffffffffffffffffffffffffffffffffffffff021916908373ffffffffffffffffffffffffffffffffffffffff1602179055508173ffffffffffffffffffffffffffffffffffffffff168173ffffffffffffffffffffffffffffffffffffffff167f8be0079c531659141344cd1fd0a4f28419497f9722a3daafe3b4186f6b6457e060405160405180910390a35050565b8173ffffffffffffffffffffffffffffffffffffffff168373ffffffffffffffffffffffffffffffffffffffff1603611832576040517f08c379a000000000000000000000000000000000000000000000000000000000815260040161182990612ff9565b60405180910390fd5b80600560008573ffffffffffffffffffffffffffffffffffffffff1673ffffffffffffffffffffffffffffffffffffffff16815260200190815260200160002060008473ffffffffffffffffffffffffffffffffffffffff1673ffffffffffffffffffffffffffffffffffffffff16815260200190815260200160002060006101000a81548160ff0219169083151502179055508173ffffffffffffffffffffffffffffffffffffffff168373ffffffffffffffffffffffffffffffffffffffff167f17307eab39ab6107e8899845ad3d59bd9653f200f220920489ca2b5937696c31836040516119239190611ed1565b60405180910390a3505050565b61193b84848461141a565b61194784848484611a9a565b611986576040517f08c379a000000000000000000000000000000000000000000000000000000000815260040161197d9061308b565b60405180910390fd5b50505050565b60008073ffffffffffffffffffffffffffffffffffffffff166002600084815260200190815260200160002060009054906101000a900473ffffffffffffffffffffffffffffffffffffffff1673ffffffffffffffffffffffffffffffffffffffff1614159050919050565b60606040518060400160405280601d81526020017f646174613a6170706c69636174696f6e2f6a736f6e3b6261736536342c000000815250905090565b611a3f8383611c21565b611a4c6000848484611a9a565b611a8b576040517f08c379a0000000000000000000000000000000000000000000000000000000008152600401611a829061308b565b60405180910390fd5b505050565b505050565b505050565b6000611abb8473ffffffffffffffffffffffffffffffffffffffff16611dfa565b15611c14578373ffffffffffffffffffffffffffffffffffffffff1663150b7a02611ae46112a6565b8786866040518563ffffffff1660e01b8152600401611b069493929190613100565b6020604051808303816000875af1925050508015611b4257506040513d601f19601f82011682018060405250810190611b3f9190613161565b60015b611bc4573d8060008114611b72576040519150601f19603f3d011682016040523d82523d6000602084013e611b77565b606091505b506000815103611bbc576040517f08c379a0000000000000000000000000000000000000000000000000000000008152600401611bb39061308b565b60405180910390fd5b805181602001fd5b63150b7a0260e01b7bffffffffffffffffffffffffffffffffffffffffffffffffffffffff1916817bffffffffffffffffffffffffffffffffffffffffffffffffffffffff191614915050611c19565b600190505b949350505050565b600073ffffffffffffffffffffffffffffffffffffffff168273ffffffffffffffffffffffffffffffffffffffff1603611c90576040517f08c379a0000000000000000000000000000000000000000000000000000000008152600401611c87906131da565b60405180910390fd5b611c998161198c565b15611cd9576040517f08c379a0000000000000000000000000000000000000000000000000000000008152600401611cd090613246565b60405180910390fd5b611ce560008383611a90565b6001600360008473ffffffffffffffffffffffffffffffffffffffff1673ffffffffffffffffffffffffffffffffffffffff1681526020019081526020016000206000828254611d35919061277b565b92505081905550816002600083815260200190815260200160002060006101000a81548173ffffffffffffffffffffffffffffffffffffffff021916908373ffffffffffffffffffffffffffffffffffffffff160217905550808273ffffffffffffffffffffffffffffffffffffffff16600073ffffffffffffffffffffffffffffffffffffffff167fddf252ad1be2c89b69c2b068fc378daa952ba7f163c4a11628f55a4df523b3ef60405160405180910390a4611df660008383611a95565b5050565b6000808273ffffffffffffffffffffffffffffffffffffffff163b119050919050565b6000604051905090565b600080fd5b600080fd5b60007fffffffff0000000000000000000000000000000000000000000000000000000082169050919050565b611e6681611e31565b8114611e7157600080fd5b50565b600081359050611e8381611e5d565b92915050565b600060208284031215611e9f57611e9e611e27565b5b6000611ead84828501611e74565b91505092915050565b60008115159050919050565b611ecb81611eb6565b82525050565b6000602082019050611ee66000830184611ec2565b92915050565b600081519050919050565b600082825260208201905092915050565b60005b83811015611f26578082015181840152602081019050611f0b565b60008484015250505050565b6000601f19601f8301169050919050565b6000611f4e82611eec565b611f588185611ef7565b9350611f68818560208601611f08565b611f7181611f32565b840191505092915050565b60006020820190508181036000830152611f968184611f43565b905092915050565b6000819050919050565b611fb181611f9e565b8114611fbc57600080fd5b50565b600081359050611fce81611fa8565b92915050565b600060208284031215611fea57611fe9611e27565b5b6000611ff884828501611fbf565b91505092915050565b600073ffffffffffffffffffffffffffffffffffffffff82169050919050565b600061202c82612001565b9050919050565b61203c81612021565b82525050565b60006020820190506120576000830184612033565b92915050565b61206681612021565b811461207157600080fd5b50565b6000813590506120838161205d565b92915050565b600080604083850312156120a05761209f611e27565b5b60006120ae85828601612074565b92505060206120bf85828601611fbf565b9150509250929050565b6000819050919050565b6120dc816120c9565b81146120e757600080fd5b50565b6000813590506120f9816120d3565b92915050565b60006020828403121561211557612114611e27565b5b6000612123848285016120ea565b91505092915050565b60008060006060848603121561214557612144611e27565b5b600061215386828701612074565b935050602061216486828701612074565b925050604061217586828701611fbf565b9150509250925092565b600080fd5b600080fd5b7f4e487b7100000000000000000000000000000000000000000000000000000000600052604160045260246000fd5b6121c182611f32565b810181811067ffffffffffffffff821117156121e0576121df612189565b5b80604052505050565b60006121f3611e1d565b90506121ff82826121b8565b919050565b600067ffffffffffffffff82111561221f5761221e612189565b5b61222882611f32565b9050602081019050919050565b82818337600083830152505050565b600061225761225284612204565b6121e9565b90508281526020810184848401111561227357612272612184565b5b61227e848285612235565b509392505050565b600082601f83011261229b5761229a61217f565b5b81356122ab848260208601612244565b91505092915050565b6000602082840312156122ca576122c9611e27565b5b600082013567ffffffffffffffff8111156122e8576122e7611e2c565b5b6122f484828501612286565b91505092915050565b61230681611f9e565b82525050565b600060208201905061232160008301846122fd565b92915050565b60006020828403121561233d5761233c611e27565b5b600061234b84828501612074565b91505092915050565b6000819050919050565b600061237961237461236f84612001565b612354565b612001565b9050919050565b600061238b8261235e565b9050919050565b600061239d82612380565b9050919050565b6123ad81612392565b82525050565b60006020820190506123c860008301846123a4565b92915050565b6123d781611eb6565b81146123e257600080fd5b50565b6000813590506123f4816123ce565b92915050565b6000806040838503121561241157612410611e27565b5b600061241f85828601612074565b9250506020612430858286016123e5565b9150509250929050565b600067ffffffffffffffff82111561245557612454612189565b5b61245e82611f32565b9050602081019050919050565b600061247e6124798461243a565b6121e9565b90508281526020810184848401111561249a57612499612184565b5b6124a5848285612235565b509392505050565b600082601f8301126124c2576124c161217f565b5b81356124d284826020860161246b565b91505092915050565b600080600080608085870312156124f5576124f4611e27565b5b600061250387828801612074565b945050602061251487828801612074565b935050604061252587828801611fbf565b925050606085013567ffffffffffffffff81111561254657612545611e2c565b5b612552878288016124ad565b91505092959194509250565b612567816120c9565b82525050565b6000602082019050612582600083018461255e565b92915050565b6000806040838503121561259f5761259e611e27565b5b60006125ad85828601612074565b92505060206125be85828601612074565b9150509250929050565b7f4e487b7100000000000000000000000000000000000000000000000000000000600052602260045260246000fd5b6000600282049050600182168061260f57607f821691505b602082108103612622576126216125c8565b5b50919050565b7f4552433732313a20617070726f76616c20746f2063757272656e74206f776e6560008201527f7200000000000000000000000000000000000000000000000000000000000000602082015250565b6000612684602183611ef7565b915061268f82612628565b604082019050919050565b600060208201905081810360008301526126b381612677565b9050919050565b7f4552433732313a20617070726f76652063616c6c6572206973206e6f7420746f60008201527f6b656e206f776e6572206e6f7220617070726f76656420666f7220616c6c0000602082015250565b6000612716603e83611ef7565b9150612721826126ba565b604082019050919050565b6000602082019050818103600083015261274581612709565b9050919050565b7f4e487b7100000000000000000000000000000000000000000000000000000000600052601160045260246000fd5b600061278682611f9e565b915061279183611f9e565b92508282019050808211156127a9576127a861274c565b5b92915050565b7f4552433732313a2063616c6c6572206973206e6f7420746f6b656e206f776e6560008201527f72206e6f7220617070726f766564000000000000000000000000000000000000602082015250565b600061280b602e83611ef7565b9150612816826127af565b604082019050919050565b6000602082019050818103600083015261283a816127fe565b9050919050565b600081905092915050565b600061285782611eec565b6128618185612841565b9350612871818560208601611f08565b80840191505092915050565b6000612889828461284c565b915081905092915050565b60006128a0828561284c565b91506128ac828461284c565b91508190509392505050565b7f4552433732313a20696e76616c696420746f6b656e2049440000000000000000600082015250565b60006128ee601883611ef7565b91506128f9826128b8565b602082019050919050565b6000602082019050818103600083015261291d816128e1565b9050919050565b7f4552433732313a2061646472657373207a65726f206973206e6f74206120766160008201527f6c6964206f776e65720000000000000000000000000000000000000000000000602082015250565b6000612980602983611ef7565b915061298b82612924565b604082019050919050565b600060208201905081810360008301526129af81612973565b9050919050565b600069ffffffffffffffffffff82169050919050565b6129d5816129b6565b81146129e057600080fd5b50565b6000815190506129f2816129cc565b92915050565b600081519050612a07816120d3565b92915050565b600081519050612a1c81611fa8565b92915050565b600080600080600060a08688031215612a3e57612a3d611e27565b5b6000612a4c888289016129e3565b9550506020612a5d888289016129f8565b9450506040612a6e88828901612a0d565b9350506060612a7f88828901612a0d565b9250506080612a90888289016129e3565b9150509295509295909350565b7f7b226e616d65223a220000000000000000000000000000000000000000000000600082015250565b6000612ad3600983612841565b9150612ade82612a9d565b600982019050919050565b7f222c20226465736372697074696f6e223a22416e204e4654207468617420636860008201527f616e676573206261736564206f6e2074686520436861696e6c696e6b2046656560208201527f64222c2000000000000000000000000000000000000000000000000000000000604082015250565b6000612b6b604483612841565b9150612b7682612ae9565b604482019050919050565b7f2261747472696275746573223a205b7b2274726169745f74797065223a20226360008201527f6f6f6c6e657373222c202276616c7565223a203130307d5d2c2022696d61676560208201527f223a220000000000000000000000000000000000000000000000000000000000604082015250565b6000612c03604383612841565b9150612c0e82612b81565b604382019050919050565b7f227d000000000000000000000000000000000000000000000000000000000000600082015250565b6000612c4f600283612841565b9150612c5a82612c19565b600282019050919050565b6000612c7082612ac6565b9150612c7c828561284c565b9150612c8782612b5e565b9150612c9282612bf6565b9150612c9e828461284c565b9150612ca982612c42565b91508190509392505050565b7f4f776e61626c653a206e6577206f776e657220697320746865207a65726f206160008201527f6464726573730000000000000000000000000000000000000000000000000000602082015250565b6000612d11602683611ef7565b9150612d1c82612cb5565b604082019050919050565b60006020820190508181036000830152612d4081612d04565b9050919050565b7f4e487b7100000000000000000000000000000000000000000000000000000000600052601260045260246000fd5b6000612d8182611f9e565b9150612d8c83611f9e565b925082612d9c57612d9b612d47565b5b828204905092915050565b6000612db282611f9e565b9150612dbd83611f9e565b9250828202612dcb81611f9e565b91508282048414831517612de257612de161274c565b5b5092915050565b7f4552433732313a207472616e736665722066726f6d20696e636f72726563742060008201527f6f776e6572000000000000000000000000000000000000000000000000000000602082015250565b6000612e45602583611ef7565b9150612e5082612de9565b604082019050919050565b60006020820190508181036000830152612e7481612e38565b9050919050565b7f4552433732313a207472616e7366657220746f20746865207a65726f2061646460008201527f7265737300000000000000000000000000000000000000000000000000000000602082015250565b6000612ed7602483611ef7565b9150612ee282612e7b565b604082019050919050565b60006020820190508181036000830152612f0681612eca565b9050919050565b6000612f1882611f9e565b9150612f2383611f9e565b9250828203905081811115612f3b57612f3a61274c565b5b92915050565b7f4f776e61626c653a2063616c6c6572206973206e6f7420746865206f776e6572600082015250565b6000612f77602083611ef7565b9150612f8282612f41565b602082019050919050565b60006020820190508181036000830152612fa681612f6a565b9050919050565b7f4552433732313a20617070726f766520746f2063616c6c657200000000000000600082015250565b6000612fe3601983611ef7565b9150612fee82612fad565b602082019050919050565b6000602082019050818103600083015261301281612fd6565b9050919050565b7f4552433732313a207472616e7366657220746f206e6f6e20455243373231526560008201527f63656976657220696d706c656d656e7465720000000000000000000000000000602082015250565b6000613075603283611ef7565b915061308082613019565b604082019050919050565b600060208201905081810360008301526130a481613068565b9050919050565b600081519050919050565b600082825260208201905092915050565b60006130d2826130ab565b6130dc81856130b6565b93506130ec818560208601611f08565b6130f581611f32565b840191505092915050565b60006080820190506131156000830187612033565b6131226020830186612033565b61312f60408301856122fd565b818103606083015261314181846130c7565b905095945050505050565b60008151905061315b81611e5d565b92915050565b60006020828403121561317757613176611e27565b5b60006131858482850161314c565b91505092915050565b7f4552433732313a206d696e7420746f20746865207a65726f2061646472657373600082015250565b60006131c4602083611ef7565b91506131cf8261318e565b602082019050919050565b600060208201905081810360008301526131f3816131b7565b9050919050565b7f4552433732313a20746f6b656e20616c7265616479206d696e74656400000000600082015250565b6000613230601c83611ef7565b915061323b826131fa565b602082019050919050565b6000602082019050818103600083015261325f81613223565b905091905056fe4142434445464748494a4b4c4d4e4f505152535455565758595a6162636465666768696a6b6c6d6e6f707172737475767778797a303132333435363738392b2fa2646970667358221220d1b6c02e0c105fe00a0b1377cb8e802b3ebd476e340141b11039c59b8be91a2664736f6c634300081100334142434445464748494a4b4c4d4e4f505152535455565758595a6162636465666768696a6b6c6d6e6f707172737475767778797a303132333435363738392b2f",
  "linkReferences": {},
  "deployedLinkReferences": {}
}