{
  "_format": "hh-sol-artifact-1",
  "contractName": "RandomIpfsNft",
  "sourceName": "contracts/RandomIpfsNft.sol",
  "abi": [
    {
      "inputs": [
        {
          "internalType": "address",
          "name": "vrfCoordinatorV2",
          "type": "address"
        },
        {
          "internalType": "uint64",
          "name": "subscriptionId",
          "type": "uint64"
        },
        {
          "internalType": "bytes32",
          "name": "gasLane",
          "type": "bytes32"
        },
        {
          "internalType": "uint32",
          "name": "callbackGasLimit",
          "type": "uint32"
        },
        {
          "internalType": "string[3]",
          "name": "dogTokenUris",
          "type": "string[3]"
        },
        {
          "internalType": "uint256",
          "name": "mintFee",
          "type": "uint256"
        }
      ],
      "stateMutability": "nonpayable",
      "type": "constructor"
    },
    {
      "inputs": [
        {
          "internalType": "address",
          "name": "have",
          "type": "address"
        },
        {
          "internalType": "address",
          "name": "want",
          "type": "address"
        }
      ],
      "name": "OnlyCoordinatorCanFulfill",
      "type": "error"
    },
    {
      "inputs": [],
      "name": "RandomIpfsNft__AlreadyInitialized",
      "type": "error"
    },
    {
      "inputs": [],
      "name": "RandomIpfsNft__NeedMoreETHSent",
      "type": "error"
    },
    {
      "inputs": [],
      "name": "RandomIpfsNft__RangeOutOfBounds",
      "type": "error"
    },
    {
      "inputs": [],
      "name": "RandomIpfsNft__TransferFailed",
      "type": "error"
    },
    {
      "anonymous": false,
      "inputs": [
        {
          "indexed": true,
          "internalType": "address",
          "name": "owner",
          "type": "address"
        },
        {
          "indexed": true,
          "internalType": "address",
          "name": "approved",
          "type": "address"
        },
        {
          "indexed": true,
          "internalType": "uint256",
          "name": "tokenId",
          "type": "uint256"
        }
      ],
      "name": "Approval",
      "type": "event"
    },
    {
      "anonymous": false,
      "inputs": [
        {
          "indexed": true,
          "internalType": "address",
          "name": "owner",
          "type": "address"
        },
        {
          "indexed": true,
          "internalType": "address",
          "name": "operator",
          "type": "address"
        },
        {
          "indexed": false,
          "internalType": "bool",
          "name": "approved",
          "type": "bool"
        }
      ],
      "name": "ApprovalForAll",
      "type": "event"
    },
    {
      "anonymous": false,
      "inputs": [
        {
          "indexed": false,
          "internalType": "enum RandomIpfsNft.Breed",
          "name": "dogBreed",
          "type": "uint8"
        },
        {
          "indexed": false,
          "internalType": "address",
          "name": "minter",
          "type": "address"
        }
      ],
      "name": "NftMinted",
      "type": "event"
    },
    {
      "anonymous": false,
      "inputs": [
        {
          "indexed": true,
          "internalType": "uint256",
          "name": "requestId",
          "type": "uint256"
        },
        {
          "indexed": false,
          "internalType": "address",
          "name": "requester",
          "type": "address"
        }
      ],
      "name": "NftRequested",
      "type": "event"
    },
    {
      "anonymous": false,
      "inputs": [
        {
          "indexed": true,
          "internalType": "address",
          "name": "previousOwner",
          "type": "address"
        },
        {
          "indexed": true,
          "internalType": "address",
          "name": "newOwner",
          "type": "address"
        }
      ],
      "name": "OwnershipTransferred",
      "type": "event"
    },
    {
      "anonymous": false,
      "inputs": [
        {
          "indexed": true,
          "internalType": "address",
          "name": "from",
          "type": "address"
        },
        {
          "indexed": true,
          "internalType": "address",
          "name": "to",
          "type": "address"
        },
        {
          "indexed": true,
          "internalType": "uint256",
          "name": "tokenId",
          "type": "uint256"
        }
      ],
      "name": "Transfer",
      "type": "event"
    },
    {
      "inputs": [
        {
          "internalType": "address",
          "name": "to",
          "type": "address"
        },
        {
          "internalType": "uint256",
          "name": "tokenId",
          "type": "uint256"
        }
      ],
      "name": "approve",
      "outputs": [],
      "stateMutability": "nonpayable",
      "type": "function"
    },
    {
      "inputs": [
        {
          "internalType": "address",
          "name": "owner",
          "type": "address"
        }
      ],
      "name": "balanceOf",
      "outputs": [
        {
          "internalType": "uint256",
          "name": "",
          "type": "uint256"
        }
      ],
      "stateMutability": "view",
      "type": "function"
    },
    {
      "inputs": [
        {
          "internalType": "uint256",
          "name": "tokenId",
          "type": "uint256"
        }
      ],
      "name": "getApproved",
      "outputs": [
        {
          "internalType": "address",
          "name": "",
          "type": "address"
        }
      ],
      "stateMutability": "view",
      "type": "function"
    },
    {
      "inputs": [
        {
          "internalType": "uint256",
          "name": "moddedRng",
          "type": "uint256"
        }
      ],
      "name": "getBreedFromModdedRng",
      "outputs": [
        {
          "internalType": "enum RandomIpfsNft.Breed",
          "name": "",
          "type": "uint8"
        }
      ],
      "stateMutability": "pure",
      "type": "function"
    },
    {
      "inputs": [],
      "name": "getChanceArray",
      "outputs": [
        {
          "internalType": "uint256[3]",
          "name": "",
          "type": "uint256[3]"
        }
      ],
      "stateMutability": "pure",
      "type": "function"
    },
    {
      "inputs": [
        {
          "internalType": "uint256",
          "name": "index",
          "type": "uint256"
        }
      ],
      "name": "getDogTokenUris",
      "outputs": [
        {
          "internalType": "string",
          "name": "",
          "type": "string"
        }
      ],
      "stateMutability": "view",
      "type": "function"
    },
    {
      "inputs": [],
      "name": "getInitialized",
      "outputs": [
        {
          "internalType": "bool",
          "name": "",
          "type": "bool"
        }
      ],
      "stateMutability": "view",
      "type": "function"
    },
    {
      "inputs": [],
      "name": "getMintFee",
      "outputs": [
        {
          "internalType": "uint256",
          "name": "",
          "type": "uint256"
        }
      ],
      "stateMutability": "view",
      "type": "function"
    },
    {
      "inputs": [],
      "name": "getTokenCounter",
      "outputs": [
        {
          "internalType": "uint256",
          "name": "",
          "type": "uint256"
        }
      ],
      "stateMutability": "view",
      "type": "function"
    },
    {
      "inputs": [
        {
          "internalType": "address",
          "name": "owner",
          "type": "address"
        },
        {
          "internalType": "address",
          "name": "operator",
          "type": "address"
        }
      ],
      "name": "isApprovedForAll",
      "outputs": [
        {
          "internalType": "bool",
          "name": "",
          "type": "bool"
        }
      ],
      "stateMutability": "view",
      "type": "function"
    },
    {
      "inputs": [],
      "name": "name",
      "outputs": [
        {
          "internalType": "string",
          "name": "",
          "type": "string"
        }
      ],
      "stateMutability": "view",
      "type": "function"
    },
    {
      "inputs": [],
      "name": "owner",
      "outputs": [
        {
          "internalType": "address",
          "name": "",
          "type": "address"
        }
      ],
      "stateMutability": "view",
      "type": "function"
    },
    {
      "inputs": [
        {
          "internalType": "uint256",
          "name": "tokenId",
          "type": "uint256"
        }
      ],
      "name": "ownerOf",
      "outputs": [
        {
          "internalType": "address",
          "name": "",
          "type": "address"
        }
      ],
      "stateMutability": "view",
      "type": "function"
    },
    {
      "inputs": [
        {
          "internalType": "uint256",
          "name": "requestId",
          "type": "uint256"
        },
        {
          "internalType": "uint256[]",
          "name": "randomWords",
          "type": "uint256[]"
        }
      ],
      "name": "rawFulfillRandomWords",
      "outputs": [],
      "stateMutability": "nonpayable",
      "type": "function"
    },
    {
      "inputs": [],
      "name": "renounceOwnership",
      "outputs": [],
      "stateMutability": "nonpayable",
      "type": "function"
    },
    {
      "inputs": [],
      "name": "requestNft",
      "outputs": [
        {
          "internalType": "uint256",
          "name": "requestId",
          "type": "uint256"
        }
      ],
      "stateMutability": "payable",
      "type": "function"
    },
    {
      "inputs": [
        {
          "internalType": "uint256",
          "name": "",
          "type": "uint256"
        }
      ],
      "name": "s_requestIdToSender",
      "outputs": [
        {
          "internalType": "address",
          "name": "",
          "type": "address"
        }
      ],
      "stateMutability": "view",
      "type": "function"
    },
    {
      "inputs": [
        {
          "internalType": "address",
          "name": "from",
          "type": "address"
        },
        {
          "internalType": "address",
          "name": "to",
          "type": "address"
        },
        {
          "internalType": "uint256",
          "name": "tokenId",
          "type": "uint256"
        }
      ],
      "name": "safeTransferFrom",
      "outputs": [],
      "stateMutability": "nonpayable",
      "type": "function"
    },
    {
      "inputs": [
        {
          "internalType": "address",
          "name": "from",
          "type": "address"
        },
        {
          "internalType": "address",
          "name": "to",
          "type": "address"
        },
        {
          "internalType": "uint256",
          "name": "tokenId",
          "type": "uint256"
        },
        {
          "internalType": "bytes",
          "name": "data",
          "type": "bytes"
        }
      ],
      "name": "safeTransferFrom",
      "outputs": [],
      "stateMutability": "nonpayable",
      "type": "function"
    },
    {
      "inputs": [
        {
          "internalType": "address",
          "name": "operator",
          "type": "address"
        },
        {
          "internalType": "bool",
          "name": "approved",
          "type": "bool"
        }
      ],
      "name": "setApprovalForAll",
      "outputs": [],
      "stateMutability": "nonpayable",
      "type": "function"
    },
    {
      "inputs": [
        {
          "internalType": "bytes4",
          "name": "interfaceId",
          "type": "bytes4"
        }
      ],
      "name": "supportsInterface",
      "outputs": [
        {
          "internalType": "bool",
          "name": "",
          "type": "bool"
        }
      ],
      "stateMutability": "view",
      "type": "function"
    },
    {
      "inputs": [],
      "name": "symbol",
      "outputs": [
        {
          "internalType": "string",
          "name": "",
          "type": "string"
        }
      ],
      "stateMutability": "view",
      "type": "function"
    },
    {
      "inputs": [
        {
          "internalType": "uint256",
          "name": "tokenId",
          "type": "uint256"
        }
      ],
      "name": "tokenURI",
      "outputs": [
        {
          "internalType": "string",
          "name": "",
          "type": "string"
        }
      ],
      "stateMutability": "view",
      "type": "function"
    },
    {
      "inputs": [
        {
          "internalType": "address",
          "name": "from",
          "type": "address"
        },
        {
          "internalType": "address",
          "name": "to",
          "type": "address"
        },
        {
          "internalType": "uint256",
          "name": "tokenId",
          "type": "uint256"
        }
      ],
      "name": "transferFrom",
      "outputs": [],
      "stateMutability": "nonpayable",
      "type": "function"
    },
    {
      "inputs": [
        {
          "internalType": "address",
          "name": "newOwner",
          "type": "address"
        }
      ],
      "name": "transferOwnership",
      "outputs": [],
      "stateMutability": "nonpayable",
      "type": "function"
    },
    {
      "inputs": [],
      "name": "withdraw",
      "outputs": [],
      "stateMutability": "nonpayable",
      "type": "function"
    }
  ],
  "bytecode": "0x6101406040523480156200001257600080fd5b506040516200471b3803806200471b8339818101604052810190620000389190620007da565b6040518060400160405280600f81526020017f52616e646f6d2049504653204e465400000000000000000000000000000000008152506040518060400160405280600381526020017f52494e0000000000000000000000000000000000000000000000000000000000815250878073ffffffffffffffffffffffffffffffffffffffff1660808173ffffffffffffffffffffffffffffffffffffffff1681525050508160009081620000eb919062000ad6565b508060019081620000fd919062000ad6565b5050506200012062000114620001c760201b60201c565b620001cf60201b60201c565b8573ffffffffffffffffffffffffffffffffffffffff1660a08173ffffffffffffffffffffffffffffffffffffffff16815250508467ffffffffffffffff1660c08167ffffffffffffffff16815250508360e081815250508263ffffffff166101008163ffffffff168152505081600a906003620001a09291906200030f565b50806101208181525050620001bb826200029560201b60201c565b50505050505062000bbd565b600033905090565b6000600760009054906101000a900473ffffffffffffffffffffffffffffffffffffffff16905081600760006101000a81548173ffffffffffffffffffffffffffffffffffffffff021916908373ffffffffffffffffffffffffffffffffffffffff1602179055508173ffffffffffffffffffffffffffffffffffffffff168173ffffffffffffffffffffffffffffffffffffffff167f8be0079c531659141344cd1fd0a4f28419497f9722a3daafe3b4186f6b6457e060405160405180910390a35050565b600b60009054906101000a900460ff1615620002dd576040517fddf8bf7000000000000000000000000000000000000000000000000000000000815260040160405180910390fd5b80600a906003620002f09291906200030f565b506001600b60006101000a81548160ff02191690831515021790555050565b8280548282559060005260206000209081019282156200035c579160200282015b828111156200035b5782518290816200034a919062000ad6565b509160200191906001019062000330565b5b5090506200036b91906200036f565b5090565b5b8082111562000393576000818162000389919062000397565b5060010162000370565b5090565b508054620003a590620008cf565b6000825580601f10620003b95750620003da565b601f016020900490600052602060002090810190620003d99190620003dd565b5b50565b5b80821115620003f8576000816000905550600101620003de565b5090565b6000604051905090565b600080fd5b600080fd5b600073ffffffffffffffffffffffffffffffffffffffff82169050919050565b60006200043d8262000410565b9050919050565b6200044f8162000430565b81146200045b57600080fd5b50565b6000815190506200046f8162000444565b92915050565b600067ffffffffffffffff82169050919050565b620004948162000475565b8114620004a057600080fd5b50565b600081519050620004b48162000489565b92915050565b6000819050919050565b620004cf81620004ba565b8114620004db57600080fd5b50565b600081519050620004ef81620004c4565b92915050565b600063ffffffff82169050919050565b6200051081620004f5565b81146200051c57600080fd5b50565b600081519050620005308162000505565b92915050565b600080fd5b6000601f19601f8301169050919050565b7f4e487b7100000000000000000000000000000000000000000000000000000000600052604160045260246000fd5b62000586826200053b565b810181811067ffffffffffffffff82111715620005a857620005a76200054c565b5b80604052505050565b6000620005bd620003fc565b9050620005cb82826200057b565b919050565b600067ffffffffffffffff821115620005ee57620005ed6200054c565b5b602082029050919050565b600080fd5b600080fd5b600067ffffffffffffffff8211156200062157620006206200054c565b5b6200062c826200053b565b9050602081019050919050565b60005b83811015620006595780820151818401526020810190506200063c565b60008484015250505050565b60006200067c620006768462000603565b620005b1565b9050828152602081018484840111156200069b576200069a620005fe565b5b620006a884828562000639565b509392505050565b600082601f830112620006c857620006c762000536565b5b8151620006da84826020860162000665565b91505092915050565b6000620006fa620006f484620005d0565b620005b1565b90508060208402830185811115620007175762000716620005f9565b5b835b818110156200076557805167ffffffffffffffff81111562000740576200073f62000536565b5b8086016200074f8982620006b0565b8552602085019450505060208101905062000719565b5050509392505050565b600082601f83011262000787576200078662000536565b5b600362000796848285620006e3565b91505092915050565b6000819050919050565b620007b4816200079f565b8114620007c057600080fd5b50565b600081519050620007d481620007a9565b92915050565b60008060008060008060c08789031215620007fa57620007f962000406565b5b60006200080a89828a016200045e565b96505060206200081d89828a01620004a3565b95505060406200083089828a01620004de565b94505060606200084389828a016200051f565b935050608087015167ffffffffffffffff8111156200086757620008666200040b565b5b6200087589828a016200076f565b92505060a06200088889828a01620007c3565b9150509295509295509295565b600081519050919050565b7f4e487b7100000000000000000000000000000000000000000000000000000000600052602260045260246000fd5b60006002820490506001821680620008e857607f821691505b602082108103620008fe57620008fd620008a0565b5b50919050565b60008190508160005260206000209050919050565b60006020601f8301049050919050565b600082821b905092915050565b600060088302620009687fffffffffffffffffffffffffffffffffffffffffffffffffffffffffffffffff8262000929565b62000974868362000929565b95508019841693508086168417925050509392505050565b6000819050919050565b6000620009b7620009b1620009ab846200079f565b6200098c565b6200079f565b9050919050565b6000819050919050565b620009d38362000996565b620009eb620009e282620009be565b84845462000936565b825550505050565b600090565b62000a02620009f3565b62000a0f818484620009c8565b505050565b5b8181101562000a375762000a2b600082620009f8565b60018101905062000a15565b5050565b601f82111562000a865762000a508162000904565b62000a5b8462000919565b8101602085101562000a6b578190505b62000a8362000a7a8562000919565b83018262000a14565b50505b505050565b600082821c905092915050565b600062000aab6000198460080262000a8b565b1980831691505092915050565b600062000ac6838362000a98565b9150826002028217905092915050565b62000ae18262000895565b67ffffffffffffffff81111562000afd5762000afc6200054c565b5b62000b098254620008cf565b62000b1682828562000a3b565b600060209050601f83116001811462000b4e576000841562000b39578287015190505b62000b45858262000ab8565b86555062000bb5565b601f19841662000b5e8662000904565b60005b8281101562000b885784890151825560018201915060208501945060208101905062000b61565b8683101562000ba8578489015162000ba4601f89168262000a98565b8355505b6001600288020188555050505b505050505050565b60805160a05160c05160e0516101005161012051613b0062000c1b60003960008181610d6d0152610f660152600061104001526000610ffc0152600061101d01526000610fc0015260008181610916015261096a0152613b006000f3fe6080604052600436106101815760003560e01c8063715018a6116100d1578063a51cccf31161008a578063c87b56dd11610064578063c87b56dd14610575578063e985e9c5146105b2578063ee89dab4146105ef578063f2fde38b1461061a57610181565b8063a51cccf3146104f1578063aa1524911461052e578063b88d4fde1461054c57610181565b8063715018a6146103f35780637a5caab31461040a5780638da5cb5b1461043557806395d89b4114610460578063a22cb4651461048b578063a36f573b146104b457610181565b80633af259751161013e5780635dacf5f4116101185780635dacf5f4146103235780636352211e1461034e5780636e02007d1461038b57806370a08231146103b657610181565b80633af25975146102a65780633ccfd60b146102e357806342842e0e146102fa57610181565b806301ffc9a71461018657806306fdde03146101c3578063081812fc146101ee578063095ea7b31461022b5780631fe543e31461025457806323b872dd1461027d575b600080fd5b34801561019257600080fd5b506101ad60048036038101906101a8919061245d565b610643565b6040516101ba91906124a5565b60405180910390f35b3480156101cf57600080fd5b506101d8610725565b6040516101e59190612550565b60405180910390f35b3480156101fa57600080fd5b50610215600480360381019061021091906125a8565b6107b7565b6040516102229190612616565b60405180910390f35b34801561023757600080fd5b50610252600480360381019061024d919061265d565b6107fd565b005b34801561026057600080fd5b5061027b600480360381019061027691906127e5565b610914565b005b34801561028957600080fd5b506102a4600480360381019061029f9190612841565b6109d4565b005b3480156102b257600080fd5b506102cd60048036038101906102c891906125a8565b610a34565b6040516102da9190612550565b60405180910390f35b3480156102ef57600080fd5b506102f8610ae4565b005b34801561030657600080fd5b50610321600480360381019061031c9190612841565b610b98565b005b34801561032f57600080fd5b50610338610bb8565b604051610345919061293f565b60405180910390f35b34801561035a57600080fd5b50610375600480360381019061037091906125a8565b610be3565b6040516103829190612616565b60405180910390f35b34801561039757600080fd5b506103a0610c94565b6040516103ad9190612969565b60405180910390f35b3480156103c257600080fd5b506103dd60048036038101906103d89190612984565b610c9e565b6040516103ea9190612969565b60405180910390f35b3480156103ff57600080fd5b50610408610d55565b005b34801561041657600080fd5b5061041f610d69565b60405161042c9190612969565b60405180910390f35b34801561044157600080fd5b5061044a610d91565b6040516104579190612616565b60405180910390f35b34801561046c57600080fd5b50610475610dbb565b6040516104829190612550565b60405180910390f35b34801561049757600080fd5b506104b260048036038101906104ad91906129dd565b610e4d565b005b3480156104c057600080fd5b506104db60048036038101906104d691906125a8565b610e63565b6040516104e89190612616565b60405180910390f35b3480156104fd57600080fd5b50610518600480360381019061051391906125a8565b610e96565b6040516105259190612a94565b60405180910390f35b610536610f62565b6040516105439190612969565b60405180910390f35b34801561055857600080fd5b50610573600480360381019061056e9190612b64565b611153565b005b34801561058157600080fd5b5061059c600480360381019061059791906125a8565b6111b5565b6040516105a99190612550565b60405180910390f35b3480156105be57600080fd5b506105d960048036038101906105d49190612be7565b6112c7565b6040516105e691906124a5565b60405180910390f35b3480156105fb57600080fd5b5061060461135b565b60405161061191906124a5565b60405180910390f35b34801561062657600080fd5b50610641600480360381019061063c9190612984565b611372565b005b60007f80ac58cd000000000000000000000000000000000000000000000000000000007bffffffffffffffffffffffffffffffffffffffffffffffffffffffff1916827bffffffffffffffffffffffffffffffffffffffffffffffffffffffff1916148061070e57507f5b5e139f000000000000000000000000000000000000000000000000000000007bffffffffffffffffffffffffffffffffffffffffffffffffffffffff1916827bffffffffffffffffffffffffffffffffffffffffffffffffffffffff1916145b8061071e575061071d826113f5565b5b9050919050565b60606000805461073490612c56565b80601f016020809104026020016040519081016040528092919081815260200182805461076090612c56565b80156107ad5780601f10610782576101008083540402835291602001916107ad565b820191906000526020600020905b81548152906001019060200180831161079057829003601f168201915b5050505050905090565b60006107c28261145f565b6004600083815260200190815260200160002060009054906101000a900473ffffffffffffffffffffffffffffffffffffffff169050919050565b600061080882610be3565b90508073ffffffffffffffffffffffffffffffffffffffff168373ffffffffffffffffffffffffffffffffffffffff1603610878576040517f08c379a000000000000000000000000000000000000000000000000000000000815260040161086f90612cf9565b60405180910390fd5b8073ffffffffffffffffffffffffffffffffffffffff166108976114aa565b73ffffffffffffffffffffffffffffffffffffffff1614806108c657506108c5816108c06114aa565b6112c7565b5b610905576040517f08c379a00000000000000000000000000000000000000000000000000000000081526004016108fc90612d8b565b60405180910390fd5b61090f83836114b2565b505050565b7f000000000000000000000000000000000000000000000000000000000000000073ffffffffffffffffffffffffffffffffffffffff163373ffffffffffffffffffffffffffffffffffffffff16146109c657337f00000000000000000000000000000000000000000000000000000000000000006040517f1cf993f40000000000000000000000000000000000000000000000000000000081526004016109bd929190612dab565b60405180910390fd5b6109d0828261156b565b5050565b6109e56109df6114aa565b8261170a565b610a24576040517f08c379a0000000000000000000000000000000000000000000000000000000008152600401610a1b90612e46565b60405180910390fd5b610a2f83838361179f565b505050565b6060600a8281548110610a4a57610a49612e66565b5b906000526020600020018054610a5f90612c56565b80601f0160208091040260200160405190810160405280929190818152602001828054610a8b90612c56565b8015610ad85780601f10610aad57610100808354040283529160200191610ad8565b820191906000526020600020905b815481529060010190602001808311610abb57829003601f168201915b50505050509050919050565b610aec611a05565b600047905060003373ffffffffffffffffffffffffffffffffffffffff1682604051610b1790612ec6565b60006040518083038185875af1925050503d8060008114610b54576040519150601f19603f3d011682016040523d82523d6000602084013e610b59565b606091505b5050905080610b94576040517fca7e25b700000000000000000000000000000000000000000000000000000000815260040160405180910390fd5b5050565b610bb383838360405180602001604052806000815250611153565b505050565b610bc06123cf565b6040518060600160405280600a8152602001601e81526020016064815250905090565b6000806002600084815260200190815260200160002060009054906101000a900473ffffffffffffffffffffffffffffffffffffffff169050600073ffffffffffffffffffffffffffffffffffffffff168173ffffffffffffffffffffffffffffffffffffffff1603610c8b576040517f08c379a0000000000000000000000000000000000000000000000000000000008152600401610c8290612f27565b60405180910390fd5b80915050919050565b6000600954905090565b60008073ffffffffffffffffffffffffffffffffffffffff168273ffffffffffffffffffffffffffffffffffffffff1603610d0e576040517f08c379a0000000000000000000000000000000000000000000000000000000008152600401610d0590612fb9565b60405180910390fd5b600360008373ffffffffffffffffffffffffffffffffffffffff1673ffffffffffffffffffffffffffffffffffffffff168152602001908152602001600020549050919050565b610d5d611a05565b610d676000611a83565b565b60007f0000000000000000000000000000000000000000000000000000000000000000905090565b6000600760009054906101000a900473ffffffffffffffffffffffffffffffffffffffff16905090565b606060018054610dca90612c56565b80601f0160208091040260200160405190810160405280929190818152602001828054610df690612c56565b8015610e435780601f10610e1857610100808354040283529160200191610e43565b820191906000526020600020905b815481529060010190602001808311610e2657829003601f168201915b5050505050905090565b610e5f610e586114aa565b8383611b49565b5050565b60086020528060005260406000206000915054906101000a900473ffffffffffffffffffffffffffffffffffffffff1681565b600080600090506000610ea7610bb8565b905060005b6003811015610f2a57828510158015610edb5750818160038110610ed357610ed2612e66565b5b602002015185105b15610efd57806002811115610ef357610ef2612a1d565b5b9350505050610f5d565b818160038110610f1057610f0f612e66565b5b602002015192508080610f2290613008565b915050610eac565b506040517f12806c9d00000000000000000000000000000000000000000000000000000000815260040160405180910390fd5b919050565b60007f0000000000000000000000000000000000000000000000000000000000000000341015610fbe576040517fb90f491000000000000000000000000000000000000000000000000000000000815260040160405180910390fd5b7f000000000000000000000000000000000000000000000000000000000000000073ffffffffffffffffffffffffffffffffffffffff16635d3b1d307f00000000000000000000000000000000000000000000000000000000000000007f000000000000000000000000000000000000000000000000000000000000000060037f000000000000000000000000000000000000000000000000000000000000000060016040518663ffffffff1660e01b81526004016110819594939291906130c8565b6020604051808303816000875af11580156110a0573d6000803e3d6000fd5b505050506040513d601f19601f820116820180604052508101906110c49190613130565b9050336008600083815260200190815260200160002060006101000a81548173ffffffffffffffffffffffffffffffffffffffff021916908373ffffffffffffffffffffffffffffffffffffffff160217905550807ff873236e6cc0ecc5be1a9a35c95ee5b8d1ac4cc7bfef0cc5060391d6cc98e26b336040516111489190612616565b60405180910390a290565b61116461115e6114aa565b8361170a565b6111a3576040517f08c379a000000000000000000000000000000000000000000000000000000000815260040161119a90612e46565b60405180910390fd5b6111af84848484611cb5565b50505050565b60606111c08261145f565b60006006600084815260200190815260200160002080546111e090612c56565b80601f016020809104026020016040519081016040528092919081815260200182805461120c90612c56565b80156112595780601f1061122e57610100808354040283529160200191611259565b820191906000526020600020905b81548152906001019060200180831161123c57829003601f168201915b50505050509050600061126a611d11565b9050600081510361127f5781925050506112c2565b6000825111156112b457808260405160200161129c929190613199565b604051602081830303815290604052925050506112c2565b6112bd84611d28565b925050505b919050565b6000600560008473ffffffffffffffffffffffffffffffffffffffff1673ffffffffffffffffffffffffffffffffffffffff16815260200190815260200160002060008373ffffffffffffffffffffffffffffffffffffffff1673ffffffffffffffffffffffffffffffffffffffff16815260200190815260200160002060009054906101000a900460ff16905092915050565b6000600b60009054906101000a900460ff16905090565b61137a611a05565b600073ffffffffffffffffffffffffffffffffffffffff168173ffffffffffffffffffffffffffffffffffffffff16036113e9576040517f08c379a00000000000000000000000000000000000000000000000000000000081526004016113e09061322f565b60405180910390fd5b6113f281611a83565b50565b60007f01ffc9a7000000000000000000000000000000000000000000000000000000007bffffffffffffffffffffffffffffffffffffffffffffffffffffffff1916827bffffffffffffffffffffffffffffffffffffffffffffffffffffffff1916149050919050565b61146881611d90565b6114a7576040517f08c379a000000000000000000000000000000000000000000000000000000000815260040161149e90612f27565b60405180910390fd5b50565b600033905090565b816004600083815260200190815260200160002060006101000a81548173ffffffffffffffffffffffffffffffffffffffff021916908373ffffffffffffffffffffffffffffffffffffffff160217905550808273ffffffffffffffffffffffffffffffffffffffff1661152583610be3565b73ffffffffffffffffffffffffffffffffffffffff167f8c5be1e5ebec7d5bd14f71427d1e84f3dd0314c0f7b2291e5b200ac8c7c3b92560405160405180910390a45050565b60006008600084815260200190815260200160002060009054906101000a900473ffffffffffffffffffffffffffffffffffffffff1690506000600954905060006064846000815181106115c2576115c1612e66565b5b60200260200101516115d4919061327e565b905060006115e182610e96565b90506001600960008282546115f691906132af565b925050819055506116078484611dfc565b6116c983600a8360028111156116205761161f612a1d565b5b8154811061163157611630612e66565b5b90600052602060002001805461164690612c56565b80601f016020809104026020016040519081016040528092919081815260200182805461167290612c56565b80156116bf5780601f10611694576101008083540402835291602001916116bf565b820191906000526020600020905b8154815290600101906020018083116116a257829003601f168201915b5050505050611e1a565b7f8a269f26b688e110e9cbd887d163dab35cae678fa353a0292de532c0cac1ecdc81856040516116fa9291906132e3565b60405180910390a1505050505050565b60008061171683610be3565b90508073ffffffffffffffffffffffffffffffffffffffff168473ffffffffffffffffffffffffffffffffffffffff161480611758575061175781856112c7565b5b8061179657508373ffffffffffffffffffffffffffffffffffffffff1661177e846107b7565b73ffffffffffffffffffffffffffffffffffffffff16145b91505092915050565b8273ffffffffffffffffffffffffffffffffffffffff166117bf82610be3565b73ffffffffffffffffffffffffffffffffffffffff1614611815576040517f08c379a000000000000000000000000000000000000000000000000000000000815260040161180c9061337e565b60405180910390fd5b600073ffffffffffffffffffffffffffffffffffffffff168273ffffffffffffffffffffffffffffffffffffffff1603611884576040517f08c379a000000000000000000000000000000000000000000000000000000000815260040161187b90613410565b60405180910390fd5b61188f838383611e87565b61189a6000826114b2565b6001600360008573ffffffffffffffffffffffffffffffffffffffff1673ffffffffffffffffffffffffffffffffffffffff16815260200190815260200160002060008282546118ea9190613430565b925050819055506001600360008473ffffffffffffffffffffffffffffffffffffffff1673ffffffffffffffffffffffffffffffffffffffff168152602001908152602001600020600082825461194191906132af565b92505081905550816002600083815260200190815260200160002060006101000a81548173ffffffffffffffffffffffffffffffffffffffff021916908373ffffffffffffffffffffffffffffffffffffffff160217905550808273ffffffffffffffffffffffffffffffffffffffff168473ffffffffffffffffffffffffffffffffffffffff167fddf252ad1be2c89b69c2b068fc378daa952ba7f163c4a11628f55a4df523b3ef60405160405180910390a4611a00838383611e8c565b505050565b611a0d6114aa565b73ffffffffffffffffffffffffffffffffffffffff16611a2b610d91565b73ffffffffffffffffffffffffffffffffffffffff1614611a81576040517f08c379a0000000000000000000000000000000000000000000000000000000008152600401611a78906134b0565b60405180910390fd5b565b6000600760009054906101000a900473ffffffffffffffffffffffffffffffffffffffff16905081600760006101000a81548173ffffffffffffffffffffffffffffffffffffffff021916908373ffffffffffffffffffffffffffffffffffffffff1602179055508173ffffffffffffffffffffffffffffffffffffffff168173ffffffffffffffffffffffffffffffffffffffff167f8be0079c531659141344cd1fd0a4f28419497f9722a3daafe3b4186f6b6457e060405160405180910390a35050565b8173ffffffffffffffffffffffffffffffffffffffff168373ffffffffffffffffffffffffffffffffffffffff1603611bb7576040517f08c379a0000000000000000000000000000000000000000000000000000000008152600401611bae9061351c565b60405180910390fd5b80600560008573ffffffffffffffffffffffffffffffffffffffff1673ffffffffffffffffffffffffffffffffffffffff16815260200190815260200160002060008473ffffffffffffffffffffffffffffffffffffffff1673ffffffffffffffffffffffffffffffffffffffff16815260200190815260200160002060006101000a81548160ff0219169083151502179055508173ffffffffffffffffffffffffffffffffffffffff168373ffffffffffffffffffffffffffffffffffffffff167f17307eab39ab6107e8899845ad3d59bd9653f200f220920489ca2b5937696c3183604051611ca891906124a5565b60405180910390a3505050565b611cc084848461179f565b611ccc84848484611e91565b611d0b576040517f08c379a0000000000000000000000000000000000000000000000000000000008152600401611d02906135ae565b60405180910390fd5b50505050565b606060405180602001604052806000815250905090565b6060611d338261145f565b6000611d3d611d11565b90506000815111611d5d5760405180602001604052806000815250611d88565b80611d6784612018565b604051602001611d78929190613199565b6040516020818303038152906040525b915050919050565b60008073ffffffffffffffffffffffffffffffffffffffff166002600084815260200190815260200160002060009054906101000a900473ffffffffffffffffffffffffffffffffffffffff1673ffffffffffffffffffffffffffffffffffffffff1614159050919050565b611e16828260405180602001604052806000815250612178565b5050565b611e2382611d90565b611e62576040517f08c379a0000000000000000000000000000000000000000000000000000000008152600401611e5990613640565b60405180910390fd5b80600660008481526020019081526020016000209081611e82919061380c565b505050565b505050565b505050565b6000611eb28473ffffffffffffffffffffffffffffffffffffffff166121d3565b1561200b578373ffffffffffffffffffffffffffffffffffffffff1663150b7a02611edb6114aa565b8786866040518563ffffffff1660e01b8152600401611efd9493929190613933565b6020604051808303816000875af1925050508015611f3957506040513d601f19601f82011682018060405250810190611f369190613994565b60015b611fbb573d8060008114611f69576040519150601f19603f3d011682016040523d82523d6000602084013e611f6e565b606091505b506000815103611fb3576040517f08c379a0000000000000000000000000000000000000000000000000000000008152600401611faa906135ae565b60405180910390fd5b805181602001fd5b63150b7a0260e01b7bffffffffffffffffffffffffffffffffffffffffffffffffffffffff1916817bffffffffffffffffffffffffffffffffffffffffffffffffffffffff191614915050612010565b600190505b949350505050565b60606000820361205f576040518060400160405280600181526020017f30000000000000000000000000000000000000000000000000000000000000008152509050612173565b600082905060005b6000821461209157808061207a90613008565b915050600a8261208a91906139c1565b9150612067565b60008167ffffffffffffffff8111156120ad576120ac6126a2565b5b6040519080825280601f01601f1916602001820160405280156120df5781602001600182028036833780820191505090505b5090505b6000851461216c576001826120f89190613430565b9150600a85612107919061327e565b603061211391906132af565b60f81b81838151811061212957612128612e66565b5b60200101907effffffffffffffffffffffffffffffffffffffffffffffffffffffffffffff1916908160001a905350600a8561216591906139c1565b94506120e3565b8093505050505b919050565b61218283836121f6565b61218f6000848484611e91565b6121ce576040517f08c379a00000000000000000000000000000000000000000000000000000000081526004016121c5906135ae565b60405180910390fd5b505050565b6000808273ffffffffffffffffffffffffffffffffffffffff163b119050919050565b600073ffffffffffffffffffffffffffffffffffffffff168273ffffffffffffffffffffffffffffffffffffffff1603612265576040517f08c379a000000000000000000000000000000000000000000000000000000000815260040161225c90613a3e565b60405180910390fd5b61226e81611d90565b156122ae576040517f08c379a00000000000000000000000000000000000000000000000000000000081526004016122a590613aaa565b60405180910390fd5b6122ba60008383611e87565b6001600360008473ffffffffffffffffffffffffffffffffffffffff1673ffffffffffffffffffffffffffffffffffffffff168152602001908152602001600020600082825461230a91906132af565b92505081905550816002600083815260200190815260200160002060006101000a81548173ffffffffffffffffffffffffffffffffffffffff021916908373ffffffffffffffffffffffffffffffffffffffff160217905550808273ffffffffffffffffffffffffffffffffffffffff16600073ffffffffffffffffffffffffffffffffffffffff167fddf252ad1be2c89b69c2b068fc378daa952ba7f163c4a11628f55a4df523b3ef60405160405180910390a46123cb60008383611e8c565b5050565b6040518060600160405280600390602082028036833780820191505090505090565b6000604051905090565b600080fd5b600080fd5b60007fffffffff0000000000000000000000000000000000000000000000000000000082169050919050565b61243a81612405565b811461244557600080fd5b50565b60008135905061245781612431565b92915050565b600060208284031215612473576124726123fb565b5b600061248184828501612448565b91505092915050565b60008115159050919050565b61249f8161248a565b82525050565b60006020820190506124ba6000830184612496565b92915050565b600081519050919050565b600082825260208201905092915050565b60005b838110156124fa5780820151818401526020810190506124df565b60008484015250505050565b6000601f19601f8301169050919050565b6000612522826124c0565b61252c81856124cb565b935061253c8185602086016124dc565b61254581612506565b840191505092915050565b6000602082019050818103600083015261256a8184612517565b905092915050565b6000819050919050565b61258581612572565b811461259057600080fd5b50565b6000813590506125a28161257c565b92915050565b6000602082840312156125be576125bd6123fb565b5b60006125cc84828501612593565b91505092915050565b600073ffffffffffffffffffffffffffffffffffffffff82169050919050565b6000612600826125d5565b9050919050565b612610816125f5565b82525050565b600060208201905061262b6000830184612607565b92915050565b61263a816125f5565b811461264557600080fd5b50565b60008135905061265781612631565b92915050565b60008060408385031215612674576126736123fb565b5b600061268285828601612648565b925050602061269385828601612593565b9150509250929050565b600080fd5b7f4e487b7100000000000000000000000000000000000000000000000000000000600052604160045260246000fd5b6126da82612506565b810181811067ffffffffffffffff821117156126f9576126f86126a2565b5b80604052505050565b600061270c6123f1565b905061271882826126d1565b919050565b600067ffffffffffffffff821115612738576127376126a2565b5b602082029050602081019050919050565b600080fd5b600061276161275c8461271d565b612702565b9050808382526020820190506020840283018581111561278457612783612749565b5b835b818110156127ad57806127998882612593565b845260208401935050602081019050612786565b5050509392505050565b600082601f8301126127cc576127cb61269d565b5b81356127dc84826020860161274e565b91505092915050565b600080604083850312156127fc576127fb6123fb565b5b600061280a85828601612593565b925050602083013567ffffffffffffffff81111561282b5761282a612400565b5b612837858286016127b7565b9150509250929050565b60008060006060848603121561285a576128596123fb565b5b600061286886828701612648565b935050602061287986828701612648565b925050604061288a86828701612593565b9150509250925092565b600060039050919050565b600081905092915050565b6000819050919050565b6128bd81612572565b82525050565b60006128cf83836128b4565b60208301905092915050565b6000602082019050919050565b6128f181612894565b6128fb818461289f565b9250612906826128aa565b8060005b8381101561293757815161291e87826128c3565b9650612929836128db565b92505060018101905061290a565b505050505050565b600060608201905061295460008301846128e8565b92915050565b61296381612572565b82525050565b600060208201905061297e600083018461295a565b92915050565b60006020828403121561299a576129996123fb565b5b60006129a884828501612648565b91505092915050565b6129ba8161248a565b81146129c557600080fd5b50565b6000813590506129d7816129b1565b92915050565b600080604083850312156129f4576129f36123fb565b5b6000612a0285828601612648565b9250506020612a13858286016129c8565b9150509250929050565b7f4e487b7100000000000000000000000000000000000000000000000000000000600052602160045260246000fd5b60038110612a5d57612a5c612a1d565b5b50565b6000819050612a6e82612a4c565b919050565b6000612a7e82612a60565b9050919050565b612a8e81612a73565b82525050565b6000602082019050612aa96000830184612a85565b92915050565b600080fd5b600067ffffffffffffffff821115612acf57612ace6126a2565b5b612ad882612506565b9050602081019050919050565b82818337600083830152505050565b6000612b07612b0284612ab4565b612702565b905082815260208101848484011115612b2357612b22612aaf565b5b612b2e848285612ae5565b509392505050565b600082601f830112612b4b57612b4a61269d565b5b8135612b5b848260208601612af4565b91505092915050565b60008060008060808587031215612b7e57612b7d6123fb565b5b6000612b8c87828801612648565b9450506020612b9d87828801612648565b9350506040612bae87828801612593565b925050606085013567ffffffffffffffff811115612bcf57612bce612400565b5b612bdb87828801612b36565b91505092959194509250565b60008060408385031215612bfe57612bfd6123fb565b5b6000612c0c85828601612648565b9250506020612c1d85828601612648565b9150509250929050565b7f4e487b7100000000000000000000000000000000000000000000000000000000600052602260045260246000fd5b60006002820490506001821680612c6e57607f821691505b602082108103612c8157612c80612c27565b5b50919050565b7f4552433732313a20617070726f76616c20746f2063757272656e74206f776e6560008201527f7200000000000000000000000000000000000000000000000000000000000000602082015250565b6000612ce36021836124cb565b9150612cee82612c87565b604082019050919050565b60006020820190508181036000830152612d1281612cd6565b9050919050565b7f4552433732313a20617070726f76652063616c6c6572206973206e6f7420746f60008201527f6b656e206f776e6572206e6f7220617070726f76656420666f7220616c6c0000602082015250565b6000612d75603e836124cb565b9150612d8082612d19565b604082019050919050565b60006020820190508181036000830152612da481612d68565b9050919050565b6000604082019050612dc06000830185612607565b612dcd6020830184612607565b9392505050565b7f4552433732313a2063616c6c6572206973206e6f7420746f6b656e206f776e6560008201527f72206e6f7220617070726f766564000000000000000000000000000000000000602082015250565b6000612e30602e836124cb565b9150612e3b82612dd4565b604082019050919050565b60006020820190508181036000830152612e5f81612e23565b9050919050565b7f4e487b7100000000000000000000000000000000000000000000000000000000600052603260045260246000fd5b600081905092915050565b50565b6000612eb0600083612e95565b9150612ebb82612ea0565b600082019050919050565b6000612ed182612ea3565b9150819050919050565b7f4552433732313a20696e76616c696420746f6b656e2049440000000000000000600082015250565b6000612f116018836124cb565b9150612f1c82612edb565b602082019050919050565b60006020820190508181036000830152612f4081612f04565b9050919050565b7f4552433732313a2061646472657373207a65726f206973206e6f74206120766160008201527f6c6964206f776e65720000000000000000000000000000000000000000000000602082015250565b6000612fa36029836124cb565b9150612fae82612f47565b604082019050919050565b60006020820190508181036000830152612fd281612f96565b9050919050565b7f4e487b7100000000000000000000000000000000000000000000000000000000600052601160045260246000fd5b600061301382612572565b91507fffffffffffffffffffffffffffffffffffffffffffffffffffffffffffffffff820361304557613044612fd9565b5b600182019050919050565b6000819050919050565b61306381613050565b82525050565b600067ffffffffffffffff82169050919050565b61308681613069565b82525050565b600061ffff82169050919050565b6130a38161308c565b82525050565b600063ffffffff82169050919050565b6130c2816130a9565b82525050565b600060a0820190506130dd600083018861305a565b6130ea602083018761307d565b6130f7604083018661309a565b61310460608301856130b9565b61311160808301846130b9565b9695505050505050565b60008151905061312a8161257c565b92915050565b600060208284031215613146576131456123fb565b5b60006131548482850161311b565b91505092915050565b600081905092915050565b6000613173826124c0565b61317d818561315d565b935061318d8185602086016124dc565b80840191505092915050565b60006131a58285613168565b91506131b18284613168565b91508190509392505050565b7f4f776e61626c653a206e6577206f776e657220697320746865207a65726f206160008201527f6464726573730000000000000000000000000000000000000000000000000000602082015250565b60006132196026836124cb565b9150613224826131bd565b604082019050919050565b600060208201905081810360008301526132488161320c565b9050919050565b7f4e487b7100000000000000000000000000000000000000000000000000000000600052601260045260246000fd5b600061328982612572565b915061329483612572565b9250826132a4576132a361324f565b5b828206905092915050565b60006132ba82612572565b91506132c583612572565b92508282019050808211156132dd576132dc612fd9565b5b92915050565b60006040820190506132f86000830185612a85565b6133056020830184612607565b9392505050565b7f4552433732313a207472616e736665722066726f6d20696e636f72726563742060008201527f6f776e6572000000000000000000000000000000000000000000000000000000602082015250565b60006133686025836124cb565b91506133738261330c565b604082019050919050565b600060208201905081810360008301526133978161335b565b9050919050565b7f4552433732313a207472616e7366657220746f20746865207a65726f2061646460008201527f7265737300000000000000000000000000000000000000000000000000000000602082015250565b60006133fa6024836124cb565b91506134058261339e565b604082019050919050565b60006020820190508181036000830152613429816133ed565b9050919050565b600061343b82612572565b915061344683612572565b925082820390508181111561345e5761345d612fd9565b5b92915050565b7f4f776e61626c653a2063616c6c6572206973206e6f7420746865206f776e6572600082015250565b600061349a6020836124cb565b91506134a582613464565b602082019050919050565b600060208201905081810360008301526134c98161348d565b9050919050565b7f4552433732313a20617070726f766520746f2063616c6c657200000000000000600082015250565b60006135066019836124cb565b9150613511826134d0565b602082019050919050565b60006020820190508181036000830152613535816134f9565b9050919050565b7f4552433732313a207472616e7366657220746f206e6f6e20455243373231526560008201527f63656976657220696d706c656d656e7465720000000000000000000000000000602082015250565b60006135986032836124cb565b91506135a38261353c565b604082019050919050565b600060208201905081810360008301526135c78161358b565b9050919050565b7f45524337323155524953746f726167653a2055524920736574206f66206e6f6e60008201527f6578697374656e7420746f6b656e000000000000000000000000000000000000602082015250565b600061362a602e836124cb565b9150613635826135ce565b604082019050919050565b600060208201905081810360008301526136598161361d565b9050919050565b60008190508160005260206000209050919050565b60006020601f8301049050919050565b600082821b905092915050565b6000600883026136c27fffffffffffffffffffffffffffffffffffffffffffffffffffffffffffffffff82613685565b6136cc8683613685565b95508019841693508086168417925050509392505050565b6000819050919050565b60006137096137046136ff84612572565b6136e4565b612572565b9050919050565b6000819050919050565b613723836136ee565b61373761372f82613710565b848454613692565b825550505050565b600090565b61374c61373f565b61375781848461371a565b505050565b5b8181101561377b57613770600082613744565b60018101905061375d565b5050565b601f8211156137c05761379181613660565b61379a84613675565b810160208510156137a9578190505b6137bd6137b585613675565b83018261375c565b50505b505050565b600082821c905092915050565b60006137e3600019846008026137c5565b1980831691505092915050565b60006137fc83836137d2565b9150826002028217905092915050565b613815826124c0565b67ffffffffffffffff81111561382e5761382d6126a2565b5b6138388254612c56565b61384382828561377f565b600060209050601f8311600181146138765760008415613864578287015190505b61386e85826137f0565b8655506138d6565b601f19841661388486613660565b60005b828110156138ac57848901518255600182019150602085019450602081019050613887565b868310156138c957848901516138c5601f8916826137d2565b8355505b6001600288020188555050505b505050505050565b600081519050919050565b600082825260208201905092915050565b6000613905826138de565b61390f81856138e9565b935061391f8185602086016124dc565b61392881612506565b840191505092915050565b60006080820190506139486000830187612607565b6139556020830186612607565b613962604083018561295a565b818103606083015261397481846138fa565b905095945050505050565b60008151905061398e81612431565b92915050565b6000602082840312156139aa576139a96123fb565b5b60006139b88482850161397f565b91505092915050565b60006139cc82612572565b91506139d783612572565b9250826139e7576139e661324f565b5b828204905092915050565b7f4552433732313a206d696e7420746f20746865207a65726f2061646472657373600082015250565b6000613a286020836124cb565b9150613a33826139f2565b602082019050919050565b60006020820190508181036000830152613a5781613a1b565b9050919050565b7f4552433732313a20746f6b656e20616c7265616479206d696e74656400000000600082015250565b6000613a94601c836124cb565b9150613a9f82613a5e565b602082019050919050565b60006020820190508181036000830152613ac381613a87565b905091905056fea26469706673582212203186be1d8a1c5532515880175c63eeb38e51bc93b41959338a07c84c355d7b4064736f6c63430008110033",
  "linkReferences": {},
  "deployedLinkReferences": {}
}