{
  "_format": "hh-sol-artifact-1",
  "contractName": "RandomIpfsNft",
  "sourceName": "contracts/RandomIpfsNft.sol",
  "abi": [
    {
      "inputs": [
        {
          "internalType": "address",
          "name": "vrfCoordinatorV2",
          "type": "address"
        },
        {
          "internalType": "uint64",
          "name": "subscriptionId",
          "type": "uint64"
        },
        {
          "internalType": "bytes32",
          "name": "gasLane",
          "type": "bytes32"
        },
        {
          "internalType": "uint32",
          "name": "callbackGasLimit",
          "type": "uint32"
        },
        {
          "internalType": "string[3]",
          "name": "dogTokenUris",
          "type": "string[3]"
        },
        {
          "internalType": "uint256",
          "name": "mintFee",
          "type": "uint256"
        }
      ],
      "stateMutability": "nonpayable",
      "type": "constructor"
    },
    {
      "inputs": [
        {
          "internalType": "address",
          "name": "have",
          "type": "address"
        },
        {
          "internalType": "address",
          "name": "want",
          "type": "address"
        }
      ],
      "name": "OnlyCoordinatorCanFulfill",
      "type": "error"
    },
    {
      "inputs": [],
      "name": "RandomIpfsNft__NeedMoreETHSent",
      "type": "error"
    },
    {
      "inputs": [],
      "name": "RandomIpfsNft__RangeOutOfBounds",
      "type": "error"
    },
    {
      "inputs": [],
      "name": "RandomIpfsNft__TransferFailed",
      "type": "error"
    },
    {
      "anonymous": false,
      "inputs": [
        {
          "indexed": true,
          "internalType": "address",
          "name": "owner",
          "type": "address"
        },
        {
          "indexed": true,
          "internalType": "address",
          "name": "approved",
          "type": "address"
        },
        {
          "indexed": true,
          "internalType": "uint256",
          "name": "tokenId",
          "type": "uint256"
        }
      ],
      "name": "Approval",
      "type": "event"
    },
    {
      "anonymous": false,
      "inputs": [
        {
          "indexed": true,
          "internalType": "address",
          "name": "owner",
          "type": "address"
        },
        {
          "indexed": true,
          "internalType": "address",
          "name": "operator",
          "type": "address"
        },
        {
          "indexed": false,
          "internalType": "bool",
          "name": "approved",
          "type": "bool"
        }
      ],
      "name": "ApprovalForAll",
      "type": "event"
    },
    {
      "anonymous": false,
      "inputs": [
        {
          "indexed": false,
          "internalType": "enum RandomIpfsNft.Breed",
          "name": "dogBreed",
          "type": "uint8"
        },
        {
          "indexed": false,
          "internalType": "address",
          "name": "minter",
          "type": "address"
        }
      ],
      "name": "NftMinted",
      "type": "event"
    },
    {
      "anonymous": false,
      "inputs": [
        {
          "indexed": true,
          "internalType": "uint256",
          "name": "requestId",
          "type": "uint256"
        },
        {
          "indexed": false,
          "internalType": "address",
          "name": "requester",
          "type": "address"
        }
      ],
      "name": "NftRequested",
      "type": "event"
    },
    {
      "anonymous": false,
      "inputs": [
        {
          "indexed": true,
          "internalType": "address",
          "name": "previousOwner",
          "type": "address"
        },
        {
          "indexed": true,
          "internalType": "address",
          "name": "newOwner",
          "type": "address"
        }
      ],
      "name": "OwnershipTransferred",
      "type": "event"
    },
    {
      "anonymous": false,
      "inputs": [
        {
          "indexed": true,
          "internalType": "address",
          "name": "from",
          "type": "address"
        },
        {
          "indexed": true,
          "internalType": "address",
          "name": "to",
          "type": "address"
        },
        {
          "indexed": true,
          "internalType": "uint256",
          "name": "tokenId",
          "type": "uint256"
        }
      ],
      "name": "Transfer",
      "type": "event"
    },
    {
      "inputs": [
        {
          "internalType": "address",
          "name": "to",
          "type": "address"
        },
        {
          "internalType": "uint256",
          "name": "tokenId",
          "type": "uint256"
        }
      ],
      "name": "approve",
      "outputs": [],
      "stateMutability": "nonpayable",
      "type": "function"
    },
    {
      "inputs": [
        {
          "internalType": "address",
          "name": "owner",
          "type": "address"
        }
      ],
      "name": "balanceOf",
      "outputs": [
        {
          "internalType": "uint256",
          "name": "",
          "type": "uint256"
        }
      ],
      "stateMutability": "view",
      "type": "function"
    },
    {
      "inputs": [
        {
          "internalType": "uint256",
          "name": "tokenId",
          "type": "uint256"
        }
      ],
      "name": "getApproved",
      "outputs": [
        {
          "internalType": "address",
          "name": "",
          "type": "address"
        }
      ],
      "stateMutability": "view",
      "type": "function"
    },
    {
      "inputs": [
        {
          "internalType": "uint256",
          "name": "moddedRng",
          "type": "uint256"
        }
      ],
      "name": "getBreedFromModdedRng",
      "outputs": [
        {
          "internalType": "enum RandomIpfsNft.Breed",
          "name": "",
          "type": "uint8"
        }
      ],
      "stateMutability": "pure",
      "type": "function"
    },
    {
      "inputs": [],
      "name": "getChanceArray",
      "outputs": [
        {
          "internalType": "uint256[3]",
          "name": "",
          "type": "uint256[3]"
        }
      ],
      "stateMutability": "pure",
      "type": "function"
    },
    {
      "inputs": [
        {
          "internalType": "uint256",
          "name": "index",
          "type": "uint256"
        }
      ],
      "name": "getDogTokenUris",
      "outputs": [
        {
          "internalType": "string",
          "name": "",
          "type": "string"
        }
      ],
      "stateMutability": "view",
      "type": "function"
    },
    {
      "inputs": [],
      "name": "getMintFee",
      "outputs": [
        {
          "internalType": "uint256",
          "name": "",
          "type": "uint256"
        }
      ],
      "stateMutability": "view",
      "type": "function"
    },
    {
      "inputs": [],
      "name": "getTokenCounter",
      "outputs": [
        {
          "internalType": "uint256",
          "name": "",
          "type": "uint256"
        }
      ],
      "stateMutability": "view",
      "type": "function"
    },
    {
      "inputs": [
        {
          "internalType": "address",
          "name": "owner",
          "type": "address"
        },
        {
          "internalType": "address",
          "name": "operator",
          "type": "address"
        }
      ],
      "name": "isApprovedForAll",
      "outputs": [
        {
          "internalType": "bool",
          "name": "",
          "type": "bool"
        }
      ],
      "stateMutability": "view",
      "type": "function"
    },
    {
      "inputs": [],
      "name": "name",
      "outputs": [
        {
          "internalType": "string",
          "name": "",
          "type": "string"
        }
      ],
      "stateMutability": "view",
      "type": "function"
    },
    {
      "inputs": [],
      "name": "owner",
      "outputs": [
        {
          "internalType": "address",
          "name": "",
          "type": "address"
        }
      ],
      "stateMutability": "view",
      "type": "function"
    },
    {
      "inputs": [
        {
          "internalType": "uint256",
          "name": "tokenId",
          "type": "uint256"
        }
      ],
      "name": "ownerOf",
      "outputs": [
        {
          "internalType": "address",
          "name": "",
          "type": "address"
        }
      ],
      "stateMutability": "view",
      "type": "function"
    },
    {
      "inputs": [
        {
          "internalType": "uint256",
          "name": "requestId",
          "type": "uint256"
        },
        {
          "internalType": "uint256[]",
          "name": "randomWords",
          "type": "uint256[]"
        }
      ],
      "name": "rawFulfillRandomWords",
      "outputs": [],
      "stateMutability": "nonpayable",
      "type": "function"
    },
    {
      "inputs": [],
      "name": "renounceOwnership",
      "outputs": [],
      "stateMutability": "nonpayable",
      "type": "function"
    },
    {
      "inputs": [],
      "name": "requestNft",
      "outputs": [
        {
          "internalType": "uint256",
          "name": "requestId",
          "type": "uint256"
        }
      ],
      "stateMutability": "payable",
      "type": "function"
    },
    {
      "inputs": [
        {
          "internalType": "uint256",
          "name": "",
          "type": "uint256"
        }
      ],
      "name": "s_requestIdToSender",
      "outputs": [
        {
          "internalType": "address",
          "name": "",
          "type": "address"
        }
      ],
      "stateMutability": "view",
      "type": "function"
    },
    {
      "inputs": [
        {
          "internalType": "address",
          "name": "from",
          "type": "address"
        },
        {
          "internalType": "address",
          "name": "to",
          "type": "address"
        },
        {
          "internalType": "uint256",
          "name": "tokenId",
          "type": "uint256"
        }
      ],
      "name": "safeTransferFrom",
      "outputs": [],
      "stateMutability": "nonpayable",
      "type": "function"
    },
    {
      "inputs": [
        {
          "internalType": "address",
          "name": "from",
          "type": "address"
        },
        {
          "internalType": "address",
          "name": "to",
          "type": "address"
        },
        {
          "internalType": "uint256",
          "name": "tokenId",
          "type": "uint256"
        },
        {
          "internalType": "bytes",
          "name": "data",
          "type": "bytes"
        }
      ],
      "name": "safeTransferFrom",
      "outputs": [],
      "stateMutability": "nonpayable",
      "type": "function"
    },
    {
      "inputs": [
        {
          "internalType": "address",
          "name": "operator",
          "type": "address"
        },
        {
          "internalType": "bool",
          "name": "approved",
          "type": "bool"
        }
      ],
      "name": "setApprovalForAll",
      "outputs": [],
      "stateMutability": "nonpayable",
      "type": "function"
    },
    {
      "inputs": [
        {
          "internalType": "bytes4",
          "name": "interfaceId",
          "type": "bytes4"
        }
      ],
      "name": "supportsInterface",
      "outputs": [
        {
          "internalType": "bool",
          "name": "",
          "type": "bool"
        }
      ],
      "stateMutability": "view",
      "type": "function"
    },
    {
      "inputs": [],
      "name": "symbol",
      "outputs": [
        {
          "internalType": "string",
          "name": "",
          "type": "string"
        }
      ],
      "stateMutability": "view",
      "type": "function"
    },
    {
      "inputs": [
        {
          "internalType": "uint256",
          "name": "tokenId",
          "type": "uint256"
        }
      ],
      "name": "tokenURI",
      "outputs": [
        {
          "internalType": "string",
          "name": "",
          "type": "string"
        }
      ],
      "stateMutability": "view",
      "type": "function"
    },
    {
      "inputs": [
        {
          "internalType": "address",
          "name": "from",
          "type": "address"
        },
        {
          "internalType": "address",
          "name": "to",
          "type": "address"
        },
        {
          "internalType": "uint256",
          "name": "tokenId",
          "type": "uint256"
        }
      ],
      "name": "transferFrom",
      "outputs": [],
      "stateMutability": "nonpayable",
      "type": "function"
    },
    {
      "inputs": [
        {
          "internalType": "address",
          "name": "newOwner",
          "type": "address"
        }
      ],
      "name": "transferOwnership",
      "outputs": [],
      "stateMutability": "nonpayable",
      "type": "function"
    },
    {
      "inputs": [],
      "name": "withdraw",
      "outputs": [],
      "stateMutability": "nonpayable",
      "type": "function"
    }
  ],
  "bytecode": "0x6101406040523480156200001257600080fd5b506040516200462f3803806200462f83398181016040528101906200003891906200074f565b6040518060400160405280600f81526020017f52616e646f6d2049504653204e465400000000000000000000000000000000008152506040518060400160405280600381526020017f52494e0000000000000000000000000000000000000000000000000000000000815250878073ffffffffffffffffffffffffffffffffffffffff1660808173ffffffffffffffffffffffffffffffffffffffff1681525050508160009081620000eb919062000a4b565b508060019081620000fd919062000a4b565b5050506200012062000114620001b660201b60201c565b620001be60201b60201c565b8573ffffffffffffffffffffffffffffffffffffffff1660a08173ffffffffffffffffffffffffffffffffffffffff16815250508467ffffffffffffffff1660c08167ffffffffffffffff16815250508360e081815250508263ffffffff166101008163ffffffff168152505081600a906003620001a092919062000284565b5080610120818152505050505050505062000b32565b600033905090565b6000600760009054906101000a900473ffffffffffffffffffffffffffffffffffffffff16905081600760006101000a81548173ffffffffffffffffffffffffffffffffffffffff021916908373ffffffffffffffffffffffffffffffffffffffff1602179055508173ffffffffffffffffffffffffffffffffffffffff168173ffffffffffffffffffffffffffffffffffffffff167f8be0079c531659141344cd1fd0a4f28419497f9722a3daafe3b4186f6b6457e060405160405180910390a35050565b828054828255906000526020600020908101928215620002d1579160200282015b82811115620002d0578251829081620002bf919062000a4b565b5091602001919060010190620002a5565b5b509050620002e09190620002e4565b5090565b5b80821115620003085760008181620002fe91906200030c565b50600101620002e5565b5090565b5080546200031a9062000844565b6000825580601f106200032e57506200034f565b601f0160209004906000526020600020908101906200034e919062000352565b5b50565b5b808211156200036d57600081600090555060010162000353565b5090565b6000604051905090565b600080fd5b600080fd5b600073ffffffffffffffffffffffffffffffffffffffff82169050919050565b6000620003b28262000385565b9050919050565b620003c481620003a5565b8114620003d057600080fd5b50565b600081519050620003e481620003b9565b92915050565b600067ffffffffffffffff82169050919050565b6200040981620003ea565b81146200041557600080fd5b50565b6000815190506200042981620003fe565b92915050565b6000819050919050565b62000444816200042f565b81146200045057600080fd5b50565b600081519050620004648162000439565b92915050565b600063ffffffff82169050919050565b62000485816200046a565b81146200049157600080fd5b50565b600081519050620004a5816200047a565b92915050565b600080fd5b6000601f19601f8301169050919050565b7f4e487b7100000000000000000000000000000000000000000000000000000000600052604160045260246000fd5b620004fb82620004b0565b810181811067ffffffffffffffff821117156200051d576200051c620004c1565b5b80604052505050565b60006200053262000371565b9050620005408282620004f0565b919050565b600067ffffffffffffffff821115620005635762000562620004c1565b5b602082029050919050565b600080fd5b600080fd5b600067ffffffffffffffff821115620005965762000595620004c1565b5b620005a182620004b0565b9050602081019050919050565b60005b83811015620005ce578082015181840152602081019050620005b1565b60008484015250505050565b6000620005f1620005eb8462000578565b62000526565b90508281526020810184848401111562000610576200060f62000573565b5b6200061d848285620005ae565b509392505050565b600082601f8301126200063d576200063c620004ab565b5b81516200064f848260208601620005da565b91505092915050565b60006200066f620006698462000545565b62000526565b905080602084028301858111156200068c576200068b6200056e565b5b835b81811015620006da57805167ffffffffffffffff811115620006b557620006b4620004ab565b5b808601620006c4898262000625565b855260208501945050506020810190506200068e565b5050509392505050565b600082601f830112620006fc57620006fb620004ab565b5b60036200070b84828562000658565b91505092915050565b6000819050919050565b620007298162000714565b81146200073557600080fd5b50565b60008151905062000749816200071e565b92915050565b60008060008060008060c087890312156200076f576200076e6200037b565b5b60006200077f89828a01620003d3565b96505060206200079289828a0162000418565b9550506040620007a589828a0162000453565b9450506060620007b889828a0162000494565b935050608087015167ffffffffffffffff811115620007dc57620007db62000380565b5b620007ea89828a01620006e4565b92505060a0620007fd89828a0162000738565b9150509295509295509295565b600081519050919050565b7f4e487b7100000000000000000000000000000000000000000000000000000000600052602260045260246000fd5b600060028204905060018216806200085d57607f821691505b60208210810362000873576200087262000815565b5b50919050565b60008190508160005260206000209050919050565b60006020601f8301049050919050565b600082821b905092915050565b600060088302620008dd7fffffffffffffffffffffffffffffffffffffffffffffffffffffffffffffffff826200089e565b620008e986836200089e565b95508019841693508086168417925050509392505050565b6000819050919050565b60006200092c62000926620009208462000714565b62000901565b62000714565b9050919050565b6000819050919050565b62000948836200090b565b62000960620009578262000933565b848454620008ab565b825550505050565b600090565b6200097762000968565b620009848184846200093d565b505050565b5b81811015620009ac57620009a06000826200096d565b6001810190506200098a565b5050565b601f821115620009fb57620009c58162000879565b620009d0846200088e565b81016020851015620009e0578190505b620009f8620009ef856200088e565b83018262000989565b50505b505050565b600082821c905092915050565b600062000a206000198460080262000a00565b1980831691505092915050565b600062000a3b838362000a0d565b9150826002028217905092915050565b62000a56826200080a565b67ffffffffffffffff81111562000a725762000a71620004c1565b5b62000a7e825462000844565b62000a8b828285620009b0565b600060209050601f83116001811462000ac3576000841562000aae578287015190505b62000aba858262000a2d565b86555062000b2a565b601f19841662000ad38662000879565b60005b8281101562000afd5784890151825560018201915060208501945060208101905062000ad6565b8683101562000b1d578489015162000b19601f89168262000a0d565b8355505b6001600288020188555050505b505050505050565b60805160a05160c05160e0516101005161012051613a9f62000b9060003960008181610d270152610f360152600061101001526000610fcc01526000610fed01526000610f900152600081816108d001526109240152613a9f6000f3fe6080604052600436106101665760003560e01c806370a08231116100d1578063a36f573b1161008a578063b88d4fde11610064578063b88d4fde14610531578063c87b56dd1461055a578063e985e9c514610597578063f2fde38b146105d457610166565b8063a36f573b14610499578063a51cccf3146104d6578063aa1524911461051357610166565b806370a082311461039b578063715018a6146103d85780637a5caab3146103ef5780638da5cb5b1461041a57806395d89b4114610445578063a22cb4651461047057610166565b80633af25975116101235780633af259751461028b5780633ccfd60b146102c857806342842e0e146102df5780635dacf5f4146103085780636352211e146103335780636e02007d1461037057610166565b806301ffc9a71461016b57806306fdde03146101a8578063081812fc146101d3578063095ea7b3146102105780631fe543e31461023957806323b872dd14610262575b600080fd5b34801561017757600080fd5b50610192600480360381019061018d91906123fc565b6105fd565b60405161019f9190612444565b60405180910390f35b3480156101b457600080fd5b506101bd6106df565b6040516101ca91906124ef565b60405180910390f35b3480156101df57600080fd5b506101fa60048036038101906101f59190612547565b610771565b60405161020791906125b5565b60405180910390f35b34801561021c57600080fd5b50610237600480360381019061023291906125fc565b6107b7565b005b34801561024557600080fd5b50610260600480360381019061025b9190612784565b6108ce565b005b34801561026e57600080fd5b50610289600480360381019061028491906127e0565b61098e565b005b34801561029757600080fd5b506102b260048036038101906102ad9190612547565b6109ee565b6040516102bf91906124ef565b60405180910390f35b3480156102d457600080fd5b506102dd610a9e565b005b3480156102eb57600080fd5b50610306600480360381019061030191906127e0565b610b52565b005b34801561031457600080fd5b5061031d610b72565b60405161032a91906128de565b60405180910390f35b34801561033f57600080fd5b5061035a60048036038101906103559190612547565b610b9d565b60405161036791906125b5565b60405180910390f35b34801561037c57600080fd5b50610385610c4e565b6040516103929190612908565b60405180910390f35b3480156103a757600080fd5b506103c260048036038101906103bd9190612923565b610c58565b6040516103cf9190612908565b60405180910390f35b3480156103e457600080fd5b506103ed610d0f565b005b3480156103fb57600080fd5b50610404610d23565b6040516104119190612908565b60405180910390f35b34801561042657600080fd5b5061042f610d4b565b60405161043c91906125b5565b60405180910390f35b34801561045157600080fd5b5061045a610d75565b60405161046791906124ef565b60405180910390f35b34801561047c57600080fd5b506104976004803603810190610492919061297c565b610e07565b005b3480156104a557600080fd5b506104c060048036038101906104bb9190612547565b610e1d565b6040516104cd91906125b5565b60405180910390f35b3480156104e257600080fd5b506104fd60048036038101906104f89190612547565b610e50565b60405161050a9190612a33565b60405180910390f35b61051b610f32565b6040516105289190612908565b60405180910390f35b34801561053d57600080fd5b5061055860048036038101906105539190612b03565b611123565b005b34801561056657600080fd5b50610581600480360381019061057c9190612547565b611185565b60405161058e91906124ef565b60405180910390f35b3480156105a357600080fd5b506105be60048036038101906105b99190612b86565b611297565b6040516105cb9190612444565b60405180910390f35b3480156105e057600080fd5b506105fb60048036038101906105f69190612923565b61132b565b005b60007f80ac58cd000000000000000000000000000000000000000000000000000000007bffffffffffffffffffffffffffffffffffffffffffffffffffffffff1916827bffffffffffffffffffffffffffffffffffffffffffffffffffffffff191614806106c857507f5b5e139f000000000000000000000000000000000000000000000000000000007bffffffffffffffffffffffffffffffffffffffffffffffffffffffff1916827bffffffffffffffffffffffffffffffffffffffffffffffffffffffff1916145b806106d857506106d7826113ae565b5b9050919050565b6060600080546106ee90612bf5565b80601f016020809104026020016040519081016040528092919081815260200182805461071a90612bf5565b80156107675780601f1061073c57610100808354040283529160200191610767565b820191906000526020600020905b81548152906001019060200180831161074a57829003601f168201915b5050505050905090565b600061077c82611418565b6004600083815260200190815260200160002060009054906101000a900473ffffffffffffffffffffffffffffffffffffffff169050919050565b60006107c282610b9d565b90508073ffffffffffffffffffffffffffffffffffffffff168373ffffffffffffffffffffffffffffffffffffffff1603610832576040517f08c379a000000000000000000000000000000000000000000000000000000000815260040161082990612c98565b60405180910390fd5b8073ffffffffffffffffffffffffffffffffffffffff16610851611463565b73ffffffffffffffffffffffffffffffffffffffff161480610880575061087f8161087a611463565b611297565b5b6108bf576040517f08c379a00000000000000000000000000000000000000000000000000000000081526004016108b690612d2a565b60405180910390fd5b6108c9838361146b565b505050565b7f000000000000000000000000000000000000000000000000000000000000000073ffffffffffffffffffffffffffffffffffffffff163373ffffffffffffffffffffffffffffffffffffffff161461098057337f00000000000000000000000000000000000000000000000000000000000000006040517f1cf993f4000000000000000000000000000000000000000000000000000000008152600401610977929190612d4a565b60405180910390fd5b61098a8282611524565b5050565b61099f610999611463565b826116a9565b6109de576040517f08c379a00000000000000000000000000000000000000000000000000000000081526004016109d590612de5565b60405180910390fd5b6109e983838361173e565b505050565b6060600a8281548110610a0457610a03612e05565b5b906000526020600020018054610a1990612bf5565b80601f0160208091040260200160405190810160405280929190818152602001828054610a4590612bf5565b8015610a925780601f10610a6757610100808354040283529160200191610a92565b820191906000526020600020905b815481529060010190602001808311610a7557829003601f168201915b50505050509050919050565b610aa66119a4565b600047905060003373ffffffffffffffffffffffffffffffffffffffff1682604051610ad190612e65565b60006040518083038185875af1925050503d8060008114610b0e576040519150601f19603f3d011682016040523d82523d6000602084013e610b13565b606091505b5050905080610b4e576040517fca7e25b700000000000000000000000000000000000000000000000000000000815260040160405180910390fd5b5050565b610b6d83838360405180602001604052806000815250611123565b505050565b610b7a61236e565b6040518060600160405280600a8152602001601e81526020016064815250905090565b6000806002600084815260200190815260200160002060009054906101000a900473ffffffffffffffffffffffffffffffffffffffff169050600073ffffffffffffffffffffffffffffffffffffffff168173ffffffffffffffffffffffffffffffffffffffff1603610c45576040517f08c379a0000000000000000000000000000000000000000000000000000000008152600401610c3c90612ec6565b60405180910390fd5b80915050919050565b6000600954905090565b60008073ffffffffffffffffffffffffffffffffffffffff168273ffffffffffffffffffffffffffffffffffffffff1603610cc8576040517f08c379a0000000000000000000000000000000000000000000000000000000008152600401610cbf90612f58565b60405180910390fd5b600360008373ffffffffffffffffffffffffffffffffffffffff1673ffffffffffffffffffffffffffffffffffffffff168152602001908152602001600020549050919050565b610d176119a4565b610d216000611a22565b565b60007f0000000000000000000000000000000000000000000000000000000000000000905090565b6000600760009054906101000a900473ffffffffffffffffffffffffffffffffffffffff16905090565b606060018054610d8490612bf5565b80601f0160208091040260200160405190810160405280929190818152602001828054610db090612bf5565b8015610dfd5780601f10610dd257610100808354040283529160200191610dfd565b820191906000526020600020905b815481529060010190602001808311610de057829003601f168201915b5050505050905090565b610e19610e12611463565b8383611ae8565b5050565b60086020528060005260406000206000915054906101000a900473ffffffffffffffffffffffffffffffffffffffff1681565b600080600090506000610e61610b72565b905060005b6003811015610efa57828510158015610ea05750818160038110610e8d57610e8c612e05565b5b602002015183610e9d9190612fa7565b85105b15610ec257806002811115610eb857610eb76129bc565b5b9350505050610f2d565b818160038110610ed557610ed4612e05565b5b602002015183610ee59190612fa7565b92508080610ef290612fdb565b915050610e66565b506040517f12806c9d00000000000000000000000000000000000000000000000000000000815260040160405180910390fd5b919050565b60007f0000000000000000000000000000000000000000000000000000000000000000341015610f8e576040517fb90f491000000000000000000000000000000000000000000000000000000000815260040160405180910390fd5b7f000000000000000000000000000000000000000000000000000000000000000073ffffffffffffffffffffffffffffffffffffffff16635d3b1d307f00000000000000000000000000000000000000000000000000000000000000007f000000000000000000000000000000000000000000000000000000000000000060037f000000000000000000000000000000000000000000000000000000000000000060016040518663ffffffff1660e01b815260040161105195949392919061309b565b6020604051808303816000875af1158015611070573d6000803e3d6000fd5b505050506040513d601f19601f820116820180604052508101906110949190613103565b9050336008600083815260200190815260200160002060006101000a81548173ffffffffffffffffffffffffffffffffffffffff021916908373ffffffffffffffffffffffffffffffffffffffff160217905550807ff873236e6cc0ecc5be1a9a35c95ee5b8d1ac4cc7bfef0cc5060391d6cc98e26b3360405161111891906125b5565b60405180910390a290565b61113461112e611463565b836116a9565b611173576040517f08c379a000000000000000000000000000000000000000000000000000000000815260040161116a90612de5565b60405180910390fd5b61117f84848484611c54565b50505050565b606061119082611418565b60006006600084815260200190815260200160002080546111b090612bf5565b80601f01602080910402602001604051908101604052809291908181526020018280546111dc90612bf5565b80156112295780601f106111fe57610100808354040283529160200191611229565b820191906000526020600020905b81548152906001019060200180831161120c57829003601f168201915b50505050509050600061123a611cb0565b9050600081510361124f578192505050611292565b60008251111561128457808260405160200161126c92919061316c565b60405160208183030381529060405292505050611292565b61128d84611cc7565b925050505b919050565b6000600560008473ffffffffffffffffffffffffffffffffffffffff1673ffffffffffffffffffffffffffffffffffffffff16815260200190815260200160002060008373ffffffffffffffffffffffffffffffffffffffff1673ffffffffffffffffffffffffffffffffffffffff16815260200190815260200160002060009054906101000a900460ff16905092915050565b6113336119a4565b600073ffffffffffffffffffffffffffffffffffffffff168173ffffffffffffffffffffffffffffffffffffffff16036113a2576040517f08c379a000000000000000000000000000000000000000000000000000000000815260040161139990613202565b60405180910390fd5b6113ab81611a22565b50565b60007f01ffc9a7000000000000000000000000000000000000000000000000000000007bffffffffffffffffffffffffffffffffffffffffffffffffffffffff1916827bffffffffffffffffffffffffffffffffffffffffffffffffffffffff1916149050919050565b61142181611d2f565b611460576040517f08c379a000000000000000000000000000000000000000000000000000000000815260040161145790612ec6565b60405180910390fd5b50565b600033905090565b816004600083815260200190815260200160002060006101000a81548173ffffffffffffffffffffffffffffffffffffffff021916908373ffffffffffffffffffffffffffffffffffffffff160217905550808273ffffffffffffffffffffffffffffffffffffffff166114de83610b9d565b73ffffffffffffffffffffffffffffffffffffffff167f8c5be1e5ebec7d5bd14f71427d1e84f3dd0314c0f7b2291e5b200ac8c7c3b92560405160405180910390a45050565b60006008600084815260200190815260200160002060009054906101000a900473ffffffffffffffffffffffffffffffffffffffff16905060006009549050600060648460008151811061157b5761157a612e05565b5b602002602001015161158d9190613251565b9050600061159a82610e50565b90506115a68484611d9b565b61166883600a8360028111156115bf576115be6129bc565b5b815481106115d0576115cf612e05565b5b9060005260206000200180546115e590612bf5565b80601f016020809104026020016040519081016040528092919081815260200182805461161190612bf5565b801561165e5780601f106116335761010080835404028352916020019161165e565b820191906000526020600020905b81548152906001019060200180831161164157829003601f168201915b5050505050611db9565b7f8a269f26b688e110e9cbd887d163dab35cae678fa353a0292de532c0cac1ecdc8185604051611699929190613282565b60405180910390a1505050505050565b6000806116b583610b9d565b90508073ffffffffffffffffffffffffffffffffffffffff168473ffffffffffffffffffffffffffffffffffffffff1614806116f757506116f68185611297565b5b8061173557508373ffffffffffffffffffffffffffffffffffffffff1661171d84610771565b73ffffffffffffffffffffffffffffffffffffffff16145b91505092915050565b8273ffffffffffffffffffffffffffffffffffffffff1661175e82610b9d565b73ffffffffffffffffffffffffffffffffffffffff16146117b4576040517f08c379a00000000000000000000000000000000000000000000000000000000081526004016117ab9061331d565b60405180910390fd5b600073ffffffffffffffffffffffffffffffffffffffff168273ffffffffffffffffffffffffffffffffffffffff1603611823576040517f08c379a000000000000000000000000000000000000000000000000000000000815260040161181a906133af565b60405180910390fd5b61182e838383611e26565b61183960008261146b565b6001600360008573ffffffffffffffffffffffffffffffffffffffff1673ffffffffffffffffffffffffffffffffffffffff168152602001908152602001600020600082825461188991906133cf565b925050819055506001600360008473ffffffffffffffffffffffffffffffffffffffff1673ffffffffffffffffffffffffffffffffffffffff16815260200190815260200160002060008282546118e09190612fa7565b92505081905550816002600083815260200190815260200160002060006101000a81548173ffffffffffffffffffffffffffffffffffffffff021916908373ffffffffffffffffffffffffffffffffffffffff160217905550808273ffffffffffffffffffffffffffffffffffffffff168473ffffffffffffffffffffffffffffffffffffffff167fddf252ad1be2c89b69c2b068fc378daa952ba7f163c4a11628f55a4df523b3ef60405160405180910390a461199f838383611e2b565b505050565b6119ac611463565b73ffffffffffffffffffffffffffffffffffffffff166119ca610d4b565b73ffffffffffffffffffffffffffffffffffffffff1614611a20576040517f08c379a0000000000000000000000000000000000000000000000000000000008152600401611a179061344f565b60405180910390fd5b565b6000600760009054906101000a900473ffffffffffffffffffffffffffffffffffffffff16905081600760006101000a81548173ffffffffffffffffffffffffffffffffffffffff021916908373ffffffffffffffffffffffffffffffffffffffff1602179055508173ffffffffffffffffffffffffffffffffffffffff168173ffffffffffffffffffffffffffffffffffffffff167f8be0079c531659141344cd1fd0a4f28419497f9722a3daafe3b4186f6b6457e060405160405180910390a35050565b8173ffffffffffffffffffffffffffffffffffffffff168373ffffffffffffffffffffffffffffffffffffffff1603611b56576040517f08c379a0000000000000000000000000000000000000000000000000000000008152600401611b4d906134bb565b60405180910390fd5b80600560008573ffffffffffffffffffffffffffffffffffffffff1673ffffffffffffffffffffffffffffffffffffffff16815260200190815260200160002060008473ffffffffffffffffffffffffffffffffffffffff1673ffffffffffffffffffffffffffffffffffffffff16815260200190815260200160002060006101000a81548160ff0219169083151502179055508173ffffffffffffffffffffffffffffffffffffffff168373ffffffffffffffffffffffffffffffffffffffff167f17307eab39ab6107e8899845ad3d59bd9653f200f220920489ca2b5937696c3183604051611c479190612444565b60405180910390a3505050565b611c5f84848461173e565b611c6b84848484611e30565b611caa576040517f08c379a0000000000000000000000000000000000000000000000000000000008152600401611ca19061354d565b60405180910390fd5b50505050565b606060405180602001604052806000815250905090565b6060611cd282611418565b6000611cdc611cb0565b90506000815111611cfc5760405180602001604052806000815250611d27565b80611d0684611fb7565b604051602001611d1792919061316c565b6040516020818303038152906040525b915050919050565b60008073ffffffffffffffffffffffffffffffffffffffff166002600084815260200190815260200160002060009054906101000a900473ffffffffffffffffffffffffffffffffffffffff1673ffffffffffffffffffffffffffffffffffffffff1614159050919050565b611db5828260405180602001604052806000815250612117565b5050565b611dc282611d2f565b611e01576040517f08c379a0000000000000000000000000000000000000000000000000000000008152600401611df8906135df565b60405180910390fd5b80600660008481526020019081526020016000209081611e2191906137ab565b505050565b505050565b505050565b6000611e518473ffffffffffffffffffffffffffffffffffffffff16612172565b15611faa578373ffffffffffffffffffffffffffffffffffffffff1663150b7a02611e7a611463565b8786866040518563ffffffff1660e01b8152600401611e9c94939291906138d2565b6020604051808303816000875af1925050508015611ed857506040513d601f19601f82011682018060405250810190611ed59190613933565b60015b611f5a573d8060008114611f08576040519150601f19603f3d011682016040523d82523d6000602084013e611f0d565b606091505b506000815103611f52576040517f08c379a0000000000000000000000000000000000000000000000000000000008152600401611f499061354d565b60405180910390fd5b805181602001fd5b63150b7a0260e01b7bffffffffffffffffffffffffffffffffffffffffffffffffffffffff1916817bffffffffffffffffffffffffffffffffffffffffffffffffffffffff191614915050611faf565b600190505b949350505050565b606060008203611ffe576040518060400160405280600181526020017f30000000000000000000000000000000000000000000000000000000000000008152509050612112565b600082905060005b6000821461203057808061201990612fdb565b915050600a826120299190613960565b9150612006565b60008167ffffffffffffffff81111561204c5761204b612641565b5b6040519080825280601f01601f19166020018201604052801561207e5781602001600182028036833780820191505090505b5090505b6000851461210b5760018261209791906133cf565b9150600a856120a69190613251565b60306120b29190612fa7565b60f81b8183815181106120c8576120c7612e05565b5b60200101907effffffffffffffffffffffffffffffffffffffffffffffffffffffffffffff1916908160001a905350600a856121049190613960565b9450612082565b8093505050505b919050565b6121218383612195565b61212e6000848484611e30565b61216d576040517f08c379a00000000000000000000000000000000000000000000000000000000081526004016121649061354d565b60405180910390fd5b505050565b6000808273ffffffffffffffffffffffffffffffffffffffff163b119050919050565b600073ffffffffffffffffffffffffffffffffffffffff168273ffffffffffffffffffffffffffffffffffffffff1603612204576040517f08c379a00000000000000000000000000000000000000000000000000000000081526004016121fb906139dd565b60405180910390fd5b61220d81611d2f565b1561224d576040517f08c379a000000000000000000000000000000000000000000000000000000000815260040161224490613a49565b60405180910390fd5b61225960008383611e26565b6001600360008473ffffffffffffffffffffffffffffffffffffffff1673ffffffffffffffffffffffffffffffffffffffff16815260200190815260200160002060008282546122a99190612fa7565b92505081905550816002600083815260200190815260200160002060006101000a81548173ffffffffffffffffffffffffffffffffffffffff021916908373ffffffffffffffffffffffffffffffffffffffff160217905550808273ffffffffffffffffffffffffffffffffffffffff16600073ffffffffffffffffffffffffffffffffffffffff167fddf252ad1be2c89b69c2b068fc378daa952ba7f163c4a11628f55a4df523b3ef60405160405180910390a461236a60008383611e2b565b5050565b6040518060600160405280600390602082028036833780820191505090505090565b6000604051905090565b600080fd5b600080fd5b60007fffffffff0000000000000000000000000000000000000000000000000000000082169050919050565b6123d9816123a4565b81146123e457600080fd5b50565b6000813590506123f6816123d0565b92915050565b6000602082840312156124125761241161239a565b5b6000612420848285016123e7565b91505092915050565b60008115159050919050565b61243e81612429565b82525050565b60006020820190506124596000830184612435565b92915050565b600081519050919050565b600082825260208201905092915050565b60005b8381101561249957808201518184015260208101905061247e565b60008484015250505050565b6000601f19601f8301169050919050565b60006124c18261245f565b6124cb818561246a565b93506124db81856020860161247b565b6124e4816124a5565b840191505092915050565b6000602082019050818103600083015261250981846124b6565b905092915050565b6000819050919050565b61252481612511565b811461252f57600080fd5b50565b6000813590506125418161251b565b92915050565b60006020828403121561255d5761255c61239a565b5b600061256b84828501612532565b91505092915050565b600073ffffffffffffffffffffffffffffffffffffffff82169050919050565b600061259f82612574565b9050919050565b6125af81612594565b82525050565b60006020820190506125ca60008301846125a6565b92915050565b6125d981612594565b81146125e457600080fd5b50565b6000813590506125f6816125d0565b92915050565b600080604083850312156126135761261261239a565b5b6000612621858286016125e7565b925050602061263285828601612532565b9150509250929050565b600080fd5b7f4e487b7100000000000000000000000000000000000000000000000000000000600052604160045260246000fd5b612679826124a5565b810181811067ffffffffffffffff8211171561269857612697612641565b5b80604052505050565b60006126ab612390565b90506126b78282612670565b919050565b600067ffffffffffffffff8211156126d7576126d6612641565b5b602082029050602081019050919050565b600080fd5b60006127006126fb846126bc565b6126a1565b90508083825260208201905060208402830185811115612723576127226126e8565b5b835b8181101561274c57806127388882612532565b845260208401935050602081019050612725565b5050509392505050565b600082601f83011261276b5761276a61263c565b5b813561277b8482602086016126ed565b91505092915050565b6000806040838503121561279b5761279a61239a565b5b60006127a985828601612532565b925050602083013567ffffffffffffffff8111156127ca576127c961239f565b5b6127d685828601612756565b9150509250929050565b6000806000606084860312156127f9576127f861239a565b5b6000612807868287016125e7565b9350506020612818868287016125e7565b925050604061282986828701612532565b9150509250925092565b600060039050919050565b600081905092915050565b6000819050919050565b61285c81612511565b82525050565b600061286e8383612853565b60208301905092915050565b6000602082019050919050565b61289081612833565b61289a818461283e565b92506128a582612849565b8060005b838110156128d65781516128bd8782612862565b96506128c88361287a565b9250506001810190506128a9565b505050505050565b60006060820190506128f36000830184612887565b92915050565b61290281612511565b82525050565b600060208201905061291d60008301846128f9565b92915050565b6000602082840312156129395761293861239a565b5b6000612947848285016125e7565b91505092915050565b61295981612429565b811461296457600080fd5b50565b60008135905061297681612950565b92915050565b600080604083850312156129935761299261239a565b5b60006129a1858286016125e7565b92505060206129b285828601612967565b9150509250929050565b7f4e487b7100000000000000000000000000000000000000000000000000000000600052602160045260246000fd5b600381106129fc576129fb6129bc565b5b50565b6000819050612a0d826129eb565b919050565b6000612a1d826129ff565b9050919050565b612a2d81612a12565b82525050565b6000602082019050612a486000830184612a24565b92915050565b600080fd5b600067ffffffffffffffff821115612a6e57612a6d612641565b5b612a77826124a5565b9050602081019050919050565b82818337600083830152505050565b6000612aa6612aa184612a53565b6126a1565b905082815260208101848484011115612ac257612ac1612a4e565b5b612acd848285612a84565b509392505050565b600082601f830112612aea57612ae961263c565b5b8135612afa848260208601612a93565b91505092915050565b60008060008060808587031215612b1d57612b1c61239a565b5b6000612b2b878288016125e7565b9450506020612b3c878288016125e7565b9350506040612b4d87828801612532565b925050606085013567ffffffffffffffff811115612b6e57612b6d61239f565b5b612b7a87828801612ad5565b91505092959194509250565b60008060408385031215612b9d57612b9c61239a565b5b6000612bab858286016125e7565b9250506020612bbc858286016125e7565b9150509250929050565b7f4e487b7100000000000000000000000000000000000000000000000000000000600052602260045260246000fd5b60006002820490506001821680612c0d57607f821691505b602082108103612c2057612c1f612bc6565b5b50919050565b7f4552433732313a20617070726f76616c20746f2063757272656e74206f776e6560008201527f7200000000000000000000000000000000000000000000000000000000000000602082015250565b6000612c8260218361246a565b9150612c8d82612c26565b604082019050919050565b60006020820190508181036000830152612cb181612c75565b9050919050565b7f4552433732313a20617070726f76652063616c6c6572206973206e6f7420746f60008201527f6b656e206f776e6572206e6f7220617070726f76656420666f7220616c6c0000602082015250565b6000612d14603e8361246a565b9150612d1f82612cb8565b604082019050919050565b60006020820190508181036000830152612d4381612d07565b9050919050565b6000604082019050612d5f60008301856125a6565b612d6c60208301846125a6565b9392505050565b7f4552433732313a2063616c6c6572206973206e6f7420746f6b656e206f776e6560008201527f72206e6f7220617070726f766564000000000000000000000000000000000000602082015250565b6000612dcf602e8361246a565b9150612dda82612d73565b604082019050919050565b60006020820190508181036000830152612dfe81612dc2565b9050919050565b7f4e487b7100000000000000000000000000000000000000000000000000000000600052603260045260246000fd5b600081905092915050565b50565b6000612e4f600083612e34565b9150612e5a82612e3f565b600082019050919050565b6000612e7082612e42565b9150819050919050565b7f4552433732313a20696e76616c696420746f6b656e2049440000000000000000600082015250565b6000612eb060188361246a565b9150612ebb82612e7a565b602082019050919050565b60006020820190508181036000830152612edf81612ea3565b9050919050565b7f4552433732313a2061646472657373207a65726f206973206e6f74206120766160008201527f6c6964206f776e65720000000000000000000000000000000000000000000000602082015250565b6000612f4260298361246a565b9150612f4d82612ee6565b604082019050919050565b60006020820190508181036000830152612f7181612f35565b9050919050565b7f4e487b7100000000000000000000000000000000000000000000000000000000600052601160045260246000fd5b6000612fb282612511565b9150612fbd83612511565b9250828201905080821115612fd557612fd4612f78565b5b92915050565b6000612fe682612511565b91507fffffffffffffffffffffffffffffffffffffffffffffffffffffffffffffffff820361301857613017612f78565b5b600182019050919050565b6000819050919050565b61303681613023565b82525050565b600067ffffffffffffffff82169050919050565b6130598161303c565b82525050565b600061ffff82169050919050565b6130768161305f565b82525050565b600063ffffffff82169050919050565b6130958161307c565b82525050565b600060a0820190506130b0600083018861302d565b6130bd6020830187613050565b6130ca604083018661306d565b6130d7606083018561308c565b6130e4608083018461308c565b9695505050505050565b6000815190506130fd8161251b565b92915050565b6000602082840312156131195761311861239a565b5b6000613127848285016130ee565b91505092915050565b600081905092915050565b60006131468261245f565b6131508185613130565b935061316081856020860161247b565b80840191505092915050565b6000613178828561313b565b9150613184828461313b565b91508190509392505050565b7f4f776e61626c653a206e6577206f776e657220697320746865207a65726f206160008201527f6464726573730000000000000000000000000000000000000000000000000000602082015250565b60006131ec60268361246a565b91506131f782613190565b604082019050919050565b6000602082019050818103600083015261321b816131df565b9050919050565b7f4e487b7100000000000000000000000000000000000000000000000000000000600052601260045260246000fd5b600061325c82612511565b915061326783612511565b92508261327757613276613222565b5b828206905092915050565b60006040820190506132976000830185612a24565b6132a460208301846125a6565b9392505050565b7f4552433732313a207472616e736665722066726f6d20696e636f72726563742060008201527f6f776e6572000000000000000000000000000000000000000000000000000000602082015250565b600061330760258361246a565b9150613312826132ab565b604082019050919050565b60006020820190508181036000830152613336816132fa565b9050919050565b7f4552433732313a207472616e7366657220746f20746865207a65726f2061646460008201527f7265737300000000000000000000000000000000000000000000000000000000602082015250565b600061339960248361246a565b91506133a48261333d565b604082019050919050565b600060208201905081810360008301526133c88161338c565b9050919050565b60006133da82612511565b91506133e583612511565b92508282039050818111156133fd576133fc612f78565b5b92915050565b7f4f776e61626c653a2063616c6c6572206973206e6f7420746865206f776e6572600082015250565b600061343960208361246a565b915061344482613403565b602082019050919050565b600060208201905081810360008301526134688161342c565b9050919050565b7f4552433732313a20617070726f766520746f2063616c6c657200000000000000600082015250565b60006134a560198361246a565b91506134b08261346f565b602082019050919050565b600060208201905081810360008301526134d481613498565b9050919050565b7f4552433732313a207472616e7366657220746f206e6f6e20455243373231526560008201527f63656976657220696d706c656d656e7465720000000000000000000000000000602082015250565b600061353760328361246a565b9150613542826134db565b604082019050919050565b600060208201905081810360008301526135668161352a565b9050919050565b7f45524337323155524953746f726167653a2055524920736574206f66206e6f6e60008201527f6578697374656e7420746f6b656e000000000000000000000000000000000000602082015250565b60006135c9602e8361246a565b91506135d48261356d565b604082019050919050565b600060208201905081810360008301526135f8816135bc565b9050919050565b60008190508160005260206000209050919050565b60006020601f8301049050919050565b600082821b905092915050565b6000600883026136617fffffffffffffffffffffffffffffffffffffffffffffffffffffffffffffffff82613624565b61366b8683613624565b95508019841693508086168417925050509392505050565b6000819050919050565b60006136a86136a361369e84612511565b613683565b612511565b9050919050565b6000819050919050565b6136c28361368d565b6136d66136ce826136af565b848454613631565b825550505050565b600090565b6136eb6136de565b6136f68184846136b9565b505050565b5b8181101561371a5761370f6000826136e3565b6001810190506136fc565b5050565b601f82111561375f57613730816135ff565b61373984613614565b81016020851015613748578190505b61375c61375485613614565b8301826136fb565b50505b505050565b600082821c905092915050565b600061378260001984600802613764565b1980831691505092915050565b600061379b8383613771565b9150826002028217905092915050565b6137b48261245f565b67ffffffffffffffff8111156137cd576137cc612641565b5b6137d78254612bf5565b6137e282828561371e565b600060209050601f8311600181146138155760008415613803578287015190505b61380d858261378f565b865550613875565b601f198416613823866135ff565b60005b8281101561384b57848901518255600182019150602085019450602081019050613826565b868310156138685784890151613864601f891682613771565b8355505b6001600288020188555050505b505050505050565b600081519050919050565b600082825260208201905092915050565b60006138a48261387d565b6138ae8185613888565b93506138be81856020860161247b565b6138c7816124a5565b840191505092915050565b60006080820190506138e760008301876125a6565b6138f460208301866125a6565b61390160408301856128f9565b81810360608301526139138184613899565b905095945050505050565b60008151905061392d816123d0565b92915050565b6000602082840312156139495761394861239a565b5b60006139578482850161391e565b91505092915050565b600061396b82612511565b915061397683612511565b92508261398657613985613222565b5b828204905092915050565b7f4552433732313a206d696e7420746f20746865207a65726f2061646472657373600082015250565b60006139c760208361246a565b91506139d282613991565b602082019050919050565b600060208201905081810360008301526139f6816139ba565b9050919050565b7f4552433732313a20746f6b656e20616c7265616479206d696e74656400000000600082015250565b6000613a33601c8361246a565b9150613a3e826139fd565b602082019050919050565b60006020820190508181036000830152613a6281613a26565b905091905056fea2646970667358221220fb617f67279b40ddb1fd34fb8871042f61c13b1450274d54ffae1ef73dea914064736f6c63430008110033",
  "linkReferences": {},
  "deployedLinkReferences": {}
}